:100000006F30907A1300000013000000130000000E
:100010001300000013000000130000001300000094
:100020001300000013000000130000001300000084
:08003000130000007300100032
:100038000000000000000000A8020000AC02000060
:1000480000000000EE3E000000000000000000007C
:10005800F03E0000F23E000000000000000000003A
:10006800F43E000000000000F63E00000000000022
:10007800F83E0000FA3E0000FC3E0000FE3E000094
:10008800003F0000023F00000C04000020040000B4
:10009800460400005C040000940400000E3F0000C9
:1000A800103F0000123F0000143F0000163F000000
:1000B800183F00001A3F00001C3F00001E3F0000D0
:1000C800203F0000223F0000243F0000CE04000033
:1000D800283F0000D40500002C3F00002E3F000000
:1000E800040600001E06000044060000363F00001B
:1000F800383F00003A3F00003C3F00003E3F000010
:10010800403F0000B0020000DA02000004030000D3
:10011800520500004A3F00004C3F00004E3F0000DF
:10012800D0060000523F0000543F0000563F000038
:10013800583F00005A3F00006A0600005E3F00007A
:100148002E0300005803000090060000AA060000D5
:10015800683F00006A3F00006C3F00006E3F0000EF
:10016800703F0000723F0000743F0000763F0000BF
:10017800783F00007A3F00007C3F0000BC4C000044
:10018800803F0000823F0000EC0300007A0300007B
:10019800A4030000CE0300008C3F0000F606000018
:1001A800903F0000923F0000943F00001C070000B1
:1001B800983F00009A3F00009C3F00009E3F0000CF
:1001C800A03F0000A23F0000A43F0000A63F00009F
:1001D8000000000000000000000000000000000017
:1001E8000000000000000000000000000000000007
:0801F8000000000000000000FF
:100200003D432A876373C3029377F700BDEFADE5E3
:10021000937606FF3D8ABA960CC34CC30CC74CC7F5
:100220004107E36BD7FE11E28280B306C3408A0622
:100230009702000096966780A6002307B700A306E2
:10024000B7002306B700A305B7002305B700A30432
:10025000B7002304B700A303B7002303B700A3022A
:10026000B7002302B700A301B7002301B700A30022
:10027000B7002300B700828093F5F50F93968500B1
:10028000D58D93960501D58D61B79396270097027A
:10029000000096968682E78086FA9680C1171D8FA9
:1002A0003E96E374C3F8A5B7730020307300203086
:1002B000411122C637440140930550521305048072
:1002C000EF40701219C59305505213050480EF409A
:1002D000D0153244410173002030411122C6374409
:1002E00000409305505213050440EF40D00F19C54C
:1002F0009305505213050440EF403013324441013E
:1003000073002030411122C63754004093055052EB
:1003100013050480EF40300D19C5930550521305A5
:100320000480EF40901032444101730020304111AD
:1003300022C63754004093055052130504C0EF40C5
:10034000900A19C593055052130504C0EF40F00DF3
:10035000324441017300203093055052375500401C
:10036000EF40700809C9EF0090639305505237556C
:100370000040EF40900B73002030411122C637241B
:1003800000409305505213050480EF40D00519C575
:100390009305505213050480EF4030093244410167
:1003A00073002030411122C637240040930550527B
:1003B000130504C0EF40300319C5930550521305CF
:1003C00004C0EF4090063244410173002030930591
:1003D000505237250040EF40100119C59305505287
:1003E00037250040EF40700473002030B7070550F8
:1003F00003C70701118B09CB03C707011377B70F99
:100400002388E700EF00B05F730020300545EF3030
:10041000905685476314F500EF30D05773002030B5
:100420000945EF3050558547631DF5000945EF300C
:100430007056130520088145EF10B01B5145EF1091
:100440002054730020301145EF30F052854763157A
:10045000F5001145EF301054730020302145EF3086
:10046000905185476316F5021305800CEF1040513B
:100470002145EF30305237960000B7670020130651
:10048000C614D1451305800C238507B4EF00D010A6
:10049000730020304111414522C6EF30D04D8547D1
:1004A0006313F5022A844145EF30D04E37960000A1
:1004B000B767002013064615D1451305800C238528
:1004C00087B4EF00700D32444101730020304111B8
:1004D0001305000222C6EF30104A8547631BF50062
:1004E0002A8413050002EF30F04AB7670020A38585
:1004F00087B413050004EF30104885476316F500F4
:1005000013050004EF30104913050008EF30B04622
:1005100085476316F50013050008EF30B047130553
:100520000010EF30504585476316F50013050010A5
:10053000EF30504613050020EF30F0438547631637
:10054000F50013050020EF30F04432444101730000
:10055000203041111305004022C6EF30D0418547BD
:100560006316F50013050040EF30D0420564130513
:100570000480EF30504085476316F5001305048072
:10058000EF3050410565EF30103F85476315F500AA
:100590000565EF3030400965EF30F03D8547631564
:1005A000F5000965EF30103F1165EF30D03C85470D
:1005B0006315F5001165EF30F03D2165EF30B03B7C
:1005C00085476315F5002165EF30D03C3244410189
:1005D00073002030411122C6373401408545130590
:1005E00004C0EF40804919C983A7C1908545130510
:1005F00004C0850723A6F190EF40E0493244410151
:1006000073002030854537050040EF40004711C595
:10061000854537050040EF40004873002030411108
:1006200022C637040040854513050440EF40E044EE
:1006300011C5854513050440EF40E04532444101B2
:1006400073002030411122C6371400408545130540
:100650000480EF40804211C5854513050480EF40BA
:1006600080433244410173002030411122C63714C7
:1006700000408545130504C0EF40204011C5854565
:10068000130504C0EF402041324441017300203083
:10069000854537150040EF40403E11C5854537156B
:1006A0000040EF40403F73002030411122C6371414
:1006B0000040854513050440EF40203C11C58545A9
:1006C00013050440EF40203D3244410173002030C7
:1006D000411122C637340140854513050440EF40DF
:1006E000C03911C5854513050440EF40C03A324476
:1006F000410173002030411122C637540140854525
:10070000130504C0EF40603711C58545130504C0CB
:10071000EF40603832444101730020308545375541
:100720000140EF40803511C5854537550140EF4008
:10073000803673002030397106DE22DC26DA4AD892
:100740004ED652D456D25AD05ECE62CC66CA6AC851
:10075000EF209071EF30804EEF00206EEF10C0015F
:10076000379600001306C61581450145EF00C062AB
:100770003796000013064616D1450145312DF16527
:100780009306100613060006938505201545EF20F5
:100790008042014685451545EF20600EEF00502848
:1007A00013054006EF10C01DB7670020238C07B467
:1007B000B7670020238607B44146B767002093053A
:1007C0003004214537640020A38E07B2A30504B48A
:1007D00023A60190EF10404B41469305400441454C
:1007E000EF10804A41469305500413050002EF10B4
:1007F000A0498347B4B4638A0714B7690020B76A75
:100800000020376D0020370C00209389C9B9B76BE1
:100810000020EF10A00423A4AAD89307001913897D
:10082000018563E9A712832709006395071237350D
:1008300001408545130505C0EF40001403A68AD882
:10084000854795469305C0031305800C2320F900C6
:1008500069230347B4B485476317F704EF20B07EDC
:100860001305C012EF10C0110145EF20F0731305FE
:10087000803EEF10E0100D45EF2010731305803E11
:10088000EF1000100969EF20107C930589B5014530
:10089000A30504B441220545930589B5A52A13058E
:1008A000C012EF10E00D83C7418589C71305CDD86D
:1008B000EF2050501305CC31EF30C00303A68186E2
:1008C000994681451305800C092B83C7A90513069A
:1008D000E00599461D8E930580021305800CF529CD
:1008E000EF30404D83A6818699476391F60A814592
:1008F00001450D2281450545312A0565130505771A
:10090000EF100008096493058464054521228145A0
:10091000014509221305A00AEF1080061305A00A5D
:10092000EF100006930584B50145ED20930584B5CD
:100930000545CD2013050032EF10800481450145A7
:10094000D12881450545F92001A01305803EEF100F
:10095000200345B5032709008547E31CF7EE9307FD
:10096000401FE3F8A7EE373501408145130505C068
:10097000EF40800003A6C19099469305C00313057C
:10098000800CA12989472320F900E1B503A58BB983
:1009900036C6EF70001DB24637B60020B7B500204E
:1009A0001306465C9385055BEF30204B238A018458
:1009B0008DB5411106C622C415E537C40200A14613
:1009C0000146930504F213053020EF105017A1469D
:1009D0000146930504F2130520202244B240410150
:1009E0006F10F01585476313F50237C40200814686
:1009F0000146930504F213051010EF1050148146C0
:100A00000146930504F213050010C1BFB240224411
:100A1000410182800111896722CC4EC69387876489
:100A200006CE26CA4AC8AA893E8463E3B7002E844C
:100A300083A7018842044180A1C3376700200327B0
:100A400047B58A07BA9783A707E70547639FE70477
:100A5000B767002003C7A7B43E8919E3EF20706091
:100A60000347A9B485476314F700EF20106183A7FB
:100A70000188850723A0F18863960904A2851305E0
:100A80003020EF10A041930540061305800C9946D5
:100A90002286A1268145130520206244F240D244DB
:100AA0004249B24905616F10603F09476395E7000D
:100AB000EF2070596DBF0D47E39BE7FAFD5723A068
:100AC000F18875B78547639FF90603A7818691472B
:100AD000631AF704814513053020EF10203C81454F
:100AE00013051010EF10803B13054006EF0050690E
:100AF0008965938505F413053020EF10203A814570
:100B000013051010EF1080391305B009EF0050677E
:100B10006244F240D2444249B2491305B00905612A
:100B20006F001066A28513051010EF102037930593
:100B300080071305800C99462286452481451305BC
:100B40000010A1BFF2406244D2444249B24905615B
:100B500082804111A96722C403A4C78026C24AC06B
:100B600006C6C14404C844C813090008232A240146
:100B7000AA850545EF10903C2328240104C844C8E9
:100B8000B2402244924402494101828083A74180BD
:100B9000011122CC26CA4AC84EC606CEAA89AE8406
:100BA00032893684A1EF1305A00265379385490386
:100BB000C205C1810545EF10303A93054903C205CE
:100BC000C1810545EF1050391305B002593793859F
:100BD0008402C205C1810545EF10103893058402D7
:100BE000C2050545C181EF1030376244F240D2445E
:100BF0004249B2491305C0020561A1BF0547639F81
:100C0000E7001305A002B13793855903C205C181DE
:100C10000545EF1070349305590355B793098502C4
:100C200013098602C2094209094793D909011359D8
:100C300009011305A0026398E702213FCE8505450F
:100C4000EF109031CA850545EF1010311305B00241
:100C5000093793855403C205C1810545EF10D02F94
:100C600093055403B5BFF535CE850545EF10D02E5D
:100C7000CA850545EF10502E1305B002D93D938566
:100C80004403C205C1810545EF10102D93054403AF
:100C900081BF03C6A18083C6B180411122C4330441
:100CA000D602FD167D16C2064206C18241828145EA
:100CB000014526C206C6B7040020C93D11E4B24072
:100CC000224492444101828083D5841805457D14D5
:100CD000EF109028E5B723A2A18085461387A18055
:100CE0009387B18063EAA600930670F82300D700CB
:100CF00041572380E7008280C1562300D7001307A5
:100D000070F8C5BF79714ECEA567930975001206BC
:100D100093870721C20922D44AD056CA5AC85EC650
:100D200062C466C206D626D252CCAA8AAE8B3304DF
:100D3000F600014993D90901370C0020414BB386D5
:100D40002B01C206C1824E86B68556858135034A7F
:100D500004E0A14493771A008DCF83D58180FD14E0
:100D6000054593F4F40FEF10301F135A1A00FDF0ED
:100D700005090504E31569FDB25022549254025945
:100D8000F249624AD24A424BB24B224C924C4561E4
:100D9000828083558C18E1B7011122CC26CA4AC83B
:100DA0004EC606CE2A89AE89B2840144B387840038
:100DB0000386070001EAF2406244D2444249B24944
:100DC00005618280131534004A9542050504CE85DD
:100DD00041814204053F4180D1BF797122D426D29E
:100DE0004AD0AA842E893284930500021386160005
:100DF000480836C606D602CA02CC02CEEFF04FC073
:100E0000B246A54763F8D702A28548084D2350088B
:100E1000CA8526855137B2502254925402594561F1
:100E20008280B387E702FD1693F6F60FFDFA33646E
:100E3000F402D9BF85472947D5BF03A84183411193
:100E40001307F00F81479306F00F13062002930556
:100E50000002054506C622C426C24AC0EF10E07D46
:100E6000C1460146854513057006EF00D06AC146AC
:100E70000146854513057002EF00F069C146014641
:100E8000854513054006EF0010698545C1460546B6
:100E900013050006EF0030681384418008401309F1
:100EA0000008153DA96783A447801305800C23AA79
:100EB0002401EF00F02C1305400623A82401EF00C5
:100EC000302C13056003713113054006EF00502BE1
:100ED0001C40814589CF05479305000C6389E700D5
:100EE0000947930500076384E7009305000A054559
:100EF000EF10D0041305A003A93995450545EF105F
:100F0000F0031305200BB131B1450545EF10100377
:100F1000B1450545EF10900281450545EF101002DF
:100F2000930530030545EF10700193053003054527
:100F3000EF10D0001305700B2939930550030545B8
:100F4000EF10C07F1305B00B2931930570030545E1
:100F5000EF10C07E1305000CED3E9305C002054561
:100F6000EF10C07D1305200CED3685450545EF10CB
:100F7000E07C1305300CF13EC9450545EF10007CBF
:100F80001305400CF936930500020545EF10007B70
:100F90001305600C7D3EBD450545EF10207A130515
:100FA000000D453E9305400A0545EF102079930555
:100FB000100A0545EF1080781305000E593E930581
:100FC000000D0545EF10807791450545EF1000773E
:100FD000B5450545EF108076C5450545EF1000760F
:100FE000CD450545EF1080759305B0020545EF101E
:100FF000E0749305F0030545EF1040749305400538
:101000000545EF10A0739305C0040545EF1000736C
:10101000E1450545EF108072B5450545EF100072BA
:10102000AD450545EF108071FD450545EF10007198
:10103000930530020545EF1060701305100EEFF0B8
:101040005FB19305000D0545EF10406F91450545D3
:10105000EF10C06EB1450545EF10406EC545054522
:10106000EF10C06DCD450545EF10406D9305C002F2
:101070000545EF10A06C9305F0030545EF10006CDB
:10108000930540040545EF10606B93051005054579
:10109000EF10C06A9305F0020545EF10206AFD4588
:1010A0000545EF10A069FD450545EF102069930542
:1010B00000020545EF108068930530020545EF10EA
:1010C000E06713051002EFF0DFA84545EFF07FA8B9
:1010D00013058007EF00D00A13059002EFF07FA7F9
:1010E0002244B24092440249410165B6797126D248
:1010F0004ECE52CCB70400207D7A22D456CA5AC8AC
:1011000006D64AD0938404000144130A5A1A7D5B20
:101110009389818583D7040011466C00139787005B
:10112000A183D98F1145231641012317F10013091B
:101130000008EF10C0719387C18583C7070013872C
:10114000C18593F7F70FA1C36313090039C483C79F
:1011500019002300070003C72900A2070504D98F3F
:1011600042042391F4004180A5479104E314F4FA6A
:101170000145B250225492540259F249624AD24A6D
:10118000424B456182807D19420913590941E30FA1
:1011900069FB0545EF00C07E79BF0545D9BF411108
:1011A00022C483C7B18526C293858185BE9511452A
:1011B00006C6EF10007A938481859387B18511C5A7
:1011C00003C7070005072380E70083C6070005471C
:1011D000639FE60083C604001307500A6384E60099
:1011E00023800700B24022449244410182800D4690
:1011F000E39AC6FE23800700238EE184E5B7B7B7E4
:10120000002003A7C75AB7070550854698C7238A09
:10121000D18403C70700136717002380E70082808B
:1012200089653971930610051306000593850558E5
:10123000114506DE22DC26DA4AD84ED652D4EF100B
:101240009017014685451145EF106063EF00F042AD
:101250009387C18523800700513D05C1B7960000E3
:101260002566938606181306C6169305B0123795A1
:10127000000013054518EF6090221384C185B70460
:1012800000202300040093844402230004001389F7
:101290008402930950FA83D7040011466C08A30E08
:1012A000F10083D724001145230E310113978700E5
:1012B000A183D98F231FF100EF10605909459104D4
:1012C000EF00006CE39924FD9304100883470400A9
:1012D00093F7F70F89E7FD14C204C18085EC230062
:1012E00004009304000813898185130AF00FFD5947
:1012F0008347190003472900F98F6391470385E865
:10130000B79600002566938606181306C616930541
:101310002013B1BF0545EF00A0664DBFFD14C20408
:10132000C184E38F34FD0545EF008065D1B723000C
:1013300004006D3B19C9B796000025669386061810
:101340001306C616930590131DB7EF00303391476F
:101350003EC495473EC299473EC093089002130889
:101360008002930760021307B004930690041306EB
:101370008004A9452545EF00007A376500201966ED
:101380001307C5D8B7B700201305C5D8854613067F
:101390000682814523A6E75AEF003004F2506254DA
:1013A000D2544259B259225A01452161828063DBED
:1013B00005009307D0022300F50005054111814780
:1013C000A9463DA0E5FD930700032300F5008280B8
:1013D000180813881700BA9733E7D502B3C5D502AA
:1013E0001356F741318F118F2388E7FE9377F80F5B
:1013F000E5F18A86B6976394F6004101828003C7BF
:10140000F7FF0505FD1713070703A30FE5FEE5B773
:10141000797122D44AD04ECE52CC56CA06D626D2A4
:10142000834715003704004081452306F1008347B8
:1014300005001309C100130AF100A306F100834758
:10144000250013050440130404402307F100EF3086
:10145000C0608965938AC55193894513A144834728
:101460000900FD14CE85B3D79740858B91E3D685CF
:1014700013051020EF009022054691452285EF309C
:10148000405B85452285EF30A05D65DD01469145D5
:101490002285EF30005A85452285EF30205D814559
:1014A0002285EF30805BC5FC0509E3192AFBB250A9
:1014B000225492540259F249624AD24A45618280CA
:1014C000B7C50200011181460146938505F2130557
:1014D000102006CE2316010023070100EF0030661E
:1014E00037050040894513050540EF30E05268009C
:1014F00005371305400689296800193FF240056148
:101500008280411185451305B00606C6EF00700EB6
:1015100085451305C006EF00D00D01459521814595
:101520001305C006EF00F00C01459929B240814532
:101530001305B00641016F00D00B41118145130521
:10154000B00606C6EF00F00A81451305C006EF009D
:10155000500A0145352185451305B006EF00700995
:10156000014539291305C0068545EF009008B240B2
:101570000145410131A1411122C426C206C6AA84F7
:1015800025447D141374F40F0DEC81451305B0064A
:10159000EF0030060145ED2685451305B006EF0046
:1015A00050050145F12E1305C006EF00F00639C5C0
:1015B0002244B240924485451305B00641016F00B4
:1015C000500393978401E187854563C307008145F4
:1015D0001305C006EF00F00101455D2685451305A2
:1015E000B006EF0010010145612E86048145130508
:1015F000B00693F4F40FEF00C07F61B71305B00697
:101600008145EF00007F2244B240924401454101F0
:1016100085AE411106C622C426C22E84B2844AC0B9
:101620002A89C53513052005B9370145A937137532
:10163000F90F9137A294639884002244B2409244F7
:1016400002494101DDBD05040345F4FF2D37E5B72F
:10165000411181454AC02A891305B00606C622C435
:1016600026C2EF0000790145212E85451305C006ED
:10167000EF002078A1440144014519268145130556
:10168000B006EF0000770145E52C85451305B0064F
:10169000EF0020760145ED2406041305C0061374FF
:1016A000F40FEF00607701C505041374F40FFD1407
:1016B00093F4F40FF1F081451305B006EF00607369
:1016C00001457D2C81451305B006EF008072014570
:1016D000452C81456313090085451305C006EF00BD
:1016E000407185451305B006EF00A0700145492CF7
:1016F00081451305B006EF00C06F014551242285D6
:10170000B24022449244024941018280011106CE36
:1017100022CC26CA2A844AC852C432892E8A4EC68E
:10172000EFF03FDE13052005B9350145A9351375E6
:10173000F40F9135EFF0FFDC130530059304F9FF4A
:101740001D3D0144B3349000636B24016244F240B8
:10175000D2444249B249224A05616FF01FDEB30903
:101760008A000545639384000145DD350504238027
:10177000A9001374F40FC9BF79719306403105466F
:1017800085451305B00606D626D24ECE52CC56CA93
:1017900022D44AD049239306403105468545130596
:1017A000C0069969617A852BAD44B70A00209389F8
:1017B0000950130A0A70130670089385CA04054578
:1017C000893D09466C001305E0052316310191356A
:1017D00009466C0013051006231641011D3D054600
:1017E0006C00130500031D3705466C00130510033C
:1017F0000344C100213F054561220349C100118016
:10180000FD141344F4FF93F4F40F058813791900C1
:1018100081E8379500001305051EEF60707001A088
:1018200013054006B12AE31824F9930710026C004F
:101830000546130560082306F100EFF09FDD37959C
:1018400000001305851FEF60B06DB2502254925412
:101850000259F249624AD24A4561828001118547A4
:1018600005466C00130560082306F10006CEEFF074
:101870005FDA1305900805469305B100413D034723
:10188000B10093079008130580576317F7021305FB
:10189000600909466C00231601008D3D0345C10017
:1018A0008347D10022053E95130585FD9307805798
:1018B00063F4A70013058057F24005618280B717D3
:1018C0000240DC4337177A0013070720C983BD8B1A
:1018D000B387E7023727F40013070740F165930643
:1018E000100213060002938505200945BA9723A02C
:1018F000F1866F10402C011126CAB754004022CC4B
:101900004AC84EC606CEAE8932890144938404800B
:10191000634A2401F24062444A85D2444249B249B2
:1019200005618280930500042685EF30002B7DD968
:10193000B38789008385070026850504C205C18118
:10194000EF300029F1B7828083A7418337177A00EF
:1019500013070720B3D7E702814601473385A70263
:10196000B7F700E023A0070094C7D8C7054798C37E
:10197000B7F600E09846DC4699E3E37DE5FE828019
:1019800083A741830967130707F4B3D7E7028146AA
:1019900001473385A702B7F700E023A0070094C7EB
:1019A000D8C7054798C3B7F600E09846DC4699E3E8
:1019B000E37DE5FE828009E5814601468145A1AED1
:1019C0000547E30BE5FE0947E308E5FE0D47E305A0
:1019D000E5FE1147E302E5FE1547E30FE5FC194775
:1019E000E30CE5FC1D47E309E5FC21476318E5002E
:1019F00081460146814513050002D1B7254763188A
:101A0000E500814601468145130510024DBF294777
:101A10006318E5008146014681451305000445B77A
:101A20002D476318E50081460146814513051004E2
:101A300079B731476318E5008146014681451305B2
:101A40002004B5BF35476318E5008146014681454E
:101A500013053004ADB739476318E50081460146E8
:101A6000814513054004A1BF3D476318E500814649
:101A7000014681451305500499B78280797122D4BB
:101A800085452A841305002006D626D2EF2070282B
:101A90002285153703A70186B7C70105938707D0AD
:101AA000316563E3E700216537240140EF209012A0
:101AB00013050440EF206058B7070E003EC68A8524
:101AC000854713050440230AF10002C002C202C484
:101AD00002C8EF20E05A854513050440EF20C05F9F
:101AE00013050440EF204060930404402685EF2056
:101AF00040606DFD1305044037240140EF20E05F96
:101B0000130404402285EF20E05F6DFDB2502254A3
:101B100092544561828079714ECE52CC56CA328A37
:101B2000AE8AB689014693068004814506D622D442
:101B300026D24AD046C042C23EC43AC683440103BC
:101B40000349410303448103F92256859306800427
:101B500001468145C922528593068004014681458C
:101B60005D2A4E8593068004014681456D223247E9
:101B70009306800401463A858145712AA24793065F
:101B8000800401463E8581457922124893068004EF
:101B900001464285814541228248930680040146E0
:101BA000468581458D2A4A859306800401468145F4
:101BB0009D2226859306800401468145A92A228517
:101BC0002254B25092540259F249624AD24A9306C0
:101BD00080040146814545613DAA011122CC26CAF7
:101BE0002E84AA848545096506CE32C636C4EF2008
:101BF0007010B707055003C70700130560058D4532
:101C00001377F70C2380E70003C707001367270447
:101C10002380E70003C717001377970FA380E7001F
:101C2000A24632462392D7002393C70084C7C0C779
:101C300003C717001377F703A380E70003C7170054
:101C40001377F70FA380E70003C717001367070197
:101C5000A380E70003C72700136747002381E7003D
:101C600003C7170013671700A380E70003C7070027
:101C7000136717002380E700DD2A6244F240D24454
:101C800013056005056155AA011122CC05452E8476
:101C9000854506CE26CA4AC802C0328902C202C49D
:101CA00002C6EF2010079306800405468145228571
:101CB0009D209374F40113555400A6851375F50FF8
:101CC000EF2000638547339797000A853AC002C228
:101CD0004AC43EC6EF20804359459DC49377E40132
:101CE0005D459DC38947614563F0970271886545ED
:101CF00001CC9147694563F99700A5471305700228
:101D000063F49700130580030D2AF2406244D24425
:101D10004249056182809307F00F630BF50C7971DE
:101D200022D41354550026D24AD04ECE52CC06D6D9
:101D30001D889374F5003689328AAE8935E0854571
:101D40001145EF20007D8547B3949700C204C18000
:101D5000231291006399F90093170901C183A183AC
:101D600091E38D473EC4A967938707800A043E9498
:101D700000401379F90F4C0022854AC6EF2020421B
:101D800085476397F9005286A6852285EF20404D4E
:101D9000B250225492540259F249624A45618280FB
:101DA00085476315F4008545214561BF8947631563
:101DB000F4008545414571B78D476316F4008545AC
:101DC00013050002BDBF91476316F4008545130556
:101DD000000485BF95476316F40085451305000888
:101DE0008DB79947E311F4F685451305001091BFAF
:101DF00082809357550013972700A9679387078020
:101E0000BA9798439377F50005453315F50099C1C6
:101E100008CB828048CB8280135735009376C70168
:101E200029671307078036971C43984785473395E2
:101E3000A700798D3335A000828093575500054760
:101E4000938707043315A7008A0737E700E0BA979E
:101E500088C382809357550005479387070633153B
:101E6000A7008A0737E700E0BA9788C38280B7E700
:101E700000E03E952300B54082808280828001117F
:101E80002304A100280006CEA304B1002305C1004D
:101E900036C6EF20A048F240056182809357850046
:101EA0002967130707828A07BA9798430D890A059D
:101EB0008357C7023A95B385F502896793870771FF
:101EC000B3D5F502C205C1814CD9828001E99306E0
:101ED00080310146854521456FF0FFE38547631852
:101EE000F50093068031014685452545F5B78947BC
:101EF0006318F50093068031014685452945E9BF01
:101F00008D476318F50093068031014685452D45C0
:101F1000E1B7C1476319F500930680310146854555
:101F20001305900855BFC5476319F5009306803126
:101F3000014685451305B00845B7C9476319F50043
:101F400093068031014685451305D00871B7CD470A
:101F50006319F50093068031014685451305E008B5
:101F6000A5BF930700106318F50093068031014662
:101F70008545014595B7930710106318F500930642
:101F8000803101468545054581BF930720106318C0
:101F9000F5009306803101468545094535BF930715
:101FA00030106318F50093068031014685450D45D4
:101FB00025B7930700116318F50093068031014699
:101FC00085453D4511BF930710116319F500930630
:101FD00080310146854513053002FDBD9307201170
:101FE0006319F50093068031014685451305A0026B
:101FF000E5B5930730116319F5009306803101466A
:1020000085451305B002C9BD930700206318F5008C
:10201000930680310146854519457DBD9307102003
:102020006318F50093068031014685451D456DB561
:10203000930720206319F5009306803101468545FA
:102040001305000251BD930730206319F500930674
:1020500080310146854513051002BDBD930700215F
:102060006319F50093068031014685451305600428
:10207000A5B5930710216319F50093068031014639
:1020800085451305700489BD930720216319F50068
:1020900093068031014685451305800435BD9307BD
:1020A00030216319F50093068031014685451305FB
:1020B00090041DB5930700226319F5009306803143
:1020C000014685451305400201BD9307102263199F
:1020D000F500930680310146854513055002EDBB9E
:1020E000930700306319F50093068031014685455A
:1020F00013056002D5B3930710306319F5009306FA
:1021000080310146854513057002F9B393072030ED
:102110006319F50093068031014685451305800259
:1021200065BB930730306319F50093068031014693
:102130008545130590024DB3930700316319F500EF
:1021400093068031014685451305C00671B3930798
:1021500010316319F500930680310146854513055A
:10216000D0069DBB930720316319F500930680319B
:10217000014685451305E00685B3930730316319A1
:10218000F50093068031014685451305F006A9B395
:1021900093070040E30BF5DC93071040E301F5DE05
:1021A00093072040E307F5DE93073040E30DF5DEAB
:1021B00093070070E308F5EA93071070E30FF5EA60
:1021C00093072070E306F5EC93073070E30DF5EC10
:1021D00093070071E30AF5F093071071E301F5F23C
:1021E00093072071E308F5F2930730716319F50046
:1021F00093068031014685451305D004F1B9930754
:102200000580E38807D8856713871780E30DE5D835
:10221000138727806318E5009306803101468545C2
:1022200011455DB9938737806319F50093068031B6
:10223000014685451305400445B18567138707812D
:102240006319E50093068031014685451305900624
:1022500061B1138717816319E50093068031014648
:1022600085451305B0068DB913872781E305E5EE93
:1022700013873781E307E5F013870790E30CE5E860
:1022800013871790E303E5EA138727906319E500A6
:1022900093068031014685451305300435B913870F
:1022A00037906319E5009306803101468545130593
:1022B000B0041DB1138707916319E50093068031BF
:1022C000014685451305100601B9938717916319D7
:1022D000F500930680310146854513053006EDBEB5
:1022E0008567138727916319E500930680310146BE
:1022F000854513055006CDB6138737916319E50060
:10230000930680310146854513057006F1B61387A3
:102310000792E30EE5CA13871792E301E5DA138704
:102320002792E308E5DA938737926319F50093065D
:102330008031014685451305F00479BE82803971EC
:1023400006DE22DC26DA2A844AD84ED62EC632C4CD
:102350003689EFF0BFB7B24583A741832246935930
:10236000840033D7B7024E85418393061700B386A6
:10237000B602B3D7D70293940701C180B384C402D5
:10238000096613060671FD1793950701C181B3D441
:10239000C4023A86DD2E85450545EF208017935708
:1023A00044000547C204C1806394E7063705160060
:1023B00085451305050CEF10506BC167296793879E
:1023C000070613952900130707823EC83A959377AD
:1023D0003400231B9100231C0100231E0100004137
:1023E000E9E70C082285EF20E02B85452285EF20C8
:1023F000605ACA852285EF20A05C22858545EF20A2
:10240000A057F2506254D2544259B259216182808D
:1024100045476398E70037051800854513050530E3
:1024200059BF130710026398E70037151A00854556
:10243000130505C049B7130720026398E700371555
:102440001A00854513050580BDB713071003639572
:10245000E7008545056585B7130710076399E70011
:10246000370701405C4F93E747005CCFB9B71307CC
:1024700010086398E700370701405C4F93E70701B6
:10248000EDB7130710096398E700370701405C4F69
:1024900093E70704D9BF13072009E390E7F2370752
:1024A00001405C4F93E70702C9B70547639FE70008
:1024B0000C082285EF20002922858545EF20804DDC
:1024C000CA852285EF20E0500DBF09470C08228500
:1024D000639DE700EF20C03322858545EF20804BC8
:1024E000CA852285EF20805009BFEF20003F22855A
:1024F0008545EF20204ACA852285EF204050F5BD52
:10250000411122C426C24AC006C6AE84328436892E
:1025100021E993068031054685451545EFF0AFFF6B
:1025200089476393F40893068031054685451D4528
:10253000EFF06FFE8547631DF40A93068031054670
:1025400081451945EFF02FFD2244B24092444A855F
:102550000249930600310146854541016FF0AFFB0A
:10256000C1476319F500930680310546854513057B
:1025700030026DB7930700026319F50093068031AE
:10258000054685451305D00251BF93070003E30CB0
:10259000F5FC93070004E315F5F893068031054632
:1025A00085451305A0049DBFC9476399F4009306B0
:1025B000803105468545130550029DBF93072002D3
:1025C0006399F40093068031054685451305F002B2
:1025D00085B793072003E38CF4FC93072004E39B67
:1025E000F4F493068031054685451305C00489B788
:1025F000C5476319F40093068031054681451305EC
:10260000400289B7930710026319F40093068031E2
:10261000054681451305E00235B793071004631999
:10262000F40093068031054681451305B00419BFB7
:1026300093071003E31AF4F07DBF397122DC26DA28
:102640004AD84ED652D456D25AD006DE2A842E8983
:10265000328AB68A3A8BBE84C28951E505658545C2
:102660000505EF10106BDA865686D2854A85EFF0A5
:102670003FE9B70704013EC6231801008547638878
:10268000F408C9C009476389E4088D466389D40802
:1026900093070020231BF1009D47231EF100A9672B
:1026A000938747810A043E9400408E096C0022857E
:1026B000231C3101231D0100EF10506BC14763152E
:1026C000F90685450545EF10503A22858545EF10FE
:1026D000906FF2506254D2544259B259225A925ACF
:1026E000025B2161828085476318F500854511658D
:1026F0000505EF10F06385BF8947E316F5F68545BC
:102700002165FDB723190100231A010051B72319D0
:102710000100231A9100ADBF23199100F5B72319C9
:10272000E100231AF100ADB793070004E31FF9F8A5
:102730003715200085451305051071B7A9670A05EF
:1027400093874781AA9798432316B700835787003A
:1027500093F70708E5FF8280A9670A0593874781F9
:10276000AA979C4313D785002396E70003D78700D9
:102770001377070865FF93F5F50F2396B70003D786
:1027800087001377070865FF8280011122CC26CAD3
:102790004AC806CE2A842E89B28401E9056585459A
:1027A00013050580EF10F05639A08547631EF5022A
:1027B0008545EF10F057A967938707820A043E9476
:1027C00008404C002314210123129100231501001D
:1027D0002313010023060100EF10D060F240624491
:1027E000D2444249056182808947E303F5FC8D4765
:1027F0006315F500854511456DBF91476315F500DB
:10280000854521457DB79D476315F50085450965DB
:1028100051BFA1476316F50085453705080059B734
:10282000A547E31AF5F8854537051000A5BFA96748
:102830000A0593870784AA9798438357070093F75D
:102840000708E5DFC205C1812312B700828041116C
:1028500022C426C24AC006C62A892E84B384C50073
:1028600063189400B240224492440249410182809C
:1028700005048345F4FF4A85EFF07FFBD5B741118E
:1028800022C426C206C64AC02A84AE841DEEA967A9
:1028900013172500938707842E86BA979305505205
:1028A0008843EF20802F9387C1833E940345040023
:1028B000B7E700E0AA97238007408DC42244B240C6
:1028C0009244024941016FF04FD785476313F602E6
:1028D000A96713172500938707842E86BA97930557
:1028E00070727DBF2244B2409244024941016FF0B0
:1028F0006FD689476319F604A967131725009387D4
:102900000784BA9703A907000546930550524A85E4
:10291000EF20A02813045403A68622850146814592
:10292000EFF0EFD54A85054693057072EF20E0265B
:1029300022852244B2400249A6869244054681453A
:1029400041016FF0CFD3B240224492440249410189
:102950008280A9670A0593870784AA9798438357BB
:10296000070093F7070299C783574700054523805F
:10297000F500828001458280411106C60DE1854740
:102980006398F522E14601462545EFF0CFB8914620
:10299000014681452945B24041016FF0CFB78947D3
:1029A000631FF500E1460146854513056002EFF01F
:1029B0008FB691460146814513057002E9BFC147B4
:1029C000631DF500E146014685450945EFF0AFB4CA
:1029D0009146014681450D457DBFC947631FF500FE
:1029E000E1460146854513055006EFF0CFB291460A
:1029F000014681451305600679BF93070002631FF6
:102A0000F500E146014685451305A002EFF0AFB0A1
:102A10009146014681451305B002B5BF93072002D8
:102A2000631FF500E146014685451305A004EFF05C
:102A30008FAE9146014681451305B004A9BF9307A7
:102A400040026310F502E146014685451305800604
:102A5000EFF06FAC930680040146814513059006A4
:102A60001DBF93070004E30FF5FA93072004631FCB
:102A7000F500E1460146854513050002EFF0AFA9D8
:102A80009146014681451305100231B793070005B1
:102A9000631FF500E146014685451305C004EFF0CC
:102AA0008FA791460146814513052006EDB5930792
:102AB0002005631FF500E1460146854513058008A2
:102AC000EFF06FA591460146814513059008E1B5E9
:102AD000930700066310F502E1460146854513059C
:102AE0000004EFF04FA393068004014681451305CF
:102AF000100455B593072006631FF500E146014613
:102B000085451305A008EFF00FA1914601468145C8
:102B10001305B00849B593070007631FF500E146A8
:102B20000146854513052004EFF0EF9E91460146CE
:102B300081451305300485B5930720076317F50019
:102B4000E146014685451945C5B793074007631F10
:102B5000F500E146014685451305C008EFF0AF9B3F
:102B60009146014681451305D00835B59307000805
:102B7000631FF500E1460146854513054004EFF06B
:102B80008F999146014681451305500429B5930755
:102B90002008631FF500E146014685451305E0085E
:102BA000EFF06F979146014681451305F008E5B3B4
:102BB000B24041018280797122D44ECE2A84AE89FE
:102BC0000545854526D24AD006D6B2843689EF100F
:102BD00050148947639FF4048D476316F9008545B7
:102BE0001145EF108068631C041285451165EF10D4
:102BF0005012CA852685EFF03FD8B7070C003EC4B7
:102C0000A967938707840A043E9400408A854EC0D2
:102C1000228502C223160100EF10D0682285854567
:102C2000EF10F075B250225492540259F2494561A6
:102C30008280C9476398F400CD47E316F9FA8545C9
:102C4000214545B793072002639BF40093073002A8
:102C5000E31BF9F8370514008545410559B793077B
:102C60004002639CF40093075002E31EF9F6370517
:102C70001400854513050503ADB793072004639938
:102C8000F40093073004E310F9F68545056591BF1C
:102C900093072005639BF40093073005E315F9F4CF
:102CA00037052000854505052DBF93072006639C49
:102CB000F40093073006E318F9F2371500808545D4
:102CC0001305058039BF93072007639EF40093071F
:102CD0003007E31AF9F0370701405C4FB7064000B0
:102CE000D58F5CCF09B793074007639CF400930727
:102CF0005007E31AF9EE370701405C4FB706800032
:102D0000C5B793072008E390F4EE93073008E31C5F
:102D1000F9EC370701405C4FB7060002D1B7854791
:102D20006318F400854537050200EF107000D1B537
:102D300089476316F400854537050400FDB78D47C4
:102D40006316F400854537050800C5B7914763163B
:102D5000F400854537051000C9BF95476316F40098
:102D6000854513050004D1B799476316F4008545DE
:102D7000130500085DBF9D47E31DF4E68545130577
:102D8000001065B73971B7A7000062CC66CA03AC02
:102D9000078683AC478626DA52D456D25ECE6AC8FE
:102DA000014A814AB76B002022DC4AD84ED65AD05D
:102DB0006EC606DE5289D6891304300293840191CF
:102DC000130BE005938BCBB9138D4189930D6005EF
:102DD000B307940083C7070063986701B307A40192
:102DE00083C70700638A67036286E6864A85CE85C5
:102DF000EF208070B3878B002A8903C50700AE8956
:102E00003305AB40EF40A0192A86AE865285D685A1
:102E1000EF20806E2A8AAE8A0504E31BB4FB52853C
:102E2000D6854A86CE86EF203060B76C00202A8A8D
:102E3000AE8A014B814B13043002130CE005938CD6
:102E4000CCB9138D4189930D6005B387840083C786
:102E5000070063988701B307A40183C70700638451
:102E60008703B3878C0003C507003305AC403305E7
:102E7000A502EF40C0122A86AE865A85DE85EF2075
:102E8000A0672A8BAE8B0504E311B4FD4A86CE867B
:102E90005A85DE85EF2050592A84AE845286D68624
:102EA0005285D685EF30C0492A86AE862285A68512
:102EB000EF309014B7A7000003A6878683A6C786C5
:102EC000EF30C031F25062541345F5FFD2544259ED
:102ED000B259225A925A025BF24B624CD24C424D8A
:102EE000B24D7D8121618280B76600209386C6B98C
:102EF00003C7A6059307E00563F5E70493874189B7
:102F000003C7A7051306B00B631CC70203C6C7059A
:102F10006318E60203C7E7056314C70283C7870582
:102F20006390E702138701910346A70503475707FC
:102F3000998FB297B2970947B3C7E702238DF6047A
:102F40008280E30FF7FE138701910346C70583478D
:102F5000A705D18F0346E70503478705D18FD98F92
:102F6000E5F3138741890346A70583475707B3074E
:102F7000F640C9B703A6C1884111B7670020B766FC
:102F8000002006C622C426C2238A07C0A38406B432
:102F90004D476351C704370600201306A633014886
:102FA000814881457945130EC00BFD5E130F7009F2
:102FB000130770072DA01378F50F9375F70F854849
:102FC00005050506E316E5FF63860800A384B6B48D
:102FD000238A07C1054425A07D17E303D7FF3303E8
:102FE000C703329303430300E31803FEE355B7FC22
:102FF00063860800A384B6B4238A07C1014403C5CD
:1030000047C1B7A40000EF40A00003A6048783A631
:103010004487EF001009B7A7000003A6878783A69F
:10302000C787EF308026634FA000014519E4B767DA
:1030300000200547238CE7B40545B2402244924462
:10304000410182800145D5BFB767002083C787B59E
:10305000638A071E397106DE22DC26DA4AD84ED68C
:1030600052D456D25AD05ECE62CC66CA6AC86EC6F8
:10307000631F050E37640020034594B4B764002035
:10308000376A0020EF30D078B7A700002A86AE86D6
:1030900003A5078883A54788B70B0020EF007000C1
:1030A0002A8903C544C1AE89930D7007EF3050766D
:1030B000B7A700002A86AE8603A5878883A5C788A0
:1030C000130ACAB9138B0191EF00A07D2A86AE8640
:1030D0004A85CE85EF205035034D94B483CA44C150
:1030E0002A89AE896A8493844189938BCB3163F1B9
:1030F0008D02F2506254D2544259B259225A925A15
:10310000025BF24B624CD24C424DB24D2161828047
:103110003305A441EF30B0684A86CE86EF20D03028
:103120002A8C5685AE8CEF3090672A86AE866285F3
:10313000E685EF20603CEF30106033076401034701
:1031400007000948B30794002A97334707032380F1
:10315000A7009308C00BB30744012380E700B3071F
:1031600014030504DE97AA972380070049B7854713
:10317000E311F5F837640020034594B4B7640020E8
:10318000376A0020EF30D068B7A700002A86AE86E5
:1031900003A5078883A54788B70B0020EF00607060
:1031A0002A8903C544C1AE89130D7007EF305066FC
:1031B00001468146EF00E06E2A86AE864A85CE85BE
:1031C000EF209026834A94B483CD44C12A89AE89E6
:1031D000568493840191130ACAB9138B4189938B46
:1031E000CB31E3688DF06E85EF30705B2A8C330550
:1031F0005441AE8CEF30B05A4A86CE86EF20D022B2
:103200002A86AE866285E685EF30005FEF30B052E9
:1032100033076401034707000948B30794002A975E
:10322000334707032380A7009308C00BB30744016B
:103230002380E700B30714030504DE97AA972380D1
:10324000070045B78280B767002003C787B5854769
:103250006318F704B7050020130720031305C00BFC
:103260009385C5311308B00BB94813035006B30753
:10327000A70201468146AE9783CE070003CE170012
:1032800085066383CE0105068507E39706FF63C7BE
:10329000C8000507E31D67FC014582800545828063
:1032A0008280411122C406C6EFF0DFCC0DC503A712
:1032B000018809E71307500623A0E188B7670020BB
:1032C00003C5A7B4EFF05FD8954723A4F186B240B9
:1032D000224441018280EFF01FF799477DF5EFF01E
:1032E0007FAA19C18547D5B723A40186CDB7B76694
:1032F00000208147938686C7130700103386D700C6
:10330000230006008507E39BE7FE99679387078202
:10331000AA971308C00B01473306E50003460600D1
:10332000050736968345060085052300B600E3159C
:1033300007FF1305C50BE390A7FE82801D71376759
:103340000020D6C286CEA2CCA6CACAC8CEC6D2C4D7
:10335000DAC05EDE62DC66DA6AD86ED68146930A2F
:1033600087C79305001033865601034606009397DE
:103370000601C1870DCE9306F00F1308F00F638886
:10338000D7009306E00F1308E00F6397D702F640CB
:103390006644D6444649B649264A964A064BF25BED
:1033A000625CD25C425DB25D4285256182808506A9
:1033B000E39BB6FA930700103E89BE86014C1306C4
:1033C000F00F93950601C185635EB60EBE86014A75
:1033D0009305F00F13960601418663DCC50EB7A670
:1033E000000083AD068903AD46890148814C8149BF
:1033F000930EE00FE3CDFEF8B3862A0103C4060066
:1034000042CE3ECCA299330489024E85EF30504023
:103410002A8B6285AE8BEF30B03F2AC433053C4126
:103420002EC6A29CEF30B0372AC866852ECAEF3070
:10343000303E5A86DE86EF20207F2A8433059A416B
:10344000AE84EF30D0354246D246EF20E07D2A866A
:10345000AE862285A685EF30203A2246B2462A84DF
:10346000AE845A85DE85EF20207C2A8BAE8B2246E7
:10347000B2464245D245EF20207B2A86AE865A8549
:10348000DE85EF20F06B2286A686EF20706B228609
:10349000A686EF20F06A2A86AE86AA842E846E85E0
:1034A000EA85EF20905EE2477248930EE00F635684
:1034B000050013F8F70FA68D228D8507C207C18777
:1034C00005090DBFB385DA0083C5050085062E9C6E
:1034D000CDBD3386DA00034606003306D6028506E4
:1034E000329ACDBDB767002083C847B437070020A4
:1034F00099651307C73101461303C00B93850582F5
:103500003308C5008147B306F80083C60600330EB2
:10351000F7008507B3B61601FD162300DE00E3941D
:1035200067FE1306C60B1307C70BE31BB6FC8280AE
:10353000B705002085461305C00B9385C5311303DD
:10354000F00F130ED01F930EE01F7D5F1308B00B1A
:1035500093087007B387A6020546AE9703C7170006
:1035600005061DE783CFD70B03C757F47E9783CF9C
:1035700027007E9783CF07007E9763D4EE00A38059
:10358000E7018507E31C06FD8506E39516FD8280AD
:10359000E31967FE83CFD70B03C757F47E9783CF1A
:1035A00027007E9783CF07007E97E34CEEFCA38035
:1035B0000700C1BF411106C622C42A84EFF03FD3E1
:1035C000EFF0DFD7B76700202382A7B42285EFF0A2
:1035D0007FF12244B24041016FF09FF58547631AA5
:1035E000F5009306003105468545130520086FE078
:1035F0008FF289476319F50093060031054685452A
:1036000013053008EDB7828005657971854513058E
:10361000058006D622D4EF00D06F930790022316C0
:10362000F10085472307F100680085473EC8EF0099
:10363000F04E37340140930740023ECA4C08D14750
:10364000130504C03ECCEF00F079130504C0054615
:103650008545EF108035130504C08145EF10C0315A
:10366000B250225445618280411106C6EFE02FA579
:10367000EFE06FAD0145EFD0CFB30545EFD06FB3AD
:1036800005455128094541280D4571201145612006
:1036900015455120194541200945EFE02FBE0D4544
:1036A000EFE0CFBD1145EFE06FBD1545EFE00FBD79
:1036B0001945EFE0AFBC0545EFF05FF20945EFF0CB
:1036C000FFF1EFD0FFDFF122EFE02FFB1305B00B8E
:1036D00023A00188EF40A062B767002023AAA7B407
:1036E0001307850AAA8723A007009107E39DE7FE39
:1036F00091471CC18D4705472324F50AB2408947ED
:1037000058C15CD178C17CD12322E5082322F50A77
:1037100041016FF07FEF411122C406C685472A841C
:103720006314F502930680340546814513050004B1
:10373000EFE06FDE99476315F40693068034054683
:1037400081451305500425A089476319F5009306A8
:1037500080340546814513051004D9BF8D47631D8C
:10376000F500930680340546814513052004224464
:10377000B24041016FE02FDA91476319F5009306DB
:1037800080340546814513053004D5B79547E313CA
:10379000F5FA930680340546814513054004C1BF00
:1037A000B240224441018280411106C622C401ED8B
:1037B0001385C181EFD0DFC51385C1812244B2409A
:1037C00041016FD0FFC485476319F500138541821D
:1037D000EFD01FC413854182D5B789476319F5001F
:1037E00013850182EFD0DFC213850182C1BF9147EB
:1037F0006319F5001385C180EFD09FC11385C18087
:1038000075BF8D476319F50013854181EFD05FC007
:103810001385418165B795476319F50013850181CB
:10382000EFD01FBF1385018151BF99476319F50080
:1038300013858181EFD0DFBD1385818141B7B2400F
:10384000224441018280411122C41385418606C66B
:10385000EFD01FBC138541862244B24041016FD096
:103860003FBB41111385418606C6EFD07FBAB240F7
:103870001385418241016FD0BFB941111385418247
:1038800006C6EFD0FFB8B2401385418641016FD024
:103890003FB893068004054681451305A0066FE0F6
:1038A0008FC7011122CC26CA4AC84EC652C456C27E
:1038B00006CE3289B6892A8AAE8AEF20F073014695
:1038C00081462A84AE84EF20501C635A050052863C
:1038D000D6864A85CE85EF2030722A84AE84228532
:1038E000F2406244A6854249D244B249224A924AF1
:1038F0000561828075718547EECE376E0020AA8DF6
:10390000376500202388F188A303FEB4A386F198CD
:103910009307C5B93ED693874189DAD83ECC138B3D
:1039200001919387019137A600003ECE83278686BA
:1039300022C5B7660020B7620020B76E00201307CB
:10394000700726C34AC1CEDED2DCD6DADED6E2D498
:10395000E6D2EAD006C7238E06B423A6018823AE9A
:1039600002D623A4019823A40188A3820EB423863F
:10397000E1987ED076D272C81AD446CA0328C68689
:1039800015663ED89307267C3EDC9387C6B5930424
:10399000C5B9938A4189130A70079E8B168CFA8CDD
:1039A00042DA1309F00F9309B00B054D3EDE930781
:1039B00070076318FA1895679387177C3386FD00A4
:1039C0009306E005034516009385F6FF6319251558
:1039D0000345060063150514F247A38BD706E2578B
:1039E0009306E0053386FD00034506009385160027
:1039F000631F251303451600631B0512E247A38BC3
:103A0000D70683C67A079307E00583457B07638063
:103A1000F60A638EF508894763E6B7029307700BD1
:103A200063F2D7021306CAFE9307A00563ECC70032
:103A300003A6C188F2573305F600050623004501A9
:103A400023A6C188639B051C638736010326CCD758
:103A50000506232ECCD69307500763CA470503C635
:103A60008A07FD573385C6406351F502C24703C537
:103A700077B4631CA501631A3601925713061A0026
:103A8000A382C7B4C247A38307B403468B07338519
:103A9000C540635EAD00D24703C5D1986319A50147
:103AA00019E6A25723864199D247A3860198AE967C
:103AB0008586A38BD4067D1AFD14FD1A7D1BE318A1
:103AC0000AEEEFF00FFE83A6818605476394E600B9
:103AD000EFF08FC1B70600201305C00B9386C631E7
:103AE00013067007B2573387470183450700330732
:103AF000AA02050A36972E9723000700E314CAFE90
:103B0000BA402A449A440A49F659665AD65A465B3C
:103B1000B65B265C965C065DF64D496182807D163B
:103B2000AE86E39105EAF247A38B07064DBD050675
:103B3000AE86E39B35EBE2471307B0FBA38BE706AA
:103B4000C9B503C58A07EF30A04C2AC403458B07CB
:103B50002EC6EF30E04B2A86AE86AAC4AEC62245FA
:103B6000B245EF20704901468146AAC0AEC2EF209F
:103B7000C071064796472648B648635A0500224654
:103B8000B2464285C685EF2030472A87AE87425627
:103B9000D2563A85BE85EF206064634905069307D7
:103BA000C00B3306FA0283C68407B6856E968DC1B4
:103BB000B308B60083C808001385F5FF639E280389
:103BC000B308A60083C8080063980802A30BBB06CD
:103BD0009307A00BE3C7D7E23305D60003450500E2
:103BE00093851600631E25013305B60003450500C5
:103BF00001E9A38BDA0631B5A30B0B06AA8545BFF5
:103C00009307B0FBA38BFA06AE86D9B79307E005FE
:103C1000A38BFA06A30BFB06EDB3E39E36E303C6C4
:103C200001896317A60182572388018823A441894B
:103C300003A68198050623A4C19831BD37670020EB
:103C40006546930787C1232CC7C0930560090967A0
:103C50008CCB130607F4930587B513074713D8D702
:103C6000D8DF1307B004B8C31307400BCCCFB8CBD1
:103C7000D1450567930620038CD713070777F945CD
:103C800094C78CD394DFB4C7F8CF9306000037B73E
:103C900000209305000523A20700D0C723AC07002E
:103CA00023AA070023A2070223AA07028CDB23A270
:103CB0000704F0C723AC070423AA07042328D75A14
:103CC0009307075B37B70020D4C394C7D4C794CBFE
:103CD0009307475CD4C394C7D4C794CB2322D75C43
:103CE0008280797106D622D426D24AD04ECE52CCCA
:103CF0002E894CC14C452A844A85B284EF30C037A6
:103D0000B7670020938787C19204BE94AA8948C4EC
:103D10008844EF3010650C442A8A4A85EF3090269B
:103D2000AA855285EF30007D2A8A8840EF30706383
:103D3000CA85EF30207CAA855285EF30E0332A8A8D
:103D4000C840EF301062CE85EF30C07AAA85528528
:103D5000EF308032C44408C82AC62685EF30706030
:103D6000B245EF306031B7A7000083A58789EF30F7
:103D7000406763490500096513050571058DEF303E
:103D8000505E08C833059040EF30B05DAA85084802
:103D9000EF30806D6345A000930700001CC823240A
:103DA00024010848B250225492540259F249624AFE
:103DB00045618280011122CC376400201304C4B90C
:103DC0000345A40526CA9304E0053385A44006CE26
:103DD0004AC84EC6EF30A01CB7A7000003A6078A4A
:103DE00083A6478AEF20C0552A8903450405AE897A
:103DF0003385A440EF30A01AB7A7000003A6878A36
:103E000083A6C78AEF20C0532A86AE864A85CE8510
:103E1000EF10806E2A890345B404AE893385A4402F
:103E2000EF30E017B7A7000003A6078B83A6478BE8
:103E3000EF2000512A86AE864A85CE85EF10C06BF2
:103E4000EF30600FF2406244B767002023ACA7B8A0
:103E5000D2444249B24905618280011122CC3764C3
:103E6000002093974600130484C13E944AC82A89CF
:103E7000484406CE26CA4EC6B68452C456C2B2893B
:103E8000AE8AEF30104EB705008026862A8AB3C569
:103E900025015685EFF0FFE4AA855285EF30C01D5D
:103EA000EF30D04693150501C1810145EFC09FB6A3
:103EB0004844EF30104B26862A84CA854E85EFF0A1
:103EC0005FE2AA852285EF30201BEF303044624448
:103ED000F240D2444249B249224A924A931505011E
:103EE000C181054505616FC0FFB201A001A001A01D
:103EF00001A001A001A001A001A001A001A001A0BA
:103F000001A001A001A001A001A001A001A001A0A9
:103F100001A001A001A001A001A001A001A001A099
:103F200001A001A001A001A001A001A001A001A089
:103F300001A001A001A001A001A001A001A001A079
:103F400001A001A001A001A001A001A001A001A069
:103F500001A001A001A001A001A001A001A001A059
:103F600001A001A001A001A001A001A001A001A049
:103F700001A001A001A001A001A001A001A001A039
:103F800001A001A001A001A001A001A001A001A029
:103F900001A001A001A001A001A001A001A001A019
:103FA00001A001A001A001A07390123497D1FF1FBE
:103FB0009381C19D17C100201301C1041765000042
:103FC000130585CB97C5FF1F9385C5031386018510
:103FD00063FAC5008322050023A055001105910551
:103FE000E3EAC5FE138501859775002093858575E5
:103FF0006377B500232005001105E36DB5FEFD4292
:10400000739002BCFD4273904280B782000093829D
:10401000828873A0023097C2FFFF9382220293E24C
:10402000320073905230EF10003B97C2FFFF938233
:10403000C27073901234730020304111B7270140D1
:1040400006C693870740631CF500854513050020CD
:10405000FD29814513050020B2404101CDA9B737A4
:10406000014093870780631AF500854513050040DA
:10407000F929814513050040C5B7B240410182804E
:104080005C413707F1E01307F7EF944D7D8F9C41BA
:10409000D58FD44DD58FD441A206D58FD98F5CC191
:1040A0001C4537F7F1FF1307D77FD4457D8F9C4917
:1040B000D58F94458606D58FD98F1CC55C5537079B
:1040C00010FF7D177D8F83C74501FD1793F7F70F0D
:1040D000D207D98F5CD582801C4589C593E717002C
:1040E0001CC58280F99BEDBF1C4593E787001CC56A
:1040F000828008450D81058982801C4593E7470031
:104100001CC58280084509810589828058410328A1
:1041100005004C4537060140930706403E979346FD
:10412000F8FFB1C583250640F58D2320B640D04366
:10413000F18ED4C31443B3E6060114C3184190476B
:104140009346F7FF758E90C7D047F18ED4C71445BC
:1041500041466399C6009447D98E94C7D447558F7A
:10416000D8C78280B6979443558F98C382801C43EA
:10417000F58F1CC38280B70701401387074083A7D0
:104180000740584B698F09C77D8D3335A000828069
:1041900001458280B707014023AAA74082809C4541
:1041A00013F7070113F8F70001C7D8413368E80097
:1041B00083D5050013F7F50F39C318418146854EA5
:1041C0003D4F930F800293028004214E3396DE0010
:1041D000B3F8C500631116039398260033131F012B
:1041E0001343F3FF3377E300B318180133E7E80014
:1041F000639FF70550C98506E39AC6FD18C11307EA
:10420000F00F6375B70454412146854E3D4F930F1F
:10421000800293028004414EB398CE0033F715011B
:104220006392E8021317260001173313EF001343BC
:10423000F3FFB376D3003317E800D98E639DF701FF
:10424000232A15010506E319C6FD54C18280E394B3
:1042500057FA10C94DB7E39757FE23281501DDB76C
:1042600019C20CC982804CC98280B70701406355CE
:104270000504D44FB7073000131705013376F50056
:104280004183631DF602370600F17D1637080140B1
:10429000B3F7C60083264800758E2322C80099C54F
:1042A0009356550192063317D700D98F370701402F
:1042B000635E05025CCF8280D4436DBF9317B50067
:1042C00063D007029357050113F6F7008D47B397A4
:1042D000C70093C7F7FFF58FB706000FD58FC1B79B
:1042E000935755019207B317F700E5B75CC3828077
:1042F00013F7C50F93F73500B7050140BA959445FC
:104300008A073D473317F7001347F7FF758F98C5A6
:1043100098453315F500598D88C582809387C186ED
:1043200094430347050089E683472500920731A897
:10433000944305466391C604834725000346150050
:1043400092076314D60093E707F8B7E600E093F707
:10435000F70FBA962380F640854693575700339758
:10436000E6005441ADC6938707048A07B7E600E02C
:10437000B69798C382808C4389466393D50283465F
:104380001500834725006365D6008A06B69779BF76
:104390009386E6038A06B69793F7F70F920765B7F9
:1043A00090438D46631ED600834615008347250043
:1043B0006364D6008606D9BF9386C6078606E1BF2A
:1043C00094439147E39AF6F88347150085B793879E
:1043D000070661BFB7160240DC4251777D17F98F9F
:1043E0005D8DC8C28280371702405C439146B18B15
:1043F0006385D700A1466386D706B7177A009387EF
:1044000007201CC1371602405C4237070020130703
:10441000470D9183BD8BBA9783C607001C41B3D764
:10442000D7005CC15442A1829D8ABA9683C6060019
:10443000B3D6D70014C55442AD829D8A3697034740
:104440000700B3D7E7005CC558423983937637003D
:1044500013878182369703470700B3D7E7021CC949
:1044600082805C4354434167C983F98E37F7FF1F4D
:104470000327C770BD8B8907131617016348060011
:10448000454601476392C702C94739A8094763896E
:10449000E7023D476388E70241476388E7024546F4
:1044A00001476393C700C14785E6B746024083A62C
:1044B0000680C18A8DC6B7167A009386062025A08D
:1044C0000147D9B70547B547C5B70147BD47E9BF5C
:1044D000B7160240D4421396E600E35E06FCB71618
:1044E0003D0093860690B387D7021CC101DF1C41B3
:1044F000858301BF99C5371702405C4B5D8D48CB62
:104500008280B7170240D84B1345F5FF798DC8CB91
:10451000828099C5371702401C4F5D8D08CF82807D
:10452000B7170240984F1345F5FF798D88CF8280E9
:1045300099C5371702405C4F5D8D48CF8280B71711
:104540000240D84F1345F5FF798DC8CF828099C5B9
:10455000371702405C475D8D48C78280B71702401D
:10456000D8471345F5FF798DC8C7828003570500EA
:104570008D679387070483D625007D8F83D7050039
:10458000D58F83D64500D58F83D66500D58F83D64A
:104590008500D58F83D6A500D58F83D6C500D58F4E
:1045A00083D6E500D58FD98F2310F5000357C501B9
:1045B000FD779387F77FF98F231EF50083D70501D9
:1045C0002318F50082808357050091C593E70704FF
:1045D0002310F5008280C207C18393F7F7FBC2075F
:1045E000C183FDB78357050037370140930607C0E5
:1045F000C207C1836300D504B7060040630CD5022F
:10460000938606406308D502B716004013860680DD
:104610006302C502938606C0630ED50013070740E8
:10462000630AE50037570140930607C06304D500CD
:104630006317E50003D7250093F7F7F8D98F3717ED
:104640000040630DE500130707406309E50093F799
:10465000F7CF03D76500C207C183D98F2310F500B8
:1046600083D745002316F50283D705002314F502EE
:10467000B7370140138707C0630EE50093870740F3
:10468000630AF500B7570140138707C06304E500CC
:104690006316F50083C785002318F5028547231AA2
:1046A000F50082808357050203D6050003D8250054
:1046B000C207C183F99BC207C1832310F502835748
:1046C00005028356450003578501C207C18342078F
:1046D00041831377C7F8518F03D68500F59BC20637
:1046E00033660601D18F37360140130806C0C182F8
:1046F000630E050113060640630AC50037560140E4
:10470000130806C0630405016313C50203D6A500A0
:10471000DD9B03D8E500D18F03D64500ED9B93F6D2
:10472000F6CFD18F03D6C50033660601D18E231292
:10473000D500231CE50003D76500231AE5022310EA
:10474000F50282808357050265771307F7CFC2070A
:10475000C183BD9BC207C1832310F50283570502A5
:104760008356450003D88500C20713960601835679
:104770008501C18393F7F7FD758F83D605004182CC
:10478000A206558F83D6250042074183B3E6060172
:104790009206D58FB7360140C207138806C0C18381
:1047A000630E050193860640630AD500B7560140A3
:1047B000138806C0630405016311D50483D6A500E0
:1047C00093F7F7F703D8C5009206D58F83D6450037
:1047D000C207C183920693F7F7FBD58FFD769386C8
:1047E000F63FF18E03D6E500C207C18333660601AA
:1047F0000A06D18E1396060141822312C500231C9E
:10480000E50003D76500231CE5022310F502828032
:104810008357050203D88500C207C18393F7F7EFDA
:10482000C207C1832310F502835705028356450052
:104830000357C501C20713960601420783D6050038
:1048400041831377C7F8558F83D62500C18393F72B
:10485000F7DFB3E60601A206D58FB7360140C207DF
:10486000138806C04182C183630E0501938606400A
:10487000630AD500B7560140138806C063040501DA
:104880006312D504FD769386F67FF58F83D6A50057
:1048900003D8C500A206D58F83D64500C207C183C1
:1048A000A20693F7F7BFD58FF576FD16F18E03D6E6
:1048B000E500C207C183336606011206D18E139646
:1048C000060141822312C500231EE50003D76500BF
:1048D000231EE5022310F502828003570502FD77AF
:1048E000FD17F98F2310F502035805028356450082
:1048F0008357C50165771396060183D60500130714
:10490000F7CF7D8FF977A206FD17558FB3F7070113
:1049100083D6250003D8850042074182B3E606010D
:10492000B206D58FB7360140C207138806C041834F
:10493000C183630E050193860640630AD500B7560E
:104940000140138806C063040501631CD500F1769D
:10495000FD16F18E03D6C5001A06D18E13960601F8
:1049600041822312C500231EE50003D765002310F2
:10497000E5042310F50282808357050091C593E773
:1049800017002310F5008280C207C183F99BC2077C
:10499000C183C5BF8357450491C52167D98F2312B1
:1049A000F5048280C607C583DDBF8357C50009C6ED
:1049B000DD8D2316B500828093C5F5FFFD8DD5BF33
:1049C00083578501C207C183DD9BDD8D231CB500A4
:1049D000828003578501FD779387F77FF98FA205C2
:1049E000CD8FC207C183231CF50082808357C50188
:1049F000C207C183DD9BDD8D231EB5008280035776
:104A0000C501FD779387F77FF98FA205CD8FC20788
:104A1000C183231EF5008280835705029205C207D9
:104A2000C18393F7F7FDCD8FC207C1832310F50231
:104A30008280035705028547B397B70093C7F7FFF6
:104A4000F98F2310F50283570502B315B600DD8DEB
:104A5000C205C1812310B50282802312B502828073
:104A6000035505016D8D3335A000828093C5F5FF98
:104A7000C205C1812318B500828083570501035503
:104A8000C500ED8F4205418189C76D8D3335A0008A
:104A900082800145828093C5F5FFC205C18123183C
:104AA000B500828083560501F577FD17F58F83D613
:104AB0006500397122DC06DED58F03D7C5002318C7
:104AC000F5008356C500FD779387379FF58F83D612
:104AD00045002A842EC6D58F83D68500D58F83D6F0
:104AE000A500D58F2316F50083574501C207C18362
:104AF00093F7F7CFD98F231AF5006808EFF0BF8E30
:104B0000B747014093870780B245631EF404A2575C
:104B10008356C4006547B387E702C206C186984141
:104B200063D5060406070356C4004206B3D7E7025E
:104B3000130740064186B3D6E702B3F7E7029206B1
:104B4000635706028E0793872703B3D7E70213F74D
:104B50007700B367D700C207C1832314F400F25073
:104B6000625421618280925765B70A076DBF920730
:104B700093872703B3D7E702BD8BD58FE9BF81C9E0
:104B80008357C5000967D98F2316F5008280035724
:104B9000C500F977FD17F98FC5BF13F7F50F8547E6
:104BA0001583B395B7006319F7009307C5009843C1
:104BB00001CED98D8CC38280894693074501E318C5
:104BC000D7FE93070501E5B793C5F5FFF98DDDB76E
:104BD00093F5F51F2312B5008280035505006D8DF6
:104BE0003335A000828013F7F50F85461583B39700
:104BF000B6006313D7020357C500F98F03570500AA
:104C000001454207418381CB0545A181B315B5001C
:104C10006D8F3335E000828089466315D7000357D6
:104C20000501E1BF03574501C9BFA1818547B3977E
:104C3000B70093C7F7FFC207C1832310F500828036
:104C4000B7070050239AA70203C767031377C70F5C
:104C5000238BE7028280B7070050239CA70203C77B
:104C6000A7031377C70F238DE7028280814737B6EA
:104C7000002013F7F70F6364A7006FF07FFC032792
:104C800086733E9783460700850793C6F6FF230089
:104C9000D704C5B7814737B6002013F7F70F636411
:104CA000A7006FF05FFB032746663E978346070029
:104CB000850793C6F6FF2300D704C5B7B707005092
:104CC00003C767001377F70F937627006384066C9A
:104CD000011122CE26CC4ACA4EC852C656C403C7BA
:104CE00077009306000213770703630ED74E13066F
:104CF00000036302C7046316072403C77700054651
:104D00001377F7036306C766630C075C8946631A6B
:104D1000D72203C77700137707046304072203C76A
:104D2000B70313474700A38DE70288471375F50FB4
:104D3000EFF05FF639A419472389E7021147A389E9
:104D4000E702B7B7002083A4876637B4002083C783
:104D5000740003C76400A207D98F231EF46403C73D
:104D60001400B7B70020238FE76403CA0400137749
:104D70000A066300071003C7E7651377070219CF18
:104D800083C7E7651307100293F7F70F638AE700FD
:104D9000130720026384E700639ED7180149A1A08E
:104DA0009387C182B7B9002023A0F9668357C465F1
:104DB0001D4721496366F7000359C4651379F90F4C
:104DC0004A869385C1822685EF2010748357C46577
:104DD000B3872741C207C183231EF46483A70966F2
:104DE000CA9723A0F9668357C4654209135909017C
:104DF0006374F900231E24659387018703D7070096
:104E00009D46A14463E6E60083D4070093F4F40FC3
:104E1000B7B9002003A9096637B500202686CA85E0
:104E20001305C56ECA94EF20306E23A09966620AFE
:104E3000135A8A41814763520A020357C465A14746
:104E400063E6E7008357C46593F7F70F0357C4651C
:104E50001D8F42074183231EE464C20737070050B9
:104E6000C1832318F70291472309F702A309F70228
:104E7000C9A883C7E7652D4793F7F70F636CF70A57
:104E800029678A071307878BBA979C43828783C752
:104E9000340003C724008D46A207D98F13D787009B
:104EA000B7B900206306D70C63ECE6008547630BB7
:104EB000F70289476305F70A1309F00F814715A820
:104EC0009D476309F71093072002630DF70E99477A
:104ED000E314F7FEA9679387879823A0F966014931
:104EE000A94701A8A9679387C79223A0F96601493A
:104EF000C9470357C465C207C18363F4E700231E93
:104F0000F4648357C4651D47A14A6366F700835A5A
:104F1000C46593FAFA0F83A5096656862685EF20A5
:104F2000B05E83A70966BE9A23A059679307F00F66
:104F3000E31FF9EEB70700501D472389E702A38955
:104F4000E702B707005009472383E7007244E244B1
:104F50005249C249324AA24A056173002030A9670A
:104F60009387878E23A0F96601499307300451B7D0
:104F700093F7F70F85466387D70291CF8946638BF6
:104F8000D702E39BE7F2A9679387079723A0F96607
:104F90000149D947B9BF9387418423A0F9660149E4
:104FA000914781BFA9679387079423A0F9660149B8
:104FB000B94781B7A9679387079523A0F966014987
:104FC000B14705BFA9679387C79523A0F966014933
:104FD000D14705B783C7318393F7F70FE39E07ECFB
:104FE000370900201309490EA9651306100493859B
:104FF000A58E13052900EF20305123A02967ADB7F6
:1050000083C72400231EF4641DB5B7B7002083C7EF
:10501000875D2380F4000357C4658547E3E4E7FE1A
:1050200039B503C72400B7B70020238CE75C01B56E
:105030001377FA018947E31FF7EE83C744006383C0
:10504000E704636EF7000547E396E7EE3707005085
:105050008347770393F7870FA30BF702C9BB1307A7
:105060001008638AE70213072008E395E7EC370787
:1050700000508347A70393F7870F93E72700230D7B
:10508000F70275B3370700508347B70393F7870FCD
:10509000A30DF70269BB370700508347670393F7F7
:1050A000870F93E72700230BF70251B3B7B7002010
:1050B00003C7C76E7D8B19EB9387C76E83D7270015
:1050C0000547E399E7E62389F18695B38946E3131B
:1050D000D7E69387C76E83D62700E39D06E483C790
:1050E00047006385E7046360F7020547E394E7E45C
:1050F000370700508347770393F7C70FA30BF702D7
:1051000093E7370091BF13071008638CE70213077A
:105110002008E391E7E2370700508347A70393F79E
:10512000C70F230DF70293E7370091BF37070050F1
:105130008347B70393F7C70FA30DF70293E7370031
:1051400081BF370700508347670393F7C70F230BCF
:10515000F70293E7370081BF238004006DBDB7B726
:1051600000202386076E9387018783D607000547B3
:10517000E37FD7CA2390E7005DB9B7B70020138754
:10518000C76E035747002396076E930610086313F4
:10519000D70237070050034767030D8B8D46631511
:1051A000D70005472386E76E9387018783D60700DC
:1051B00009477DBF85466317D7003707005003476F
:1051C0007703E1BF930620086317D7003707005025
:1051D0000347A703D9B78946E318D7FC3707005020
:1051E0000347B7035DBF83C677001306100293F62B
:1051F000F603638BC60A130620026384C60CE3928F
:10520000E6D437B700200347E76595461377F70FD5
:105210006306D70699466316D708B7B4002083D72C
:10522000C4651D4721446366F70003D4C465137445
:10523000F40F37B90020B7B7002003A58766832590
:1052400009662286EF20502C83D7C465131704010A
:105250004183998FC207C183239EF4648327096623
:105260003E9423208966B70700502398E70203C7BE
:105270002703134747002389E702E1B103C737003B
:10528000B7B6002083D6C66513770708558F137706
:10529000F70FA381E70009472389E702A3890702E3
:1052A0004DB123980702C5BF03C767031377C70F24
:1052B000238BE70203C7670313474700238BE702EB
:1052C00049B103C7A70313474700238DE70203C76C
:1052D000A7031377C70F13672700238DE70295B144
:1052E000B7B7002083C7E7656395F60437B400209D
:1052F0008327846683C6170003C70700558F83C6BC
:105300002700558F83C63700558F05CB83C51700FF
:1053100003C7070037A50000A205D98D03C72700E2
:105320001305459942074D8F93958601D98DEF302E
:10533000802DB70700509C4729B183C5670037A56A
:1053400000001305459AEF30002C8327846637A5AB
:1053500000001305459B83C54700EF30C02A832713
:10536000846637A500001305459C83C55700C1B767
:1053700003C7770013770704E30507BC03C7770368
:1053800013474700A38BE70288471375F50FEFF02B
:10539000FF8D45BE9376170085CAA3810700A389B8
:1053A0000702A38B0702A38D070209472389E7029F
:1053B000238BE702238DE70203C7670013671700FB
:1053C0002383E7007300203093764700F5DA03C7A4
:1053D00057001147F5B7B71702409843B706FFF8D3
:1053E00041111367170098C3D84337060200758F21
:1053F000D8C39843B706F7FEFD16758F98C3984338
:10540000B706FCFFFD16758F98C3D843B70681FF1A
:10541000FD16758FD8C337079F0098C702C402C610
:105420009843C166558F98C3B716024013070050C2
:105430009C42F18F3EC6A24785073EC4B24781E732
:10544000A247E397E7FEB71702409C431397E70094
:105450006350070A85473EC6324785476318F708F9
:10546000B72702409843B706C1FFFD16136707012F
:1054700098C39843719B98C398431367270098C3B8
:10548000B7170240D843D8C3D843D8C3D84313670B
:105490000740D8C3D843758FD8C337F7FF1F0327FA
:1054A000C77093161701D84363C60604B7063D00BC
:1054B000558FD8C3371702401C43B7060001D58F5C
:1054C0001CC3B7170240984393166700E3DD06FE3E
:1054D000D843B7160240719BD8C3D843136727003F
:1054E000D8C32147DC42B18BE39EE7FE41018280B5
:1054F00002C69DB7C1666DBF3708100001117D1847
:105500003377B80026CA3378D80093D4450113D333
:105510004601131E37004EC61357D5010E08935788
:10552000D60193F4F47F1373F37F06CE22CC4AC8DE
:1055300093D9F50193DEF6013367C701131F3500D8
:1055400033E80701931F3600338E64406380D91916
:105550006356C0136304031CB70680009307F07FF3
:105560003368D800638FF4369307800363C0C73570
:10557000FD4763CDC747130500023305C541B3D7C7
:10558000CF01B316A8003399AF00DD8E3339200167
:10559000B357C80133E926011D8F33092F41B337B3
:1055A0002F013306F7409317860063D4072437078B
:1055B00080007D173374E600630C042C2285EF20F5
:1055C000A066130785FF93070002998FB357F90070
:1055D0003316E400D18F3319E9006341972A33056C
:1055E0009740130615007D47634DC7381307000227
:1055F000118FB356C9003319E9003397E700558F6F
:10560000333920013369270133D6C70081449377AA
:10561000790081CF1377F90091476308F7001307EA
:105620004900333927014A963A899317860063D691
:10563000071C138514009307F07FCE856304F520C3
:10564000B70780FFFD17F18F9398D70113593900E1
:10565000A607B3E82801B1831375F57F9396C700B9
:105660005205F2406244B182FE05C98ECD8ED2440D
:105670004249B2494685B68505618280631E0E0A9D
:10568000138314001373E37F63170322B367E701E7
:10569000B368F801639D041A638707406386084472
:1056A0003309FF41B307074133362F013386C74023
:1056B0009317860063D6074C3389EF41B307E84060
:1056C00033B62F013386C740F68991B76350C00FB8
:1056D0006300030CB70680009307F07F3368D8009F
:1056E000638AF43A9307800363CBC713FD4763DFF4
:1056F000C73513090EFE93070002B3562801630A4B
:10570000FE00130900043309C94133192801B3EF1E
:105710002F013339F0013369D90031A2B367F801A1
:10572000638A071C9307FEFF638C07389306F07F9C
:105730006309DE1A3E8E0DBDB305934063910422CA
:10574000B367E701638707329387F5FF63810744F7
:105750009306F07F638CD520BE859307800363CCCE
:10576000B72AFD4763CFB73C930700028D8F3319EB
:10577000F700B356BF00B317FF003369D900B33742
:10578000F0003357B7003369F9003308E84041AC03
:10579000B367F801638007349307FEFF638A07202D
:1057A0009306F07F6308DE2E3E8E2DBF631E0E141F
:1057B0009386140093F7E67F63910734B367E7019C
:1057C0006395042C6380073EB367F801638E07304E
:1057D0003309FF01B3070701333FE9013386E701CE
:1057E0009317860063D70700B70780FFFD177D8EEC
:1057F000854493777900E39F07E09317D601935888
:105800003900B3E8F800935736001307F07F638D33
:10581000E404B207B18313F5F47FCE8581B5336913
:10582000F801333920017A99B337E9013386E7006B
:1058300093178600E3DF07FA85049307F07F6396EA
:10584000F418CE851305F07F8147814801BDC1EB77
:105850006384083A931636009317D8018D82B3E813
:10586000D700F68993573800B3E7F800F9DB814594
:105870001305F07FB70708008148CDB3370680FFD6
:105880007D167D8E93777900998CE39507D8B5B70F
:105890004A85EF20603913078501FD47E3D5E7D23C
:1058A000130685FFB317C900014905BB3369F80129
:1058B00033392001DDB13309FF4133060741333469
:1058C0002F01330486409317840063CD0724B36807
:1058D0008900E39308CE8147814981441DBFE39845
:1058E00008F80E059317D7010D81B3E8A700935769
:1058F00037009DBF0E059317D7010D81B3E8A700B0
:10590000F2849357370011B7330593406382041232
:10591000B70680009307F07F558F630DF32E930732
:10592000800363CBA720FD4763C3A72A9307000228
:10593000898F3319F700B356AF00B317FF003369EF
:10594000D900B337F0003357A7003369F9003A980C
:105950007E99B337F901338607019A84D1BDB70622
:1059600080009307F07F558FE319F3DE931736001D
:105970008D839318D801B3E81701F689935738003F
:10598000E5B5130715FE9306000233D7E700630A57
:10599000D600930600043386C6403396C7003369A9
:1059A000C900333920013369E9000146814491B5CA
:1059B0003309FF01B30707013336E9013E96931718
:1059C00086008544E3D707E28944B70780FFFD17C7
:1059D000F18F135719001379190033692701939830
:1059E000F70133E9280113D6170015B113090EFE8C
:1059F00093070002B3562801630AFE00130900044E
:105A00003309C94133192801B3EF2F013339F001AC
:105A10003369D90059B63369E70133392001338935
:105A20002F41B3B72F013306F8409A84F689A5BEFB
:105A3000B367E701638207189307F5FF6384071CC8
:105A40009306F07F6304D5123E85D1BD9307000213
:105A5000B387C741B316F8003399FF0033D6CF019F
:105A6000D18E33392001B357C80133E926013E975F
:105A70005DBB931736008D839318D801B3E81701E7
:105A8000AE8493573800F68949B3EDC33369F80102
:105A9000E31F09DC0E059317D7010D81B368F500EC
:105AA00093573700D1B36381080E931636009317CE
:105AB000D8018D82B3E8D700F6899357380091BB9F
:105AC0003309FF41B3070741333F2F013386E741D5
:105AD0008544D1BC0E059317D7010D81B368F5003D
