:100000006F40903013000000130000001300000048
:100010001300000013000000130000001300000094
:100020001300000013000000130000001300000084
:08003000130000007300100032
:100038000000000000000000A8020000AC02000060
:10004800000000004E4A0000000000000000000010
:10005800504A0000524A0000000000000000000062
:10006800544A000000000000564A0000000000004A
:10007800584A00005A4A00005C4A00005E4A0000E4
:10008800604A0000624A00000C04000020040000DE
:10009800460400005C040000940400006E4A00005E
:1000A800704A0000724A0000744A0000764A000054
:1000B800784A00007A4A00007C4A00007E4A000024
:1000C800804A0000824A0000844A0000CE040000F2
:1000D800884A0000D40500008C4A00008E4A0000BF
:1000E800FA050000140600003A060000964A0000CF
:1000F800984A00009A4A00009C4A00009E4A000064
:10010800A04A0000B0020000DA0200000403000068
:1001180052050000AA4A0000AC4A0000AE4A00009E
:10012800C6060000B24A0000B44A0000B64A000001
:10013800B84A0000BA4A000060060000BE4A000043
:100148002E0300005803000086060000A0060000E9
:10015800C84A0000CA4A0000CC4A0000CE4A000043
:10016800D04A0000D24A0000D44A0000D64A000013
:10017800D84A0000DA4A0000DC4A000006580000AD
:10018800E04A0000E24A0000EC0300007A030000A5
:10019800A4030000CE030000EC4A0000EC060000B7
:1001A800F04A0000F24A0000F44A0000120700007A
:1001B800F84A0000FA4A0000FC4A0000FE4A000023
:1001C800004B0000024B0000044B0000064B0000EF
:1001D8000000000000000000000000000000000017
:1001E8000000000000000000000000000000000007
:0801F8000000000000000000FF
:100200003D432A876373C3029377F700BDEFADE5E3
:10021000937606FF3D8ABA960CC34CC30CC74CC7F5
:100220004107E36BD7FE11E28280B306C3408A0622
:100230009702000096966780A6002307B700A306E2
:10024000B7002306B700A305B7002305B700A30432
:10025000B7002304B700A303B7002303B700A3022A
:10026000B7002302B700A301B7002301B700A30022
:10027000B7002300B700828093F5F50F93968500B1
:10028000D58D93960501D58D61B79396270097027A
:10029000000096968682E78086FA9680C1171D8FA9
:1002A0003E96E374C3F8A5B7730020307300203086
:1002B000411122C637440140930550521305048072
:1002C000EF50004719C59305505213050480EF50B5
:1002D000604A3244410173002030411122C6374444
:1002E00000409305505213050440EF50604419C577
:1002F0009305505213050440EF50C047324441016A
:1003000073002030411122C63754004093055052EB
:1003100013050480EF50C04119C5930550521305D1
:100320000480EF50204532444101730020304111D8
:1003300022C63754004093055052130504C0EF50B5
:10034000203F19C593055052130504C0EF50804259
:10035000324441017300203093055052375500401C
:10036000EF50003D09C9EF00907193055052375589
:100370000040EF50204073002030411122C6372446
:1003800000409305505213050480EF50603A19C5A0
:100390009305505213050480EF50C03D3244410193
:1003A00073002030411122C637240040930550527B
:1003B000130504C0EF50C03719C5930550521305FB
:1003C00004C0EF50203B32444101730020309305BC
:1003D000505237250040EF50A03519C593055052B3
:1003E00037250040EF50003973002030B707055023
:1003F00003C70701118B09CB03C707011377B70F99
:100400002388E700EF00B06D730020300545EF4012
:10041000900C85476314F500EF40D00D7300203039
:100420000945EF40500B8547631DF5000945EF4036
:10043000700C130520088145EF10D0295145EF10AD
:100440004062730020301145EF40F0088547631586
:10045000F5001145EF40100A730020302145EF40B0
:10046000900785476316F5021305800CEF10605F57
:100470002145EF40300837A60000B767002013067B
:1004800046C9D1451305800C238107B4EF005012F3
:10049000730020304111414522C6EF40D00385470B
:1004A0006313F5022A844145EF40D00437A60000CB
:1004B000B76700201306C6C9D1451305800C2381F8
:1004C00087B4EF00F00E3244410173002030411137
:1004D0001305000222C6EF4010008547631BF5009C
:1004E0002A8413050002EF40F000B7670020A381C3
:1004F00087B413050004EF40007E85476316F500BE
:1005000013050004EF40007F13050008EF40A07CB6
:1005100085476316F50013050008EF40A07D13051D
:100520000010EF40407B85476316F500130500106F
:10053000EF40407C13050020EF40E07985476316CB
:10054000F50013050020EF40E07A324441017300CA
:10055000203041111305004022C6EF40C077854787
:100560006316F50013050040EF40C07805641305DD
:100570000480EF40407685476316F500130504803C
:10058000EF4040770565EF40007585476315F5003E
:100590000565EF4020760965EF40E07385476315F8
:1005A000F5000965EF4000751165EF40C0728547A1
:1005B0006315F5001165EF40E0732165EF40A07110
:1005C00085476315F5002165EF40C0723244410153
:1005D00073002030411122C6373401408545130590
:1005E00004C0EF40307E11C58545130504C0EF40BF
:1005F000307F32444101730020308545370500408B
:10060000EF40507C11C5854537050040EF40507DD7
:1006100073002030411122C6370400408545130580
:100620000440EF40307A11C5854513050440EF4082
:10063000307B3244410173002030411122C637140F
:100640000040854513050480EF40D07711C58545EE
:1006500013050480EF40D07832444101730020300C
:10066000411122C6371400408545130504C0EF40F0
:10067000707511C58545130504C0EF40707632448E
:10068000410173002030854537150040EF409073DD
:1006900011C5854537150040EF4090747300203038
:1006A000411122C637140040854513050440EF4030
:1006B000707111C5854513050440EF4070723244D6
:1006C000410173002030411122C637340140854575
:1006D00013050440EF40106F11C585451305044014
:1006E000EF4010703244410173002030411122C6A6
:1006F000375401408545130504C0EF40B06C11C567
:100700008545130504C0EF40B06D324441017300CC
:100710002030854537550140EF40D06A11C58545E9
:1007200037550140EF40D06B73002030397106DE41
:1007300022DC26DA4AD84ED652D456D25AD05ECED1
:1007400062CC66CAEF305011EF30D06EEF00007C03
:10075000EF10801037A60000130646CA81450145F8
:10076000EF00006537A600001306C6CAD145014553
:10077000EF000064EF00D03813054006EF10602E44
:10078000A3800188B7670020238307B4B7670020E0
:10079000238807B423800188B7670020A38207B4A9
:1007A000B7670020238207B44146B767002093054E
:1007B0003004214537640020A38A07B2A30104B4A2
:1007C000EF10A05A4146930540044145EF10E0590F
:1007D00041469305500413050002EF10005983476A
:1007E00034B4638B0714B7640020B76C0020B709DA
:1007F0000020938444B9376C0020B7BB002037BB7E
:100800000020034734B485476311F708EF30D02246
:100810001305C012EF10E0240145EF301018130546
:10082000803EEF1000240D45EF3030171305803E59
:10083000EF102023856AEF30302093858A380145F8
:10084000A30104B4AD2A93858A3805458D2A130582
:10085000401FEF1000211305401FEF10802081453D
:100860000145B12A81450545992A13054006EF1037
:10087000401F81450145A122896505459385853243
:100880003D2A1305A014EF10C01D83C7018599C729
:1008900013858CD723880184EF30C07613854931C6
:1008A000EF307024814813088007130780079307EF
:1008B000C00B9306C00B1386493181450145592B66
:1008C00003A64186994681451305800C1D2383C7E5
:1008D000A4051306E00599461D8E930580021305B5
:1008E000800C012BEF30D06B83A641869947639A29
:1008F000F6040964930584640545D12081450145CA
:100900007D281305A00AEF10C0151305A00AEF10EB
:100910004015930584B501455D20930584B50545D3
:10092000792813050032EF10C01381450145412895
:1009300081450545692001A01305803EEF10601236
:1009400079BD03250CB936C6EF705056B2461386F2
:100950000B5B9305CB59EF30106F65B5411106C69F
:1009600022C415E537C40200A1460146930504F2EE
:1009700013053020EF10D02AA1460146930504F25A
:10098000130520202244B24041016F107029854791
:100990006313F50237C4020081460146930504F251
:1009A00013051010EF10D02781460146930504F27D
:1009B00013050010C1BFB2402244410182800111E1
:1009C000896722CC4EC69387876406CE26CA4AC85A
:1009D000AA893E8463E3B7002E8483A7C1874204BB
:1009E0004180A1C3376700200327C7B48A07BA979D
:1009F00083A707E70547639FE704B767002003C79E
:100A000027B43E8919E3EF30F004034729B4854742
:100A10006314F700EF30900583A7C187850723AEE5
:100A2000F18663960904A28513053020EF10205546
:100A3000930540061305800C994622865D2E81455C
:100A4000130520206244F240D2444249B249056174
:100A50006F10E05209476395E700EF30E07D6DBF0E
:100A60000D47E39BE7FAFD5723AEF18675B785473F
:100A70006396F90E83A641861547BE846392E60409
:100A80000969930589B513053020EF10404F930590
:100A900089B513051010EF10804E13050032EF00DA
:100AA000507C814513053020EF10604D1305101068
:100AB00093058964EF10A04C13050019EF00707ABC
:100AC00083A741861147639AE704814513053020C7
:100AD000EF10E04A814513051010EF10404A13054E
:100AE0004006EF0010788965938505F413053020E2
:100AF000EF10E048814513051010EF104048130532
:100B0000B009EF0010766244F240D2444249B24943
:100B10001305B00905616F00D0741D476390E702AB
:100B2000814513053020EF108045130510108145D5
:100B3000EF10E0441305803EEF00B072A28513056C
:100B40001010EF10C043930580071305800C9946E1
:100B500022864524814513050010EDB5F24062441C
:100B6000D2444249B249056182804111A96722C439
:100B700003A4473726C24AC006C6C14404C844C8B5
:100B800013090008232A2401AA850545EF103049DE
:100B90002328240104C844C8B24022449244024994
:100BA0004101828083A74180011122CC26CA4AC814
:100BB0004EC606CEAA89AE8432893684A1EF1305CB
:100BC000A002653793854903C205C1810545EF1031
:100BD000D04693054903C205C1810545EF10F04594
:100BE0001305B002593793858402C205C1810545BA
:100BF000EF10B04493058402C2050545C181EF1092
:100C0000D0436244F240D2444249B2491305C00283
:100C10000561A1BF0547639FE7001305A002B13737
:100C200093855903C205C1810545EF101041930515
:100C3000590355B79309850213098602C20942096F
:100C4000094793D90901135909011305A0026398B3
:100C5000E702213FCE850545EF10303ECA850545A8
:100C6000EF10B03D1305B002093793855403C20558
:100C7000C1810545EF10703C93055403B5BFF535B0
:100C8000CE850545EF10703BCA850545EF10F03A5B
:100C90001305B002D93D93854403C205C1810545C2
:100CA000EF10B0399305440381BF03C6A18083C60A
:100CB000B180411122C43304D602FD167D16C2064E
:100CC0004206C18241828145014526C206C6B7045B
:100CD0000020C93D11E4B240224492444101828087
:100CE00083D5841805457D14EF103035E5B723A270
:100CF000A18085461387A1809387B18063EAA6000F
:100D0000930670F82300D70041572380E7008280C4
:100D1000C1562300D700130770F8C5BF79714ECEB6
:100D2000A967930975001206938787D7C20922D451
:100D30004AD056CA5AC85EC662C466C206D626D211
:100D400052CCAA8AAE8B3304F600014993D909012B
:100D5000370C0020414BB3862B01C206C1824E8660
:100D6000B68556858135034A04E0A14493771A007D
:100D70008DCF83D58180FD14054593F4F40FEF10DA
:100D8000D02B135A1A00FDF005090504E31569FD7F
:100D9000B250225492540259F249624AD24A424B0A
:100DA000B24B224C924C4561828083558C18E1B73E
:100DB000011122CC26CA4AC84EC606CE2A89AE895F
:100DC000B2840144B38784000386070001EAF2403D
:100DD0006244D2444249B24905618280131534000D
:100DE0004A9542050504CE8541814204053F418074
:100DF000D1BF797122D426D24AD0AA842E893284D6
:100E00009305000213861600480836C606D602CAA5
:100E100002CC02CEEFF0CFBEB246A54763F9D702AF
:100E2000A2854808EF00A0665008CA852685493784
:100E3000B25022549254025945618280B387E7022E
:100E4000FD1693F6F60FFDFA3364F402D1BF854721
:100E50002947D5BF397162CC6AC8368C328D93066A
:100E6000F8FF1386F7FFAE962A96C206420656D2C0
:100E7000C1824182C16A26DA4AD84ED652D466CAA5
:100E80006EC606DE22DC5AD05ECEBA8D3E8A42891C
:100E9000C68C8149013B8144FD1A63E12403F25071
:100EA0006254D2544259B259225A925A025BF24BBE
:100EB000624CD24C424DB24D2161828033D4290321
:100EC000814B014B330484036A9463654B018504B1
:100ED000EE99E1B7B3D74B03A29783C7070063929C
:100EE0000C02C207C18393D5370089831397B500DD
:100EF0009607D98FDD8D0545EF103014050BE29B69
:100F0000E9B7D685E3E9FCFE8145F5B703A88183FF
:100F100041111307F00F81479306F00F13062002CB
:100F200093050002054506C622C426C24AC0EF103A
:100F3000E07EC1460146854513057006EF00D06B83
:100F4000C1460146854513057002EF00F06AC146AF
:100F50000146854513054006EF00106A8545C146E8
:100F6000054613050006EF003069138441800840F0
:100F700013090008AD3BA96783A4C7361305800C8D
:100F800023AA2401EF00F02D1305400623A8240115
:100F9000EF00302D13056003C93E13054006EF0036
:100FA000502C1C40814589CF05479305000C63896F
:100FB000E7000947930500076384E7009305000AEB
:100FC0000545EF10D0051305A003453695450545A9
:100FD000EF10F0041305200B493EB1450545EF1015
:100FE0001004B1450545EF10900381450545EF100C
:100FF0001003930530030545EF107002930530038D
:101000000545EF10D0011305700B8536930550038D
:101010000545EF10D0001305B00B813E930570031A
:101020000545EF10C07F1305000C81369305C00203
:101030000545EF10C07E1305200CEFF01FB385456A
:101040000545EF10C07D1305300CEFF01FB2C94508
:101050000545EF10C07C1305400CEFF01FB1930560
:1010600000020545EF10A07B1305600CEFF0FFAF09
:10107000BD450545EF10A07A1305000DEFF0FFAE5A
:101080009305400A0545EF1080799305100A054540
:10109000EF10E0781305000EEFF03FAD9305000D63
:1010A0000545EF10C07791450545EF104077B545F0
:1010B0000545EF10C076C5450545EF104076CD4596
:1010C0000545EF10C0759305B0020545EF1020757A
:1010D0009305F0030545EF10807493054005054521
:1010E000EF10E0739305C0040545EF104073E14530
:1010F0000545EF10C072B5450545EF104072AD458E
:101100000545EF10C071FD450545EF104071930591
:1011100030020545EF10A0701305100EEFF0FFA48C
:101120009305000D0545EF10806F91450545EF10C3
:10113000006FB1450545EF10806EC5450545EF10C0
:10114000006ECD450545EF10806D9305C002054545
:10115000EF10E06C9305F0030545EF10406C93052C
:1011600040040545EF10A06B930510050545EF10F1
:10117000006B9305F0020545EF10606AFD450545DB
:10118000EF10E069FD450545EF1060699305000229
:101190000545EF10C068930530020545EF10206843
:1011A00013051002EFF07F9C4545EFF01F9C1305DF
:1011B0008007EF00100B13059002EFF01F9B2244F5
:1011C000B2409244024941016FF03FAE797126D29C
:1011D0004ECE52CCB70400207D7A22D456CA5AC8CB
:1011E00006D64AD0938404000144130A5A1A7D5B40
:1011F0009389418583D7040011466C0013978700BB
:10120000A183D98F1145231641012317F10013093A
:101210000008EF10E0719387818583C7070013876B
:10122000818593F7F70FA1C36313090039C483C7FE
:1012300019002300070003C72900A2070504D98F5E
:1012400042042391F4004180A5479104E314F4FA89
:101250000145B250225492540259F249624AD24A8C
:10126000424B456182807D19420913590941E30FC0
:1012700069FB0545EF00E07E79BF0545D9BF411107
:1012800022C483C7718526C293854185BE951145C9
:1012900006C6EF10207A938441859387718511C526
:1012A00003C7070005072380E70083C6070005473B
:1012B000639FE60083C604001307500A6384E600B8
:1012C00023800700B24022449244410182800D46AF
:1012D000E39AC6FE23800700238CE184E5B7B7B705
:1012E000002003A78759B7070550854698C723886C
:1012F000D18403C70700136717002380E7008280AB
:101300008965397193061005130600059385055804
:10131000114506DE22DC26DA4AD84ED652D4EF102A
:10132000B017014685451145EF108063EF0010436B
:101330009387818523800700513D05C1B7A6000032
:101340002966938686CC130646CB9305B01237A543
:1013500000001305C5CCEF70204913848185B704C4
:101360000020230004009384440223000400138916
:101370008402930950FA83D7040011466C08A30E27
:10138000F10083D724001145230E31011397870004
:10139000A183D98F231FF100EF10805909459104D3
:1013A000EF00206CE39924FD9304100883470400A8
:1013B00093F7F70F89E7FD14C204C18085EC230081
:1013C00004009304000813894185130AF00FFD59A6
:1013D0008347190003472900F98F6391470385E884
:1013E000B7A600002966938686CC130646CB9305E4
:1013F0002013B1BF0545EF00C0664DBFFD14C20408
:10140000C184E38F34FD0545EF00A065D1B723000B
:1014100004006D3B19C9B7A600002966938686CCE7
:10142000130646CB930590131DB7EF005033914739
:101430003EC495473EC299473EC0930890021308A8
:101440008002930760021307B0049306900413060A
:101450008004A9452545EF00207A376500201966EC
:10146000130785D7B7B70020130585D78546130620
:101470000682814523ACE758EF005004F2506254D5
:10148000D2544259B259225A01452161828063DB0C
:1014900005009307D0022300F5000505411181479F
:1014A000A9463DA0E5FD930700032300F5008280D7
:1014B000180813881700BA9733E7D502B3C5D502C9
:1014C0001356F741318F118F2388E7FE9377F80F7A
:1014D000E5F18A86B6976394F6004101828003C7DE
:1014E000F7FF0505FD1713070703A30FE5FEE5B793
:1014F000797122D44AD04ECE52CC56CA06D626D2C4
:10150000834715003704004081452306F1008347D7
:1015100005001309C100130AF100A306F100834777
:10152000250013050440130404402307F100EF4095
:1015300060078965938AC55193894513A144834700
:101540000900FD14CE85B3D79740858B91E3D685EE
:1015500013051020EF00B022054691452285EF408B
:10156000E00185452285EF40400465DD0146914557
:101570002285EF40A00085452285EF40C0038145CC
:101580002285EF402002C5FC0509E3192AFBB25071
:10159000225492540259F249624AD24A45618280E9
:1015A000B7C50200011181460146938505F2130576
:1015B000102006CE2316010023070100EF0050661D
:1015C00037050040894513050540EF3090796800E4
:1015D00005371305400691296800193FF24005615F
:1015E0008280411185451305B00606C6EF00900EB6
:1015F00085451305C006EF00F00D01459D2181458D
:101600001305C006EF00100D0145A129B240814528
:101610001305B00641016F00F00B41118145130520
:10162000B00606C6EF00100B81451305C006EF009B
:10163000700A01453D2185451305B006EF0090096C
:10164000014505211305C0068545EF00B008B240ED
:101650000145410139A1411122C426C206C6AA840E
:1016600025447D141374F40F0DEC81451305B00669
:10167000EF0050060145F52685451305B006EF003D
:1016800070050145F92E1305C006EF00100739C596
:101690002244B240924485451305B00641016F00D3
:1016A000700393978401E187854563C307008145F3
:1016B0001305C006EF001002014565268545130598
:1016C000B006EF0030010145692E860481451305FF
:1016D000B00693F4F40FEF00E07F61B71305B00696
:1016E0008145EF00207F2244B240924401454101F0
:1016F0008DAE411106C622C426C22E84B2844AC0D1
:101700002A89C53513052005B9370145A937137551
:10171000F90F9137A294639884002244B240924416
:1017200002494101DDBD05040345F4FF2D37E5B74E
:10173000411181454AC02A891305B00606C622C454
:1017400026C2EF0020790145292E85451305C006E4
:10175000EF004078A144014401452126814513054D
:10176000B006EF0020770145ED2C85451305B00646
:10177000EF0040760145F52406041305C0061374F6
:10178000F40FEF00807701C505041374F40FFD1406
:1017900093F4F40FF1F081451305B006EF00807368
:1017A0000145C12481451305B006EF00A072014533
:1017B0004D2C81456313090085451305C006EF00D4
:1017C000607185451305B006EF00C0700145512CCE
:1017D00081451305B006EF00E06F014559242285CD
:1017E000B24022449244024941018280011106CE56
:1017F00022CC26CA2A844AC852C432892E8A4EC6AE
:10180000EFF03FDE13052005B9350145A935137505
:10181000F40F9135EFF0FFDC130530059304F9FF69
:101820001D3D0144B3349000636B24016244F240D7
:10183000D2444249B249224A05616FF01FDEB30922
:101840008A000545639384000145DD350504238046
:10185000A9001374F40FC9BF79719306403105468E
:1018600085451305B00606D626D24ECE52CC56CAB2
:1018700022D44AD0512393064031054685451305AD
:10188000C0069969617A8D2BAD44B70A002093890F
:101890000950130A0A70130670089385CA04054597
:1018A000893D09466C001305E00523163101913589
:1018B00009466C0013051006231641011D3D05461F
:1018C0006C00130500031D3705466C00130510035B
:1018D0000344C100213F054569220349C10011802D
:1018E000FD141344F4FF93F4F40F058813791900E1
:1018F00081E837A50000130585D4EF70101701A00B
:1019000013054006B92AE31824F9930710026C0066
:101910000546130560082306F100EFF09FDD37A5AB
:101920000000130505D6EF705014B25022549254A3
:101930000259F249624AD24A4561828001118547C3
:1019400005466C00130560082306F10006CEEFF093
:101950005FDA1305900805469305B100413D034742
:10196000B10093079008130580576318F702130519
:10197000600909466C0023160100EFF03FE70345BC
:10198000C1008347D10022053E95130585FD9307CD
:10199000805763F4A70013058057F24005618280E9
:1019A000B7170240DC4337177A0013070720C983B3
:1019B000BD8BB387E7023727F40013070740F165B3
:1019C0009306100213060002938505200945BA9775
:1019D00023AEF1846F10402C011126CAB754004089
:1019E00022CC4AC84EC606CEAE89328901449384C1
:1019F0000480634A2401F24062444A85D244424949
:101A0000B24905618280930500042685EF3090512C
:101A10007DD9B38789008385070026850504C20523
:101A2000C181EF30904FF1B7828083A78183371750
:101A30007A0013070720B3D7E702814601473385B1
:101A4000A702B7F700E023A0070094C7D8C705474F
:101A500098C3B7F600E09846DC4699E3E37DE5FEDF
:101A6000828083A781830967130707F4B3D7E7024E
:101A7000814601473385A702B7F700E023A007009E
:101A800094C7D8C7054798C3B7F600E09846DC4628
:101A900099E3E37DE5FE828009E5814601468145C3
:101AA000A1AE0547E30BE5FE0947E308E5FE0D4758
:101AB000E305E5FE1147E302E5FE1547E30FE5FC0C
:101AC0001947E30CE5FC1D47E309E5FC21476318D2
:101AD000E50081460146814513050002D1B725473F
:101AE0006318E500814601468145130510024DBF8C
:101AF00029476318E5008146014681451305000426
:101B000045B72D476318E500814601468145130519
:101B1000100479B731476318E500814601468145D5
:101B200013052004B5BF35476318E500814601461B
:101B3000814513053004ADB739476318E500814688
:101B40000146814513054004A1BF3D476318E500E8
:101B50008146014681451305500499B78280797109
:101B600022D485452A841305002006D626D2EF30DC
:101B700040502285153703A7C185B7C70105938754
:101B800007D0316563E3E700216537240140EF307A
:101B9000603A13050440EF304000B7070E003EC620
:101BA0008A85854713050440230AF10002C002C25A
:101BB00002C402C8EF30C002854513050440EF306F
:101BC000A00713050440EF30200893040440268545
:101BD000EF3020086DFD1305044037240140EF303D
:101BE000C007130404402285EF30C0076DFDB250DA
:101BF000225492544561828079714ECE52CC56CA9D
:101C0000328AAE8AB689014693068004814506D69B
:101C100022D426D24AD046C042C23EC43AC68344E9
:101C200001030349410303448103F92256859306C6
:101C3000800401468145C9225285930680040146ED
:101C400081455D2A4E8593068004014681456D22BB
:101C500032479306800401463A858145712AA2479E
:101C60009306800401463E858145792212489306F9
:101C700080040146428581454122824893068004C2
:101C80000146468581458D2A4A8593068004014692
:101C900081459D2226859306800401468145A92A17
:101CA00022852254B25092540259F249624AD24AD1
:101CB000930680040146814545613DAA011122CC6D
:101CC00026CA2E84AA848545096506CE32C636C446
:101CD000EF304038B707055003C70700130560050C
:101CE0008D451377F70C2380E70003C707001367C0
:101CF00027042380E70003C717001377970FA380FB
:101D0000E700A24632462392D7002393C70084C738
:101D1000C0C703C717001377F703A380E70003C703
:101D200017001377F70FA380E70003C717001367A7
:101D30000701A380E70003C727001367470023813B
:101D4000E70003C7170013671700A380E70003C766
:101D50000700136717002380E700DD2A6244F24082
:101D6000D24413056005056155AA011122CC054531
:101D70002E84854506CE26CA4AC802C0328902C2D0
:101D800002C402C6EF30E02E93068004054681456A
:101D900022859D209374F40113555400A685137574
:101DA000F50FEF30E00A8547339797000A853AC070
:101DB00002C24AC43EC6EF20706B59459DC493775A
:101DC000E4015D459DC38947614563F097027188D1
:101DD000654501CC9147694563F99700A54713050F
:101DE000700263F49700130580030D2AF2406244E9
:101DF000D2444249056182809307F00F630BF50CD2
:101E0000797122D41354550026D24AD04ECE52CCEA
:101E100006D61D889374F5003689328AAE8935E07E
:101E200085451145EF30E0248547B3949700C204FF
:101E3000C180231291006399F90093170901C183AE
:101E4000A18391E38D473EC4A967938787360A042F
:101E50003E9400401379F90F4C0022854AC6EF20CA
:101E6000106A85476397F9005286A6852285EF2080
:101E70003075B250225492540259F249624A456177
:101E8000828085476315F4008545214561BF8947F8
:101E90006315F4008545414571B78D476316F4001D
:101EA000854513050002BDBF91476316F4008545C3
:101EB0001305000485BF95476316F4008545130597
:101EC00000088DB79947E311F4F685451305001016
:101ED00091BF82809357550013972700A967938776
:101EE0008736BA9798439377F50005453315F50083
:101EF00099C108CB828048CB8280135735009376F6
:101F0000C70129671307873636971C4398478547CB
:101F10003395A700798D3335A00082809357550003
:101F20000547938707043315A7008A0737E700E0C2
:101F3000BA9788C382809357550005479387070651
:101F40003315A7008A0737E700E0BA9788C3828075
:101F5000B7E700E03E952300B54082808280828012
:101F600001112304A100280006CEA304B10023051B
:101F7000C10036C6EF209070F24005618280935711
:101F800085002967130787388A07BA9798430D8910
:101F90000A058357C7023A95B385F5028967938787
:101FA0000771B3D5F502C205C1814CD9828001E920
:101FB000930680310146854521456FF0FFE3854753
:101FC0006318F50093068031014685452545F5B730
:101FD00089476318F50093068031014685452945F8
:101FE000E9BF8D476318F5009306803101468545AA
:101FF0002D45E1B7C1476319F500930680310146CD
:1020000085451305900855BFC5476319F50093062C
:102010008031014685451305B00845B7C9476319A6
:10202000F50093068031014685451305D00871B748
:10203000CD476319F50093068031014685451305A8
:10204000E008A5BF930700106318F50093068031E0
:1020500001468545014595B7930710106318F500B3
:102060009306803101468545054581BF93072010C1
:102070006318F5009306803101468545094535BF53
:10208000930730106318F5009306803101468545AB
:102090000D4525B7930700116318F50093068031AD
:1020A000014685453D4511BF930710116319F500A1
:1020B000930680310146854513053002FDBD930727
:1020C00020116319F50093068031014685451305FB
:1020D000A002E5B5930730116319F500930680312E
:1020E000014685451305B002C9BD9307002063185A
:1020F000F500930680310146854519457DBD93075E
:1021000010206318F50093068031014685451D4572
:102110006DB5930720206319F500930680310146C1
:1021200085451305000251BD930730206319F50062
:10213000930680310146854513051002BDBD930706
:1021400000216319F500930680310146854513058A
:102150006004A5B5930710216319F500930680313B
:10216000014685451305700489BD93072021631935
:10217000F50093068031014685451305800435BD81
:10218000930730216319F500930680310146854598
:10219000130590041DB5930700226319F5009306FB
:1021A0008031014685451305400201BD9307102289
:1021B0006319F500930680310146854513055002E9
:1021C000EDBB930700306319F5009306803101469B
:1021D000854513056002D5B3930710306319F500E8
:1021E000930680310146854513057002F9B39307C4
:1021F00020306319F50093068031014685451305AB
:10220000800265BB930730306319F5009306803177
:1022100001468545130590024DB3930700316319BC
:10222000F50093068031014685451305C00671B35C
:10223000930710316319F5009306803101468545F7
:102240001305D0069DBB930720316319F500930653
:102250008031014685451305E00685B3930730318B
:102260006319F50093068031014685451305F00694
:10227000A9B393070040E30BF5DC93071040E3019B
:10228000F5DE93072040E307F5DE93073040E30DCA
:10229000F5DE93070070E308F5EA93071070E30F8B
:1022A000F5EA93072070E306F5EC93073070E30D31
:1022B000F5EC93070071E30AF5F093071071E30161
:1022C000F5F293072071E308F5F293073071631973
:1022D000F50093068031014685451305D004F1B918
:1022E00093070580E38807D8856713871780E30D78
:1022F000E5D8138727806318E500930680310146EF
:10230000854511455DB9938737806319F5009306BC
:102310008031014685451305400445B18567138723
:1023200007816319E5009306803101468545130551
:10233000900661B1138717816319E5009306803118
:10234000014685451305B0068DB913872781E3053E
:10235000E5EE13873781E307E5F013870790E30C79
:10236000E5E813871790E303E5EA138727906319DD
:10237000E50093068031014685451305300435B9E3
:10238000138737906319E500930680310146854530
:102390001305B0041DB1138707916319E500930677
:1023A0008031014685451305100601B993871791C1
:1023B0006319F50093068031014685451305300603
:1023C000EDBE8567138727916319E5009306803179
:1023D0000146854513055006CDB61387379163191D
:1023E000E500930680310146854513057006F1B678
:1023F00013870792E30EE5CA13871792E301E5DA24
:1024000013872792E308E5DA938737926319F5007B
:1024100093068031014685451305F00479BE82801C
:10242000397106DE22DC26DA2A844AD84ED62EC638
:1024300032C43689EFF0BFB7B24583A78183224605
:102440009359840033D7B7024E8541839306170012
:10245000B386B602B3D7D70293940701C180B38481
:10246000C402096613060671FD1793950701C18121
:10247000B3D4C4023A86DD2E85450545EF20703F72
:10248000935744000547C204C1806394E7063705AB
:10249000160085451305050CEF203013C167296729
:1024A0009387070613952900130787383EC83A9586
:1024B00093773400231B9100231C0100231E01008D
:1024C0000041E9E70C082285EF20D053854522859D
:1024D000EF304002CA852285EF30200322858545F2
:1024E000EF20907FF2506254D2544259B259216188
:1024F000828045476398E700370518008545130536
:10250000053059BF130710026398E70037151A000A
:102510008545130505C049B7130720026398E700F6
:1025200037151A00854513050580BDB7130710033D
:102530006395E7008545056585B71307100763991F
:10254000E700370701405C4F93E747005CCFB9B71E
:10255000130710086398E700370701405C4F93E7C3
:102560000701EDB7130710096398E700370701402B
:102570005C4F93E70704D9BF13072009E390E7F204
:10258000370701405C4F93E70702C9B70547639FD0
:10259000E7000C082285EF20F05022858545EF20CA
:1025A0007075CA852285EF2070770DBF09470C082A
:1025B0002285639DE700EF20B05B22858545EF20F3
:1025C0007073CA852285EF20107709BFEF20F0666F
:1025D00022858545EF201072CA852285EF20D076AE
:1025E000F5BD411122C426C24AC006C6AE8432845B
:1025F000368921E993068031054685451545EFF07A
:10260000AFFF89476393F4089306803105468545FB
:102610001D45EFF06FFE8547631DF40A9306803178
:10262000054681451945EFF02FFD2244B240924402
:102630004A850249930600310146854541016FF004
:10264000AFFBC1476319F500930680310546854508
:10265000130530026DB7930700026319F500930666
:102660008031054685451305D00251BF930700030D
:10267000E30CF5FC93070004E315F5F893068031AD
:10268000054685451305A0049DBFC9476399F4001D
:102690009306803105468545130550029DBF93077B
:1026A00020026399F40093068031054685451305A1
:1026B000F00285B793072003E38CF4FC9307200412
:1026C000E39BF4F493068031054685451305C00469
:1026D00089B7C5476319F4009306803105468145E3
:1026E0001305400289B7930710026319F40093069B
:1026F0008031054681451305E00235B79307100484
:102700006319F40093068031054681451305B00432
:1027100019BF93071003E31AF4F07DBF397122DC6F
:1027200026DA4AD84ED652D456D25AD006DE2A8459
:102730002E89328AB68A3A8BBE84C28951E50565F4
:1027400085450505EF20F012DA865686D2854A8542
:10275000EFF03FE9B70704013EC6231801008547A3
:102760006388F408C9C009476389E4088D46638912
:10277000D40893070020231BF1009D47231EF1007E
:10278000A9679387C7370A043E9400408E096C00FE
:102790002285231C3101231D0100EF203013C14786
:1027A0006315F90685450545EF202062228585459C
:1027B000EF207017F2506254D2544259B259225A43
:1027C000925A025B2161828085476318F500854536
:1027D00011650505EF20D00B85BF8947E316F5F697
:1027E00085452165FDB723190100231A010051B762
:1027F00023190100231A9100ADBF23199100F5B7E9
:102800002319E100231AF100ADB793070004E31F79
:10281000F9F83715200085451305051071B7A9672C
:102820000A059387C737AA9798432316B70083579B
:10283000870093F70708E5FF8280A9670A05938759
:10284000C737AA979C4313D785002396E70003D781
:1028500087001377070865FF93F5F50F2396B700F8
:1028600003D787001377070865FF8280011122CC08
:1028700026CA4AC806CE2A842E89B28401E9056593
:10288000854513050580EF20C07E39A08547631E6E
:10289000F5028545EF20C07FA967938787380A0432
:1028A0003E9408404C00231421012312910023156B
:1028B00001002313010023060100EF20B008F240BD
:1028C0006244D2444249056182808947E303F5FCB2
:1028D0008D476315F500854511456DBF914763151B
:1028E000F500854521457DB79D476315F500854574
:1028F000096551BFA1476316F500854537050800F6
:1029000059B7A547E31AF5F8854537051000A5BF67
:10291000A9670A059387873AAA97984383570700C0
:1029200093F70708E5DFC205C1812312B700828053
:10293000411122C426C24AC006C62A892E84B38405
:10294000C50063189400B2402244924402494101F8
:10295000828005048345F4FF4A85EFF07FFBD5B7FD
:10296000411122C426C206C64AC02A84AE841DEE86
:10297000A967131725009387873A2E86BA97930580
:1029800050528843EF201056938701843E940345AC
:102990000400B7E700E0AA97238007408DC42244D3
:1029A000B2409244024941016FF04FD7854763130B
:1029B000F602A967131725009387873A2E86BA97E0
:1029C000930570727DBF2244B24092440249410196
:1029D0006FF06FD689476319F604A96713172500AE
:1029E0009387873ABA9703A9070005469305505283
:1029F0004A85EF20304F13045403A68622850146F2
:102A00008145EFF0EFD54A85054693057072EF20BA
:102A1000704D22852244B2400249A6869244054662
:102A2000814541016FF0CFD3B24022449244024924
:102A300041018280A9670A059387873AAA9798433C
:102A40008357070093F7070299C783574700054547
:102A50002380F500828001458280411106C60DE188
:102A600085476398F522E14601462545EFF0CFB84A
:102A70009146014681452945B24041016FF0CFB7EB
:102A80008947631FF500E14601468545130560024D
:102A9000EFF08FB691460146814513057002E9BFFC
:102AA000C147631DF500E146014685450945EFF044
:102AB000AFB49146014681450D457DBFC947631FAF
:102AC000F500E1460146854513055006EFF0CFB20B
:102AD0009146014681451305600679BF93070002C0
:102AE000631FF500E146014685451305A002EFF09E
:102AF000AFB09146014681451305B002B5BF9307BB
:102B00002002631FF500E146014685451305A00438
:102B1000EFF08FAE9146014681451305B004A9BF81
:102B2000930740026310F502E1460146854513050F
:102B30008006EFF06FAC93068004014681451305D3
:102B400090061DBF93070004E30FF5FA93072004D6
:102B5000631FF500E1460146854513050002EFF0CD
:102B6000AFA99146014681451305100231B793077D
:102B70000005631FF500E146014685451305C004C5
:102B8000EFF08FA791460146814513052006EDB56C
:102B900093072005631FF500E146014685451305AF
:102BA0008008EFF06FA59146014681451305900816
:102BB000E1B5930700066310F502E146014685453D
:102BC00013050004EFF04FA39306800401468145EE
:102BD0001305100455B593072006631FF500E14661
:102BE000014685451305A008EFF00FA19146014667
:102BF00081451305B00849B593070007631FF50029
:102C0000E1460146854513052004EFF0EF9E91460D
:102C1000014681451305300485B5930720076317E6
:102C2000F500E146014685451945C5B793074007BC
:102C3000631FF500E146014685451305C008EFF026
:102C4000AF9B9146014681451305D00835B59307E2
:102C50000008631FF500E146014685451305400461
:102C6000EFF08F999146014681451305500429B52F
:102C700093072008631FF500E146014685451305CB
:102C8000E008EFF06F979146014681451305F00883
:102C9000E5B3B24041018280797122D44ECE2A84BC
:102CA000AE890545854526D24AD006D6B2843689F6
:102CB000EF20203C8947639FF4048D476316F90099
:102CC00085451145EF206010631C04128545116590
:102CD000EF20203ACA852685EFF03FD8B7070C00D1
:102CE0003EC4A9679387873A0A043E9400408A85C8
:102CF0004EC0228502C223160100EF20500F22850C
:102D00008545EF20701CB250225492540259F2496A
:102D100045618280C9476398F400CD47E316F9FA0C
:102D20008545214545B793072002639BF40093072F
:102D30003002E31BF9F8370514008545410559B702
:102D400093074002639CF40093075002E31EF9F6D8
:102D500037051400854513050503ADB79307200417
:102D60006399F40093073004E310F9F6854505658F
:102D700091BF93072005639BF40093073005E3158B
:102D8000F9F437052000854505052DBF930720067A
:102D9000639CF40093073006E318F9F237150080BE
:102DA00085451305058039BF93072007639EF4000E
:102DB00093073007E31AF9F0370701405C4FB70675
:102DC0004000D58F5CCF09B793074007639CF400A0
:102DD00093075007E31AF9EE370701405C4FB70637
:102DE0008000C5B793072008E390F4EE93073008FE
:102DF000E31CF9EC370701405C4FB7060002D1B77E
:102E000085476318F400854537050200EF20402808
:102E1000D1B589476316F400854537050400FDB731
:102E20008D476316F400854537050800C5B79147FF
:102E30006316F400854537051000C9BF9547631632
:102E4000F400854513050004D1B799476316F400D3
:102E50008545130500085DBF9D47E31DF4E68545E4
:102E60001305001065B73971B7A7000062CC66CAB8
:102E700003AC873C83ACC73C26DA52D456D25ECE34
:102E80006AC8014A814AB76B002022DC4AD84ED674
:102E90005AD06EC606DE5289D68913043002938456
:102EA0008190130BE005938B4BB9138D0189930D22
:102EB0006005B307940083C7070063986701B307F1
:102EC000A40183C70700638A67036286E6864A8592
:102ED000CE85EF300017B3878B002A8903C5070022
:102EE000AE893305AB40EF4030402A86AE8652852E
:102EF000D685EF3000152A8AAE8A0504E31BB4FBA1
:102F00005285D6854A86CE86EF30B006B76C002053
:102F10002A8AAE8A014B814B13043002130CE00560
:102F2000938C4CB9138D0189930D6005B387840090
:102F300083C7070063988701B307A40183C707000D
:102F400063848703B3878C0003C507003305AC4057
:102F50003305A502EF4050392A86AE865A85DE85B4
:102F6000EF30200E2A8BAE8B0504E311B4FD4A86A8
:102F7000CE865A85DE85EF30C07F2A84AE845286A5
:102F8000D6865285D685EF3050702A86AE86228549
:102F9000A685EF40003BB7A7000003A6073D83A628
:102FA000473DEF305058F25062541345F5FFD2546C
:102FB0004259B259225A925A025BF24B624CD24C9D
:102FC000424DB24D7D812161828039714AD83709E5
:102FD0000020130749314ED652D406DE22DC26DA11
:102FE00056D25AD05ECE62CC66CA130AC70B81464F
:102FF000930949319305C00B7D551308B00393071E
:10300000700721A0FD17638DA7003386B7023A969B
:103010000346060065FA938747FC6363F80085065C
:103020000507E31E47FD9307300B63D9D70083C71D
:103030000188054585072380F1887DA8B7A7000092
:1030400083AA873D03ABC73D1389819013047007A2
:103050009384819003457907930BF4FF7D19EF402A
:10306000D02F2AC4034579072EC6EF40102F2246E1
:10307000B246EF1020225686DA86EF30D04A634AF5
:103080000508930764FF1307D002636AF708B38744
:10309000840003C907009307E00563E227099387CB
:1030A0000189A29703C7F7009307B00B6319F706CE
:1030B0004E99814B130CC00BFD5C93095400B387F0
:1030C0008903CA9783C70700B9E74E85EF40D0212F
:1030D0002AC422852EC6EF4030212246B246EF1088
:1030E000601B5686DA86EF30F04E6346A002850BF1
:1030F0000509E31449FD0945F2506254D25442597E
:10310000B259225A925A025BF24B624CD24C216164
:1031100082805E8481B7FD19E39399FBD1BF930749
:1031200060030145E3DA87FCA29403C70400930718
:103130000005E3E3E7FC9307C00B6D143304F402CE
:10314000014781471306C00BB3868700CE9683C61E
:10315000060091E205078507E398C7FE9307900AEA
:103160000145E3DBE7F8E1B5B7660020938646B991
:1031700003C7A6059307E00563F5E7049387018974
:1031800003C7A7051306B00B631CC70203C6C70518
:103190006318E60203C7E7056314C70283C7870500
:1031A0006390E702138781900346A70503475707FB
:1031B000998FB297B2970947B3C7E702238DF604F8
:1031C0008280E30FF7FE138781900346C70583478C
:1031D000A705D18F0346E70503478705D18FD98F10
:1031E000E5F3138701890346A70583475707B3070C
:1031F000F640C9B703A681884111B7670020B766BA
:10320000002006C622C426C2238607C0A38006B4B7
:1032100075476356C70637670020034647B513074F
:10322000E006631EE60437060020130626338148B5
:10323000014881457945930EC00B7D5F130E7009DF
:103240001307700731A89378F50F9375F70F0548AA
:1032500005050506E316C5FF29A87D17E30AE7FF64
:103260003303D703329303430300E31803FEE35C05
:10327000B7FC63060800A380B6B4238617C1B7065F
:1032800000200144130700059386463113064006CB
:10329000B305D70083C5050091E105040507E319CF
:1032A000C7FE03C5C7C0B7A40000EF40100B03A6BC
:1032B000043E83A6443EEF00F07DB7A7000003A6BE
:1032C000873E83A6C73EEF30F0306343A002B94784
:1032D000014563DA870037670020834707B5054556
:1032E00085072308F7B4B24022449244410182800A
:1032F0000145D5BFB767002083C707B5638A071E9E
:10330000397106DE22DC26DA4AD84ED652D456D29D
:103310005AD05ECE62CC66CA6AC86EC6631F050EFE
:1033200037640020034514B4B7640020376A0020D6
:10333000EF40B002B7A700002A86AE8603A5073F7C
:1033400083A5473FB70B0020EF00D0742A8903C53F
:10335000C4C0AE89930D7007EF403000B7A70000DE
:103360002A86AE8603A5873F83A5C73F130A4AB9BD
:10337000138B8190EF0010722A86AE864A85CE8527
:10338000EF30203F034D14B483CAC4C02A89AE89EC
:103390006A8493840189938B4B3163F18D02F250DF
:1033A0006254D2544259B259225A925A025BF24B99
:1033B000624CD24C424DB24D216182803305A44112
:1033C000EF4080724A86CE86EF30A03A2A8C56852E
:1033D000AE8CEF4060712A86AE866285E685EF206E
:1033E0005046EF40E069330764010347070009488E
:1033F000B30794002A97334707032380A700930855
:10340000C00BB30744012380E700B307140305048E
:10341000DE97AA972380070049B78547E311F5F89F
:1034200037640020034514B4B7640020376A0020D5
:10343000EF40A072B7A700002A86AE8603A5073F1B
:1034400083A5473FB70B0020EF00D0642A8903C54E
:10345000C4C0AE89130D7007EF402070014681464D
:10346000EF0050632A86AE864A85CE85EF30603005
:10347000834A14B483CDC4C02A89AE895684938408
:103480008190130A4AB9138B0189938B4B31E368FE
:103490008DF06E85EF4040652A8C33055441AE8C2B
:1034A000EF4080644A86CE86EF30A02C2A86AE8616
:1034B0006285E685EF30F068EF40805C3307640199
:1034C000034707000948B30794002A9733470703C7
:1034D0002380A7009308C00BB30744012380E700B3
:1034E000B30714030504DE97AA972380070045B7A6
:1034F0008280370700207946130747311305C00B38
:103500001308B00BB94813038007B307A60281461E
:103510008145BA9783CE070003CE170085056383E4
:10352000CE0185068507E39705FF63D6D806B76603
:10353000002083C746B485072382F6B4B76700200E
:1035400083C647B485476399F600B766002083C7F2
:1035500056B38507A38AF6B2B767002083C757B36F
:1035600089466392D7069966B76700209386F681ED
:10357000938787A73697014503C6070083C61700C0
:103580006303D60005058507E398E7FE1325A5002C
:103590001345150082800506E31966F6B76700201B
:1035A00003C657B3A547E3CBD7F89147E3C6D7FA8D
:1035B0008547E313F6FAB767002083C647B4C9DE30
:1035C000238207B451BF054701456399E700B767F8
:1035D000002003C547B47D1513351500828003C74D
:1035E00011885DEF41114AC006C622C426C23E8939
:1035F000EFF05FC015C103A7C18709E713075006A5
:1036000023AEE186B767002003C527B4EFF09FCE55
:10361000054723A2E18609A8EFF03F9B0DC189472A
:10362000631AF50023A20186B24022449244024963
:10363000410182808547E319F5FE1147D9BFB76480
:10364000002083C754B30944636EF400EFF07FEAAF
:1036500011C983C754B30547E386E7FCE39687FCAB
:10366000194745BFB767002083C767B49DE303A52B
:103670008188B7670020938747B5AA9783C5F7FF6E
:10368000492A01C9894723A2F1868547A380F18889
:1036900061BFEFF04FFD59D5854723A2F18669B789
:1036A00082805D71B7A70000A2C45AD85ED603AB72
:1036B000074183AB474113848190A6C2CAC04EDE46
:1036C00056DA62D466D286C652DC6AD06ECEAA843E
:1036D0002A9405499309A5FFA94A514CF94C635412
:1036E0003907034AF4FF63000A128347D4FFB30784
:1036F000FA40950763E9FA108347B4FFB307FA402D
:10370000A9076362FC10834794FFB307FA40BD0723
:1037100063EBFC0E03453400EF4020442AC452857D
:103720002EC6EF4080432246B246EF00B0365A869E
:10373000DE86EF30405F6348050CB387244137676E
:1037400000202300F7B4938B64FF63467901B767C9
:103750000020238007B4B7A7000003AA074183AA6B
:103760004741138401892694054B130CB00BA94CD7
:10377000514DF94D63543B070349F4FF6308890930
:103780008347D4FFB307F940950763E1FC088347FB
:10379000B4FFB307F940A907636AFD06834794FFA6
:1037A000B307F940BD0763E3FD0603453400EF406E
:1037B000C03A2AC44A852EC6EF40203A2246B24675
:1037C000EF00502D5286D686EF30E0556340050459
:1037D000B3846441B7670020238897D663467B0192
:1037E000B7670020238807D6B6402644964406498A
:1037F000F259625AD25A425BB25B225C925C025D21
:10380000F24D6161828005097D14D1BD050B7D14E7
:1038100095B7CD4763DEA70AB7070020370600201B
:103820009387F73C1306463181461308C00B930873
:10383000C0037D531307700721A07D17630D670038
:10384000330507033E950345050065F91305E7FCBD
:10385000E3E5A8FE85061387F7FF6384C700BA87F0
:10386000D1BF9307300B63C5D70601112E8506CE55
:1038700022CC26CA37640020EFF0BFE2034504D70C
:10388000B7640020EF40602D2AC403C504B42EC6DF
:10389000EF40A02C2246B246EF00D01FB7A7000091
:1038A00003A6074083A64740EF30C052634CA000F8
:1038B00003C704B4CD4763F7E700034704D70545C2
:1038C00063E3E7000145F2406244D244056182802F
:1038D000014582801D7162DC86CEA2CCA6CACAC810
:1038E000CEC6D2C4D6C2DAC05EDE66DA6AD86ED67A
:1038F0002ACC79472E8C6347B704138781902E9783
:1039000083460700130780026366D7020547130545
:1039100000056319E622F6406644D6444649B64996
:10392000264A964A064BF25B625CD25C425DB25D0F
:103930002561828065476347B70009471305800703
:10394000E30BE6FC05476317E620B7A6000083A754
:10395000864003A8C64001498149938C8190E29C2E
:10396000814D4A8ACE8A4A8BCE8B4A84CE840147C7
:103970003EC442C603C51C00330DEC403ACEEF40B6
:10398000C01D2AC803C50C002ECAEF40001D4246C8
:10399000D246EF0030102246B246EF30C0387247B0
:1039A0006348050C850D0507A147FD1CE314F7FCD2
:1039B0003305B741EF4040132A8DAE8D2A86AE867F
:1039C0002285A685EF20F05A2A84AE846A86EE8688
:1039D0005A85DE85EF20F0592A8BAE8B2286A6868B
:1039E0006A85EE85EF30604A5A86DE862A8DAE8D76
:1039F000EF30A0492A86AE865285D685EF30701406
:103A00002A8AAE8A2286A6866A85EE85EF30E0474E
:103A10002A86AE864A85CE85EF30B0122A86AE86DB
:103A20005285D685EF20F05401468146EF20606133
:103A30002A896245AE89EF40200B4A86CE86EF3058
:103A4000C0442A8AAE8A4A86CE862285A685EF3071
:103A5000C0432A86AE865A85DE85EF30900E2A86D0
:103A6000AE865285D685EF20C05DEF40600165B51A
:103A70006A853ACEEF4040072A86AE862285A68523
:103A8000EF20205C2A843305AD03AE84EF40C005EF
:103A90002A86AE864A85CE85EF20A05A83C80C00C0
:103AA0002A89AE89468546C8EF4000042A86AE863C
:103AB0005A85DE85EF20E058C2482A8BAE8B3385CD
:103AC000A803EF4060022A86AE865285D685EF2095
:103AD00040572A8AAE8A7247F9B56A853ACEEF40D6
:103AE000A0002A86AE862285A685EF2080552A84EE
:103AF0003305AD03AE84EF30307F2A86AE864A852B
:103B0000CE85EF20005483C80C002A89AE894685F3
:103B100046C8EF30707D2A86AE865A85DE85EF2056
:103B20004052C2482A8BAE8B3385A803EF30D07B3E
:103B30002A86AE865285D685EF20A0502A8AAE8A84
:103B40007247BDA065476347B70009471305800763
:103B5000E303E6DCB7A6000083A7864003A8C640BF
:103B600001498149938C0189E29C814D4A8ACE8A20
:103B70004A8BCE8B4A84CE8401473EC442C603C5DD
:103B80001C00330DEC403ACEEF30307D2AC803C51F
:103B90000C002ECAEF30707C4246D246EF00806F98
:103BA0002246B246EF3020187247E34805F2850DF1
:103BB0000507A147FD1CE314F7FCDDBB7971B7676E
:103BC00000204AD03769002022D4034709D703C414
:103BD00007B426D206D64ECE52CC56CA5AC85EC6B6
:103BE000BE84635387003A84B7690020370A0020F7
:103BF000130B7007938949B9930BC00B130A4A3111
:103C0000635D8B00B250225492540259F249624AC9
:103C1000D24A424BB24B4561828083C504B405460B
:103C20002285F915EFF01FCB834509D7AA8A0946EB
:103C30002285F915EFF01FCA569509473345E5026D
:103C4000B30734012380A70033057403050452959C
:103C50005695230005006DB7011122CC83C711884A
:103C600006CE26CA4AC84EC6E1C703A7C18085470B
:103C70009384C180631AF70283A781883767002085
:103C8000130747B5BA9703C5F7FFEFF09FA103C726
:103C9000918D9307300B63E7E70003C71195A947A0
:103CA00063E4E700EFF09FF183C71188054763994C
:103CB000E7069840631EF70683A78188634AF706E4
:103CC000894723A00400A380F188EFF0CF99333512
:103CD000A00083C71188090523A2A1868D496385A9
:103CE000370303A58188B7670020938747B5AA9754
:103CF00083C5F7FFEFF0FFB11DC585479CC089471D
:103D0000A380318923A2F18603A78188854763C1F7
:103D1000E702376700202303F7B4A380018809A8CE
:103D20000947E384E7FA03C711888D47E30EF7FCE0
:103D3000F2406244D2444249B24905618280B7668A
:103D400000208147938606C7130700103386D700EB
:103D5000230006008507E39BE7FE996793870782A8
:103D6000AA971308C00B01473306E5000346060077
:103D7000050736968345060085052300B600E31542
:103D800007FF1305C50BE390A7FE82801D713767FF
:103D90000020D6C286CEA2CCA6CACAC8CEC6D2C47D
:103DA000DAC05EDE62DC66DA6AD86ED68146930AD5
:103DB00007C7930500103386560103460600939704
:103DC0000601C1870DCE9306F00F1308F00F63882C
:103DD000D7009306E00F1308E00F6397D702F64071
:103DE0006644D6444649B649264A964A064BF25B93
:103DF000625CD25C425DB25D42852561828085064F
:103E0000E39BB6FA930700103E89BE86014C130669
:103E1000F00F93950601C185635EB60EBE86014A1A
:103E20009305F00F13960601418663DCC50EB7A615
:103E3000000083AD864103ADC6410148814C8149F4
:103E4000930EE00FE3CDFEF8B3862A0103C406000B
:103E500042CE3ECCA299330489024E85EF30F04F1A
:103E60002A8B6285AE8BEF30504F2AC433053C411C
:103E70002EC6A29CEF3050472AC866852ECAEF3066
:103E8000D04D5A86DE86EF20D00E2A8433059A4123
:103E9000AE84EF3070454246D246EF20900D2A8620
:103EA000AE862285A685EF30C0492246B2462A84D6
:103EB000AE845A85DE85EF20D00B2A8BAE8B22464E
:103EC000B2464245D245EF20D00A2A86AE865A85B0
:103ED000DE85EF20907B2286A686EF20107B22864F
:103EE000A686EF20907A2A86AE86AA842E846E85D6
:103EF000EA85EF20306EE2477248930EE00F63567A
:103F0000050013F8F70FA68D228D8507C207C1871C
:103F100005090DBFB385DA0083C5050085062E9C13
:103F2000CDBD3386DA00034606003306D602850689
:103F3000329ACDBDB767002083C8C7B337070020CA
:103F400099651307473101461303C00B938505821A
:103F50003308C5008147B306F80083C60600330E58
:103F6000F7008507B3B61601FD162300DE00E394C3
:103F700067FE1306C60B1307C70BE31BB6FC828054
:103F8000B705002085461305C00B93854531130303
:103F9000F00F130ED01F930EE01F7D5F1308B00BC0
:103FA00093087007B387A6020546AE9703C71700AC
:103FB00005061DE783CFD70B03C757F47E9783CF42
:103FC00027007E9783CF07007E9763D4EE00A380FF
:103FD000E7018507E31C06FD8506E39516FD828053
:103FE000E31967FE83CFD70B03C757F47E9783CFC0
:103FF00027007E9783CF07007E97E34CEEFCA380DB
:104000000700C1BF411106C622C42A84EFF03FD386
:10401000EFF0DFD7B7670020238EA7B22285EFF03D
:104020007FF12244B24041016FF09FF58547631A4A
:10403000F5009306003105468545130520086FD02D
:10404000BFDB89476319F5009306003105468545B6
:1040500013053008EDB78280411106C6EFD03FF05E
:10406000EFD01F94EFD05F9C0145EFC03F8F054517
:10407000EFC0DF8E05454928094579200D456920A7
:1040800011455920154549201945BD280945EFD04E
:104090001FAD0D45EFD0BFAC1145EFD05FAC15455E
:1040A000EFD0FFAB1945EFD09FAB0545EFF01FF800
:1040B0000945EFF0BFF7EFD0AFCEE922EFD01FEA0E
:1040C0001305B00B23AE0186EF400078B7670020E0
:1040D00023A6A7B41307850AAA8723A00700910780
:1040E000E39DE7FE91471CC1B2408D47054723245D
:1040F000F50A894758C15CD178C17CD12322E508F3
:104100002322F50A41018280411122C406C6854757
:104110002A846314F502930680340546814513050D
:104120000004EFD07FCD99476315F40693068034E1
:10413000054681451305500425A089476319F500FC
:10414000930680340546814513051004D9BF8D4779
:10415000631DF50093068034054681451305200450
:104160002244B24041016FD03FC991476319F50025
:10417000930680340546814513053004D5B795472D
:10418000E313F5FA93068034054681451305400490
:10419000C1BFB240224441018280411106C622C4FF
:1041A00001ED13850182EFD0AFB413850182224463
:1041B000B24041016FD0CFB385476319F500138535
:1041C0008182EFD0EFB213858182D5B78947631919
:1041D000F50013854182EFD0AFB113854182C1BF95
:1041E00091476319F50013850181EFD06FB01385F6
:1041F000018175BF8D476319F50013858181EFD06B
:104200002FAF1385818165B795476319F500138535
:104210004181EFD0EFAD1385418151BF99476319BB
:10422000F5001385C181EFD0AFAC1385C18141B7D3
:10423000B240224441018280411122C4138501868B
:1042400006C6EFD0EFAA138501862244B240410191
:104250006FD00FAA41111385018606C6EFD04FA972
:10426000B2401385818241016FD08FA8411113851F
:10427000818206C6EFD0CFA7B240138501864101E7
:104280006FD00FA793068004054681451305A0064D
:104290006FD09FB6011122CC26CA4AC84EC652C45E
:1042A00056C206CE3289B6892A8AAE8AEF306009B4
:1042B000014681462A84AE84EF20D031635A05003E
:1042C0005286D6864A85CE85EF30A0072A84AE84F2
:1042D0002285F2406244A6854249D244B249224A2C
:1042E000924A0561828075718547EECE376E002057
:1042F000AA8D376500202386F188A30FFEB2A38222
:10430000F198930745B93ED693870189DAD83ECC18
:10431000138B81909387819037A600003ECE832730
:10432000063D22C5B7660020B7620020B76E0020A8
:104330001307700726C34AC1CEDED2DCD6DADED63A
:10434000E2D4E6D2EAD006C7238A06B423A40188C1
:1043500023AA02D623A0019823A20188A38E0EB21D
:104360002382E1987ED076D272C81AD446CA032836
:10437000463D15663ED89307267C3EDC938746B5BE
:10438000930445B9938A0189130A70079E8B168C92
:10439000FA8C42DA1309F00F9309B00B054D3EDE9B
:1043A00093077007631BFA1895679387177C33860A
:1043B000FD009306E005034516009385F6FF631C98
:1043C00025150345060063180514F247A38BD7068D
:1043D000E2579306E0053386FD000345060093850A
:1043E00016006312251503451600631E0512E247E9
:1043F000A38BD70683C67A079307E00583457B071F
:104400006380F60A638EF508894763E6B70293076F
:10441000700B63F2D7021306CAFE9307A00563EC84
:10442000C70003A68188F2573305F600050623006E
:10443000450123A4C188639E051C638736010326BA
:104440004CD70506232ACCD69307500763CA4705E5
:1044500003C68A07FD573385C6406351F502C2473C
:1044600003C5F7B3631CA501631A360192571306FF
:104470001A00A38EC7B2C247A38F07B203468B07A9
:104480003385C540635EAD00D24703C551986319BB
:10449000A50119E6A25723824199D247A382019828
:1044A000AE968586A38BD4067D1AFD14FD1A7D1B5E
:1044B000E3180AEEEFF0AF92EFF00FFA03A7418690
:1044C0008546759B6314D700EFE01FCAB70600202E
:1044D0001305C00B9386463113067007B257338716
:1044E0004701834507003307AA02050A36972E972E
:1044F00023000700E314CAFEBA402A449A440A493A
:10450000F659665AD65A465BB65B265C965C065DE3
:10451000F64D496182807D16AE86E39E05E8F2473E
:10452000A38B070675B50506AE86E39835EBE24723
:104530001307B0FBA38BE70675BD03C58A07EF30F1
:10454000C0612AC403458B072EC6EF3000612A865E
:10455000AE86AAC4AEC62245B245EF20905E0146A3
:104560008146AAC0AEC2EF20F0060647964726480D
:10457000B648635A05002246B2464285C685EF20FA
:10458000505C2A87AE874256D2563A85BE85EF20C8
:104590008079634905069307C00B3306FA0283C688
:1045A0008407B6856E968DC1B308B60083C808002F
:1045B0001385F5FF639E2803B308A60083C808008F
:1045C00063980802A30BBB069307A00BE3C4D7E2D2
:1045D0003305D6000345050093851600631E2501AB
:1045E0003305B6000345050001E9A38BDA0619B5CA
:1045F000A30B0B06AA8545BF9307B0FBA38BFA0656
:10460000AE86D9B79307E005A38BFA06A30BFB068A
:10461000D5B3E39B36E303C6C1886317A60182576F
:104620002386018823A2418903A60198050623A0B9
:10463000C19819BD9306200337670020930707C16F
:104640002328D7C0096713068732D0C71306600432
:1046500090CF1306300790CBF94513064713130785
:1046600007F48CC7D0CF8CD3D0D794DFD0DFB4C7BA
:10467000F8C7B4CFF8CF9306000037B70020130671
:10468000B00451459305000523A2070023AA0700A3
:1046900088D723A2070223AA07028CDB23A20704E0
:1046A000B0C323AA0704B0CB232ED7589307C7590A
:1046B00037B70020D4C394C7D4C794CB9307075B04
:1046C000D4C394C7D4C794CB2328D75A8280797196
:1046D00006D622D426D24AD04ECE52CC2E894CC1F8
:1046E0004C452A844A85B284EF30A04DB76700203C
:1046F000938707C19204BE94AA8948C48844EF30C6
:10470000F07A0C442A8A4A85EF30703CAA8552859B
:10471000EF30F0122A8A8840EF305079CA85EF30A6
:104720001012AA855285EF30C0492A8AC840EF305E
:10473000F077CE85EF30B010AA855285EF30604813
:10474000C44408C82AC62685EF305076B245EF30FB
:104750004047B7A7000083A50742EF30207D63499B
:104760000500096513050571058DEF30307408C823
:1047700033059040EF309073AA850848EF307003FE
:104780006345A000930700001CC8232424010848A7
:10479000B250225492540259F249624A45618280D1
:1047A000011122CC37640020130444B90345A40549
:1047B00026CA9304E0053385A44006CE4AC84EC6F7
:1047C000EF308032B7A7000003A6874283A6C74216
:1047D000EF20A06B2A8903450405AE893385A440E8
:1047E000EF308030B7A7000003A6074383A64743F6
:1047F000EF20A0692A86AE864A85CE85EF10700428
:104800002A890345B404AE893385A440EF30C02D16
:10481000B7A7000003A6874383A6C743EF20E0663F
:104820002A86AE864A85CE85EF10B001EF3040254E
:10483000F2406244B767002023A8A7B8D244424997
:10484000B24905618280011122CC5AC003CBB182EA
:104850004AC84EC652C456C206CE26CA8547AA8941
:10486000AE8A328A36896315FB16EFD02F8DB7B426
:1048700000202A8623A2A45C91469305C003130559
:10488000800C1384B182EFC0CFD6834704006391BC
:10489000671503A7445C9307E01563EBE7128145B6
:1048A00013053020EFD0AFED814513051010EFD088
:1048B0000FED13054006EFD0CF9A81451305302048
:1048C0008964EFD0CFEB9385846413051010EFD08B
:1048D0000FEB13056009EFD0CF98938584B51305CE
:1048E0003020EFD0CFE9938584B513051010EFD0B9
:1048F0000FE91305803EEFD0CF9681451305302098
:10490000EFD0EFE7814513051010EFD04FE7130507
:104910004006EFD00F959385846413053020EFD0C7
:104920000FE6814513051010EFD06FE59304A01535
:104930000545FD14EFD0EF92E5FC8964938584B5BD
:1049400013053020EFD0AFE3938584B51305101025
:10495000EFD0EFE29304E0590545FD14EFD06F90DE
:10496000E5FC814513053020EFD06FE1814513054B
:104970001010EFD0CFE013054006EFD08F8E8145A9
:1049800013053020EFD0AFDF89659385856413056B
:104990001010EFD0CFDE930420180545FD14EFD0A2
:1049A0004F8CE5FC8964938584B513053020EFD0E6
:1049B0000FDD938584B513051010EFD04FDC930401
:1049C000903B0545FD14EFD0CF89E5FC23000400A2
:1049D0003764002093174900130404C13E944844EF
:1049E000EF30D04CB70500804A86AA84B3C53501A4
:1049F0005685EFF0DFCDAA852685EF30801CEF309D
:104A0000904593150501C1810145EFB05FFB484416
:104A1000EF30D0494A862A84CE855285EFF03FCBCD
:104A2000AA852285EF30E019EF30F0426244F2406F
:104A3000D2444249B249224A924A024B9315050197
:104A4000C181054505616FB09FF701A001A001A0DC
:104A500001A001A001A001A001A001A001A001A04E
:104A600001A001A001A001A001A001A001A001A03E
:104A700001A001A001A001A001A001A001A001A02E
:104A800001A001A001A001A001A001A001A001A01E
:104A900001A001A001A001A001A001A001A001A00E
:104AA00001A001A001A001A001A001A001A001A0FE
:104AB00001A001A001A001A001A001A001A001A0EE
:104AC00001A001A001A001A001A001A001A001A0DE
:104AD00001A001A001A001A001A001A001A001A0CE
:104AE00001A001A001A001A001A001A001A001A0BE
:104AF00001A001A001A001A001A001A001A001A0AE
:104B000001A001A001A001A07390123497C1FF1F62
:104B10009381C1E717B100201301C14E1765000052
:104B2000130505CE97B5FF1F9385C54D13860185E7
:104B300063FAC5008322050023A0550011059105E5
:104B4000E3EAC5FE1385018597750020938585BE30
:104B50006377B500232005001105E36DB5FEFD4226
:104B6000739002BCFD4273904280B7820000938232
:104B7000828873A0023097B2FFFF9382224C93E2A7
:104B8000320073905230EF10A03997C2FFFF93822A
:104B900022BA73901234730020304111B7270140BC
:104BA00006C693870740631CF50085451305002062
:104BB000FD29814513050020B2404101CDA9B73739
:104BC000014093870780631AF5008545130500406F
:104BD000F929814513050040C5B7B24041018280E3
:104BE0005C413707F1E01307F7EF944D7D8F9C414F
:104BF000D58FD44DD58FD441A206D58FD98F5CC126
:104C00001C4537F7F1FF1307D77FD4457D8F9C49AB
:104C1000D58F94458606D58FD98F1CC55C5537072F
:104C200010FF7D177D8F83C74501FD1793F7F70FA1
:104C3000D207D98F5CD582801C4589C593E71700C0
:104C40001CC58280F99BEDBF1C4593E787001CC5FE
:104C5000828008450D81058982801C4593E74700C5
:104C60001CC5828008450981058982805841032836
:104C700005004C4537060140930706403E97934692
:104C8000F8FFB1C583250640F58D2320B640D043FB
:104C9000F18ED4C31443B3E6060114C31841904700
:104CA0009346F7FF758E90C7D047F18ED4C7144551
:104CB00041466399C6009447D98E94C7D447558F0F
:104CC000D8C78280B6979443558F98C382801C437F
:104CD000F58F1CC38280B70701401387074083A765
:104CE0000740584B698F09C77D8D3335A0008280FE
:104CF00001458280B707014023AAA74082809C45D6
:104D000013F7070113F8F70001C7D8413368E8002B
:104D100083D5050013F7F50F39C318418146854E39
:104D20003D4F930F800293028004214E3396DE00A4
:104D3000B3F8C500631116039398260033131F01BF
:104D40001343F3FF3377E300B318180133E7E800A8
:104D5000639FF70550C98506E39AC6FD18C113077E
:104D6000F00F6375B70454412146854E3D4F930FB4
:104D7000800293028004414EB398CE0033F71501B0
:104D80006392E8021317260001173313EF00134351
:104D9000F3FFB376D3003317E800D98E639DF70194
:104DA000232A15010506E319C6FD54C18280E39448
:104DB00057FA10C94DB7E39757FE23281501DDB701
:104DC00019C20CC982804CC98280B7070140635563
:104DD0000504D44FB7073000131705013376F500EB
:104DE0004183631DF602370600F17D163708014046
:104DF000B3F7C60083264800758E2322C80099C5E4
:104E00009356550192063317D700D98F37070140C3
:104E1000635E05025CCF8280D4436DBF9317B500FB
:104E200063D007029357050113F6F7008D47B39738
:104E3000C70093C7F7FFF58FB706000FD58FC1B72F
:104E4000935755019207B317F700E5B75CC382800B
:104E500013F7C50F93F73500B7050140BA95944590
:104E60008A073D473317F7001347F7FF758F98C53B
:104E700098453315F500598D88C5828093878186C2
:104E800094430347050089E683472500920731A82C
:104E9000944305466391C6048347250003461500E5
:104EA00092076314D60093E707F8B7E600E093F79C
:104EB000F70FBA962380F6408546935757003397ED
:104EC000E6005441ADC6938707048A07B7E600E0C1
:104ED000B69798C382808C4389466393D5028346F4
:104EE0001500834725006365D6008A06B69779BF0B
:104EF0009386E6038A06B69793F7F70F920765B78E
:104F000090438D46631ED6008346150083472500D7
:104F10006364D6008606D9BF9386C6078606E1BFBE
:104F200094439147E39AF6F88347150085B7938732
:104F3000070661BFB7160240DC4251777D17F98F33
:104F40005D8DC8C28280371702405C439146B18BA9
:104F50006385D700A1466386D706B7177A00938783
:104F600007201CC1371602405C4237070020130798
:104F7000470D9183BD8BBA9783C607001C41B3D7F9
:104F8000D7005CC15442A1829D8ABA9683C60600AE
:104F9000B3D6D70014C55442AD829D8A36970347D5
:104FA0000700B3D7E7005CC55842398393763700D2
:104FB0001387C182369703470700B3D7E7021CC99E
:104FC00082805C4354434167C983F98E37F7FF1FE2
:104FD0000327C770BD8B89071316170163480600A6
:104FE000454601476392C702C94739A80947638903
:104FF000E7023D476388E70241476388E702454689
:1050000001476393C700C14785E6B746024083A6C0
:105010000680C18A8DC6B7167A009386062025A021
:105020000147D9B70547B547C5B70147BD47E9BFF0
:10503000B7160240D4421396E600E35E06FCB716AC
:105040003D0093860690B387D7021CC101DF1C4147
:10505000858301BF99C5371702405C4B5D8D48CBF6
:105060008280B7170240D84B1345F5FF798DC8CB26
:10507000828099C5371702401C4F5D8D08CF828012
:10508000B7170240984F1345F5FF798D88CF82807E
:1050900099C5371702405C4F5D8D48CF8280B717A6
:1050A0000240D84F1345F5FF798DC8CF828099C54E
:1050B000371702405C475D8D48C78280B7170240B2
:1050C000D8471345F5FF798DC8C78280035705007F
:1050D0008D679387070483D625007D8F83D70500CE
:1050E000D58F83D64500D58F83D66500D58F83D6DF
:1050F0008500D58F83D6A500D58F83D6C500D58FE3
:1051000083D6E500D58FD98F2310F5000357C5014D
:10511000FD779387F77FF98F231EF50083D705016D
:105120002318F50082808357050091C593E7070493
:105130002310F5008280C207C18393F7F7FBC207F3
:10514000C183FDB78357050037370140930607C079
:10515000C207C1836300D504B7060040630CD502C3
:10516000938606406308D502B71600401386068072
:105170006302C502938606C0630ED500130707407D
:10518000630AE50037570140930607C06304D50062
:105190006317E50003D7250093F7F7F8D98F371782
:1051A0000040630DE500130707406309E50093F72E
:1051B000F7CF03D76500C207C183D98F2310F5004D
:1051C00083D745002316F50283D705002314F50283
:1051D000B7370140138707C0630EE5009387074088
:1051E000630AF500B7570140138707C06304E50061
:1051F0006316F50083C785002318F5028547231A37
:10520000F50082808357050203D6050003D82500E8
:10521000C207C183F99BC207C1832310F5028357DC
:1052200005028356450003578501C207C183420723
:1052300041831377C7F8518F03D68500F59BC206CB
:1052400033660601D18F37360140130806C0C1828C
:10525000630E050113060640630AC5003756014078
:10526000130806C0630405016313C50203D6A50035
:10527000DD9B03D8E500D18F03D64500ED9B93F667
:10528000F6CFD18F03D6C50033660601D18E231227
:10529000D500231CE50003D76500231AE50223107F
:1052A000F50282808357050265771307F7CFC2079F
:1052B000C183BD9BC207C1832310F502835705023A
:1052C0008356450003D88500C2071396060183560E
:1052D0008501C18393F7F7FD758F83D60500418261
:1052E000A206558F83D6250042074183B3E6060107
:1052F0009206D58FB7360140C207138806C0C18316
:10530000630E050193860640630AD500B756014037
:10531000138806C0630405016311D50483D6A50074
:1053200093F7F7F703D8C5009206D58F83D64500CB
:10533000C207C183920693F7F7FBD58FFD7693865C
:10534000F63FF18E03D6E500C207C183336606013E
:105350000A06D18E1396060141822312C500231C32
:10536000E50003D76500231CE5022310F5028280C7
:105370008357050203D88500C207C18393F7F7EF6F
:10538000C207C1832310F5028357050283564500E7
:105390000357C501C20713960601420783D60500CD
:1053A00041831377C7F8558F83D62500C18393F7C0
:1053B000F7DFB3E60601A206D58FB7360140C20774
:1053C000138806C04182C183630E0501938606409F
:1053D000630AD500B7560140138806C0630405016F
:1053E0006312D504FD769386F67FF58F83D6A500EC
:1053F00003D8C500A206D58F83D64500C207C18356
:10540000A20693F7F7BFD58FF576FD16F18E03D67A
:10541000E500C207C183336606011206D18E1396DA
:10542000060141822312C500231EE50003D7650053
:10543000231EE5022310F502828003570502FD7743
:10544000FD17F98F2310F502035805028356450016
:105450008357C50165771396060183D605001307A8
:10546000F7CF7D8FF977A206FD17558FB3F70701A8
:1054700083D6250003D8850042074182B3E60601A2
:10548000B206D58FB7360140C207138806C04183E4
:10549000C183630E050193860640630AD500B756A3
:1054A0000140138806C063040501631CD500F17632
:1054B000FD16F18E03D6C5001A06D18E139606018D
:1054C00041822312C500231EE50003D76500231087
:1054D000E5042310F50282808357050091C593E708
:1054E00017002310F5008280C207C183F99BC20711
:1054F000C183C5BF8357450491C52167D98F231246
:10550000F5048280C607C583DDBF83578501C207C6
:10551000C183DD9BDD8D231CB5008280035785018F
:10552000FD779387F77FF98FA205CD8FC207C183DF
:10553000231CF50082808357C501C207C183DD9B10
:10554000DD8D231EB50082800357C501FD7793874B
:10555000F77FF98FA205CD8FC207C183231EF50007
:105560008280835705029205C207C18393F7F7FD36
:10557000CD8FC207C1832310F50282800357050235
:105580008547B397B70093C7F7FFF98F2310F5024C
:1055900083570502B315B600DD8DC205C181231006
:1055A000B50282802312B5028280035505016D8DFC
:1055B0003335A000828093C5F5FFC205C181231851
:1055C000B5008280835705010355C500ED8F420564
:1055D000418189C76D8D3335A0008280014582806D
:1055E00093C5F5FFC205C1812318B500828083569B
:1055F0000501F577FD17F58F83D66500397122DC3B
:1056000006DED58F03D7C5002318F5008356C500E5
:10561000FD779387379FF58F83D645002A842EC662
:10562000D58F83D68500D58F83D6A500D58F231639
:10563000F50083574501C207C18393F7F7CFD98F90
:10564000231AF5006808EFF01F90B74701409387D1
:105650000780B245631EF404A2578356C400654711
:10566000B387E702C206C186984163D506040607E0
:105670000356C4004206B3D7E7021307400641862B
:10568000B3D6E702B3F7E7029206635706028E0726
:1056900093872703B3D7E70213F77700B367D700E1
:1056A000C207C1832314F400F25062542161828046
:1056B000925765B70A076DBF920793872703B3D741
:1056C000E702BD8BD58FE9BF81C98357C500096744
:1056D000D98F2316F50082800357C500F977FD178F
:1056E000F98FC5BF13F7F50F85471583B395B7003D
:1056F0006319F7009307C500984301CED98D8CC379
:105700008280894693074501E318D7FE9307050178
:10571000E5B793C5F5FFF98DDDB793F5F51F2312B6
:10572000B5008280035505006D8D3335A000828061
:1057300013F7F50F85461583B397B6006313D702A9
:105740000357C500F98F0357050001454207418300
:1057500081CB0545A181B315B5006D8F3335E000D0
:10576000828089466315D70003570501E1BF0357BF
:105770004501C9BFA1818547B397B70093C7F7FF1C
:10578000C207C1832310F5008280B7070050239A17
:10579000A70203C767031377C70F238BE702828033
:1057A000B7070050239CA70203C7A7031377C70FAF
:1057B000238DE7028280814737B6002013F7F70F69
:1057C0006364A7006FF07FFC032786723E978346D1
:1057D0000700850793C6F6FF2300D704C5B78147A6
:1057E00037B6002013F7F70F6364A7006FF05FFB75
:1057F000032746653E9783460700850793C6F6FF55
:105800002300D704C5B7B707005003C76700137755
:10581000F70F937627006384066C011122CE26CC05
:105820004ACA4EC852C656C403C777009306000240
:1058300013770703630ED74E130600036302C704F2
:105840006316072403C7770005461377F70363063B
:10585000C766630C075C8946631AD72203C77700C3
:10586000137707046304072203C7B70313474700EE
:10587000A38DE70288471375F50FEFF05FF639A4A3
:1058800019472389E7021147A389E702B7B7002028
:1058900083A4876537B4002083C7740003C76400FE
:1058A000A207D98F2316F46403C71400B7B70020EA
:1058B0002387E76403CA040013770A06630007100E
:1058C00003C7E7641377070219CF83C7E764130799
:1058D000100293F7F70F638AE7001307200263842F
:1058E000E700639ED7180149A1A093870183B7B948
:1058F000002023A8F9648357C4641D4721496366C7
:10590000F7000359C4641379F90F4A86938501831C
:105910002685EF2010748357C464B3872741C207DC
:10592000C1832316F46483A70965CA9723A8F96481
:105930008357C4644209135909016374F90023169B
:1059400024659387C18603D707009D46A14463E67B
:10595000E60083D4070093F4F40FB7B9002003A93D
:10596000096537B500202686CA851305C56DCA941A
:10597000EF20306E23A89964620A135A8A41814746
:1059800063520A020357C464A14763E6E7008357E2
:10599000C46493F7F70F0357C4641D8F4207418314
:1059A0002316E464C20737070050C1832318F702A7
:1059B00091472309F702A309F702C9A883C7E7643F
:1059C0002D4793F7F70F636CF70A29678A071307C8
:1059D0000744BA979C43828783C7340003C72400D7
:1059E0008D46A207D98F13D78700B7B90020630669
:1059F000D70C63ECE6008547630BF7028947630524
:105A0000F70A1309F00F814715A89D476309F7109E
:105A100093072002630DF70E9947E314F7FEA96779
:105A20009387075123A8F9640149A94701A8A967E9
:105A30009387474B23A8F9640149C9470357C464B6
:105A4000C207C18363F4E7002316F4648357C46478
:105A50001D47A14A6366F700835AC46493FAFA0F9C
:105A600083A5096556862685EF20B05E83A7096564
:105A7000BE9A23A859659307F00FE31FF9EEB70705
:105A800000501D472389E702A389E702B7070050AA
:105A900009472383E7007244E2445249C249324A2B
:105AA000A24A056173002030A9679387074723A89E
:105AB000F96401499307300451B793F7F70F85460E
:105AC0006387D70291CF8946638BD702E39BE7F2C6
:105AD000A9679387874F23A8F9640149D947B9BFBC
