:100000006F40C00113000000130000001300000047
:100010001300000013000000130000001300000094
:100020001300000013000000130000001300000084
:08003000130000007300100032
:100038000000000000000000A8020000AC02000060
:1000480000000000623F0000000000000000000007
:10005800643F0000663F0000000000000000000050
:10006800683F0000000000006A3F00000000000038
:100078006C3F00006E3F0000703F0000723F0000C0
:10008800743F0000763F0000160400002A040000B8
:100098005004000096040000CA040000823F0000DB
:1000A800843F0000863F0000883F00008A3F000030
:1000B8008C3F00008E3F0000903F0000923F000000
:1000C800943F0000963F0000983F0000FE040000A7
:1000D8009C3F00001A060000A03F0000A23F00005D
:1000E800400600005A06000080060000AA3F0000F3
:1000F800AC3F0000AE3F0000B03F0000B23F000040
:10010800B43F0000B0020000DA020000040300005F
:1001180098050000BE3F0000C03F0000C23F00003D
:100128000C070000C63F0000C83F0000CA3F00009F
:10013800CC3F0000CE3F0000A6060000D23F0000E2
:100148002E03000058030000CC060000E60600005D
:10015800DC3F0000DE3F0000E03F0000E23F00001F
:10016800E43F0000E63F0000E83F0000EA3F0000EF
:10017800EC3F0000EE3F0000F03F00001A4D000089
:10018800F43F0000F63F0000F60300007A03000089
:10019800AE030000D803000000400000A2070000E2
:1001A800044000000640000008400000C8070000A6
:1001B8000C4000000E4000001040000012400000FB
:1001C8001440000016400000184000001A400000CB
:1001D8000000000000000000000000000000000017
:1001E8000000000000000000000000000000000007
:0801F8000000000000000000FF
:100200003D432A876373C3029377F700BDEFADE5E3
:10021000937606FF3D8ABA960CC34CC30CC74CC7F5
:100220004107E36BD7FE11E28280B306C3408A0622
:100230009702000096966780A6002307B700A306E2
:10024000B7002306B700A305B7002305B700A30432
:10025000B7002304B700A303B7002303B700A3022A
:10026000B7002302B700A301B7002301B700A30022
:10027000B7002300B700828093F5F50F93968500B1
:10028000D58D93960501D58D61B79396270097027A
:10029000000096968682E78086FA9680C1171D8FA9
:1002A0003E96E374C3F8A5B7730020307300203086
:1002B000411122C637440140930550521305048072
:1002C000EF40501819C59305505213050480EF40B4
:1002D000B01B3244410173002030411122C6374423
:1002E00000409305505213050440EF40B01519C566
:1002F0009305505213050440EF4010193244410158
:1003000073002030411122C63754004093055052EB
:1003100013050480EF40101319C5930550521305BF
:100320000480EF40701632444101730020304111C7
:1003300022C63754004093055052130504C0EF40C5
:10034000701019C593055052130504C0EF40D01327
:10035000324441017300203093055052375500401C
:10036000EF40500E09C9EF10A002930550523755C7
:100370000040EF40701173002030411122C6372435
:1003800000409305505213050480EF40B00B01CD9F
:100390009305505213050480EF40100FB7670020FB
:1003A0000547A387E7AA3244410173002030411179
:1003B00022C63724004093055052130504C0EF4075
:1003C000700819C593055052130504C0EF40D00BB7
:1003D00032444101730020309305505237250040CC
:1003E000EF40500619C59305505237250040EF40A5
:1003F000B00973002030B707055003C70701118B00
:1004000009CB03C707011377B70F2388E700EF0075
:10041000307E730020300545EF30305D8547631432
:10042000F500EF30705E730020300945EF30F05B6F
:100430008547631DF5000945EF30105D1305200861
:100440008145EF10A07D5145EF102036730020301C
:100450004111114522C6EF30505985476319F50205
:100460002A841305800CEF1040341145EF30D05929
:1004700009472384E1868D46B76700200946930526
:1004800080021305800CA38787AAEF0090273244CF
:100490004101730020302145EF303055854763140A
:1004A000F5021305800CEF1040302145EF30D05598
:1004B00003A6C1978D46D1456D161305800C23AE5A
:1004C000C196EF001024730020304145EF30F05109
:1004D00085476314F5021305800CEF10002D41458C
:1004E000EF30905203A6C1978D46D14515061305EE
:1004F000800C23AEC196EF00D0207300203013058E
:100500000002EF30904E8547631AF5021305800C08
:10051000EF10A02913050002EF30104FB76700203D
:1005200003C617CF8D469305C00329061376F60F31
:100530001305800CA388C7CEEF00B01C1305000480
:10054000EF30B04A85476316F50013050004EF301D
:10055000B04B13050008EF30504985476316F5008E
:1005600013050008EF30504A13050010EF30F04734
:1005700085476316F50013050010EF30F0481305AA
:100580000020EF30904685476316F50013050020E4
:10059000EF3090477300203041111305004022C610
:1005A000EF30B04485476316F50013050040EF3087
:1005B000B045056413050480EF303043854763166A
:1005C000F50013050480EF3030440565EF30F0414D
:1005D00085476315F5000565EF3010430965EF3079
:1005E000D04085476315F5000965EF30F04111658E
:1005F000EF30B03F85476315F5001165EF30D0400F
:100600002165EF30903E85476315F5002165EF3099
:10061000B03F3244410173002030411122C63734CB
:1006200001408545130504C0EF40004B11C58545C9
:10063000130504C0EF40004C3244410173002030E8
:10064000854537050040EF40204911C585453705F0
:100650000040EF40204A73002030411122C6370489
:100660000040854513050440EF40004711C585450E
:1006700013050440EF40004832444101730020302C
:10068000411122C637140040854513050480EF4010
:10069000A04411C5854513050480EF40A0453244B0
:1006A000410173002030411122C6371400408545B6
:1006B000130504C0EF40404211C58545130504C031
:1006C000EF404043324441017300203085453715E7
:1006D0000040EF40604011C5854537150040EF40B0
:1006E000604173002030411122C637140040854517
:1006F00013050440EF40403E11C5854513050440F5
:10070000EF40403F3244410173002030411126C484
:10071000B734014085451385044022C6EF40C03BF5
:1007200031C983A74186A1C337670020032787AB60
:100730008A07BA9783A707E705476392E704B76775
:10074000002003C7E7AABE8419E3EF20907D03C70A
:10075000E4AA85476314F700EF20307E83A7418623
:10076000850723A2F18637350140854513050540ED
:10077000EF4040383244A244410173002030094721
:100780006395E700EF203078D1BF0D47E398E7FC91
:10079000FD5781451385044023A2F186EF400025D3
:1007A00075BF411122C6375401408545130504C069
:1007B000EF40803211C58545130504C0EF408033FA
:1007C0003244410173002030854537550140EF40E8
:1007D000A03011C5854537550140EF40A031730069
:1007E0002030397106DE22DC26DA4AD84ED652D4C1
:1007F00056D25AD05ECEEF20F05CEF308030EF0062
:10080000F001379600001306063781450145EF00D9
:10081000206B3796000013068637D1450145EF005F
:10082000206AF165930610061306000693850520DD
:100830001545EF208018014685451545EF10706479
:10084000EF00303D13054006EF003076A3840186AB
:10085000B7670020238907AAB7670020238E07AA5D
:1008600023840186B7670020238E07B6238A018E72
:1008700023AE0196B7670020A38E07AA4146B7674B
:10088000002093050004054537640020A38807CEA7
:10089000A30704AAEF10E021414693052004114567
:1008A000EF1020214146930530042145EF106020D0
:1008B0004146930540044145EF10A01F4146930572
:1008C000500413050002EF10C01E8347F4AA63858D
:1008D0000714A30704AA0564930584380145C122BF
:1008E0009305242F0545652A1305401FEF00F06B83
:1008F00013054006EF00706B814501454D2281458F
:100900000545712A13054006EF00306A814513053D
:100910003020EF102039930584BB13052020EF1001
:100920006038930584BB13051010EF10A037814584
:1009300013050010EF1000371305C01CEF00F06620
:100940009305C4250145A12A930544190545812A2B
:100950001305401FEF0070658145014589228145DF
:100960000545352A1305405137640020EF00F06338
:10097000B76B002037090020130444B0376B002008
:10098000B7BA002037BA002083C7818399C713857F
:100990008BCF238C0182EF20303513050928EF20FF
:1009A0007061814813088007130780079307C00B05
:1009B0009306C00B1306092881450145652303A64C
:1009C000C184994681451305800C252B8347A405D6
:1009D0001306E00599461D8E930580021305800CD1
:1009E0000D23EF30C02E83A6C184A947639BF60276
:1009F00005649305044501455D209305242F0545B5
:100A0000792813052035EF00505A814501454128CA
:100A100081450545692001A013054006EF00F05807
:100A20006DB50325CBAF36C6EF70A044B246138632
:100A30000A539305CA51EF30E033B9B7411106C6E6
:100A400022C415E537C40200A1460146930504F20D
:100A500013053020EF10006FA1460146930504F204
:100A6000130520202244B24041016F10A06D85473C
:100A70006313F50237C4020081460146930504F270
:100A800013051010EF10006C81460146930504F227
:100A900013050010C1BFB240224441018280011100
:100AA000896722CC4EC69387876406CE26CA4AC879
:100AB000AA893E8463E3B7002E8483A7418642045B
:100AC0004180A1C337670020032787AB8A07BA9705
:100AD00083A707E70547639FE704B767002003C7BD
:100AE000E7AA3E8919E3EF20D0430347E9AA8547E7
:100AF0006314F700EF20704483A74186850723A283
:100B0000F18663960904A28513053020EF10801941
:100B1000930540061305800C99462286DD26814503
:100B2000130520206244F240D2444249B249056193
:100B30006F10401709476395E700EF20D03C6DBF69
:100B40000D47E39BE7FAFD5723A2F18675B785476A
:100B5000639EF91083C7418F639A37090D47B767C2
:100B60000020814513053020238EE7B6EF10801357
:100B7000814513051010EF10E0121305400685643F
:100B8000EF00B0429385C45713053020EF10801159
:100B9000938504FA13051010EF10C01003A5C19738
:100BA0001305C512EF007040938584BB13053020F8
:100BB000EF10400F9385843813051010EF10800E4E
:100BC0001305B013EF00703E938584421305302067
:100BD000EF10400D9385441913051010EF10800C91
:100BE0001305C02BEF00703C238A018E03A7C1843C
:100BF0009147631DF704814513053020EF10800AEB
:100C0000814513051010EF10E00981451305101000
:100C1000EF10400905649305449C13050010EF1084
:100C200060089305449C13053020EF10A0071305BE
:100C300020208145EF1000076244F240D24442492F
:100C4000B2491305A02805616F003036A28513054F
:100C50001010EF102005930580071305800C9946AE
:100C6000228645248145130500106DBDF240624483
:100C7000D2444249B249056182804111A96722C428
:100C800003A4C79D26C24AC006C6C14404C844C8BE
:100C900013090008232A2401AA850545EF10700ACC
:100CA0002328240104C844C8B24022449244024983
:100CB0004101828083A74180011122CC26CA4AC803
:100CC0004EC606CEAA89AE8432893684A1EF1305BA
:100CD000A002653793854903C205C1810545EF1020
:100CE000100893054903C205C1810545EF1030077F
:100CF0001305B002593793858402C205C1810545A9
:100D0000EF10F00593058402C2050545C181EF107F
:100D100010056244F240D2444249B2491305C00270
:100D20000561A1BF0547639FE7001305A002B13726
:100D300093855903C205C1810545EF105002930503
:100D4000590355B79309850213098602C20942095E
:100D5000094793D90901135909011305A0026398A2
:100D6000E702213FCE850545EF10607FCA85054526
:100D7000EF10E07E1305B002093793855403C205D6
:100D8000C1810545EF10A07D93055403B5BFF5352E
:100D9000CE850545EF10A07CCA850545EF10207C67
:100DA0001305B002D93D93854403C205C1810545B1
:100DB000EF10E07A9305440381BF03C6A18083C688
:100DC000B180411122C43304D602FD167D16C2063D
:100DD0004206C18241828145014526C206C6B7044A
:100DE0000020C93D11E4B240224492444101828076
:100DF00083D5041005457D14EF106076E5B723A276
:100E0000A18085461387A1809387B18063EAA600FD
:100E1000930670F82300D70041572380E7008280B3
:100E2000C1562300D700130770F8C5BF79714ECEA5
:100E3000A5679309750012069387073EC20922D45D
:100E40004AD056CA5AC85EC662C466C206D626D200
:100E500052CCAA8AAE8B3304F600014993D909011A
:100E6000370C0020414BB3862B01C206C1824E864F
:100E7000B68556858135034A04E0A14493771A006C
:100E80008DCF83D58180FD14054593F4F40FEF10C9
:100E9000006D135A1A00FDF005090504E31569FDFC
:100EA000B250225492540259F249624AD24A424BF9
:100EB000B24B224C924C4561828083550C10E1B7B5
:100EC000011122CC26CA4AC84EC606CE2A89AE894E
:100ED000B2840144B38784000386070001EAF2402C
:100EE0006244D2444249B2490561828013153400FC
:100EF0004A9542050504CE8541814204053F418063
:100F0000D1BF797122D426D24AD0AA842E893284C4
:100F10009305000213861600480836C606D602CA94
:100F200002CC02CEEFF0CFADB246A54763F9D702AF
:100F3000A2854808EF0020665008CA8526854937F3
:100F4000B25022549254025945618280B387E7021D
:100F5000FD1693F6F60FFDFA3364F402D1BF854710
:100F60002947D5BF397162CC6AC8368C328D930659
:100F7000F8FF1386F7FFAE962A96C206420656D2AF
:100F8000C1824182C16A26DA4AD84ED652D466CA94
:100F90006EC606DE22DC5AD05ECEBA8D3E8A42890B
:100FA000C68C8149013B8144FD1A63E12403F25060
:100FB0006254D2544259B259225A925A025BF24BAD
:100FC000624CD24C424DB24D2161828033D4290310
:100FD000814B014B330484036A9463654B018504A0
:100FE000EE99E1B7B3D74B03A29783C7070063928B
:100FF0000C02C207C18393D5370089831397B500CC
:101000009607D98FDD8D0545EF106055050BE29BE6
:10101000E9B7D685E3E9FCFE8145F5B703A8C181B0
:1010200041111307F00F81479306F00F13062002BA
:1010300093050002054506C622C426C24AC0EF1029
:101040002040C1460146854513057006EF00502F2C
:10105000C1460146854513057002EF00702EC1465A
:101060000146854513054006EF00902D8545C14694
:10107000054613050006EF00B02C1384418008409C
:1010800013090008AD3BA96783A4479D1305800C95
:1010900023AA2401EF0060711305400623A8240150
:1010A000EF00A07013056003C93E13054006EF0072
:1010B000C06F1C40814589CF05479305000C6389AB
:1010C000E7000947930500076384E7009305000ADA
:1010D0000545EF1000471305A00345369545054526
:1010E000EF1020461305200B493EB1450545EF1092
:1010F0004045B1450545EF10C04481450545EF1019
:101100004044930530030545EF10A0439305300399
:101110000545EF1000431305700BEFF01FB6930564
:1011200050030545EF10E0411305B00BEFF0FFB49D
:10113000930570030545EF10C0401305000CEFF058
:10114000DFB39305C0020545EF10A03F1305200C47
:10115000EFF0BFB285450545EF10A03E1305300CFA
:10116000EFF0BFB1C9450545EF10A03D1305400C98
:10117000EFF0BFB0930500020545EF10803C13056A
:10118000600CEFF09FAFBD450545EF10803B1305A8
:10119000000DEFF09FAE9305400A0545EF10603A51
:1011A0009305100A0545EF10C0391305000EEFF046
:1011B000DFAC9305000D0545EF10A03891450545BE
:1011C000EF102038B5450545EF10A037C54505455A
:1011D000EF102037CD450545EF10A0369305B0023E
:1011E0000545EF1000369305F0030545EF10603517
:1011F000930540050545EF10C0349305C00405452F
:10120000EF102034E1450545EF10A033B545054505
:10121000EF102033AD450545EF10A032FD450545E3
:10122000EF102032930530020545EF108031130591
:10123000100EEFF09FA49305000D0545EF106030F0
:1012400091450545EF10E02FB1450545EF10602FA2
:10125000C5450545EF10E02ECD450545EF10602E44
:101260009305C0020545EF10C02D9305F003054519
:10127000EF10202D930540040545EF10802C9305B9
:1012800010050545EF10E02B9305F0020545EF1022
:10129000402BFD450545EF10C02AFD450545EF10E3
:1012A000402A930500020545EF10A029930530025E
:1012B0000545EF10002913051002EFF01F9C45456E
:1012C000EFF0BF9B13058007CD2113059002EFF0CF
:1012D000DF9A2244B2409244024941016FF0FFADCF
:1012E000797126D24ECE52CCB70400207D7A22D41A
:1012F00056CA5AC806D64AD0938404000144130A39
:101300005A1A7D5B9389C18383D7040011466C0010
:1013100013978700A183D98F114523164101231705
:10132000F10013090008EF10E0329387018483C7AE
:1013300007001387018493F7F70FA1C36313090014
:1013400031C483C719002300070003C72900A2077F
:101350000504D98F42042391F4004180A5479104EC
:10136000E314F4FA0145B250225492540259F2495E
:10137000624AD24A424B456182807D194209135923
:101380000941E30F69FB05450D2145B70545E1BF5F
:10139000411122C483C7F18326C29385C183BE95C0
:1013A000114506C6EF10203B9384C1839387F183D8
:1013B00011C503C7070005072380E70083C60700A0
:1013C0000547639FE60083C604001307500A638441
:1013D000E60023800700B24022449244410182800B
:1013E0000D46E39AC6FE238007002380E184E5B71B
:1013F000B7B7002003A78751B7070550854698C7A0
:10140000238CD18203C70700136717002380E700EE
:10141000828089653971930610051306000593854E
:101420000558114506DE22DC26DA4AD84ED652D4BB
:10143000EF10A058014685451145EF108024EF00BC
:1014400050049387018423800700593D05C1B79656
:101450000000256693864639130606389305B012B8
:101460003795000013058539EF60703413840184CB
:10147000B7040020230004009384440223000400E6
:1014800013898402930950FA83D7040011466C082B
:10149000A30EF10083D724001145230E31011397C9
:1014A0008700A183D98F231FF100EF10A01A0945EF
:1014B0009104E52CE39A24FD93041008834704006B
:1014C00093F7F70F89E7FD14C204C18085EC230070
:1014D0000400930400081389C183130AF00FFD5917
:1014E0008347190003472900F98F6390470395E468
:1014F000B79600002566938646391306063893058D
:101500002013B9BF0545552455BFFD14C204C1843D
:10151000E38034FF0545512CE1B723000400C933B3
:1015200019C9B79600002566938646391306063812
:101530009305901335B7EF00E07491473EC495478B
:101540003EC299473EC09308900213088002930759
:1015500060021307B0049306900413068004A945A3
:101560002545F92E376500201966130785CFB7B7D3
:101570000020130585CF854613060682814523ACDE
:10158000E7504921F2506254D2544259B259225A7A
:1015900001452161828063DB05009307D0022300AF
:1015A000F500050541118147A9463DA0E5FD9307DA
:1015B00000032300F5008280180813881700BA97EB
:1015C00033E7D502B3C5D5021356F741318F118FDA
:1015D0002388E7FE9377F80FE5F18A86B697639440
:1015E000F6004101828003C7F7FF0505FD171307C9
:1015F0000703A30FE5FEE5B7797122D44AD04ECE9A
:1016000052CC56CA06D626D283471500370400406E
:1016100081452306F100834705001309C100130A21
:10162000F100A306F10083472500130504401304CD
:1016300004402307F100EF3020488965938AC551A3
:1016400093894513A14483470900FD14CE85B3D780
:101650009740858B91E3D68513051020A12505467B
:1016600091452285EF30C04285452285EF302045E7
:1016700065DD014691452285EF3080418545228513
:10168000EF30A04481452285EF300043CDFC0509B1
:10169000E31A2AFBB250225492540259F249624A88
:1016A000D24A45618280B7C50200011181460146D8
:1016B000938505F21305102006CE2316010023079B
:1016C0000100EF003028370500408945130505402B
:1016D000EF30603A68000D3713054006592868005E
:1016E000213FF24005618280B7170240DC43371783
:1016F0007A0013070720C983BD8BB387E70237271A
:10170000F40013070740F165930610021306000268
:10171000938505200945BA9723A2F1846F10E0292B
:10172000011126CAB754004022CC4AC84EC606CE84
:10173000AE893289014493840480634A2401F240D3
:1017400062444A85D2444249B24905618280930588
:1017500000042685EF30404E7DD9B387890083850C
:10176000070026850504C205C181EF30404CF1B762
:10177000828083A7C18137177A0013070720B3D768
:10178000E702814601473385A702B7F700E023A0AF
:10179000070094C7D8C7054798C3B7F600E0984636
:1017A000DC4699E3E37DE5FE828083A7C18109677A
:1017B000130707F4B3D7E702814601473385A70231
:1017C000B7F700E023A0070094C7D8C7054798C320
:1017D000B7F600E09846DC4699E3E37DE5FE8280BB
:1017E00009E5814601468145A1AE0547E30BE5FECB
:1017F0000947E308E5FE0D47E305E5FE1147E3026F
:10180000E5FE1547E30FE5FC1947E30CE5FC1D4732
:10181000E309E5FC21476318E5008146014681455F
:1018200013050002D1B725476318E500814601463C
:101830008145130510024DBF29476318E500814615
:10184000014681451305000445B72D476318E5009F
:101850008146014681451305100479B73147631865
:10186000E50081460146814513052004B5BF354793
:101870006318E50081460146814513053004ADB784
:1018800039476318E5008146014681451305400448
:10189000A1BF3D476318E500814601468145130518
:1018A000500499B78280797122D485452A84130522
:1018B000002006D626D2EF20104D2285153703A72B
:1018C0004184B7C70105938707D0316563E3E7001B
:1018D000216537240140EF20303713050440EF2005
:1018E000007DB7070E003EC68A8585471305044074
:1018F000230AF10002C002C202C402C8EF20807FA6
:10190000854513050440EF20700413050440EF20C3
:10191000F004930404402685EF20F0046DFD1305C8
:10192000044037240140EF20900413040440228532
:10193000EF2090046DFDB250225492544561828094
:1019400079714ECE52CC56CA328AAE8AB6890146D9
:1019500093068004814506D622D426D24AD046C0BA
:1019600042C23EC43AC683440103034941030344CF
:101970008103F92256859306800401468145C922D8
:10198000528593068004014681455D2A4E85930663
:101990008004014681456D2232479306800401464A
:1019A0003A858145712AA2479306800401463E8507
:1019B000814579221248930680040146428581457B
:1019C00041228248930680040146468581458D2A3E
:1019D0004A8593068004014681459D22268593060B
:1019E000800401468145A92A22852254B25092548E
:1019F0000259F249624AD24A93068004014681455F
:101A000045613DAA011122CC26CA2E84AA848545AF
:101A1000096506CE32C636C4EF201035B70705502B
:101A200003C70700130560058D451377F70C238066
:101A3000E70003C70700136727042380E70003C7F5
:101A400017001377970FA380E700A2463246239230
:101A5000D7002393C70084C7C0C703C717001377F5
:101A6000F703A380E70003C717001377F70FA380DE
:101A7000E70003C7170013670701A380E70003C748
:101A80002700136747002381E70003C71700136788
:101A90001700A380E70003C7070013671700238020
:101AA000E700D12A6244F240D24413056005056183
:101AB00049AA011122CC05452E84854506CE26CAA9
:101AC0004AC802C0328902C202C402C6EF20B02B4B
:101AD000930680040546814522859D209374F40178
:101AE00013555400A6851375F50FEF20B0078547F1
:101AF000339797000A853AC002C24AC43EC6EF2017
:101B0000206859459DC49377E4015D459DC389478D
:101B1000614563F097027188654501CC914769453D
:101B200063F99700A5471305700263F49700130546
:101B30008003012AF2406244D24442490561828016
:101B40009307F00F630BF50C797122D413545500F1
:101B500026D24AD04ECE52CC06D61D889374F500BC
:101B60003689328AAE8935E085451145EF20B021AE
:101B70008547B3949700C204C180231291006399F2
:101B8000F90093170901C183A18391E38D473EC4F6
:101B9000A9679387079D0A043E9400401379F90FC3
:101BA0004C0022854AC6EF20C06685476397F9003E
:101BB0005286A6852285EF20E071B25022549254BD
:101BC0000259F249624A4561828085476315F400F3
:101BD0008545214561BF89476315F4008545414529
:101BE00071B78D476316F400854513050002BDBF2C
:101BF00091476316F40085451305000485BF95479A
:101C00006316F4008545130500088DB79947E31165
:101C1000F4F685451305001091BF82809357550057
:101C200013972700A9679387079DBA9798439377DF
:101C3000F50005453315F50099C108CB828048CBE6
:101C40008280935755000547938707043315A700F3
:101C50008A0737E700E0BA9788C382809357550018
:101C60000547938707063315A7008A0737E700E083
:101C7000BA9788C38280B7E700E03E952300B5405D
:101C800082808280828001112304A100280006CE78
:101C9000A304B1002305C10036C6EF20606FF240F7
:101CA000056182809357850029671307079F8A077C
:101CB000BA9798430D890A058357C7023A95B385A9
:101CC000F502896793870771B3D5F502C205C18113
:101CD0004CD9828019E5930680310146854521451E
:101CE00085B585476318F500930680310146854523
:101CF0002545FDB789476318F500930680310146F5
:101D000085452945F1BF8D476318F500930680315D
:101D1000014685452D45E9B7C1476319F50093068E
:101D2000803101468545130590085DBFC54763199D
:101D3000F50093068031014685451305B0084DB77F
:101D4000C9476319F500930680310146854513059F
:101D5000D00879B7CD476319F50093068031014665
:101D600085451305E008ADBF930700106318F50023
:101D7000930680310146854501459DB793071010B4
:101D80006318F5009306803101468545054589BFF6
:101D9000930720106318F5009306803101468545AE
:101DA00009453DBF930730106318F5009306803155
:101DB000014685450D452DB7930700116318F500C1
:101DC00093068031014685453D4519BF93071011A3
:101DD0006319F500930680310146854513053002ED
:101DE00001B7930720116319F5009306803101466E
:101DF00085451305A002EDB5930730116319F50071
:101E000093068031014685451305B002D1BD930785
:101E100000206318F5009306803101468545194579
:101E2000C1B5930710206318F50093068031014671
:101E300085451D4575B5930720206319F500930668
:101E40008031014685451305000259BD93073020B6
:101E50006319F5009306803101468545130510028C
:101E600041B5930700216319F500930680310146BF
:101E7000854513056004ADB5930710216319F5007E
:101E800093068031014685451305700491BD930783
:101E900020216319F500930680310146854513051D
:101EA00080043DBD930730216319F500930680310E
:101EB000014685451305900425B593070022631953
:101EC000F50093068031014685451305400209BDA2
:101ED000930710226319F50093068031014685456A
:101EE00013055002F5BB930700306319F500930604
:101EF00080310146854513056002DDB3930710303C
:101F00006319F5009306803101468545130570027B
:101F1000C1BB930720306319F50093068031014659
:101F20008545130580026DBB930730306319F500BA
:101F300093068031014685451305900255B39307FA
:101F400000316319F500930680310146854513057C
:101F5000C00679B3930710316319F50093068031F9
:101F6000014685451305D006A5BB930720316319AB
:101F7000F50093068031014685451305E0068DB3D3
:101F8000930730316319F50093068031014685458A
:101F90001305F006B1B393070040E30BF5DC93079C
:101FA0001040E301F5DE93072040E307F5DE9307D9
:101FB0003040E30DF5DE93070070E308F5EA930780
:101FC0001070E30FF5EA93072070E306F5EC930732
:101FD0003070E30DF5EC93070071E30AF5F0930719
:101FE0001071E301F5F293072071E308F5F293070E
:101FF00030716319F500930680310146854513055C
:10200000D004F9B993070580E38807D8856713875B
:102010001780E30DE5D8138727806318E500930642
:10202000803101468545114565B99387378063192D
:10203000F5009306803101468545130540044DB1F6
:102040008567138707816319E50093068031014690
:1020500085451305900669B1138717816319E5005B
:1020600093068031014685451305B00695B913875F
:102070002781E305E5EE13873781E307E5F0138752
:102080000790E30CE5E813871790E303E5EA13876D
:1020900027906319E50093068031014685451305B5
:1020A00030043DB9138737906319E50093068031FA
:1020B000014685451305B00425B1138707916319BF
:1020C000E50093068031014685451305100609B9E0
:1020D000938717916319F500930680310146854572
:1020E00013053006F5BE8567138727916319E50050
:1020F000930680310146854513055006D5B61387F2
:1021000037916319E5009306803101468545130533
:102110007006F9B613870792E30EE5CA1387179284
:10212000E301E5DA13872792E308E5DA938737922C
:102130006319F50093068031014685451305F004C7
:1021400045B68280397106DE22DC26DA2A844AD836
:102150004ED62EC632C43689EFF0DFB7B24583A71C
:10216000C18122469359840033D7B7024E854183FB
:1021700093061700B386B602B3D7D702939407012C
:10218000C180B384C402096613060671FD179395D6
:102190000701C181B3D4C4023A86DD2E85450545C9
:1021A000EF20603E935744000547C204C18063940A
:1021B000E7063705160085451305050CEF202012AC
:1021C000C167296793870706139529001307079F9F
:1021D0003EC83A9593773400231B9100231C0100DD
:1021E000231E01000041E9E70C082285EF20C052C0
:1021F00085452285EF205001CA852285EF203002D7
:1022000022858545EF20807EF2506254D254425997
:10221000B2592161828045476398E700370518006D
:1022200085451305053059BF130710026398E70071
:1022300037151A008545130505C049B71307200255
:102240006398E70037151A00854513050580BDB76B
:10225000130710036395E7008545056585B71307E8
:1022600010076399E700370701405C4F93E7470089
:102270005CCFB9B7130710086398E7003707014030
:102280005C4F93E70701EDB7130710096398E70068
:10229000370701405C4F93E70704D9BF13072009B4
:1022A000E390E7F2370701405C4F93E70702C9B7B5
:1022B0000547639FE7000C082285EF20E04F228549
:1022C0008545EF206074CA852285EF2060760DBFBA
:1022D00009470C082285639DE700EF20A05A22855C
:1022E0008545EF206072CA852285EF20007609BF00
:1022F000EF20E06522858545EF200071CA852285A3
:10230000EF20C075F5BD411122C426C24AC006C6E1
:10231000AE843284368921E99306803105468545AD
:102320001545EFF0FF8189476393F40893068031E8
:10233000054685451D45EFF0BF808547631DF40ABE
:1023400093068031054681451945EFF06FFF224421
:10235000B24092444A8502499306003101468545C0
:1023600041016FF0EFFDC1476319F500930680311D
:1023700005468545130530026DB7930700026319C2
:10238000F50093068031054685451305D00251BFFF
:1023900093070003E30CF5FC93070004E315F5F83D
:1023A00093068031054685451305A0049DBFC947A6
:1023B0006399F40093068031054685451305500264
:1023C0009DBF930720026399F40093068031054670
:1023D00085451305F00285B793072003E38CF4FCD1
:1023E00093072004E39BF4F493068031054685456A
:1023F0001305C00489B7C5476319F40093068031FB
:10240000054681451305400289B7930710026319F9
:10241000F40093068031054681451305E00235B787
:10242000930710046319F400930680310546814533
:102430001305B00419BF93071003E31AF4F07DBF2E
:10244000397122DC26DA4AD84ED652D456D25AD026
:1024500006DE2A842E89328AB68A3A8BBE84C289E5
:1024600051E5056585450505EF20E011DA865686BC
:10247000D2854A85EFF03FE9B70704013EC623182D
:10248000010085476388F408C9C009476389E408E7
:102490008D466389D40893070020231BF1009D47D4
:1024A000231EF100A9679387479E0A043E940040CB
:1024B0008E096C002285231C3101231D0100EF20B1
:1024C0002012C1476315F90685450545EF103061B7
:1024D00022858545EF206016F2506254D25442594D
:1024E000B259225A925A025B216182808547631851
:1024F000F500854511650505EF20C00A85BF8947B0
:10250000E316F5F685452165FDB723190100231A69
:10251000010051B723190100231A9100ADBF2319FF
:102520009100F5B72319E100231AF100ADB7930725
:102530000004E31FF9F83715200085451305051041
:1025400071B7A9670A059387479EAA9798432316F0
:10255000B7008357870093F70708E5FF8280A967D4
:102560000A059387479EAA979C4313D78500239615
:10257000E70003D787001377070865FF93F5F50F8A
:102580002396B70003D787001377070865FF82807B
:10259000011122CC26CA4AC806CE2A842E89B284CA
:1025A00001E90565854513050580EF10D07D39A04B
:1025B0008547631EF5028545EF10D07EA967938796
:1025C000079F0A043E9408404C0023142101231263
:1025D0009100231501002313010023060100EF20C1
:1025E000A007F2406244D244424905618280894793
:1025F000E303F5FC8D476315F500854511456DBF77
:1026000091476315F500854521457DB79D476315C5
:10261000F5008545096551BFA1476316F50085455D
:102620003705080059B7A547E31AF5F8854537057A
:102630001000A5BFA9670A05938707A1AA97984329
:102640008357070093F70708E5DFC205C18123120E
:10265000B7008280411122C426C24AC006C62A8918
:102660002E84B384C50063189400B240224492447F
:1026700002494101828005048345F4FF4A855D3F9C
:10268000DDB7411122C426C206C64AC02A84AE84E0
:102690001DEEA96713172500938707A12E86BA9709
:1026A000930550528843EF202055938741823E94F2
:1026B00003450400B7E700E0AA97238007408DC4D4
:1026C0002244B2409244024941016FF08FD78547BE
:1026D0006313F602A96713172500938707A12E86B7
:1026E000BA97930570727DBF2244B240924402496A
:1026F00041016FF0AFD689476319F604A967131734
:102700002500938707A1BA9703A9070005469305FB
:1027100050524A85EF20404E13045403A68622856A
:1027200001468145EFF02FD64A8505469305707224
:10273000EF20804C22852244B2400249A686924472
:102740000546814541016FF00FD4B24022449244C6
:10275000024941018280A9670A05938707A1AA97C8
:1027600098438357070093F7070299C78357470099
:1027700005452380F500828001458280411106C60F
:102780000DE185476398F522E14601462545EFF0C6
:102790002FBB9146014681452945B24041016FF06A
:1027A0002FBA8947631FF500E146014685451305A9
:1027B0006002EFF0EFB891460146814513057002C3
:1027C000E9BFC147631DF500E1460146854509455E
:1027D000EFF00FB79146014681450D457DBFC947D2
:1027E000631FF500E1460146854513055006EFF0ED
:1027F0002FB59146014681451305600679BF9307C1
:102800000002631FF500E146014685451305A0025D
:10281000EFF00FB39146014681451305B002B5BFF5
:1028200093072002631FF500E14601468545130525
:10283000A004EFF0EFB09146014681451305B004C6
:10284000A9BF930740026310F502E14601468545A2
:1028500013058006EFF0CFAE930680040146814554
:10286000130590061DBF93070004E30FF5FA9307C5
:102870002004631FF500E14601468545130500026B
:10288000EFF00FAC9146014681451305100231B7B8
:1028900093070005631FF500E146014685451305D2
:1028A000C004EFF0EFA991460146814513052006CB
:1028B000EDB593072005631FF500E1460146854508
:1028C00013058008EFF0CFA7914601468145130517
:1028D0009008E1B5930700066310F502E146014652
:1028E000854513050004EFF0AFA59306800401466B
:1028F00081451305100455B593072006631FF500A5
:10290000E146014685451305A008EFF06FA3914607
:10291000014681451305B00849B593070007631FB9
:10292000F500E1460146854513052004EFF04FA16F
:102930009146014681451305300485B5930720076C
:102940006317F500E146014685451945C5B793076C
:102950004007631FF500E146014685451305C008A1
:10296000EFF00F9E9146014681451305D00835B51D
:1029700093070008631FF500E146014685451305EE
:102980004004EFF0EF9B914601468145130550044A
:1029900029B593072008631FF500E14601468545E8
:1029A0001305E008EFF0CF999146014681451305E4
:1029B000F008E5B3B24041018280797122D44ECE55
:1029C0002A84AE890545854526D24AD006D6B284EA
:1029D0003689EF10503B8947639FF4048D47631697
:1029E000F90085451145EF10900F631C04128545D1
:1029F0001165EF105039CA852685EFF03FD8B7072B
:102A00000C003EC4A967938707A10A043E940040C6
:102A10008A854EC0228502C223160100EF20600E77
:102A200022858545EF20801BB250225492540259D2
:102A3000F24945618280C9476398F400CD47E316A7
:102A4000F9FA8545214545B793072002639BF400B9
:102A500093073002E31BF9F837051400854541055B
:102A600059B793074002639CF40093075002E31E9A
:102A7000F9F637051400854513050503ADB793072F
:102A800020046399F40093073004E310F9F68545B8
:102A9000056591BF93072005639BF40093073005FC
:102AA000E315F9F437052000854505052DBF93078B
:102AB0002006639CF40093073006E318F9F23715FB
:102AC000008085451305058039BF93072007639E65
:102AD000F40093073007E31AF9F0370701405C4F21
:102AE000B7064000D58F5CCF09B793074007639CBA
:102AF000F40093075007E31AF9EE370701405C4FE3
:102B0000B7068000C5B793072008E390F4EE93075B
:102B10003008E31CF9EC370701405C4FB7060002B0
:102B2000D1B785476318F400854537050200EF10DB
:102B30007027D1B589476316F40085453705040031
:102B4000FDB78D476316F400854537050800C5B706
:102B500091476316F400854537051000C9BF9547B6
:102B60006316F400854513050004D1B79947631631
:102B7000F4008545130500085DBF9D47E31DF4E69D
:102B800085451305001065B73971B7A7000062CC01
:102B900066CA03AC07A383AC47A326DA52D456D245
:102BA0005ECE6AC8014A814AB76B0020370D00200B
:102BB00022DC4AD84ED65AD06EC606DE5289D68955
:102BC000130430029384818F130BE005938B4BB079
:102BD000130D8D17930D6005B307940083C707008D
:102BE00063986701B307A40183C70700638A67037B
:102BF0006286E6864A85CE85EF20F015B3878B0086
:102C00002A8903C50700AE893305AB40EF40003F7A
:102C10002A86AE865285D685EF20F0132A8AAE8AA0
:102C20000504E31BB4FB5285D6854A86CE86EF3079
:102C30008005B76C0020370D00202A8AAE8A014B30
:102C4000814B13043002130CE005938C4CB0130D30
:102C50008D17930D6005B387840083C707006398C1
:102C60008701B307A40183C7070063848703B38781
:102C70008C0003C507003305AC403305A502EF40C7
:102C8000E0372A86AE865A85DE85EF20D00C2A8B67
:102C9000AE8B0504E311B4FD4A86CE865A85DE85E7
:102CA000EF20707E2A84AE845286D6865285D685E1
:102CB000EF30E06E2A86AE862285A685EF30B039E9
:102CC000B7A7000003A687A383A6C7A3EF30E056EB
:102CD000F25062541345F5FFD2544259B259225A68
:102CE000925A025BF24B624CD24C424DB24D7D8106
:102CF0002161828039714AD83709002013070928D9
:102D00004ED652D406DE22DC26DA56D25AD05ECE19
:102D100062CC66CA130AC70B81469309092893053A
:102D2000C00B7D551308B0039307700721A0FD1752
:102D3000638DA7003386B7023A960346060065FA0C
:102D4000938747FC6363F80085060507E31E47FD8C
:102D50009307300B054563C2D70CB7A7000083AAC1
:102D600087A403ABC7A41389818F130470079384CE
:102D7000818F03457907930BF4FF7D19EF40202FD6
:102D80002AC4034579072EC6EF40602E2246B2467C
:102D9000EF00301D5686DA86EF30204A634C050876
:102DA000930764FF13072003636CF708B38784005D
:102DB00003C907009307E00563E42709B70700206C
:102DC00093878717A29703C7F7009307B00B631980
:102DD000F7064E99814B130CC00BFD5C9309540010
:102DE000B3878903CA9783C70700B9E74E85EF40C9
:102DF000E0202AC422852EC6EF4040202246B2465B
:102E0000EF0030165686DA86EF30004E6346A00299
:102E1000850B0509E31449FD0945F2506254D2546B
:102E20004259B259225A925A025BF24B624CD24C2E
:102E3000216182805E8435BFFD19E39399FBD1BF88
:102E40009307B0030145E3DA87FCA29403C70400AB
:102E500093070005E3E3E7FCB70700209387871794
:102E6000A29703C757009307B00BE318F7FA93072D
:102E7000C00B6D143304F4029306C00B81473387F3
:102E800087004E970347070011E305058507E39880
:102E9000D7FE1325A50A1345150041B7B7660020D4
:102EA000938646B003C7A6059307E00563F7E704DA
:102EB000B70700209387871703C7A7051306B00B32
:102EC000631CC70203C6C7056318E60203C7E7050C
:102ED0006314C70283C787056390E7021387818F56
:102EE0000346A70503475707998FB297B29709473B
:102EF000B3C7E702238DF6048280E30FF7FE138742
:102F0000818F0346C7058347A705D18F0346E70591
:102F100003478705D18FD98FE5F3370700201307C3
:102F200087170346A70583475707B307F6407DBFBA
:102F3000B7050020130720031305C00B9385052850
:102F40001308B00BB94813035006B307A702014694
:102F50008146AE9783CE070003CE170085066383B4
:102F6000CE0105068507E39706FF63DBC8003767D8
:102F70000020834707AB054585072308F7AA828011
:102F80000507E31467FC01458280B767002079716B
:102F900083C7C7B74AD05AC837690020376B0020AB
:102FA00006D622D426D24ECE52CC56CAA30909AA9E
:102FB00023000BB063970710B7640020938644B0DA
:102FC00001440146814593097007938444B0394513
:102FD0002548C14803C3760703C76607FD193307B1
:102FE000674013033701636865081384190013747D
:102FF000F40F0546C1CB3307F4406355E80899C187
:103000002300FBB019C2A30989AA854983470BB0E5
:103010001D476378F70A6386090AA69703C5070068
:103020002694EF40C0042AC4034504002EC6EF4096
:1030300000042246B246EF00C072B7A7000003A604
:1030400087A483A6C7A4EF30202A634CA0060344BC
:1030500039ABB7A7000003AA07A483AA47A41309A2
:10306000F4FF269483470BB0850763C72703054702
:10307000238AE18E81A8751763E5E80093F7F90FBD
:1030800085452DF8FD16E39709F499C12300FBB09F
:1030900035DEA30989AA9DBF0345F4FF7D197D1480
:1030A000EF30F07C2AC40345F4FF2EC6EF30307CAD
:1030B0002246B2467D255286D686EF300018E3536D
:1030C000A0FA8149B25022544E8592540259F249D5
:1030D000624AD24A424B45618280B7070020196696
:1030E000938607281306068236969387072801479A
:1030F0001305F00F83C5E70599E505079387C70B0F
:10310000E31AF6FE19A0E39BA5FE930770020145A2
:1031100063C7E70082803E8389A03E8591A8B705FA
:1031200000201386818F93858517014301488148CC
:10313000014E930EF00FFD52930FC00B130FB00B07
:103140003A96BA959307E005B383F60083C303006C
:10315000E383D3FDFD17E39957FE9307E005B3839F
:10316000F60083C30300E38AD3FB8507E399F7FFE7
:10317000B3076540FD17BE98630C030011C96309CE
:10318000E5018347060089C783C705006393E7010C
:103190000508050E9386C60BE356C7FB9307703EE2
:1031A000014563D4170113351800828083C79186C7
:1031B000D5EF411106C622C426C24AC0EFF09FB324
:1031C0000DC983C781868946638AD702631BD500F0
:1031D000254723A6E184B24022449244024941019A
:1031E00082808546E319D5FE85072384F186114741
:1031F000CDB703C781868947631CF700B7670020F6
:1032000083C7C7B791E7EFF05FD819C11547D1B7AA
:10321000B767002083C6C7B7376400200D4703494E
:10322000D4ABBE84639BE600EFF03FEB19C5631699
:1032300009008547A30EF4AA79BF89476316F900F0
:10324000EFF01FCFA94711E9EFF01F9409CD83C715
:10325000C4B70D476396E700994723A6F184A5BF3D
:10326000E5DF8547DDBF23A60184B5B78280B76659
:1032700000208147938606BF130700103386D700CE
:10328000230006008507E39BE7FE99679387078283
:10329000AA971308C00B01473306E5000346060052
:1032A000050736968345060085052300B600E3151D
:1032B00007FF1305C50BE390A7FE82801D713767DA
:1032C0000020D6C286CEA2CCA6CACAC8CEC6D2C458
:1032D000DAC05EDE62DC66DA6AD86ED68146930AB0
:1032E00007BF9305001033865601034606009397E7
:1032F0000601C1870DCE9306F00F1308F00F638807
:10330000D7009306E00F1308E00F6397D702F6404B
:103310006644D6444649B649264A964A064BF25B6D
:10332000625CD25C425DB25D428525618280850629
:10333000E39BB6FA930700103E89BE86014C130644
:10334000F00F93950601C185635EB60EBE86014AF5
:103350009305F00F13960601418663DCC50EB7A6F0
:10336000000083AD06A503AD46A50148814C814907
:10337000930EE00FE3CDFEF8B3862A0103C40600E6
:1033800042CE3ECCA299330489024E85EF30304EB6
:103390002A8B6285AE8BEF30904D2AC433053C41B9
:1033A0002EC6A29CEF3090452AC866852ECAEF3003
:1033B000104C5A86DE86EF20100D2A8433059A4180
:1033C000AE84EF30B0434246D246EF20D00B2A867F
:1033D000AE862285A685EF3000482246B2462A8472
:1033E000AE845A85DE85EF20100A2A8BAE8B2246EA
:1033F000B2464245D245EF2010092A86AE865A854C
:10340000DE85EF20D0792286A686EF2050792286AD
:10341000A686EF20D0782A86AE86AA842E846E8572
:10342000EA85EF20706CE2477248930EE00F635616
:10343000050013F8F70FA68D228D8507C207C187F7
:1034400005090DBFB385DA0083C5050085062E9CEE
:10345000CDBD3386DA00034606003306D602850664
:10346000329ACDBDB705002085461305C00B938564
:1034700005281303F00F130ED01F930EE01F7D5F7E
:103480001308B00B93087007B387A6020546AE97E2
:1034900003C7170005061DE783CFD70B03C757F4F3
:1034A0007E9783CF27007E9783CF07007E9763D4D4
:1034B000EE00A380E7018507E31C06FD8506E39582
:1034C00016FD8280E31967FE83CFD70B03C757F43D
:1034D0007E9783CF27007E9783CF07007E97E34CAC
:1034E000EEFCA3800700C1BF011106CE22CC4AC862
:1034F0004EC626CAAA89EFF09FD7EFF03FDCB76728
:1035000000203706002099662384A7AA01443E893B
:1035100032881303C00B9386068293040628B3886F
:103520008900330794008147B385F80083C50500FF
:103530006371B5062300B70085070507E39667FEAC
:103540001304C40BE31BD4FC13050828EFF03FD28F
:10355000EFF0DFD62304A9AA26941306C00B268712
:1035600081468347070085060507B337F500B30793
:10357000F040A30FF7FEE396C6FE9384C40BE3105E
:1035800094FE6244F240D2444249B24905616FF070
:103590007FED2300A7004DB78547631AF50093061A
:1035A000003105468545130520086FE06FD989472E
:1035B0006319F5009306003105468545130530086B
:1035C000EDB78280411106C6EFE0CFEBEFE0CF917F
:1035D000EFE00F9A0145EFD06FC60545EFD00FC65B
:1035E00005454928094579200D456920114559208F
:1035F000154549201945BD280945EFE0CFAA0D45DD
:10360000EFE06FAA1145EFE00FAA1545EFE0AFA973
:103610001945EFE04FA90545EFF01FF80945EFF018
:10362000BFF7EFE04F883522EFE0AFE51305B00BB1
:1036300023A20186EF40B01DB767002023ACA7AAE4
:103640001307850AAA8723A007009107E39DE7FED9
:1036500091471CC1B2408D4705472324F50A89478D
:1036600058C15CD178C17CD12322E5082322F50A18
:1036700041018280411122C406C685472A84631411
:10368000F502930680340546814513050004EFE0FA
:103690002FCB99476315F406930680340546814580
:1036A0001305500425A089476319F500930680345B
:1036B0000546814513051004D9BF8D47631DF500EC
:1036C0009306803405468145130520042244B24008
:1036D00041016FE0EFC691476319F500930680340E
:1036E0000546814513053004D5B79547E313F5FA30
:1036F000930680340546814513054004C1BFB2409E
:10370000224441018280411122C41385818406C66E
:10371000EFD09FEE138581842244B24041016FD0E7
:10372000BFED41111385818406C6EFD0FFECB24096
:103730001385C18041016FD03FEC41111385C180D9
:1037400006C6EFD07FEBB2401385818441016FD074
:10375000BFEA93068004054681451305A0066FE085
:103760002FBE011122CC26CA4AC84EC652C456C228
:1037700006CE3289B6892A8AAE8AEF30C00D01465C
:1037800081462A84AE84EF203036635A0500528683
:10379000D6864A85CE85EF30000C2A84AE842285F9
:1037A000F2406244A6854249D244B249224A924A32
:1037B0000561828075718547EECE376E0020AA8D37
:1037C00037650020238AF186A305FEAAA38AF19615
:1037D000B7050020930745B03ED693878517DAD802
:1037E0003ECC138B818F9387818F37A600003ECE0E
:1037F000832786A322C5B7660020B7620020B76E74
:1038000000201307700726C34AC1CEDED2DCD6DA09
:10381000DED6E2D4E6D2EAD006C7238006AC23A8DF
:10382000018623AA02CE23A8019623A60186A3849B
:103830000EAA238AE1967ED076D272C81AD446CADE
:103840000328C6A315663ED89307267C3EDC9387E3
:1038500006AC930445B0938A8517130A70079E8BB4
:10386000168CFA8C42DA1309F00F9309B00B054D50
:103870003EDE930770076319FA1895679387177CE4
:103880003386FD009306E005034516009385F6FF99
:10389000631A25150345060063160514F247A38B2A
:1038A000D706E2579306E0053386FD000345060080
:1038B000938516006310251503451600631C051239
:1038C000E247A38BD70683C67A079307E0058345B3
:1038D0007B076380F60A638EF508894763E6B702C3
:1038E0009307700B63F2D7021306CAFE9307A00575
:1038F00063ECC70003A60187F2573305F6000506FF
:103900002300450123A8C186639C051C63873601FB
:1039100003264CCF0506232ACCCE9307500763CA53
:10392000470503C68A07FD573385C6406351F50234
:10393000C24703C5B7AA631CA501631A3601925793
:1039400013061A00A384C7AAC247A38507AA034681
:103950008B073385C540635EAD00D24703C55197E1
:103960006319A50119E6A257238A4197D247A38A72
:103970000196AE968586A38BD4067D1AFD14FD1A9A
:103980007D1BE3180AEEEFF07F8203A7C184854612
:10399000759B6314D700EFF06FD0B70600201305B6
:1039A000C00B9386062813067007B257338747016A
:1039B000834507003307AA02050A36972E9723008E
:1039C0000700E314CAFEBA402A449A440A49F65949
:1039D000665AD65A465BB65B265C965C065DF64D2B
:1039E000496182807D16AE86E39005EAF247A38B9B
:1039F000070645BD0506AE86E39A35EBE247130799
:103A0000B0FBA38BE706C1B503C58A07EF3020667C
:103A10002AC403458B072EC6EF3060652A86AE8622
:103A2000AAC4AEC62245B245EF20F06201468146E7
:103A3000AAC0AEC2EF20500B064796472648B648AC
:103A4000635A05002246B2464285C685EF20B06023
:103A50002A87AE874256D2563A85BE85EF20E07D52
:103A6000634905069307C00B3306FA0283C6840731
:103A7000B6856E968DC1B308B60083C8080013855D
:103A8000F5FF639E2803B308A60083C80800639867
:103A90000802A30BBB069307A00BE3C6D7E23305CE
:103AA000D6000345050093851600631E25013305E6
:103AB000B6000345050001E9A38BDA0629B5A30B7F
:103AC0000B06AA8545BF9307B0FBA38BFA06AE860B
:103AD000D9B79307E005A38BFA06A30BFB06E5B362
:103AE000E39D36E303C641876317A6018257238A05
:103AF000018623A6418703A60197050623A8C19640
:103B000029BD13078002B7660020938706B823A05B
:103B1000E6B889661385C6D413864696938606A9A9
:103B2000D4DF93067003B4C79306200893050005FD
:103B3000B4C385668CCB8CDB93850677938686BB76
:103B4000C8C798CF98D3C8D7B8CBF4CFB8D36548F7
:103B500037B70020930690061305500223A40701EF
:103B600023A20700B4D723AA070093060000D0CFF2
:103B700023A4070323A2070288DF23AA070223A2A4
:103B80000704ECC723AC070423AA070423A20706F3
:103B9000F0D79307C751D4C394C7D4C794CB232E6F
:103BA000D75037B7002093070753D4C394C7D4C75F
:103BB00094CB2328D7528280797106D622D426D27C
:103BC0004AD04ECE52CC56CA5AC82E894CC14C450A
:103BD000328AB76900202A84938909B84A859314E8
:103BE0004A00EF30404FCE94AA8A48C48844EF4040
:103BF00040280C442A8B4A85EF30D069AA855A8523
:103C0000EF3050402A8B8840EF40A026CA85EF3025
:103C1000703FAA855A85EF30004C2A8BC840EF4090
:103C20004025D685EF30103EB7A7000083A587A5B5
:103C3000EF301001AA855A85EF30E04908C8954752
:103C40002AC66302FA06C4442685EF408022B245A4
:103C5000EF306048B7A7000083A5C7A5EF307029F3
:103C600063490500096513050571058DEF40602066
:103C700008C833059040EF40C01FAA850848EF30C0
:103C8000B02F6345A000930700001CC82324240123
:103C90000848B250225492540259F249624AD24A18
:103CA000424B4561828083A4C9052685EF40601C94
:103CB000B245EF304042B7A7000083A507A6EF301A
:103CC0005023E34805FA0565130505FA79BF01118C
:103CD00022CC37640020130444B00345540526CA9F
:103CE0009304E0053385A44006CE4AC84EC6EF30A3
:103CF000E030B7A7000003A687A683A6C7A6EF20DB
:103D0000006A2A8903456404AE893385A440EF30F4
:103D1000E02EB7A7000003A607A783A647A7EF20BA
:103D200000682A86AE864A85CE85EF10D0022A89A1
:103D300003451404AE893385A440EF30202CB7A787
:103D4000000003A687A783A6C7A7EF2040652A86A1
:103D5000AE864A85CE85EF101000EF30A023F240EA
:103D60006244B767002023AEA7AED2444249B249AD
:103D700005618280011126CAB764002003C7D4AB55
:103D80004AC84EC656C25AC006CE22CC52C4854737
:103D9000AA892E8BB28A3689631AF70E81451305DC
:103DA0003020EFD03FF0814513051010EFD09FEF8A
:103DB0001305C012EFD07F9F8145130530200564A5
:103DC000EFD05FEE9305047713051010EFD09FED51
:103DD00013056009EFD07F9D9305843813053020CB
:103DE000EFD05FEC9305843813051010EFD09FEBF4
:103DF0001305C02BEFD07F9B096A93056AA81305B2
:103E00003020EFD03FEA814513051010EFD09FE935
:103E10001305901AEFD07F9993058438130530204D
:103E2000EFD05FE89305242F13051010EFD09FE724
:103E30001305401FEFD07F9713056022EFD0FF9648
:103E4000814513053020EFD0FFE59305AAE5130562
:103E50001010EFD03FE5B767002003C517CF13055B
:103E6000F514EFD09F949305843813053020EFD0DC
:103E70007FE39305843813051010EFD0BFE21305DC
:103E80008025EFD09F928947A38EF4AAA547631699
:103E9000F90205649305846A0145EFC05FC093058C
:103EA00084386244F240D2444249B249224A924A9A
:103EB000024B054505616FC09FBE37640020930724
:103EC00004B8131A4900D297C847130404B8EF3056
:103ED000507AB7050080AA844A86B3C535015A8551
:103EE000EFF09FCDAA852685EF30E01EB767002052
:103EF00083C6C7B70D47BE84930500006396E600EE
:103F0000B7A7000083A507A8EF30D038EF301071B5
:103F100093150501C1810145EFC07FB85294484413
:103F2000EF3030752A844A86CE855685EFF0DFC89B
:103F3000AA852285EF30201A03C7C4B78D479305A1
:103F400000006316F700B7A7000083A507A8EF30AD
:103F50007034EF30B06C93150501C18199B701A0A1
:103F600001A001A001A001A001A001A001A001A049
:103F700001A001A001A001A001A001A001A001A039
:103F800001A001A001A001A001A001A001A001A029
:103F900001A001A001A001A001A001A001A001A019
:103FA00001A001A001A001A001A001A001A001A009
:103FB00001A001A001A001A001A001A001A001A0F9
:103FC00001A001A001A001A001A001A001A001A0E9
:103FD00001A001A001A001A001A001A001A001A0D9
:103FE00001A001A001A001A001A001A001A001A0C9
:103FF00001A001A001A001A001A001A001A001A0B9
:1040000001A001A001A001A001A001A001A001A0A8
:1040100001A001A001A001A001A001A07390123491
:1040200097D1FF1F9381018E17C10020130181FDDD
:1040300017650000130505E997C5FF1F938585FCEB
:104040001386818363FAC5008322050023A05500EF
:1040500011059105E3EAC5FE13858183977500205C
:10406000938545656377B500232005001105E36D51
:10407000B5FEFD42739002BCFD4273904280B78250
:1040800000009382828873A0023097C2FFFF938260
:10409000E2FA93E2320073905230EF10A03997C2E7
:1040A000FFFF9382427473901234730020304111E9
:1040B000B727014006C693870740631CF500854576
:1040C00013050020FD29814513050020B240410160
:1040D000CDA9B737014093870780631AF50085455E
:1040E00013050040F929814513050040C5B7B240CA
:1040F000410182805C413707F1E01307F7EF944DEF
:104100007D8F9C41D58FD44DD58FD441A206D58FBC
:10411000D98F5CC11C4537F7F1FF1307D77FD44512
:104120007D8F9C49D58F94458606D58FD98F1CC528
:104130005C55370710FF7D177D8F83C74501FD173D
:1041400093F7F70FD207D98F5CD582801C4589C5BC
:1041500093E717001CC58280F99BEDBF1C4593E7D0
:1041600087001CC5828008450D81058982801C4519
:1041700093E747001CC58280084509810589828034
:104180005841032805004C45370601409307064077
:104190003E979346F8FFB1C583250640F58D232051
:1041A000B640D043F18ED4C31443B3E6060114C322
:1041B000184190479346F7FF758E90C7D047F18E10
:1041C000D4C7144541466399C6009447D98E94C715
:1041D000D447558FD8C78280B6979443558F98C3DC
:1041E00082801C43F58F1CC38280B7070140138770
:1041F000074083A70740584B698F09C77D8D33352A
:10420000A000828001458280B707014023AAA74011
:1042100082809C4513F7070113F8F70001C7D841C6
:104220003368E80083D5050013F7F50F39C318414B
:104230008146854E3D4F930F800293028004214EAC
:104240003396DE00B3F8C500631116039398260079
:1042500033131F011343F3FF3377E300B31818013F
:1042600033E7E800639FF70550C98506E39AC6FD6A
:1042700018C11307F00F6375B70454412146854EEA
:104280003D4F930F800293028004414EB398CE00BD
:1042900033F715016392E802131726000117331351
:1042A000EF001343F3FFB376D3003317E800D98E42
:1042B000639DF701232A15010506E319C6FD54C1C4
:1042C0008280E39457FA10C94DB7E39757FE23282D
:1042D0001501DDB719C20CC982804CC98280B707AD
:1042E000014063550504D44FB7073000131705018B
:1042F0003376F5004183631DF602370600F17D1623
:1043000037080140B3F7C60083264800758E232284
:10431000C80099C59356550192063317D700D98F17
:1043200037070140635E05025CCF8280D4436DBFD6
:104330009317B50063D007029357050113F6F700F2
:104340008D47B397C70093C7F7FFF58FB706000FE8
:10435000D58FC1B7935755019207B317F700E5B74B
:104360005CC3828013F7C50F93F73500B705014092
:10437000BA9594458A073D473317F7001347F7FF6F
:10438000758F98C598453315F500598D88C582807D
:104390009387018594430347050089E683472500F9
:1043A000920731A8944305466391C60483472500CC
:1043B0000346150092076314D60093E707F8B7E6A3
:1043C00000E093F7F70FBA962380F640854693579F
:1043D00057003397E6005441ADC6938707048A0718
:1043E000B7E600E0B69798C382808C438946639312
:1043F000D50283461500834725006365D6008A06EB
:10440000B69779BF9386E6038A06B69793F7F70FB8
:10441000920765B790438D46631ED600834615000C
:10442000834725006364D6008606D9BF9386C607F6
:104430008606E1BF94439147E39AF6F88347150057
:1044400085B79387070661BFB7160240DC425177F4
:104450007D17F98F5D8DC8C28280371702405C439B
:104460009146B18B6385D700A1466386D706B717FF
:104470007A00938707201CC1371602405C42370739
:1044800000201307C7049183BD8BBA9783C607002A
:104490001C41B3D7D7005CC15442A1829D8ABA9611
:1044A00083C60600B3D6D70014C55442AD829D8A98
:1044B000369703470700B3D7E7005CC558423983F6
:1044C0009376370013870181369703470700B3D7E8
:1044D000E7021CC982805C4354434167C983F98E5B
:1044E00037F7FF1F0327C770BD8B89071316170106
:1044F00063480600454601476392C702C94739A889
:1045000009476389E7023D476388E70241476388BB
:10451000E702454601476393C700C14785E6B746B2
:10452000024083A60680C18A8DC6B7167A0093869C
:10453000062025A00147D9B70547B547C5B70147AC
:10454000BD47E9BFB7160240D4421396E600E35ECA
:1045500006FCB7163D0093860690B387D7021CC1B0
:1045600001DF1C41858301BF99C5371702405C4BB1
:104570005D8D48CB8280B7170240D84B1345F5FFBD
:10458000798DC8CB828099C5371702401C4F5D8D4D
:1045900008CF8280B7170240984F1345F5FF798DF9
:1045A00088CF828099C5371702405C4F5D8D48CF18
:1045B0008280B7170240D84F1345F5FF798DC8CFD9
:1045C000828099C5371702405C475D8D48C782805D
:1045D000B7170240D8471345F5FF798DC8C78280C9
:1045E000035705008D679387070483D625007D8FC9
:1045F00083D70500D58F83D64500D58F83D6650038
:10460000D58F83D68500D58F83D6A500D58F83D649
:10461000C500D58F83D6E500D58FD98F2310F5003F
:104620000357C501FD779387F77FF98F231EF500A8
:1046300083D705012318F50082808357050091C5B3
:1046400093E707042310F5008280C207C18393F724
:10465000F7FBC207C183FDB7835705003737014019
:10466000930607C0C207C1836300D504B7060040A4
:10467000630CD502938606406308D502B716004046
:10468000138606806302C502938606C0630ED500BA
:1046900013070740630AE50037570140930607C038
:1046A0006304D5006317E50003D7250093F7F7F8F7
:1046B000D98F37170040630DE500130707406309E2
:1046C000E50093F7F7CF03D76500C207C183D98F01
:1046D0002310F50083D745002316F50283D7050084
:1046E0002314F502B7370140138707C0630EE500B6
:1046F00093870740630AF500B7570140138707C047
:104700006304E5006316F50083C785002318F502EE
:104710008547231AF50082808357050203D60500DA
:1047200003D82500C207C183F99BC207C1832310A8
:10473000F502835705028356450003578501C207DA
:10474000C183420741831377C7F8518F03D6850091
:10475000F59BC20633660601D18F37360140130838
:1047600006C0C182630E050113060640630AC50038
:1047700037560140130806C0630405016313C502E0
:1047800003D6A500DD9B03D8E500D18F03D64500F5
:10479000ED9B93F6F6CFD18F03D6C50033660601A5
:1047A000D18E2312D500231CE50003D76500231A00
:1047B000E5022310F502828083570502657713070F
:1047C000F7CFC207C183BD9BC207C1832310F50287
:1047D000835705028356450003D88500C207139608
:1047E000060183568501C18393F7F7FD758F83D644
:1047F00005004182A206558F83D6250042074183DA
:10480000B3E606019206D58FB7360140C20713887A
:1048100006C0C183630E050193860640630AD50076
:10482000B7560140138806C0630405016311D5041F
:1048300083D6A50093F7F7F703D8C5009206D58F66
:1048400083D64500C207C183920693F7F7FBD58F45
:10485000FD769386F63FF18E03D6E500C207C1834D
:10486000336606010A06D18E139606014182231291
:10487000C500231CE50003D76500231CE5022310B7
:10488000F50282808357050203D88500C207C183E1
:1048900093F7F7EFC207C1832310F5028357050290
:1048A000835645000357C501C20713960601420708
:1048B00083D6050041831377C7F8558F83D625002B
:1048C000C18393F7F7DFB3E60601A206D58FB736AB
:1048D0000140C207138806C04182C183630E0501EF
:1048E00093860640630AD500B7560140138806C078
:1048F000630405016312D504FD769386F67FF58F78
:1049000083D6A50003D8C500A206D58F83D645005F
:10491000C207C183A20693F7F7BFD58FF576FD16C0
:10492000F18E03D6E500C207C18333660601120685
:10493000D18E1396060141822312C500231EE50085
:1049400003D76500231EE5022310F502828003577A
:104950000502FD77FD17F98F2310F50203580502B4
:10496000835645008357C50165771396060183D6A4
:1049700005001307F7CF7D8FF977A206FD17558F36
:10498000B3F7070183D6250003D88500420741828B
:10499000B3E60601B206D58FB7360140C2071388C9
:1049A00006C04183C183630E050193860640630AF6
:1049B000D500B7560140138806C063040501631C87
:1049C000D500F176FD16F18E03D6C5001A06D18EFC
:1049D0001396060141822312C500231EE50003D76A
:1049E00065002310E5042310F5028280835705003B
:1049F00091C593E717002310F5008280C207C18399
:104A0000F99BC207C183C5BF8357450491C5216780
:104A1000D98F2312F5048280C607C583DDBF835773
:104A20008501C207C183DD9BDD8D231CB50082801B
:104A300003578501FD779387F77FF98FA205CD8F07
:104A4000C207C183231CF50082808357C501C207BA
:104A5000C183DD9BDD8D231EB50082800357C50118
:104A6000FD779387F77FF98FA205CD8FC207C183AA
:104A7000231EF5008280835705029205C207C18379
:104A800093F7F7FDCD8FC207C1832310F502828013
:104A9000035705028547B397B70093C7F7FFF98F10
:104AA0002310F50283570502B315B600DD8DC2054C
:104AB000C1812310B50282802312B5028280035582
:104AC00005016D8D3335A000828093C5F5FFC205C9
:104AD000C1812318B5008280835705010355C500A5
:104AE000ED8F4205418189C76D8D3335A0008280ED
:104AF0000145828093C5F5FFC205C1812318B50029
:104B0000828083560501F577FD17F58F83D6650002
:104B1000397122DC06DED58F03D7C5002318F500D6
:104B20008356C500FD779387379FF58F83D6450061
:104B30002A842EC6D58F83D68500D58F83D6A5002F
:104B4000D58F2316F50083574501C207C18393F71C
:104B5000F7CFD98F231AF5006808EFF01F90B747F9
:104B6000014093870780B245631EF404A257835621
:104B7000C4006547B387E702C206C186984163D582
:104B8000060406070356C4004206B3D7E70213071C
:104B900040064186B3D6E702B3F7E70292066357B1
:104BA00006028E0793872703B3D7E70213F7770030
:104BB000B367D700C207C1832314F400F2506254D4
:104BC00021618280925765B70A076DBF920793876C
:104BD0002703B3D7E702BD8BD58FE9BF81C98357C0
:104BE000C5000967D98F2316F50082800357C500D9
:104BF000F977FD17F98FC5BF13F7F50F85471583B3
:104C0000B395B7006319F7009307C500984301CE29
:104C1000D98D8CC38280894693074501E318D7FE5E
:104C200093070501E5B793C5F5FFF98DDDB793F55A
:104C3000F51F2312B5008280035505006D8D3335B5
:104C4000A000828013F7F50F85461583B397B60051
:104C50006313D7020357C500F98F035705000145B9
:104C60004207418381CB0545A181B315B5006D8F06
:104C70003335E000828089466315D700035705016C
:104C8000E1BF03574501C9BFA1818547B397B7006D
:104C900093C7F7FFC207C1832310F5008280B707CF
:104CA0000050239AA70203C767031377C70F238B0C
:104CB000E7028280B7070050239CA70203C7A7031F
:104CC0001377C70F238DE7028280814737B6002014
:104CD00013F7F70F6364A7006FF07FFC0327866A62
:104CE0003E9783460700850793C6F6FF2300D70447
:104CF000C5B7814737B6002013F7F70F6364A700E5
:104D00006FF05FFB0327465D3E97834607008507EC
:104D100093C6F6FF2300D704C5B7B707005003C7F3
:104D200067001377F70F937627006384066C0111F1
:104D300022CE26CC4ACA4EC852C656C403C77700F4
:104D40009306000213770703630ED74E1306000382
:104D50006302C7046316072403C777000546137769
:104D6000F7036306C766630C075C8946631AD7229C
:104D700003C77700137707046304072203C7B70349
:104D800013474700A38DE70288471375F50FEFF02F
:104D90005FF639A419472389E7021147A389E7027F
:104DA000B7B7002083A4875D37B4002083C77400A1
:104DB00003C76400A207D98F2316F45C03C714004D
:104DC000B7B700202387E75C03CA040013770A06FD
:104DD0006300071003C7E75C1377070219CF83C787
:104DE000E75C1307100293F7F70F638AE7001307D6
:104DF00020026384E700639ED7180149A1A093872E
:104E00004181B7B9002023A8F95C8357C45C1D47D2
:104E100021496366F7000359C45C1379F90F4A8688
:104E2000938541812685EF30201F8357C45CB3876B
:104E30002741C207C1832316F45C83A7095DCA9783
:104E400023A8F95C8357C45C4209135909016374B0
:104E5000F9002316245D9387418503D707009D46FB
:104E6000A14463E6E60083D4070093F4F40FB7B9D6
:104E7000002003A9095D37B500202686CA851305E1
:104E8000C565CA94EF30401923A8995C620A135A89
:104E90008A41814763520A020357C45CA14763E613
:104EA000E7008357C45C93F7F70F0357C45C1D8F6B
:104EB000420741832316E45CC20737070050C183D1
:104EC0002318F70291472309F702A309F702C9A89B
:104ED00083C7E75C2D4793F7F70F636CF70A2967E1
:104EE0008A07130747A8BA979C43828783C7340071
:104EF00003C724008D46A207D98F13D78700B7B9FF
:104F000000206306D70C63ECE6008547630BF702CD
:104F100089476305F70A1309F00F814715A89D47D4
:104F20006309F71093072002630DF70E9947E31406
:104F3000F7FEA967938747B523A8F95C0149A947FC
:104F400001A8A967938787AF23A8F95C0149C947DE
:104F50000357C45CC207C18363F4E7002316F45C03
:104F60008357C45C1D47A14A6366F700835AC45C3B
:104F700093FAFA0F83A5095D56862685EF30C0099E
:104F800083A7095DBE9A23A8595D9307F00FE31F1D
:104F9000F9EEB70700501D472389E702A389E7020E
:104FA000B707005009472383E7007244E24452499F
:104FB000C249324AA24A056173002030A96793872B
:104FC00047AB23A8F95C01499307300451B793F725
:104FD000F70F85466387D70291CF8946638BD70247
:104FE000E39BE7F2A9679387C7B323A8F95C01495C
:104FF000D947B9BF9387C18223A8F95C014991477A
:1050000081BFA9679387C7B023A8F95C0149B94755
:1050100081B7A9679387C7B123A8F95C0149B14754
:1050200005BFA967938787B223A8F95C0149D147D7
:1050300005B783C7B18193F7F70FE39E07EC3709F4
:1050400000201309C905A96513061004938565ABF3
:1050500013052900EF20507C23A8295DADB783C735
:1050600024002316F45C1DB5B7B7002083C787540E
:105070002380F4000357C45C8547E3E4E7FE39B5B9
:1050800003C72400B7B700202384E75401B5137782
:10509000FA018947E31FF7EE83C744006383E704FF
:1050A000636EF7000547E396E7EE37070050834746
:1050B000770393F7870FA30BF702C9BB13071008F9
:1050C000638AE70213072008E395E7EC37070050EF
:1050D0008347A70393F7870F93E72700230DF70272
:1050E00075B3370700508347B70393F7870FA30DB6
:1050F000F70269BB370700508347670393F7870FB1
:1051000093E72700230BF70251B3B7B7002003C77B
:10511000C7657D8B19EB9387C76583D72700054744
:10512000E399E7E6238BF18495B38946E313D7E649
:105130009387C76583D62700E39D06E483C74700AE
:105140006385E7046360F7020547E394E7E4370704
:1051500000508347770393F7C70FA30BF70293E73A
:10516000370091BF13071008638CE702130720086C
:10517000E391E7E2370700508347A70393F7C70F90
:10518000230DF70293E7370091BF3707005083479D
:10519000B70393F7C70FA30DF70293E7370081BF5B
:1051A000370700508347670393F7C70F230BF702B6
:1051B00093E7370081BF238004006DBDB7B700209F
:1051C000238E07649387418583D607000547E37FD5
:1051D000D7CA2390E7005DB9B7B700201387C7652A
:1051E00003574700239E0764930610086313D702F2
:1051F00037070050034767030D8B8D466315D700B3
:105200000547238EE7649387418583D607000947C6
:105210007DBF85466317D7003707005003477703E4
:10522000E1BF930620086317D700370700500347F4
:10523000A703D9B78946E318D7FC370700500347BF
:10524000B7035DBF83C677001306100293F6F6031B
:10525000638BC60A130620026384C60CE392E6D46D
:1052600037B700200347E75C95461377F70F6306CF
:10527000D70699466316D708B7B4002083D7C45C15
:105280001D4721446366F70003D4C45C1374F40F14
:1052900037B90020B7B7002003A5875D8325095DD6
:1052A0002286EF20705783D7C45C13170401418313
:1052B000998FC207C1832396F45C8327095D3E94CE
:1052C0002328895CB70700502398E70203C7270308
:1052D000134747002389E702E1B103C73700B7B698
:1052E000002083D6C65C13770708558F1377F70F16
:1052F000A381E70009472389E702A38907024DB18B
:1053000023980702C5BF03C767031377C70F238B13
:10531000E70203C7670313474700238BE70249B13E
:1053200003C7A70313474700238DE70203C7A7035B
:105330001377C70F13672700238DE70295B1B7B71F
:10534000002083C7E75C6395F60437B40020832709
:10535000845D83C6170003C70700558F83C62700E7
:10536000558F83C63700558F05CB83C5170003C7FC
:10537000070037A50000A205D98D03C72700130534
:1053800005B642074D8F93958601D98DEF30405871
:10539000B70700509C4729B183C5670037A50000B7
:1053A000130505B7EF30C0568327845D37A500008D
:1053B000130505B883C54700EF3080558327845D0A
:1053C00037A50000130505B983C55700C1B703C74A
:1053D000770013770704E30507BC03C77703134778
:1053E0004700A38BE70288471375F50FEFF0FF8D99
:1053F00045BE9376170085CAA3810700A3890702DB
:10540000A38B0702A38D070209472389E702238B99
:10541000E702238DE70203C76700136717002383A2
:10542000E7007300203093764700F5DA03C7570092
:105430001147F5B7B71702409843B706FFF8411177
:105440001367170098C3D84337060200758FD8C377
:105450009843B706F7FEFD16758F98C39843B706B5
:10546000FCFFFD16758F98C3D843B70681FFFD1664
:10547000758FD8C337079F0098C702C402C69843E8
:10548000C166558F98C3B7160240130700509C425F
:10549000F18F3EC6A24785073EC4B24781E7A247C7
:1054A000E397E7FEB71702409C431397E70063506A
:1054B000070A85473EC6324785476318F708B7276E
:1054C00002409843B706C1FFFD161367070198C352
:1054D0009843719B98C398431367270098C3B717E5
:1054E0000240D843D8C3D843D8C3D8431367074032
:1054F000D8C3D843758FD8C337F7FF1F0327C770AA
:1055000093161701D84363C60604B7063D00558FAE
:10551000D8C3371702401C43B7060001D58F1CC300
:10552000B7170240984393166700E3DD06FED843A1
:10553000B7160240719BD8C3D84313672700D8C35E
:105540002147DC42B18BE39EE7FE4101828002C627
:105550009DB7C1666DBF3708100001117D18337704
:10556000B80026CA3378D80093D4450113D3460136
:10557000131E37004EC61357D5010E089357D60198
:1055800093F4F47F1373F37F06CE22CC4AC893D9E9
:10559000F50193DEF6013367C701131F350033E8C9
:1055A0000701931F3600338E64406380D919635618
:1055B000C0136304031CB70680009307F07F3368B1
:1055C000D800638FF4369307800363C0C735FD4767
:1055D00063CDC747130500023305C541B3D7CF01DB
:1055E000B316A8003399AF00DD8E33392001B357CD
:1055F000C80133E926011D8F33092F41B3372F012D
:105600003306F7409317860063D4072437078000DA
:105610007D173374E600630C042C2285EF20D01133
:10562000130785FF93070002998FB357F9003316CC
:10563000E400D18F3319E9006341972A330597407D
:10564000130615007D47634DC73813070002118FFD
:10565000B356C9003319E9003397E700558F333942
:1056600020013369270133D6C7008144937779003D
:1056700081CF1377F90091476308F70013074900BA
:10568000333927014A963A899317860063D6071C57
:10569000138514009307F07FCE856304F520B707C8
:1056A00080FFFD17F18F9398D70113593900A60792
:1056B000B3E82801B1831375F57F9396C7005205AF
:1056C000F2406244B182FE05C98ECD8ED244424979
:1056D000B2494685B68505618280631E0E0A138332
:1056E00014001373E37F63170322B367E701B36802
:1056F000F801639D041A63870740638608443309F1
:10570000FF41B307074133362F013386C740931754
:10571000860063D6074C3389EF41B307E84033B6C0
:105720002F013386C740F68991B76350C00F6300DD
:10573000030CB70680009307F07F3368D800638AB4
:10574000F43A9307800363CBC713FD4763DFC73584
:1057500013090EFE93070002B3562801630AFE00E8
:10576000130900043309C94133192801B3EF2F018C
:105770003339F0013369D90031A2B367F801638A84
:10578000071C9307FEFF638C07389306F07F6309BD
:10579000DE1A3E8E0DBDB305934063910422B367BC
:1057A000E701638707329387F5FF63810744930618
:1057B000F07F638CD520BE859307800363CCB72A26
:1057C000FD4763CFB73C930700028D8F3319F70075
:1057D000B356BF00B317FF003369D900B337F000E9
:1057E0003357B7003369F9003308E84041ACB36779
:1057F000F801638007349307FEFF638A072093064E
:10580000F07F6308DE2E3E8E2DBF631E0E1493863E
:10581000140093F7E67F63910734B367E70163955C
:10582000042C6380073EB367F801638E07303309A9
:10583000FF01B3070701333FE9013386E7019317FF
:10584000860063D70700B70780FFFD177D8E85446C
:1058500093777900E39F07E09317D60193583900B7
:10586000B3E8F800935736001307F07F638DE40424
:10587000B207B18313F5F47FCE8581B53369F801A2
:10588000333920017A99B337E9013386E70093175A
:105890008600E3DF07FA85049307F07F6396F41828
:1058A000CE851305F07F8147814801BDC1EB63843C
:1058B000083A931636009317D8018D82B3E8D700C3
:1058C000F68993573800B3E7F800F9DB81451305F3
:1058D000F07FB70708008148CDB3370680FF7D16FB
:1058E0007D8E93777900998CE39507D8B5B74A8573
:1058F000EF20806413078501FD47E3D5E7D2130647
:1059000085FFB317C900014905BB3369F801333975
:105910002001DDB13309FF413306074133342F0144
:10592000330486409317840063CD0724B36889004D
:10593000E39308CE8147814981441DBFE39808F86D
:105940000E059317D7010D81B3E8A70093573700D1
:105950009DBF0E059317D7010D81B3E8A700F28410
:105960009357370011B73305934063820412B7068B
:1059700080009307F07F558F630DF32E930780030C
:1059800063CBA720FD4763C3A72A93070002898F33
:105990003319F700B356AF00B317FF003369D900CE
:1059A000B337F0003357A7003369F9003A987E996E
:1059B000B337F901338607019A84D1BDB706800059
:1059C0009307F07F558FE319F3DE931736008D832D
:1059D0009318D801B3E81701F68993573800E5B555
:1059E000130715FE9306000233D7E700630AD600BB
:1059F000930600043386C6403396C7003369C90056
:105A0000333920013369E9000146814491B53309F6
:105A1000FF01B30707013336E9013E96931786006D
:105A20008544E3D707E28944B70780FFFD17F18F6C
:105A30001357190013791900336927019398F70157
:105A400033E9280113D6170015B113090EFE930789
:105A50000002B3562801630AFE001309000433094B
:105A6000C94133192801B3EF2F013339F0013369EC
:105A7000D90059B63369E7013339200133892F4101
:105A8000B3B72F013306F8409A84F689A5BEB367F1
:105A9000E701638207189307F5FF6384071C9306E9
:105AA000F07F6304D5123E85D1BD93070002B38712
:105AB000C741B316F8003399FF0033D6CF01D18E1A
:105AC00033392001B357C80133E926013E975DBB46
:105AD000931736008D839318D801B3E81701AE846D
