:100000006F40506813000000130000001300000050
:100010001300000013000000130000001300000094
:100020001300000013000000130000001300000084
:08003000130000007300100032
:100038000000000000000000A8020000AC02000060
:1000480000000000CA4D0000000000000000000091
:10005800CC4D0000CE4D0000000000000000000064
:10006800D04D000000000000D24D0000000000004C
:10007800D44D0000D64D0000D84D0000DA4D0000E8
:10008800DC4D0000DE4D00000C04000020040000E0
:10009800360400005E040000A8040000EA4D0000D9
:1000A800EC4D0000EE4D0000F04D0000F24D000058
:1000B800F44D0000F64D0000F84D0000FA4D000028
:1000C800FC4D0000FE4D0000004E0000EA04000058
:1000D800044E00000C060000084E00000A4E000006
:1000E8002C070000460700006C070000124E0000B5
:1000F800144E0000164E0000184E00001A4E000064
:100108001C4E0000B0020000DA02000004030000E8
:100118008A050000264E0000284E00002A4E0000E6
:10012800F80700002E4E0000304E0000324E00004E
:10013800344E0000364E0000920700003A4E000090
:100148002E03000058030000B8070000D207000083
:10015800444E0000464E0000484E00004A4E000043
:100168004C4E00004E4E0000504E0000524E000013
:10017800544E0000564E0000584E0000985B000098
:100188005C4E00005E4E0000EC0300007A030000A5
:10019800A4030000CE030000684E0000840800009D
:1001A8006C4E00006E4E0000704E00008808000083
:1001B800744E0000764E0000784E00007A4E000023
:1001C8007C4E00007E4E0000804E0000824E0000F3
:1001D8000000000000000000000000000000000017
:1001E8000000000000000000000000000000000007
:0801F8000000000000000000FF
:100200003D432A876373C3029377F700BDEFADE5E3
:10021000937606FF3D8ABA960CC34CC30CC74CC7F5
:100220004107E36BD7FE11E28280B306C3408A0622
:100230009702000096966780A6002307B700A306E2
:10024000B7002306B700A305B7002305B700A30432
:10025000B7002304B700A303B7002303B700A3022A
:10026000B7002302B700A301B7002301B700A30022
:10027000B7002300B700828093F5F50F93968500B1
:10028000D58D93960501D58D61B79396270097027A
:10029000000096968682E78086FA9680C1171D8FA9
:1002A0003E96E374C3F8A5B7730020307300203086
:1002B000411122C637440140930550521305048072
:1002C000EF50300019C59305505213050480EF50CC
:1002D00090033244410173002030411122C637445B
:1002E00000409305505213050440EF50807D19C51E
:1002F0009305505213050440EF50F0003244410181
:1003000073002030411122C63754004093055052EB
:1003100013050480EF50E07A19C593055052130578
:100320000480EF50407E324441017300203041117F
:1003300022C63754004093055052130504C0EF50B5
:10034000407819C593055052130504C0EF50A07BA7
:10035000324441017300203093055052375500401C
:10036000EF50207609C9EF10E0159305505237552C
:100370000040EF50407973002030411122C63724ED
:1003800000409305505213050480EF50807319C547
:100390009305505213050480EF50E076324441013A
:1003A00073002030411122C637240040930550527B
:1003B000130504C0EF50E07019C5930550521305A2
:1003C00004C0EF5040743244410173002030930563
:1003D000505237250040EF50C06E19C5930550525A
:1003E00037250040EF50207273002030B7070550CA
:1003F00003C70701118B09CB03C707011377B70F99
:100400002388E700EF100012730020300545EF400D
:10041000504485476314F500EF4090457300203049
:100420000945EF40104385476315F5000945EF4046
:100430003044730020301145EF40B0418547631EC2
:10044000F50083A741881305800C850723A2F18856
:10045000EF1090061145EF40B0417300203041117C
:10046000214522C6EF40F03E8547631BF5022A84F2
:100470001305800CEF1050042145EF40703FB76723
:10048000002037A60000238B07B81306C633B767D2
:100490000020D1451305800CA38B87B8EF001035E1
:1004A00032444101730020304111414522C6EF40E2
:1004B000503A85476317F5022A844145EF40503B87
:1004C000B767002037A60000238B87B81306463491
:1004D000B7670020D1451305800CA38B87B8EF00C8
:1004E000F030324441017300203041111305000205
:1004F00022C6EF40103685476319F5022A8413059A
:10050000800CEF10607B23AC81861305800CB767ED
:1005100000209946054693058007238D07B8EF0014
:10052000103113050002EF40B03413050004EF4012
:10053000503285476316F50013050004EF40503331
:1005400013050008EF40F03085476316F5001305EA
:100550000008EF40F03113050010EF40902F854761
:100560006316F50013050010EF40903013050020CE
:10057000EF40302E85476316F50013050020EF404D
:10058000302F3244410173002030411113050040E7
:1005900022C6EF40102C85476316F5001305004076
:1005A000EF40102D056413050480EF40902A854725
:1005B0006316F50013050480EF40902B0565EF40AE
:1005C000502985476315F5000565EF40702A0965D8
:1005D000EF40302885476315F5000965EF40502945
:1005E0001165EF40102785476315F5001165EF4051
:1005F00030282165EF40F02585476315F50021651A
:10060000EF4010273244410173002030373501405C
:1006100041118545130505C022C626C44AC2EF50C4
:10062000803339C983A7C1868546850723A6F1860D
:1006300003A7418BBE84631BD70083A7818963977F
:10064000E70083A7819599E323A60186EF10405424
:10065000B767002023A8A7EA9307001963E4A7025D
:1006600083A78195850723ACF194373501408545F3
:10067000130505C0EF50E02F3244A2441249410156
:100680007300203083A781896353F0028946638019
:10069000D7029306401FE3FAA6FC03A681959306B2
:1006A000300663DAC600850723ACF1887DBF1307E7
:1006B000401FE37CA7FA03A7418B45DB0947E3967C
:1006C000E7FA03A681950D499D4633462603930517
:1006D00000051305800CEF00901503A6C1869D460A
:1006E00093054006334626031305800CEF003014B3
:1006F00003A681959307D06A9D46B387C70203A6D8
:10070000C186930580071305800C33C6C702EF002E
:1007100010123735014005478145130505C023AA4E
:10072000E186EF50201323A0018881B78545370566
:100730000040EF50402211C5854537050040EF507D
:10074000402373002030411122C637040040854504
:1007500013050440EF50202011C5854513050440C2
:10076000EF5020213244410173002030411122C654
:1007700037140040854513050480EF50C01D11C596
:10078000854513050480EF50C01E324441017300BB
:100790002030411122C6371400408545130504C09E
:1007A000EF50601B11C58545130504C0EF50601C58
:1007B0003244410173002030854537150040EF5029
:1007C000801911C5854537150040EF50801A730018
:1007D0002030411122C637140040854513050440DE
:1007E000EF50601711C5854513050440EF506018A0
:1007F00032444101730020303735014041118545B5
:100800001305054022C626C4EF50E01425C583A772
:1008100081890947FD176368F70483A781851384DD
:100820008185858BA9EFB767002003C767B9BE84B0
:1008300019E3EF30B04E03C764B985476314F7007E
:10084000EF30504F1C40194785071CC0639DE700DF
:1008500037350140814513050540EF40B07FEF304B
:10086000304A2320040037350140854513050540F3
:10087000EF5020103244A244410173002030EF3089
:100880003048C9B773002030854537550140EF50D7
:10089000800C11C5854537550140EF50800D730020
:1008A0002030B7670020238207DA3971A388018CD2
:1008B000B767002006DE238D07B822DC26DA4AD887
:1008C0004ED652D456D25AD05ECE62CC66CAEF30E3
:1008D0005025EF408002EF003007EF10C01C37A614
:1008E00000001306C63481450145EF00207037A68D
:1008F000000013064635D1450145EF00206FF16534
:1009000093061006B767002013060006938505209E
:10091000154523A607EAEF20E05F0146854515450A
:10092000EF20C02BEF00304213054006EF10C03817
:10093000B7670020238207BAB7670020238C07B867
:10094000B7670020A38407B84146930520041145EA
:100950003764002023AC0194A30B04B8EF10406669
:100960004146930530042145EF10806541469305CB
:1009700040044145EF10C0644146930550041305FF
:100980000002EF10E063834774B963800718130512
:10099000C012EF106032EF30B0361305C012EF1006
:1009A000A0310145EF30F02B1305803EEF10C03031
:1009B0000D45EF30102B1305803EEF10E02FEF3088
:1009C0003034A30B04B80964930584B50145E92AC2
:1009D000930544960545C92A1305C01237640020C3
:1009E000EF10802D376C0020B7090020130484BE5F
:1009F000B76A002083AC818985476393FC02138A20
:100A0000C18783270A0003A7418BD98F91EB373524
:100A100001408545130505C0EF40D06323209A01AE
:100A200083C7018A99C713058CEB2380018AEF30B5
:100A3000607E13858936EF30903781481308800730
:100A4000130780079307C00B9306C00B13868936E4
:100A500081450145EF00C06303A6418B994681455E
:100A60001305800CE9238347A4051306E005994686
:100A70001D8E930580021305800C552BEF408004DA
:100A800083A6418B9947639FF60881450145292A32
:100A900081450545112AB7A500009385C535154543
:100AA000EF206011130580700564EF10E0209305BE
:100AB00084380145D528930544190545F5201305CB
:100AC000701CEF10601F930544190545F1288145FE
:100AD0000145D9281305A00FEF10001E1305A00F24
:100AE000EF10801D9305843801457D289305441936
:100AF00005455D281305401FEF10001C8145014589
:100B00006520814505454D2001A013054006EF10E5
:100B1000A01A03A6418889469305C0031305800CDB
:100B2000392395B503A54ABE36C6EF808022B2466A
:100B300037B60020B7B500201306866F9385C56DC4
:100B4000EF40A00245BD411106C622C415E537C4D9
:100B50000200A1460146930504F213053020EF1070
:100B60009031A1460146930504F21305202022444A
:100B7000B24041016F10303085476313F50237C42E
:100B8000020081460146930504F213051010EF1090
:100B9000902E81460146930504F213050010C1BF53
:100BA000B24022444101828001114AC803A6418B10
:100BB00026CA4EC606CE22CC994783A68189AA8929
:100BC000938481896304F60285476381F60283A7D3
:100BD00041881307A00F3387E7026359B700130753
:100BE000A00FB387E702BE95C205C18189679387CD
:100BF00087642E8463F3B7003E8442048D474180AE
:100C0000138701896314F60085471CC31C4399CBE5
:100C10004DEA85071CC31843CD4763D5E700054758
:100C200023ACE186938741898D4598436310B60ACA
:100C3000050798C38D476396F60A9387C189984341
:100C4000050798C3984085476317F70283A78188F3
:100C5000850723A4F1889306F00463DEF60083A6DB
:100C6000018891EA23A0E188B707002093878718BD
:100C70009843050798C303A7418B89476313F70877
:100C800083C7118D8546F91793F7F70F63FBF606B7
:100C900083A70187BDC70564930544191305302058
:100CA000EF1040539305042C13051010EF108052E1
:100CB0006244F240D2444249B249794505616F002D
:100CC000B07F8545E3D9F5F4FD17A9B79305400634
:100CD00063C5E50023A00700B1BF054723A6E1884F
:100CE00091BF9547E310F6F693F7D6FFA1FF37358E
:100CF0000140850685451305054094C0EF409035B9
:100D000091B763920902A28513053020EF10804C41
:100D10008145130520206244F240D2444249B24941
:100D200005616F10204B8547639CF906914763105E
:100D3000F706814513053020EF10C04981451305A2
:100D40001010EF102049814513053020EF10804826
:100D50000564930584BB13052020EF10A04793057D
:100D600084BB13051010EF10E046814513050010F9
:100D7000EF10404613058020EF00107481451305E5
:100D80002020EF10204581451305101069B7A2857A
:100D900013051010EF100044814513050010A5BF86
:100DA000F2406244D2444249B24905618280411115
:100DB000AD6722C403A4079F26C24AC006C6C14429
:100DC00004C844C813090008232A2401AA8505453C
:100DD000EF10504A2328240104C844C8B2402244DA
:100DE000924402494101828083A78180011122CC73
:100DF00026CA4AC84EC606CEAA89AE84328936842F
:100E0000A1EF1305A002653793854903C205C1818F
:100E10000545EF10F04793054903C205C18105451B
:100E2000EF1010471305B002593793858402C205AD
:100E3000C1810545EF10D04593058402C2050545E3
:100E4000C181EF10F0446244F240D2444249B249B9
:100E50001305C0020561A1BF0547639FE7001305A5
:100E6000A002B13793855903C205C1810545EF1032
:100E700030429305590355B7930985021309860239
:100E8000C2094209094793D90901135909011305F8
:100E9000A0026398E702213FCE850545EF10503F41
:100EA000CA850545EF10D03E1305B002093793857A
:100EB0005403C205C1810545EF10903D93055403CD
:100EC000B5BFF535CE850545EF10903CCA85054583
:100ED000EF10103C1305B002D93D93854403C205C1
:100EE000C1810545EF10D03A9305440381BF03C685
:100EF000E18083C6F180411122C43304D602FD167D
:100F00007D16C2064206C18241828145014526C244
:100F100006C6D93D11E4B240224492444101828088
:100F200083D5418005457D14EF109036E5B723A4A5
:100F3000A18085461387E1809387F18063EAA6004C
:100F4000930670F82300D70041572380E700828082
:100F5000C1562300D700130770F8C5BF79714ECE74
:100F6000A9679309750012069387473FC20922D4E7
:100F70004AD056CA5AC85EC662C466C206D626D2CF
:100F800052CCAA8AAE8B3304F600014993D90901E9
:100F9000414BB3862B01C206C1824E86B68556856B
:100FA000A135034A04E0A14493771A008DCF83D57D
:100FB000C180FD14054593F4F40FEF10702D135A02
:100FC0001A00FDF005090504E31569FDB25022542D
:100FD00092540259F249624AD24A424BB24B224CD5
:100FE000924C4561828083D54180E1B7011122CCCA
:100FF00026CA4AC84EC606CE2A89AE89B2840144A2
:10100000B38784000386070001EAF2406244D244B9
:101010004249B24905618280131534004A95420560
:101020000504CE8541814204153F4180D1BF7971CD
:1010300022D426D24AD0AA842E8932849305000273
:1010400013861600480836C606D602CA02CC02CE5F
:10105000EFF00F9BB246A54763F9D702A285480877
:10106000EF0040675008CA8526854937B2502254A0
:101070009254025945618280B387E702FD1693F6C8
:10108000F60FFDFA3364F402D1BF85472947D5BF77
:10109000397162CC6AC8368C328D9306F8FF13869C
:1010A000F7FFAE962A96C206420656D2C182418208
:1010B000C16A26DA4AD84ED652D466CA6EC606DE51
:1010C00022DC5AD05ECEBA8D3E8A4289C68C8149D6
:1010D000213B8144FD1A63E12403F2506254D2544F
:1010E0004259B259225A925A025BF24B624CD24C8C
:1010F000424DB24D2161828033D42903814B014B93
:10110000330484036A9463654B018504EE99E1B767
:10111000B3D74B03A29783C7070063920C02C207A1
:10112000C18393D5370089831397B5009607D98F6C
:10113000DD8D0545EF10D015050BE29BE9B7D6858F
:10114000E3E9FCFE8145F5B703A8C183411113070C
:10115000F00F81479306F00F13062002930500025B
:10116000054506C622C426C24AC0EF109000C146FB
:101170000146854513057006EF00706DC1460146B6
:10118000854513057002EF00906CC1460146854508
:1011900013054006EF00B06B8545C14605461305B3
:1011A0000006EF00D06A138481800840130900080C
:1011B000BD3BAD6783A4879E1305800C23AA240141
:1011C000EF00902F1305400623A82401EF00D02E36
:1011D00013056003E93E13054006EF00F02D1C40A7
:1011E000814589CF05479305000C6389E7000947CE
:1011F000930500076384E7009305000A0545EF1097
:1012000070071305A003EFF09FBA95450545EF1051
:1012100070061305200BEFF09FB9B1450545EF109F
:101220007005B1450545EF10F00481450545EF1007
:101230007004930530030545EF10D0039305300388
:101240000545EF1030031305700BEFF05FB6930503
:1012500050030545EF1010021305B00BEFF03FB53A
:10126000930570030545EF10F0001305000CEFF037
:101270001FB49305C0020545EF10C07F1305200C75
:10128000EFF0FFB285450545EF10C07E1305300C29
:10129000EFF0FFB1C9450545EF10C07D1305400CC7
:1012A000EFF0FFB0930500020545EF10A07C130599
:1012B000600CEFF0DFAFBD450545EF10A07B1305D7
:1012C000000DEFF0DFAE9305400A0545EF10807A80
:1012D0009305100A0545EF10E0791305000EEFF0B5
:1012E0001FAD9305000D0545EF10C07891450545EC
:1012F000EF104078B5450545EF10C077C545054569
:10130000EF104077CD450545EF10C0769305B0024C
:101310000545EF1020769305F0030545EF10807525
:10132000930540050545EF10E0749305C00405459D
:10133000EF104074E1450545EF10C073B545054514
:10134000EF104073AD450545EF10C072FD450545F2
:10135000EF104072930530020545EF10A0711305A0
:10136000100EEFF0DFA49305000D0545EF1080701F
:1013700091450545EF100070B1450545EF10806FB0
:10138000C5450545EF10006FCD450545EF10806E52
:101390009305C0020545EF10E06D9305F003054588
:1013A000EF10406D930540040545EF10A06C9305C8
:1013B00010050545EF10006C9305F0020545EF1090
:1013C000606BFD450545EF10E06AFD450545EF10F2
:1013D000606A930500020545EF10C069930530026D
:1013E0000545EF10206913051002EFF05F9C45459D
:1013F000EFF0FF9B13058007EF00100C1305900220
:10140000EFF0FF9A2244B2409244024941016FF04A
:101410001FAE797126D24ECE52CCB70400207D7A11
:1014200022D456CA5AC806D64AD09384040001442E
:10143000130A5A1A7D5B9389418A83D704001146A7
:101440006C0013978700A183D98F114523164101A2
:101450002317F10013090008EF10E0729387818AC7
:1014600083C707001387818A93F7F70FA1C363131C
:10147000090039C483C719002300070003C72900E6
:10148000A2070504D98F42042391F4004180A547A7
:101490009104E314F4FA0145B250225492540259D3
:1014A000F249624AD24A424B456182807D19420923
:1014B00013590941E30F69FB0545EF00E07F79BF50
:1014C0000545D9BF411122C483C7718A26C29385BD
:1014D000418ABE95114506C6EF10807D9384418AEE
:1014E0009387718A11C503C7070005072380E700AA
:1014F00083C607000547639FE60083C60400130701
:10150000500A6384E60023800700B24022449244DC
:10151000410182800D46E39AC6FE238007002384A2
:10152000E18AE5B7B7B7002003A7876DB707055075
:10153000854698C72380D18A03C707001367170021
:101540002380E700828089653971930610051306B0
:10155000000593850558114506DE22DC26DA4AD8B7
:101560004ED652D4EF10101B014685451145EF10A1
:10157000E066EF0010449387818A23800700513D85
:1015800005C1B7A6000029669386C63713068636BE
:101590009305B01237A5000013050538EF70300F22
:1015A0001384818AB704002023000400938444023A
:1015B0002300040013898402930950FA83D704009E
:1015C00011466C08A30EF10083D724001145230EA9
:1015D000310113978700A183D98F231FF100EF10EA
:1015E000805A09459104EF00206DE39924FD93048E
:1015F00010088347040093F7F70F89E7FD14C2042E
:10160000C18085EC23000400930400081389418AFB
:10161000130AF00FFD598347190003472900F98F7A
:101620006391470385E8B7A6000029669386C6370D
:101630001306863693052013B1BF0545EF00C0673A
:101640004DBFFD14C204C184E38F34FD0545EF0096
:10165000A066D1B7230004006D3B19C9B7A60000EE
:1016600029669386C63713068636930590131DB7F1
:10167000EF00503491473EC495473EC299473EC063
:101680009308900213088002930760021307B004C6
:101690009306900413068004A9452545EF00207B9E
:1016A000376500201966130785EBB7B700201305CF
:1016B00085EB854613060682814523ACE76CEF0077
:1016C0005005F2506254D2544259B259225A01453F
:1016D0002161828063DB05009307D0022300F500BF
:1016E000050541118147A9463DA0E5FD930700038B
:1016F0002300F5008280180813881700BA9733E793
:10170000D502B3C5D5021356F741318F118F238807
:10171000E7FE9377F80FE5F18A86B6976394F600B3
:101720004101828003C7F7FF0505FD171307070373
:10173000A30FE5FEE5B7797122D44AD04ECE52CC44
:1017400056CA06D626D28347150037040040814585
:101750002306F100834705001309C100130AF100B5
:10176000A306F10083472500130504401304044039
:101770002307F100EF40201C8965938AC5519389A6
:101780004513A14483470900FD14CE85B3D7974084
:10179000858B91E3D68513051020EF00B023054615
:1017A00091452285EF40A01685452285EF4000191E
:1017B00065DD014691452285EF406015854522850E
:1017C000EF40801881452285EF40E016C5FC0509F1
:1017D000E3192AFBB250225492540259F249624A48
:1017E000D24A45618280B7C5020001118146014697
:1017F000938505F21305102006CE2316010023075A
:101800000100EF005067370500408945130505408A
:10181000EF40400E6800053713054006952168002B
:10182000193FF24005618280411185451305B006DC
:1018300006C6EF00900F85451305C006EF00F00EB9
:1018400001459D2981451305C006EF00100E014595
:10185000A521B24081451305B00641016F00F00C8F
:10186000411181451305B00606C6EF00100C8145F5
:101870001305C006EF00700B01453D298545130592
:10188000B006EF00900A014505291305C0068545FD
:10189000EF00B009B2400145410139A9411122C40C
:1018A00026C206C6AA8425447D141374F40F0DECD9
:1018B00081451305B006EF0050070145F52E85451B
:1018C0001305B006EF0070060145FD261305C0069E
:1018D000EF00100839C52244B240924485451305F3
:1018E000B00641016F00700493978401E18785453C
:1018F00063C3070081451305C006EF0010030145CF
:10190000652E85451305B006EF00300201456D26B2
:10191000860481451305B00693F4F40FEF00F00040
:1019200061B71305B0068145EF0030002244B24094
:1019300092440145410149A6411106C622C426C26E
:101940002E84B2844AC02A89C53513052005B937CB
:101950000145A9371375F90F9137A2946398840054
:101960002244B240924402494101DDBD05040345D1
:10197000F4FF2D37E5B7411181454AC02A89130587
:10198000B00606C622C426C2EF00207A01452D26E5
:1019900085451305C006EF004079A1440144014587
:1019A000212E81451305B006EF0020780145292638
:1019B00085451305B006EF0040770145F52C060478
:1019C0001305C0061374F40FEF00807801C50504F9
:1019D0001374F40FFD1493F4F40FF1F08145130523
:1019E000B006EF0080740145C12C81451305B00697
:1019F000EF00A0730145C9248145631309008545A3
:101A00001305C006EF00607285451305B006EF00B0
:101A1000C0710145552481451305B006EF00E07003
:101A20000145592C2285B240224492440249410189
:101A30008280011106CE22CC26CA2A844AC852C40A
:101A400032892E8A4EC6EFF03FDE13052005EFF0F7
:101A5000FFE40145EFF09FE41375F40FEFF01FE48E
:101A6000EFF09FDC130530059304F9FFEFF01FE35F
:101A70000144B3349000636B24016244F240D244C9
:101A80004249B249224A05616FF09FDDB3098A00DD
:101A90000545639384000145F93D05042380A900B1
:101AA0001374F40FC9BF797193064031054685451B
:101AB0001305B00606D626D24ECE52CC56CA22D434
:101AC0004AD0712393064031054685451305C0066B
:101AD0009969617AAD2BAD44B70A0020938909500A
:101AE000130A0A70130670089385CA040545EFF0BF
:101AF000BFE409466C001305E00523163101EFF041
:101B0000BFE309466C001305100623164101EFF0F0
:101B1000BFE205466C0013050003213F05466C003B
:101B2000130510030344C1002937054571220349F9
:101B3000C1001180FD141344F4FF93F4F40F0588E1
:101B40001379190081E837A500001305453CEF70B3
:101B5000305C01A0130540068522E31524F99307A4
:101B600010026C000546130560082306F100EFF033
:101B7000BFDC37A500001305C53DEF707059B250AA
:101B8000225492540259F249624AD24A45618280F3
:101B90000111854705466C00130560082306F10016
:101BA00006CEEFF07FD91305900805469305B100E6
:101BB000EFF03FE80347B100930790081305805703
:101BC0006318F7021305600909466C00231601002B
:101BD000EFF03FE60345C1008347D10022053E9563
:101BE000130585FD9307805763F4A70013058057FD
:101BF000F24005618280B7170240DC4337177A0054
:101C000013070720C983BD8BB387E7023727F4008A
:101C100013070740F165930610021306000293852F
:101C200005200945BA9723A6F18A6F10A02E01114D
:101C300026CAB754004022CC4AC84EC606CEAE894A
:101C40003289014493840480634A2401F24062444F
:101C50004A85D2444249B249056182809305000415
:101C60002685EF3050657DD9B387890083850700CD
:101C700026850504C205C181EF305063F1B782802B
:101C800083A7C18337177A0013070720B3D7E7026A
:101C9000814601473385A702B7F700E023A007007C
:101CA00094C7D8C7054798C3B7F600E09846DC4606
:101CB00099E3E37DE5FE828083A7C183096713076B
:101CC00007F4B3D7E702814601473385A702B7F788
:101CD00000E023A0070094C7D8C7054798C3B7F60C
:101CE00000E09846DC4699E3E37DE5FE828009E565
:101CF000814601468145A1AE0547E30BE5FE094754
:101D0000E308E5FE0D47E305E5FE1147E302E5FEC6
:101D10001547E30FE5FC1947E30CE5FC1D47E30914
:101D2000E5FC21476318E50081460146814513051E
:101D30000002D1B725476318E50081460146814579
:101D4000130510024DBF29476318E500814601467F
:101D500081451305000445B72D476318E50081460A
:101D6000014681451305100479B731476318E50032
:101D700081460146814513052004B5BF35476318E8
:101D8000E50081460146814513053004ADB739476A
:101D90006318E50081460146814513054004A1BF53
:101DA0003D476318E500814601468145130550040F
:101DB00099B78280797122D485452A841305002041
:101DC00006D626D2EF30A0622285153703A7C18A36
:101DD000B7C70105938707D0316563E3E700216545
:101DE00037240140EF30C04C13050440EF30A012FF
:101DF000B7070E003EC68A85854713050440230AAF
:101E0000F10002C002C202C402C8EF3020158545AD
:101E100013050440EF30001A13050440EF30801A18
:101E2000930404402685EF30801A6DFD13050440AD
:101E300037240140EF30201A130404402285EF308C
:101E4000201A6DFDB25022549254456182807971FE
:101E50004ECE52CC56CA328AAE8AB6890146930615
:101E60008004814506D622D426D24AD046C042C23A
:101E70003EC43AC68344010303494103034481033A
:101E8000F92256859306800401468145C922528570
:101E900093068004014681455D2A4E8593068004A1
:101EA000014681456D2232479306800401463A85FA
:101EB0008145712AA2479306800401463E858145EB
:101EC00079221248930680040146428581454122C9
:101ED0008248930680040146468581458D2A4A85BD
:101EE00093068004014681459D2226859306800441
:101EF00001468145A92A22852254B25092540259A2
:101F0000F249624AD24A93068004014681454561FE
:101F10003DAA011122CC26CA2E84AA8485450965D2
:101F200006CE32C636C4EF30A04AB707055003C705
:101F30000700130560058D451377F70C2380E70034
:101F400003C70700136727042380E70003C71700B0
:101F50001377970FA380E700A24632462392D7005B
:101F60002393C70084C7C0C703C717001377F703BD
:101F7000A380E70003C717001377F70FA380E700DC
:101F800003C7170013670701A380E70003C72700F3
:101F9000136747002381E70003C717001367170083
:101FA000A380E70003C70700136717002380E7003B
:101FB000DD2A6244F240D24413056005056155AA4A
:101FC000011122CC05452E84854506CE26CA4AC875
:101FD00002C0328902C202C402C6EF3040419306F9
:101FE00080040546814522859D209374F401135594
:101FF0005400A6851375F50FEF30401D85473397C4
:1020000097000A853AC002C24AC43EC6EF20D07D7E
:1020100059459DC49377E4015D459DC3894761455A
:1020200063F097027188654501CC9147694563F972
:102030009700A5471305700263F49700130580030A
:102040000D2AF2406244D2444249056182809307DE
:10205000F00F630BF50C797122D41354550026D27E
:102060004AD04ECE52CC06D61D889374F5003689E0
:10207000328AAE8935E085451145EF3040378547D6
:10208000B3949700C204C180231291006399F900B0
:1020900093170901C183A18391E38D473EC4AD67C6
:1020A0009387479E0A043E9400401379F90F4C0031
:1020B00022854AC6EF20707C85476397F9005286D7
:1020C000A6852285EF308007B250225492540259DF
:1020D000F249624A4561828085476315F40085456F
:1020E000214561BF89476315F4008545414571B7B6
:1020F0008D476316F400854513050002BDBF914767
:102100006316F40085451305000485BF95476316E3
:10211000F4008545130500088DB79947E311F4F6DF
:1021200085451305001091BF828093575500139782
:102130002700AD679387479EBA9798439377F5003A
:1021400005453315F50099C108CB828048CB8280C4
:10215000135735009376C7012D671307479E3697AF
:102160001C43984785473395A700798D3335A000E8
:102170008280935755000547938707043315A700BE
:102180008A0737E700E0BA9788C3828093575500E3
:102190000547938707063315A7008A0737E700E04E
:1021A000BA9788C38280B7E700E03E952300B54028
:1021B00082808280828001112304A100280006CE43
:1021C000A304B1002305C10036C6EF30E002F2409F
:1021D00005618280935785002D67130747A08A0702
:1021E000BA9798430D890A058357C7023A95B38574
:1021F000F502896793870771B3D5F502C205C181DE
:102200004CD9828001E993068031014685452145FC
:102210006FF0FFE385476318F500930680310146B0
:1022200085452545F5B789476318F5009306803144
:10223000014685452945E9BF8D476318F50093069A
:102240008031014685452D45E1B7C1476319F50049
:1022500093068031014685451305900855BFC54753
:102260006319F50093068031014685451305B008D2
:1022700045B7C9476319F500930680310146854586
:102280001305D00871B7CD476319F5009306803167
:10229000014685451305E008A5BF930700106318A4
:1022A000F5009306803101468545014595B79307B2
:1022B00010106318F50093068031014685450545E9
:1022C00081BF930720106318F50093068031014603
:1022D0008545094535BF930730106318F50093060F
:1022E0008031014685450D4525B7930700116318D8
:1022F000F50093068031014685453D4511BF9307A2
:1023000010116319F50093068031014685451305C8
:102310003002FDBD930720116319F500930680314B
:10232000014685451305A002E5B5930730116319F1
:10233000F50093068031014685451305B002C9BDFD
:10234000930700206318F500930680310146854508
:1023500019457DBD930710206318F5009306803161
:10236000014685451D456DB5930720206319F5008D
:1023700093068031014685451305000251BD930740
:1023800030206319F5009306803101468545130519
:102390001002BDBD930700216319F500930680313B
:1023A0000146854513056004A5B5930710216319FF
:1023B000F50093068031014685451305700489BDFB
:1023C000930720216319F500930680310146854566
:1023D0001305800435BD930730216319F50093067A
:1023E000803101468545130590041DB593070022F1
:1023F0006319F500930680310146854513054002B7
:1024000001BD930710226319F50093068031014640
:10241000854513055002EDBB930700306319F500A5
:10242000930680310146854513056002D5B39307B5
:1024300010306319F5009306803101468545130578
:102440007002F9B3930720306319F50093068031C9
:10245000014685451305800265BB9307303063193B
:10246000F5009306803101468545130590024DB372
:10247000930700316319F5009306803101468545C5
:102480001305C00671B3930710316319F500930665
:102490008031014685451305D0069DBB9307203149
:1024A0006319F50093068031014685451305E00662
:1024B00085B3930730316319F500930680310146E7
:1024C00085451305F006A9B393070040E30BF5DC3F
:1024D00093071040E301F5DE93072040E307F5DEA4
:1024E00093073040E30DF5DE93070070E308F5EA4B
:1024F00093071070E30FF5EA93072070E306F5ECFD
:1025000093073070E30DF5EC93070071E30AF5F0E3
:1025100093071071E301F5F293072071E308F5F2D8
:10252000930730716319F5009306803101468545A4
:102530001305D004F1B993070580E38807D88567B0
:1025400013871780E30DE5D8138727806318E5000C
:10255000930680310146854511455DB993873780E3
:102560006319F50093068031014685451305400443
:1025700045B18567138707816319E50093068031AC
:10258000014685451305900661B1138717816319CC
:10259000E50093068031014685451305B0068DB9E7
:1025A00013872781E305E5EE13873781E307E5F01D
:1025B00013870790E30CE5E813871790E303E5EA38
:1025C000138727906319E5009306803101468545FE
:1025D0001305300435B9138737906319E500930666
:1025E0008031014685451305B0041DB1138707915D
:1025F0006319E500930680310146854513051006F1
:1026000001B9938717916319F5009306803101464C
:10261000854513053006EDBE85671387279163193D
:10262000E500930680310146854513055006CDB679
:10263000138737916319E50093068031014685457C
:1026400013057006F1B613870792E30EE5CA1387E8
:102650001792E301E5DA13872792E308E5DA938717
:1026600037926319F50093068031014685451305BD
:10267000F00479BE8280397106DE22DC26DA2A84F3
:102680004AD84ED62EC632C43689EFF0BFB7B2450F
:1026900083A7C18322469359840033D7B7024E855E
:1026A000418393061700B386B602B3D7D70293943B
:1026B0000701C180B384C402096613060671FD17C1
:1026C00093950701C181B3D4C4023A86DD2E8545B6
:1026D0000545EF20D051935744000547C204C180FF
:1026E0006394E7063705160085451305050CEF20B2
:1026F0009025C1672D679387070613952900130757
:1027000047A03EC83A9593773400231B9100231CC1
:102710000100231E01000041E9E70C082285EF209B
:10272000306685452285EF30A014CA852285EF30BA
:10273000E01622858545EF30E011F2506254D25404
:102740004259B2592161828045476398E7003705B5
:10275000180085451305053059BF1307100263980B
:10276000E70037151A008545130505C049B713075B
:1027700020026398E70037151A0085451305058088
:10278000BDB7130710036395E7008545056585B759
:10279000130710076399E700370701405C4F93E781
:1027A00047005CCFB9B7130710086398E7003707F5
:1027B00001405C4F93E70701EDB7130710096398D9
:1027C000E700370701405C4F93E70704D9BF1307C1
:1027D0002009E390E7F2370701405C4F93E70702D7
:1027E000C9B70547639FE7000C082285EF205063B7
:1027F00022858545EF30C007CA852285EF30200B42
:102800000DBF09470C082285639DE700EF20106E7D
:1028100022858545EF30C005CA852285EF30C00A84
:1028200009BFEF20507922858545EF306004CA85C5
:102830002285EF30800AF5BD411122C426C24AC06C
:1028400006C6AE843284368921E993068031054676
:1028500085451545EFF0AFFF89476393F40893066C
:102860008031054685451D45EFF06FFE8547631DA8
:10287000F40A93068031054681451945EFF02FFD96
:102880002244B24092444A850249930600310146EF
:10289000854541016FF0AFFBC1476319F500930611
:1028A000803105468545130530026DB79307000258
:1028B0006319F50093068031054685451305D0025E
:1028C00051BF93070003E30CF5FC93070004E315E5
:1028D000F5F893068031054685451305A0049DBF94
:1028E000C9476399F4009306803105468545130571
:1028F00050029DBF930720026399F4009306803134
:10290000054685451305F00285B793072003E38C40
:10291000F4FC93072004E39BF4F49306803105460E
:1029200085451305C00489B7C5476319F4009306AC
:102930008031054681451305400289B7930710028F
:102940006319F40093068031054681451305E002C2
:1029500035B7930710046319F400930680310546D8
:1029600081451305B00419BF93071003E31AF4F06F
:102970007DBF397122DC26DA4AD84ED652D456D2DF
:102980005AD006DE2A842E89328AB68A3A8BBE84D1
:10299000C28951E5056585450505EF205025DA8694
:1029A0005686D2854A85EFF03FE9B70704013EC657
:1029B0002318010085476388F408C9C00947638963
:1029C000E4088D466389D40893070020231BF10097
:1029D0009D47231EF100AD679387879F0A043E94AD
:1029E00000408E096C002285231C3101231D01004B
:1029F000EF209025C1476315F90685450545EF2071
:102A0000807422858545EF20D029F2506254D2543B
:102A10004259B259225A925A025B216182808547FB
:102A20006318F500854511650505EF20301E85BF4B
:102A30008947E316F5F685452165FDB723190100A1
:102A4000231A010051B723190100231A9100ADBFC9
:102A500023199100F5B72319E100231AF100ADB74E
:102A600093070004E31FF9F8371520008545130587
:102A7000051071B7AD670A059387879FAA9798439A
:102A80002316B7008357870093F70708E5FF828076
:102A9000AD670A059387879FAA979C4313D7850044
:102AA0002396E70003D787001377070865FF93F5A0
:102AB000F50F2396B70003D787001377070865FF44
:102AC0008280011122CC26CA4AC806CE2A842E89C9
:102AD000B28401E90565854513050580EF203011B5
:102AE00039A08547631EF5028545EF203012AD679A
:102AF000938747A00A043E9408404C002314210108
:102B00002312910023150100231301002306010065
:102B1000EF20101BF2406244D2444249056182809A
:102B20008947E303F5FC8D476315F500854511459D
:102B30006DBF91476315F500854521457DB79D47DC
:102B40006315F5008545096551BFA1476316F5007A
:102B500085453705080059B7A547E31AF5F88545B7
:102B600037051000A5BFAD670A05938747A2AA974E
:102B700098438357070093F70708E5DFC205C18133
:102B80002312B7008280411122C426C24AC006C661
:102B90002A892E84B384C50063189400B24022446D
:102BA000924402494101828005048345F4FF4A852D
:102BB000EFF07FFBD5B7411122C426C206C6AA8416
:102BC0002E848345040091E5B240224492444101A1
:102BD000828026850504EFF01FF9E5B7411122C474
:102BE00026C206C64AC02A84AE841DEEAD671317FE
:102BF0002500938747A22E86BA97930550528843A3
:102C0000EF207067938741843E9403450400B7E743
:102C100000E0AA97238007408DC42244B24092442A
:102C2000024941016FF0EFD485476313F602AD67A7
:102C300013172500938747A22E86BA9793057072C3
:102C40007DBF2244B2409244024941016FF00FD44B
:102C500089476319F604AD6713172500938747A2C8
:102C6000BA9703A907000546930550524A85EF20FD
:102C7000906013045403A686228501468145EFF037
:102C80008FD34A85054693057072EF20D05E22856A
:102C90002244B2400249A68692440546814541013C
:102CA0006FF06FD1B24022449244024941018280C8
:102CB000AD670A05938747A2AA97984383570700F1
:102CC00093F7070299C78357470005452380F5000E
:102CD000828001458280411106C60DE185476398D7
:102CE000F522E14601462545EFF06FB691460146D3
:102CF00081452945B24041016FF06FB58947631F97
:102D0000F500E1460146854513056002EFF02FB45A
:102D100091460146814513057002E9BFC147631D15
:102D2000F500E146014685450945EFF04FB2914671
:102D3000014681450D457DBFC947631FF500E1464A
:102D40000146854513055006EFF06FB091460146E8
:102D500081451305600679BF93070002631FF500E4
:102D6000E146014685451305A002EFF04FAE9146BE
:102D7000014681451305B002B5BF93072002631FCA
:102D8000F500E146014685451305A004EFF02FACA0
:102D90009146014681451305B004A9BF930740023F
:102DA0006310F502E1460146854513058006EFF004
:102DB0000FAA9306800401468145130590061DBFA6
:102DC00093070004E30FF5FA93072004631FF5004F
:102DD000E1460146854513050002EFF04FA79146F5
:102DE000014681451305100231B793070005631FA3
:102DF000F500E146014685451305C004EFF02FA517
:102E000091460146814513052006EDB5930720053F
:102E1000631FF500E1460146854513058008EFF084
:102E20000FA391460146814513059008E1B593072C
:102E300000066310F502E1460146854513050004CE
:102E4000EFF0EFA0930680040146814513051004BE
:102E500055B593072006631FF500E14601468545F9
:102E60001305A008EFF0AF9E91460146814513057A
:102E7000B00849B593070007631FF500E146014616
:102E8000854513052004EFF08F9C9146014681454E
:102E90001305300485B5930720076317F500E14655
:102EA000014685451945C5B793074007631FF500DF
:102EB000E146014685451305C008EFF04F9991465C
:102EC000014681451305D00835B593070008631FF7
:102ED000F500E1460146854513054004EFF02F97C4
:102EE0009146014681451305500429B593072008F2
:102EF000631FF500E146014685451305E008EFF044
:102F00000F959146014681451305F008E5B3B2409F
:102F100041018280797122D44ECE2A84AE89054542
:102F2000854526D24AD006D6B2843689EF20204C79
:102F30008947639FF4048D476316F9008545114561
:102F4000EF206020631C041285451165EF20204AA4
:102F5000CA852685EFF03FD8B7070C003EC4AD67A1
:102F6000938747A20A043E9400408A854EC022857A
:102F700002C223160100EF20B02022858545EF20F4
:102F8000D02DB250225492540259F24945618280A8
:102F9000C9476398F400CD47E316F9FA8545214502
:102FA00045B793072002639BF40093073002E31BAD
:102FB000F9F8370514008545410559B793074002D4
:102FC000639CF40093075002E31EF9F637051400E2
:102FD000854513050503ADB7930720046399F400F5
:102FE00093073004E310F9F68545056591BF930713
:102FF0002005639BF40093073005E315F9F43705CA
:103000002000854505052DBF93072006639CF4002D
:1030100093073006E318F9F237150080854513054C
:10302000058039BF93072007639EF400930730079C
:10303000E31AF9F0370701405C4FB7064000D58F1F
:103040005CCF09B793074007639CF40093075007D0
:10305000E31AF9EE370701405C4FB7068000C5B7A9
:1030600093072008E390F4EE93073008E31CF9EC93
:10307000370701405C4FB7060002D1B78547631898
:10308000F400854537050200EF204038D1B5894767
:103090006316F400854537050400FDB78D476316B8
:1030A000F400854537050800C5B791476316F4005D
:1030B000854537051000C9BF95476316F40085455F
:1030C00013050004D1B799476316F400854513052D
:1030D00000085DBF9D47E31DF4E68545130500101C
:1030E00065B73971B7B7000062CC66CA03AC87A474
:1030F00083ACC7A426DA52D456D25ECE6AC8014A3F
:10310000814AB76B002022DC4AD84ED65AD06EC610
:1031100006DE5289D689130430029384C195130BBD
:10312000E005938B8BBE138D018E930D6005B30765
:10313000940083C7070063986701B307A40183C79E
:103140000700638A67036286E6864A85CE85EF308C
:103150006028B3878B002A8903C50700AE89330531
:10316000AB40EF4090512A86AE865285D685EF302F
:1031700060262A8AAE8A0504E31BB4FB5285D685F5
:103180004A86CE86EF301018B76C00202A8AAE8AA5
:10319000014B814B13043002130CE005938C8CBE61
:1031A000138D018E930D6005B387840083C70700DC
:1031B00063988701B307A40183C70700638487036B
:1031C000B3878C0003C507003305AC403305A50267
:1031D000EF40B04A2A86AE865A85DE85EF30801FE2
:1031E0002A8BAE8B0504E311B4FD4A86CE865A8540
:1031F000DE85EF3030112A84AE845286D686528521
:10320000D685EF40A0012A86AE862285A685EF40AE
:10321000604C23A0A18623A2B186B7B7000003A605
:1032200007A583A647A5EF303069F25062541345D5
:10323000F5FFD2544259B259225A925A025BF24BCC
:10324000624CD24C424DB24D7D81216182803971F8
:103250004ED6B70900201387893606DE22DC26DA2F
:103260004AD852D456D25AD05ECE62CC66CA9305A2
:10327000C70B8146938989361305C00B7D58930887
:10328000B0039307700721A0FD17638D07013386F4
:10329000A7023A960346060065FA938747FC63E364
:1032A000F80085060507E31EB7FC9307300B0545BC
:1032B00063CED70AB7B7000083AB87A583AAC7A59B
:1032C0001389018E130470079384018E03457907D7
:1032D000130BF4FF7D19EF4070412AC403457907B1
:1032E0002EC6EF40B0402246B246EF1020275E8641
:1032F000D686EF30705C634805081307B4FF930768
:10330000700363E8E708B387840003C907009307E5
:10331000D00563F027099387C195A29783C7F7006B
:10332000ADEBCA99014B930CC00B7D5C130A5400A2
:10333000B3079A03CE9783C70700A1EB5285EF40EE
:10334000D0332AC422852EC6EF4030332246B246FF
:10335000EF10C0205E86D686EF30F0606347A00293
:10336000050B7D19FD19E31389FD0945F2506254DF
:10337000D2544259B259225A925A025BF24B624CD1
:10338000D24C216182805A8491B77D1AE3128AFB64
:10339000C9BF9307B0030145E3DA87FCA29483C653
:1033A000040093073006E3F3D7FC9387C1953E945E
:1033B00083475400C5FF9307C00B3307F70213067A
:1033C000C00B8147B386E700CE9683C6060091E224
:1033D00005058507E398C7FE1325A50A13451500C3
:1033E00071B7B7660020938686BE03C7A60593070C
:1033F000E00563F5E7049387018E03C7A70513066D
:10340000B00B631CC70203C6C7056318E60203C7F7
:10341000E7056314C70283C787056390E702138734
:10342000C1950346A70503475707998FB297B297EF
:103430000947B3C7E702238DF6048280E30FF7FE46
:103440001387C1950346C7058347A705D18F034658
:10345000E70503478705D18FD98FE5F31387018EE1
:103460000346A70583475707B307F640C9B703A626
:10347000818D4111B7670020B766002006C622C4BF
:1034800026C2238007C6A38A06B84D476351C704E6
:103490003706002013066638014881488145794582
:1034A000130EC00BFD5E130F7009130770072DA0DC
:1034B0001378F50F9375F70F854805050506E31694
:1034C000E5FF63860800A38AB6B8238007C70544D2
:1034D00025A07D17E303D7FF3303C70332930343CC
:1034E0000300E31803FEE355B7FC63860800A38AD4
:1034F000B6B8238007C7014403C507C6B7B40000A8
:10350000EF40D01E03A604A683A644A6EF10000534
:10351000B7B7000003A687A683A6C7A6EF30B044BE
:10352000634FA000014519E4B767002005472382D7
:10353000E7BA0545B24022449244410182800145E8
:10354000D5BFB767002083C747BA638A071E3971A2
:1035500006DE22DC26DA4AD84ED652D456D25AD0CB
:103560005ECE62CC66CA6AC86EC6631F050E37643B
:103570000020034554B9B7640020376A0020EF40AB
:10358000F016B7B700002A86AE8603A507A783A565
:1035900047A7B70B0020EF00707C2A8903C504C63B
:1035A000AE89930D7007EF407014B7B700002A86FC
:1035B000AE8603A587A783A5C7A7130A8ABE138B68
:1035C000C195EF00B0792A86AE864A85CE85EF3068
:1035D0006053034D54B983CA04C62A89AE896A84EC
:1035E0009384018E938B8B3663F18D02F25062547B
:1035F000D2544259B259225A925A025BF24B624C4F
:10360000D24C424DB24D216182803305A441EF403E
:10361000D0064A86CE86EF30E04E2A8C5685AE8C98
:10362000EF40B0052A86AE866285E685EF20905A87
:10363000EF40207E33076401034707000948B307C2
:1036400094002A97334707032380A7009308C00BF1
:10365000B30744012380E700B30714030504DE9792
:10366000AA972380070049B78547E311F5F8376427
:103670000020034554B9B7640020376A0020EF40AA
:10368000F006B7B700002A86AE8603A507A783A574
:1036900047A7B70B0020EF00706C2A8903C504C64A
:1036A000AE89130D7007EF40700401468146EF00AC
:1036B000F06A2A86AE864A85CE85EF30A044834ADA
:1036C00054B983CD04C62A89AE8956849384C195A2
:1036D000130A8ABE138B018E938B8B36E3688DF0B1
:1036E0006E85EF4080792A8C33055441AE8CEF40D3
:1036F000C0784A86CE86EF30E0402A86AE86628564
:10370000E685EF30307DEF40C0703307640103473A
:1037100007000948B30794002A973347070323801B
:10372000A7009308C00BB30744012380E700B30749
:1037300014030504DE97AA972380070045B782800B
:10374000B767002003C747BA85476318F704B70572
:103750000020130720031305C00B9385853613083B
:10376000B00BB94813035006B307A70201468146C0
:10377000AE9783CE070003CE170085066383CE0184
:1037800005068507E39706FF63C7C8000507E31D25
:1037900067FC01458280054582808280411126C2F6
:1037A00083C7118D06C622C4A9E3EFF05FCC39C1EF
:1037B00003C7018D8947631FF70283A78186A5EBA5
:1037C00003A7C18C09E71307500623A6E18CB7674E
:1037D000002003C567B9EFF0DFD6154723AAE18AB9
:1037E00003A781868547630BF706B24022449244C3
:1037F0004101828083A781869DEB3767002083C7C4
:10380000118D0347A7B9D98F9DE303A5818DB767B4
:103810000020938787BAAA9783C5F7FFF52A01C9C5
:10382000094723AAE18A8547A388F18C55BFEFF0A9
:103830001FA221C983C7018D89466384D70403A6CB
:10384000818721C2631ED50037670020834747DA8E
:1038500085072302F7DA854723A4F186254739A88F
:103860008546E31FD5F6B766002083C646DAADDA93
:1038700085072388F18C23A40186114723AAE18AB6
:10388000ADB7EFF0FFEB09C983A781896356F0005C
:10389000994723AAF18AA9B7EFF0BF8419C18547D8
:1038A000CDBF23AA018A2DBF5D71B7B70000A2C4A6
:1038B0005AD85ED603AB07A983AB47A91384C19539
:1038C000A6C2CAC04EDE56DA62D466D286C652DCC2
:1038D0006AD06ECEAA842A9405499309A5FFA94A05
:1038E000514CF94C63543907034AF4FF63000A1240
:1038F0008347D4FFB307FA40950763E9FA1083477B
:10390000B4FFB307FA40A9076362FC10834794FF32
:10391000B307FA40BD0763EBFC0E03453400EF40EC
:10392000E05C2AC452852EC6EF40405C2246B24677
:10393000EF00D0425A86DE86EF3000786348050CEF
:10394000B387244137670020230AF7B8938B64FFBD
:1039500063467901B7670020238A07B8B7B700002C
:1039600003AA07A983AA47A91384018E2694054BAD
:10397000130CB00BA94C514DF94D63543B0703494F
:10398000F4FF630889098347D4FFB307F94095071B
:1039900063E1FC088347B4FFB307F940A907636AF2
:1039A000FD06834794FFB307F940BD0763E3FD06B7
:1039B00003453400EF4080532AC44A852EC6EF40A9
:1039C000E0522246B246EF0070395286D686EF307A
:1039D000A06E63400504B3846441B767002023846C
:1039E00097EA63467B01B7670020238407EAB64065
:1039F000264496440649F259625AD25A425BB25B57
:103A0000225C925C025DF24D6161828005097D1449
:103A1000D1BD050B7D1495B7CD4763DEA70AB70767
:103A200000203706002093873742130686368146EA
:103A30001308C00B9308C0037D531307700721A020
:103A40007D17630D6700330507033E9503450500A9
:103A500065F91305E7FCE3E5A8FE85061387F7FF84
:103A60006384C700BA87D1BF9307300B63C5D706FD
:103A700001112E8506CE22CC26CA37640020EFF035
:103A8000BFE2034584EAB7640020EF4020462AC421
:103A900003C544B92EC6EF4060452246B246EF004A
:103AA000F02BB7B7000003A607A883A647A8EF30FE
:103AB000806B634CA00003C744B9CD4763F7E700B0
:103AC000034784EA054563E3E7000145F2406244A9
:103AD000D24405618280014582801D7162DC86CE00
:103AE000A2CCA6CACAC8CEC6D2C4D6C2DAC05EDECE
:103AF00066DA6AD86ED62ACC79472E8C6347B7042B
:103B00001387C1952E9783460700130780026366CB
:103B1000D7020547130500056319E622F6406644FF
:103B2000D6444649B649264A964A064BF25B625C41
:103B3000D25C425DB25D2561828065476347B70014
:103B4000094713058007E30BE6FC05476317E620EA
:103B5000B7B6000083A786A803A8C6A80149814973
:103B6000938CC195E29C814D4A8ACE8A4A8BCE8B3A
:103B70004A84CE8401473EC442C603C51C00330DAF
:103B8000EC403ACEEF4080362AC803C50C002ECA5E
:103B9000EF40C0354246D246EF00501C2246B246A6
:103BA000EF30805172476348050C850D0507954736
:103BB000FD1CE314F7FC3305B741EF40002C2A8DC0
:103BC000AE8D2A86AE862285A685EF20B0732A8424
:103BD000AE846A86EE865A85DE85EF20B0722A8B27
:103BE000AE8B2286A6866A85EE85EF3020635A86E4
:103BF000DE862A8DAE8DEF3060622A86AE865285D3
:103C0000D685EF30302D2A8AAE8A2286A6866A852E
:103C1000EE85EF30A0602A86AE864A85CE85EF30ED
:103C2000702B2A86AE865285D685EF20B06D014670
:103C30008146EF20207A2A896245AE89EF40E02351
:103C40004A86CE86EF30805D2A8AAE8A4A86CE8644
:103C50002285A685EF30805C2A86AE865A85DE8571
:103C6000EF3050272A86AE865285D685EF208076A3
:103C7000EF40201A65B56A853ACEEF4000202A86CB
:103C8000AE862285A685EF20E0742A843305AD0335
:103C9000AE84EF40801E2A86AE864A85CE85EF2010
:103CA000607383C80C002A89AE89468546C8EF40F8
:103CB000C01C2A86AE865A85DE85EF20A071C248D8
:103CC0002A8BAE8B3385A803EF40201B2A86AE8655
:103CD0005285D685EF2000702A8AAE8A7247F9B5E0
:103CE0006A853ACEEF4060192A86AE862285A6857F
:103CF000EF20406E2A843305AD03AE84EF40E01719
:103D00002A86AE864A85CE85EF20C06C83C80C001B
:103D10002A89AE89468546C8EF4020162A86AE8697
:103D20005A85DE85EF20006BC2482A8BAE8B338527
:103D3000A803EF4080142A86AE865285D685EF20F0
:103D400060692A8AAE8A7247BDA065476347B7009B
:103D5000094713058007E303E6DCB7B6000083A735
:103D600086A803A8C6A801498149938C018EE29CCC
:103D7000814D4A8ACE8A4A8BCE8B4A84CE840147B3
:103D80003EC442C603C51C00330DEC403ACEEF40A2
:103D9000E0152AC803C50C002ECAEF402015424684
:103DA000D246EF00A07B2246B246EF30E0307247A9
:103DB000E34805F2850D05079547FD1CE314F7FC64
:103DC000DDBB7971B76700204AD03769002022D463
:103DD000034789EA03C447B926D206D64ECE52CC51
:103DE00056CA5AC85EC6BE84635387003A84376A8F
:103DF0000020B70A0020130B7007130A8ABE930B2A
:103E0000C00B938A8A36635D8B00B2502254925461
:103E10000259F249624AD24A424BB24B4561828012
:103E200083C544B905462285F915EFF01FCB8345BC
:103E300089EAAA8909462285F915EFF01FCA338756
:103E4000A90089463347D702B30744012380E7001E
:103E5000B30774030504D697BE9923800900AA9777
:103E6000238007004DB7011122CC83C7118D06CEE8
:103E700026CA4AC84EC6E9C703A70181854793846D
:103E80000181631AF70283A7818D3767002013072A
:103E900087BABA9703C5F7FFEFF01FA103C7F191E7
:103EA0009307300B63E7E70003C7B199A94763E4C1
:103EB000E700EFF01FF183C7118D0547639AE7060E
:103EC0009840631FF70603A7818D954763CAE706ED
:103ED000894723A00400A388F18CEFF08FA033352D
:103EE000A00083C7118D090523AAA18A8D49638586
:103EF000370303A5818DB7670020938787BAAA97F8
:103F000083C5F7FFEFF05FB11DC585479CC08947AA
:103F1000A388318D23AAF18A03A7818D854763C1C8
:103F2000E70237670020230DF7B8A388018C09A8A2
:103F30000947E384E7FA03C7118D8D47E30EF7FCC9
:103F4000F2406244D2444249B24905618280B76678
:103F500000208147938686DA130700103386D70046
:103F6000230006008507E39BE7FE99679387078296
:103F7000AA971308C00B01473306E5000346060065
:103F8000050736968345060085052300B600E31530
:103F900007FF1305C50BE390A7FE82801D713767ED
:103FA0000020D6C286CEA2CCA6CACAC8CEC6D2C46B
:103FB000DAC05EDE62DC66DA6AD86ED68146930AC3
:103FC00087DA93050010338656010346060093975F
:103FD0000601C1870DCE9306F00F1308F00F63881A
:103FE000D7009306E00F1308E00F6397D702F6405F
:103FF0006644D6444649B649264A964A064BF25B81
:10400000625CD25C425DB25D42852561828085063C
:10401000E39BB6FA930700103E89BE86014C130657
:10402000F00F93950601C185635EB60EBE86014A08
:104030009305F00F13960601418663DCC50EB7B6F3
:10404000000083AD86A903ADC6A90148814C814912
:10405000930EE00FE3CDFEF8B3862A0103C40600F9
:1040600042CE3ECCA299330489024E85EF301068CF
:104070002A8B6285AE8BEF3070672AC433053C41D2
:104080002EC6A29CEF30705F2AC866852ECAEF301C
:10409000F0655A86DE86EF20F0262A8433059A41A1
:1040A000AE84EF30905D4246D246EF20B0252A869E
:1040B000AE862285A685EF30E0612246B2462A848C
:1040C000AE845A85DE85EF20F0232A8BAE8B224604
:1040D000B2464245D245EF20F0222A86AE865A8566
:1040E000DE85EF30A0132286A686EF3020132286CD
:1040F000A686EF30A0122A86AE86AA842E846E850C
:10410000EA85EF304006E2477248930EE00F6356AF
:10411000050013F8F70FA68D228D8507C207C1870A
:1041200005090DBFB385DA0083C5050085062E9C01
:10413000CDBD3386DA00034606003306D602850677
:10414000329ACDBDB767002083C807B93707002072
:1041500099651307873601461303C00B93850582C3
:104160003308C5008147B306F80083C60600330E46
:10417000F7008507B3B61601FD162300DE00E394B1
:1041800067FE1306C60B1307C70BE31BB6FC828042
:10419000B705002085461305C00B938585361303AC
:1041A000F00F130ED01F930EE01F7D5F1308B00BAE
:1041B00093087007B387A6020546AE9703C717009A
:1041C00005061DE783CFD70B03C757F47E9783CF30
:1041D00027007E9783CF07007E9763D4EE00A380ED
:1041E000E7018507E31C06FD8506E39516FD828041
:1041F000E31967FE83CFD70B03C757F47E9783CFAE
:1042000027007E9783CF07007E97E34CEEFCA380C8
:104210000700C1BF411106C622C42A84EFF03FD374
:10422000EFF0DFD7B76700202388A7B82285EFF02B
:104230007FF12244B24041016FF09FF58547631A38
:10424000F5009306003105468545130520086FD01B
:104250001FE089476319F50093060031054685453F
:1042600013053008EDB78280056539718545130562
:10427000058006DE22DC26DAEF1060179307900235
:1042800085442314F100280085472305F10026C644
:10429000EF009076373401409307F00B3ECC2C08AA
:1042A0009307C016130504C03ECE23000102EF1091
:1042B00020210546130504C08545EF10C05C130599
:1042C00004C08145EF10005985450965EF102012A3
:1042D0009307C01308082318F1002309910026CA88
:1042E000EF0090719307F0593ED289679387F7707A
:1042F0004C10130504403ED423060102EF10401C6D
:104300000546130504408545EF10E05713050440AA
:104310008145EF102054ED22F2506254D2542161B5
:104320008280411106C6EFD01F8DEFD05F95014509
:10433000EFC07F810545EFC01F8105455128094524
:1043400041280D4571201145612015455120194521
:1043500041200945EFD01FA60D45EFD0BFA511455F
:10436000EFD05FA51545EFD0FFA41945EFD09FA46E
:104370000545EFF0BFEC0945EFF05FECEFD0AFC6BD
:10438000F122EFD01FE31305B00B23A6018CEF4001
:104390001036B767002023A0A7BA1307850AAA879B
:1043A00023A007009107E39DE7FE91471CC18D47BD
:1043B00005472324F50AB240894758C15CD178C12A
:1043C0007CD12322E5082322F50A41016FF0DFE9C1
:1043D000411122C406C685472A846314F502930658
:1043E00080340546814513050004EFD05FC6994728
:1043F0006315F40693068034054681451305500481
:1044000025A089476319F500930680340546814548
:1044100013051004D9BF8D47631DF5009306803442
:1044200005468145130520042244B24041016FD066
:104430001FC291476319F5009306803405468145F4
:1044400013053004D5B79547E313F5FA9306803486
:104450000546814513054004C1BFB24022444101D5
:104460008280411106C622C401ED13854182EFD03E
:104470008FAC138541822244B24041016FD0AFAB73
:1044800085476319F5001385C182EFD0CFAA138544
:10449000C182D5B789476319F50013858182EFD0B2
:1044A0008FA913858182C1BF91476319F5001385D8
:1044B0004181EFD04FA81385418175BF8D476319A6
:1044C000F5001385C181EFD00FA71385C18165B7B2
:1044D00095476319F50013858181EFD0CFA513852A
:1044E000818151BF99476319F50013850182EFD08F
:1044F0008FA41385018241B7B240224441018280DA
:10450000411122C41385018B06C6EFD0CFA21385BB
:10451000018B2244B24041016FD0EFA141111385BC
:10452000018B06C6EFD02FA1B2401385C182410195
:104530006FD06FA041111385C18206C6EFD0AF9F27
:10454000B2401385018B41016FD0EF9E930680042A
:10455000054681451305A0066FD07FAF011122CC1F
:1045600026CA4AC84EC652C456C206CE3289B68939
:104570002A8AAE8AEF300016014681462A84AE842C
:10458000EF20703E635A05005286D6864A85CE8556
:10459000EF3040142A84AE842285F2406244A6851E
:1045A0004249D244B249224A924A056182807571D9
:1045B0008547EECE376E0020AA8D37650020238E0A
:1045C000F18CA309FEB8A38CF19C930785BE3ED65F
:1045D0009387018EDAD83ECC138BC1959387C19512
:1045E00037B600003ECE832706A522C5B766002059
:1045F000B7620020B76E00201307700726C34AC1B8
:10460000CEDED2DCD6DADED6E2D4E6D2EAD006C7F7
:10461000238406BA23AC018C23AA02EA23AA019CB4
:1046200023AA018CA3880EB8238CE19C7ED076D27D
:1046300072C81AD446CA032846A515663ED8930701
:10464000267C3EDC938786BA930485BE938A018ECE
:10465000130A70079E8B168CFA8C42DA1309F00F3E
:104660009309B00B054D3EDE93077007631AFA18E5
:1046700095679387177C3386FD009306E005034515
:1046800016009385F6FF631B251503450600631787
:104690000514F247A38BD706E2579306E00533864D
:1046A000FD0003450600938516006311251503459B
:1046B0001600631D0512E247A38BD70683C67A074F
:1046C0009307E00583457B076380F60A638EF50850
:1046D000894763E6B7029307700B63F2D7021306AC
:1046E000CAFE9307A00563ECC70003A6818DF257AD
:1046F0003305F60005062300450123ACC18C639DFC
:10470000051C6387360103264CEB0506232ACCEAF9
:104710009307500763CA470503C68A07FD573385C9
:10472000C6406351F502C24703C537B9631CA501F2
:10473000631A3601925713061A00A388C7B8C247F6
:10474000A38907B803468B073385C540635EAD0078
:10475000D24703C5919D6319A50119E6A257238C81
:10476000419DD247A38C019CAE968586A38BD4062F
:104770007D1AFD14FD1A7D1BE3180AEEEFF00F827F
:10478000EFF06FEE83A6418B05476394E600EFE000
:104790005FC5B70600201305C00B93868636130647
:1047A0007007B25733874701834507003307AA02D2
:1047B000050A36972E9723000700E314CAFEBA4075
:1047C0002A449A440A49F659665AD65A465BB65B59
:1047D000265C965C065DF64D496182807D16AE864C
:1047E000E39F05E8F247A38B07067DB50506AE8675
:1047F000E39935EBE2471307B0FBA38BE7067DBDDA
:1048000003C58A07EF30806E2AC403458B072EC686
:10481000EF30C06D2A86AE86AAC4AEC62245B24528
:10482000EF20506B01468146AAC0AEC2EF20B01304
:10483000064796472648B648635A05002246B246C0
:104840004285C685EF2010692A87AE874256D25628
:104850003A85BE85EF205006634905069307C00BD5
:104860003306FA0283C68407B6856E968DC1B308F7
:10487000B60083C808001385F5FF639E2803B308BC
:10488000A60083C8080063980802A30BBB06930721
:10489000A00BE3C5D7E23305D60003450500938599
:1048A0001600631E25013305B6000345050001E926
:1048B000A38BDA0621B5A30B0B06AA8545BF930788
:1048C000B0FBA38BFA06AE86D9B79307E005A38B9E
:1048D000FA06A30BFB06DDB3E39C36E303C6C18DEA
:1048E0006317A6018257238E018C23AA418D03A64C
:1048F000419D050623AAC19C21BDB7660020130671
:10490000D002938746C623A2C6C689667947138616
:1049100006F498C7D0C798D71385C6D41306800766
:104920001307100490CF98D3C8DF0567130650050E
:104930001305B00490CB9305400B138686B5A8C32E
:104940001305C757D0CF8CDF13060777E8C7ACD75E
:1049500013057008D145D0D7A8CB13060005ACDFEE
:104960001305E7289305800213074719F8D7F8DFE6
:1049700023A2070023AA070023A2070223AA0702F3
:1049800090DB23A4070423A2070423AC070423AA73
:104990000704E8CF23A20706B0D323AA0706ACDB9F
:1049A0001307000F938686CE23A4E70837B70020AD
:1049B00023A6D7089306000023A2070823A0C70850
:1049C000232ED76C9307C76D37B70020D4C394C785
:1049D000D4C794CB9307876FD4C394C7D4C794CB61
:1049E000232CD76E8280797106D622D426D24AD063
:1049F0004ECE52CC2E894CC14C452A844A85B28475
:104A0000EF304055B7670020938747C69204BE94A5
:104A1000AA8948C48844EF40C0330C442A8A4A8596
:104A2000EF30306FAA855285EF30B0452A8A884032
:104A3000EF402032CA85EF30D044AA855285EF304E
:104A400060512A8AC840EF40C030CE85EF307043B5
:104A5000B7B7000083A507AAEF307006AA85528574
:104A6000EF30404FC44408C82AC62685EF40602E68
:104A7000B245EF30204EB7B7000083A547AAEF300C
:104A8000302F63490500096513050571058DEF4059
:104A9000402C08C833059040EF40A02BAA85084859
:104AA000EF3070356345A000930700001CC8232435
:104AB00024010848B250225492540259F249624AE1
:104AC00045618280011122CC37640020130484BE2A
:104AD0000345A40526CA9304E0053385A44006CE09
:104AE0004AC84EC6EF306039B7B7000003A687AAA0
:104AF00083A6C7AAEF2080722A8903456404AE8981
:104B00003385A440EF306037B7B7000003A607AB8A
:104B100083A647ABEF2080702A86AE864A85CE8575
:104B2000EF10500B2A8903451404AE893385A44045
:104B3000EF30A034B7B7000003A687AB83A6C7AB9E
:104B4000EF20C06D2A86AE864A85CE85EF1090088C
:104B5000EF30202CF2406244B767002023A2A7BEAA
:104B6000D2444249B24905618280397106DE22DCB5
:104B700026DA4AD84ED652D456D25AD05ECE62CC1D
:104B800066CAA5476399F602056493054432014558
:104B9000EFC08F81930544196254F250D2544259A8
:104BA000B259225A925A025BF24B624CD24C0545E2
:104BB00021616FB07FFF3764002085472A89AE8C62
:104BC000B289130444C6639EF60483A7C188B1CB9F
:104BD00083A78187B9E70325C408EF408017B7058D
:104BE00000802146AA84B3C525016685EFF0BFDFAA
:104BF000AA852685EF300036EF4040109315050159
:104C0000C1810145EFB05FFA0325C408EF4060148D
:104C10002A842146CA854E85EFF0FFDCAA852285CD
:104C200011A203A7818985471306F7FF63E6C70032
:104C300083A741876380071003A8C189139A4600A0
:104C4000B30744012545CC47328C814763540501A5
:104C500093B716009304C0E0B384970205468147DA
:104C6000AE946356E6009387B6FFB337F0001306A1
:104C7000C0AEB387C702814ABE9403C6018D3E8B86
:104C800019C2932A2700B70500803686B3C52501CF
:104C9000668536C6EFF03FD52AC41305A0AB338531
:104CA000AA0252942695EF40C00AA245EF30802A0E
:104CB000EF40C00493150501C1810145EFB0DFEE5F
:104CC00083A5C189254658448147B2466354B6003E
:104CD00093B716001304C0E033848702054681476A
:104CE0003A9403A781896356E6009387B6FFB337EA
:104CF000F0001306C0AEB387C70281443E9483C759
:104D0000018D99C393242700CA8536864E85EFF01E
:104D10009FCD2AC41305A0AB3385A4022295EF4092
:104D20004003A245EF300023EF30507D931505017D
:104D3000C1819DB59547638AF60485671386660031
:104D4000B7B400209387471923AAF46E931746003F
:104D50003E94484432C437B40020EF30907F22465E
:104D60002A8ACA854E85EFF01FC8AA855285EF3082
:104D7000601EEF30907283D5446F2328A46E0145E6
:104D8000EFB09FE28355046F01BD684CEF30707C3B
:104D9000B70500801546AA84B3C525016685EFF0E6
:104DA0009FC4AA852685EF30E01AEF303075931541
:104DB0000501C1810145EFB03FDF684CEF307079EC
:104DC0002A84154681BD01A001A001A001A001A077
:104DD00001A001A001A001A001A001A001A001A0CB
:104DE00001A001A001A001A001A001A001A001A0BB
:104DF00001A001A001A001A001A001A001A001A0AB
:104E000001A001A001A001A001A001A001A001A09A
:104E100001A001A001A001A001A001A001A001A08A
:104E200001A001A001A001A001A001A001A001A07A
:104E300001A001A001A001A001A001A001A001A06A
:104E400001A001A001A001A001A001A001A001A05A
:104E500001A001A001A001A001A001A001A001A04A
:104E600001A001A001A001A001A001A001A001A03A
:104E700001A001A001A001A001A001A001A001A02A
:104E800001A001A07390123497C1FF1F938101B05C
:104E900017B100201301011717650000130545061F
:104EA00097B5FF1F938505161386818563FAC500A4
:104EB0008322050023A0550011059105E3EAC5FEF4
:104EC00013858185977500209385059B6377B500D1
:104ED000232005001105E36DB5FEFD42739002BC71
:104EE000FD4273904280B78200009382828873A053
:104EF000023097B2FFFF9382621493E23200739004
:104F00005230EF10003B97C2FFFF9382C29973901B
:104F10001234730020304111B727014006C6938731
:104F20000740631CF500854513050020FD298145D8
:104F300013050020B2404101CDA9B7370140938746
:104F40000780631AF500854513050040F92981455E
:104F500013050040C5B7B240410182805C4137076C
:104F6000F1E01307F7EF944D7D8F9C41D58FD44D21
:104F7000D58FD441A206D58FD98F5CC11C4537F798
:104F8000F1FF1307D77FD4457D8F9C49D58F94457A
:104F90008606D58FD98F1CC55C55370710FF7D1746
:104FA0007D8F83C74501FD1793F7F70FD207D98F80
:104FB0005CD582801C4589C593E717001CC582809B
:104FC000F99BEDBF1C4593E787001CC5828008450F
:104FD0000D81058982801C4593E747001CC58280AE
:104FE00008450981058982805841032805004C4500
:104FF00037060140930706403E979346F8FFB1C538
:1050000083250640F58D2320B640D043F18ED4C3CE
:105010001443B3E6060114C3184190479346F7FFC3
:10502000758E90C7D047F18ED4C714454146639919
:10503000C6009447D98E94C7D447558FD8C782806D
:10504000B6979443558F98C382801C43F58F1CC339
:105050008280B70701401387074083A70740584B5A
:10506000698F09C77D8D3335A0008280014582801C
:10507000B707014023AAA74082809C4513F7070188
:1050800013F8F70001C7D8413368E80083D505005D
:1050900013F7F50F39C318418146854E3D4F930FE5
:1050A000800293028004214E3396DE00B3F8C500DF
:1050B000631116039398260033131F011343F3FF64
:1050C0003377E300B318180133E7E800639FF7056F
:1050D00050C98506E39AC6FD18C11307F00F637522
:1050E000B70454412146854E3D4F930F80029302F1
:1050F0008004414EB398CE0033F715016392E80265
:105100001317260001173313EF001343F3FFB37691
:10511000D3003317E800D98E639DF701232A1501C8
:105120000506E319C6FD54C18280E39457FA10C9FD
:105130004DB7E39757FE23281501DDB719C20CC9F7
:1051400082804CC98280B707014063550504D44F63
:10515000B7073000131705013376F5004183631D4F
:10516000F602370600F17D1637080140B3F7C60096
:1051700083264800758E2322C80099C59356550191
:1051800092063317D700D98F37070140635E0502B7
:105190005CCF8280D4436DBF9317B50063D0070204
:1051A0009357050113F6F7008D47B397C70093C7D0
:1051B000F7FFF58FB706000FD58FC1B7935755018D
:1051C0009207B317F700E5B75CC3828013F7C50FEA
:1051D00093F73500B7050140BA9594458A073D47D6
:1051E0003317F7001347F7FF758F98C598453315A8
:1051F000F500598D88C582809387818B944303473E
:10520000050089E683472500920731A894430546A7
:105210006391C60483472500034615009207631473
:10522000D60093E707F8B7E600E093F7F70FBA96D2
:105230002380F6408546935757003397E600544144
:10524000ADC6938707048A07B7E600E0B69798C310
:1052500082808C4389466393D50283461500834739
:1052600025006365D6008A06B69779BF9386E60364
:105270008A06B69793F7F70F920765B790438D4666
:10528000631ED60083461500834725006364D6005D
:105290008606D9BF9386C6078606E1BF9443914729
:1052A000E39AF6F88347150085B79387070661BF31
:1052B000B7160240DC4251777D17F98F5D8DC8C269
:1052C0008280371702405C439146B18B6385D700DB
:1052D000A1466386D706B7177A00938707201CC1BB
:1052E000371602405C42370700201307470D9183B1
:1052F000BD8BBA9783C607001C41B3D7D7005CC1EA
:105300005442A1829D8ABA9683C60600B3D6D700BE
:1053100014C55442AD829D8A369703470700B3D720
:10532000E7005CC5584239839376370013870183C1
:10533000369703470700B3D7E7021CC982805C4356
:1053400054434167C983F98E37F7FF1F0327C7709E
:10535000BD8B8907131617016348060045460147B0
:105360006392C702C94739A809476389E7023D47E5
:105370006388E70241476388E70245460147639334
:10538000C700C14785E6B746024083A60680C18AAA
:105390008DC6B7167A009386062025A00147D9B797
:1053A0000547B547C5B70147BD47E9BFB716024036
:1053B000D4421396E600E35E06FCB7163D009386E2
:1053C0000690B387D7021CC101DF1C41858301BF52
:1053D00099C5371702405C4B5D8D48CB8280B7176B
:1053E0000240D84B1345F5FF798DC8CB828099C513
:1053F000371702401C4F5D8D08CF8280B7170240DF
:10540000984F1345F5FF798D88CF828099C537175E
:1054100002405C4F5D8D48CF8280B7170240D84F65
:105420001345F5FF798DC8CF828099C537170240A3
:105430005C475D8D48C78280B7170240D847134547
:10544000F5FF798DC8C78280035705008D67938764
:10545000070483D625007D8F83D70500D58F83D69B
:105460004500D58F83D66500D58F83D68500D58F2F
:1054700083D6A500D58F83D6C500D58F83D6E5000A
:10548000D58FD98F2310F5000357C501FD7793877A
:10549000F77FF98F231EF50083D705012318F50048
:1054A00082808357050091C593E707042310F50018
:1054B0008280C207C18393F7F7FBC207C183FDB7A0
:1054C0008357050037370140930607C0C207C183E1
:1054D0006300D504B7060040630CD50293860640EE
:1054E0006308D502B7160040138606806302C50222
:1054F000938606C0630ED50013070740630AE500D4
:1055000037570140930607C06304D5006317E500D1
:1055100003D7250093F7F7F8D98F37170040630DAD
:10552000E500130707406309E50093F7F7CF03D7BA
:105530006500C207C183D98F2310F50083D74500CA
:105540002316F50283D705002314F502B73701406F
:10555000138707C0630EE50093870740630AF500D1
:10556000B7570140138707C06304E5006316F500D1
:1055700083C785002318F5028547231AF50082802A
:105580008357050203D6050003D82500C207C1834F
:10559000F99BC207C1832310F50283570502835686
:1055A000450003578501C207C18342074183137732
:1055B000C7F8518F03D68500F59BC20633660601F6
:1055C000D18F37360140130806C0C182630E050132
:1055D00013060640630AC50037560140130806C08B
:1055E000630405016313C50203D6A500DD9B03D840
:1055F000E500D18F03D64500ED9B93F6F6CFD18F12
:1056000003D6C50033660601D18E2312D500231CB4
:10561000E50003D76500231AE5022310F502828016
:105620008357050265771307F7CFC207C183BD9B78
:10563000C207C1832310F502835705028356450034
:1056400003D88500C2071396060183568501C183DE
:1056500093F7F7FD758F83D605004182A206558F1B
:1056600083D6250042074183B3E606019206D58F13
:10567000B7360140C207138806C0C183630E050117
:1056800093860640630AD500B7560140138806C0CA
:10569000630405016311D50483D6A50093F7F7F7DA
:1056A00003D8C5009206D58F83D64500C207C183B3
:1056B000920693F7F7FBD58FFD769386F63FF18E32
:1056C00003D6E500C207C183336606010A06D18E00
:1056D0001396060141822312C500231CE50003D75F
:1056E0006500231CE5022310F50282808357050222
:1056F00003D88500C207C18393F7F7EFC207C183C0
:105700002310F50283570502835645000357C50150
:10571000C20713960601420783D60500418313771B
:10572000C7F8558F83D62500C18393F7F7DFB3E61B
:105730000601A206D58FB7360140C207138806C0FE
:105740004182C183630E050193860640630AD5003A
:10575000B7560140138806C0630405016312D504DF
:10576000FD769386F67FF58F83D6A50003D8C50016
:10577000A206D58F83D64500C207C183A20693F740
:10578000F7BFD58FF576FD16F18E03D6E500C2077B
:10579000C183336606011206D18E1396060141823B
:1057A0002312C500231EE50003D76500231EE50272
:1057B0002310F502828003570502FD77FD17F98F4C
:1057C0002310F50203580502835645008357C5018F
:1057D00065771396060183D605001307F7CF7D8FF3
:1057E000F977A206FD17558FB3F7070183D6250079
:1057F00003D8850042074182B3E60601B206D58F81
:10580000B7360140C207138806C04183C183630EC7
:10581000050193860640630AD500B75601401388F8
:1058200006C063040501631CD500F176FD16F18EF8
:1058300003D6C5001A06D18E1396060141822312A3
:10584000C500231EE50003D765002310E5042310DF
:10585000F50282808357050091C593E71700231056
:10586000F5008280C207C183F99BC207C183C5BF0F
:105870008357450491C52167D98F2312F50482808F
:10588000C607C583DDBF8357C50009C6DD8D231656
:10589000B500828093C5F5FFFD8DD5BF8357850187
:1058A000C207C183DD9BDD8D231CB50082800357B9
:1058B0008501FD779387F77FF98FA205CD8FC2070A
:1058C000C183231CF50082808357C501C207C183B1
:1058D000DD9BDD8D231EB50082800357C501FD775A
:1058E0009387F77FF98FA205CD8FC207C183231E4F
:1058F000F5008280835705029205C207C18393F7A2
:10590000F7FDCD8FC207C1832310F50282800357B4
:1059100005028547B397B70093C7F7FFF98F2310A8
:10592000F50283570502B315B600DD8DC205C181AE
:105930002310B50282802312B5028280035505012F
:105940006D8D3335A000828093C5F5FFC205C181FE
:105950002318B5008280835705010355C500ED8FDC
:105960004205418189C76D8D3335A0008280014594
:10597000828093C5F5FFC205C1812318B5008280DE
:1059800083560501F577FD17F58F83D665003971CC
:1059900022DC06DED58F03D7C5002318F500835619
:1059A000C500FD779387379FF58F83D645002A84FE
:1059B0002EC6D58F83D68500D58F83D6A500D58FEB
:1059C0002316F50083574501C207C18393F7F7CF2C
:1059D000D98F231AF5006808EFF0BF8EB747014052
:1059E00093870780B245631EF404A2578356C40010
:1059F0006547B387E702C206C186984163D50604AE
:105A000006070356C4004206B3D7E7021307400651
:105A10004186B3D6E702B3F7E70292066357060260
:105A20008E0793872703B3D7E70213F77700B3678F
:105A3000D700C207C1832314F400F25062542161DD
:105A40008280925765B70A076DBF92079387270335
:105A5000B3D7E702BD8BD58FE9BF81C98357C50096
:105A60000967D98F2316F50082800357C500F9779F
:105A7000FD17F98FC5BF13F7F50F85471583B3954C
:105A8000B7006319F7009307C500984301CED98D7D
:105A90008CC38280894693074501E318D7FE93079C
:105AA0000501E5B793C5F5FFF98DDDB793F5F51F52
:105AB0002312B5008280035505006D8D3335A0009B
:105AC000828013F7F50F85461583B397B6006313ED
:105AD000D7020357C500F98F035705000145420758
