:100000006F40305F13000000130000001300000079
:100010001300000013000000130000001300000094
:100020001300000013000000130000001300000084
:08003000130000007300100032
:100038000000000000000000A8020000AC02000060
:1000480000000000384D0000000000000000000023
:100058003A4D00003C4D0000000000000000000088
:100068003E4D000000000000404D00000000000070
:10007800424D0000444D0000464D0000484D000030
:100088004A4D00004C4D00000C0400002004000004
:10009800360400005E040000A8040000584D00006B
:1000A8005A4D00005C4D00005E4D0000604D0000A0
:1000B800624D0000644D0000664D0000684D000070
:1000C8006A4D00006C4D00006E4D0000EA0400000F
:1000D800724D00000C060000764D0000784D0000BF
:1000E800AE060000C8060000EE060000804D0000C5
:1000F800824D0000844D0000864D0000884D0000B0
:100108008A4D0000B0020000DA020000040300007B
:100118008A050000944D0000964D0000984D00009F
:100128007A0700009C4D00009E4D0000A04D000085
:10013800A24D0000A44D000014070000A84D0000C7
:100148002E030000580300003A070000540700007F
:10015800B24D0000B44D0000B64D0000B84D00008F
:10016800BA4D0000BC4D0000BE4D0000C04D00005F
:10017800C24D0000C44D0000C64D0000065B0000E3
:10018800CA4D0000CC4D0000EC0300007A030000CB
:10019800A4030000CE030000D64D000006080000AE
:1001A800DA4D0000DC4D0000DE4D00000A080000BA
:1001B800E24D0000E44D0000E64D0000E84D00006F
:1001C800EA4D0000EC4D0000EE4D0000F04D00003F
:1001D8000000000000000000000000000000000017
:1001E8000000000000000000000000000000000007
:0801F8000000000000000000FF
:100200003D432A876373C3029377F700BDEFADE5E3
:10021000937606FF3D8ABA960CC34CC30CC74CC7F5
:100220004107E36BD7FE11E28280B306C3408A0622
:100230009702000096966780A6002307B700A306E2
:10024000B7002306B700A305B7002305B700A30432
:10025000B7002304B700A303B7002303B700A3022A
:10026000B7002302B700A301B7002301B700A30022
:10027000B7002300B700828093F5F50F93968500B1
:10028000D58D93960501D58D61B79396270097027A
:10029000000096968682E78086FA9680C1171D8FA9
:1002A0003E96E374C3F8A5B7730020307300203086
:1002B000411122C637440140930550521305048072
:1002C000EF50007719C59305505213050480EF5085
:1002D000607A3244410173002030411122C6374414
:1002E00000409305505213050440EF50607419C547
:1002F0009305505213050440EF50C077324441013A
:1003000073002030411122C63754004093055052EB
:1003100013050480EF50C07119C5930550521305A1
:100320000480EF50207532444101730020304111A8
:1003300022C63754004093055052130504C0EF50B5
:10034000206F19C593055052130504C0EF508072F9
:10035000324441017300203093055052375500401C
:10036000EF50006D09C9EF106012930550523755D8
:100370000040EF50207073002030411122C6372416
:1003800000409305505213050480EF50606A19C570
:100390009305505213050480EF50C06D3244410163
:1003A00073002030411122C637240040930550527B
:1003B000130504C0EF50C06719C5930550521305CB
:1003C00004C0EF50206B324441017300203093058C
:1003D000505237250040EF50A06519C59305505283
:1003E00037250040EF50006973002030B7070550F3
:1003F00003C70701118B09CB03C707011377B70F99
:100400002388E700EF10800E730020300545EF4091
:10041000303B85476314F500EF40703C730020309B
:100420000945EF40F03985476315F5000945EF4070
:10043000103B730020301145EF4090388547631E14
:10044000F50083A701871305800C850723A8F18693
:10045000EF1010031145EF40903873002030411128
:10046000214522C6EF40D0358547631BF5022A841B
:100470001305800CEF10D0002145EF405036B767D0
:10048000002037A60000238107B81306862AB76725
:100490000020D1451305800CA38187B8EF0090316F
:1004A00032444101730020304111414522C6EF40E2
:1004B000303185476317F5022A844145EF403032D9
:1004C000B767002037A60000238187B81306062BE4
:1004D000B7670020D1451305800CA38187B8EF00D2
:1004E000702D324441017300203041111305000288
:1004F00022C6EF40F02C85476319F5022A841305C4
:10050000800CEF10E07723A281861305800CB7677B
:1005100000209946054693058007238307B8EF001E
:10052000902D13050002EF40902B13050004EF40BF
:10053000302985476316F50013050004EF40302A83
:1005400013050008EF40D02785476316F500130513
:100550000008EF40D02813050010EF4070268547B3
:100560006316F50013050010EF40702713050020F7
:10057000EF40102585476316F50013050020EF4076
:100580001026324441017300203041111305004010
:1005900022C6EF40F02285476316F50013050040A0
:1005A000EF40F023056413050480EF407021854778
:1005B0006316F50013050480EF4070220565EF40D7
:1005C000302085476315F5000565EF40502109652A
:1005D000EF40101F85476315F5000965EF40302097
:1005E0001165EF40F01D85476315F5001165EF407B
:1005F000101F2165EF40D01C85476315F50021656C
:10060000EF40F01D324441017300203041114EC0D3
:10061000B73901408545138509C022C626C44AC2A0
:10062000EF50402A35CD83A74194850723A2F1944A
:10063000EF108052B767002023AEA7E89307401F52
:1006400063F9A70403A9418885476314F904B767D0
:1006500000208545138509C023AC07E8EF504028EA
:1006600083A7418863952701894723A2F18803A6C0
:1006700041949D46930500051305800CEF00B017CB
:10068000373501408145130505C0EF50801323A67F
:100690000186373501408545130505C0EF504024DC
:1006A0003244A244124982494101730020308545F9
:1006B00037050040EF50002111C585453705004042
:1006C000EF50002273002030411122C63704004051
:1006D000854513050440EF50E01E11C585451305FF
:1006E0000440EF50E01F32444101730020304111BB
:1006F00022C637140040854513050480EF50801C46
:1007000011C5854513050480EF50801D3244410119
:1007100073002030411122C637140040854513056F
:1007200004C0EF50201A11C58545130504C0EF50D1
:10073000201B3244410173002030854537150040AD
:10074000EF50401811C5854537150040EF5040194E
:1007500073002030411122C637140040854513052F
:100760000440EF50201611C5854513050440EF5095
:1007700020173244410173002030373501404111C8
:1007800085451305054022C626C4EF50A01325C594
:1007900083A741880947FD176368F70483A781850C
:1007A00013848185858BA9EFB767002003C727B81D
:1007B000BE8419E3EF30905203C724B88547631411
:1007C000F700EF3030531C40194785071CC0639D6C
:1007D000E70037350140814513050540EF40707E45
:1007E000EF30104E232004003735014085451305B6
:1007F0000540EF50E00E3244A24441017300203026
:10080000EF30104CC9B77300203085453755014093
:10081000EF50400B11C5854537550140EF50400C56
:1008200073002030B7670020238807D83971A38E62
:10083000018AB767002006DE238307B822DC26DAA8
:100840004AD84ED652D456D25AD05ECE62CC66CA60
:10085000EF303029EF406006EF00900BEF102021C1
:1008600037A600001306862B81450145EF008074F2
:1008700037A600001306062CD1450145EF00807312
:10088000F16593061006B7670020130600069385EE
:100890000520154523AC07E8EF2040640146854557
:1008A0001545EF202030EF00904613054006EF106D
:1008B000203DB7670020238807B8B7670020238250
:1008C00007B8B7670020A38A07B6414693052004FE
:1008D00011453764002023A20194A30104B8EF104E
:1008E000A06A4146930530042145EF10E069414676
:1008F000930540044145EF1020694146930550049B
:1009000013050002EF104068834734B86388071866
:100910001305C012EF10C036EF30903A1305C01225
:10092000EF1000360145EF30D02F1305803EEF1059
:1009300020350D45EF30F02E1305803EEF1040348A
:10094000EF301038A30104B80964930584B501455C
:10095000FD22930544960545DD221305C012376438
:100960000020EF10E031B76B0020B76C0020B70912
:100970000020130444BD938481869C408DEBEF10CE
:10098000A01D23AEABE89307C01263E2A7029C4010
:1009900099EF83AA41888547639BFA003735014068
:1009A0008545130505C0EF40D06123A0540183C7DE
:1009B000C18899C713854CEA23860188EF309001DE
:1009C00013854935EF30B03A814813088007130783
:1009D00080079307C00B9306C00B138649358145EA
:1009E0000145EF00606703A6018A9946814513051A
:1009F000800CEF0040608347A4051306E00599468C
:100A00001D8E930580021305800CEF00C05EEF4041
:100A1000600783A6018A9947639FF60881450145CF
:100A2000392A81450545212AB7A500009385852CE3
:100A30001545EF20C014130580700564EF104024A5
:100A4000930584380145E528930544190545C528D3
:100A50001305401FEF10C022930544190545C5201A
:100A600081450145E9281305A00FEF10602113050A
:100A7000A00FEF10E020930584380145C9209305AD
:100A8000441905456D281305401FEF10601F81456F
:100A900001457520814505455D2001A013054006EF
:100AA000EF10001E03A6018789469305C0031305B6
:100AB000800C912391BDB767002003A507BD36C602
:100AC000EF800020B24637B60020B7B500201306ED
:100AD000466E9385856CEF40400571BD411106C699
:100AE00022C415E537C40200A1460146930504F26D
:100AF00013053020EF10B034A1460146930504F2EF
:100B0000130520202244B24041016F105033854725
:100B10006313F50237C4020081460146930504F2CF
:100B200013051010EF10B03181460146930504F211
:100B300013050010C1BFB24022444101828001115F
:100B40004AC84EC6AA8903A5018A26CA06CE22CC67
:100B5000994783A64188938441886304F5028547B9
:100B60006381F60283A701871307A00F3387E7028B
:100B70006359B700130760F0B387E702BE95C2055B
:100B8000C1818967938787642E8463F3B7003E84AD
:100B900042048D4741801387C1876314F500854760
:100BA0001CC31C4399CB4DE985071CC31843CD4793
:100BB00063D5E700054723A2E186938701880D46A8
:100BC00098436310C50A050798C38D476396F60AD4
:100BD000938781889843050798C398408547631792
:100BE000F70283A74187850723AAF1869306F004BD
:100BF00063DEF60083A6C18691EA23A6E186B707E5
:100C00000020938787189843050798C303A7018A94
:100C100089476313F70883C7D18B8546F91793F784
:100C2000F70F63FBF60683A70186BDC7056493052E
:100C3000441913053020EF1060569305042C13055A
:100C40001010EF10A0556244F240D2444249B2491C
:100C5000794505616F10C0020546E359F6F4FD17AA
:100C6000A9B7130640066345E60023A00700B1BFFD
:100C7000054723ACE18691BF9547E310F5F693F75E
:100C8000D6FFA1FF37350140850685451305054090
:100C900094C0EF40103391B763990902A285130500
:100CA0003020EF10A04F930540061305800C9946A5
:100CB000228691268145130520206244F240D244C9
:100CC0004249B24905616F10604D8547639EF9083E
:100CD0009147631BF706814513053020EF10004C48
:100CE000814513051010EF10604B8145130530202E
:100CF000EF10C04A8564938584BB13052020EF1054
:100D0000E049938584BB13051010EF1020498145FD
:100D100013050010EF1080481305E01FEF00507618
:100D2000814513053020EF106047814513051010F1
:100D3000EF10C046814513052020EF102046814565
:100D400013050010EF108045A28513051010EF1059
:100D5000E044930580071305800C99462286612C98
:100D600081451305001091BFF2406244D2444249CC
:100D7000B249056182804111AD6722C403A447973F
:100D800026C24AC006C6C14404C844C813090008A4
:100D9000232A2401AA850545EF10504A232824015F
:100DA00004C844C8B24022449244024941018280AE
:100DB00083A78180011122CC26CA4AC84EC606CE1E
:100DC000AA89AE8432893684A1EF1305A002653763
:100DD00093854903C205C1810545EF10F04793058E
:100DE0004903C205C1810545EF1010471305B00244
:100DF000593793858402C205C1810545EF10D0455E
:100E000093058402C2050545C181EF10F044624498
:100E1000F240D2444249B2491305C0020561A1BF64
:100E20000547639FE7001305A002B1379385590377
:100E3000C205C1810545EF1030429305590355B7EE
:100E40009309850213098602C2094209094793D909
:100E50000901135909011305A0026398E702213F14
:100E6000CE850545EF10503FCA850545EF10D03EB1
:100E70001305B002093793855403C205C1810545A6
:100E8000EF10903D93055403B5BFF535CE8505456C
:100E9000EF10903CCA850545EF10103C1305B002D9
:100EA000D93D93854403C205C1810545EF10D03A71
:100EB0009305440381BF03C6E18083C6F1804111DD
:100EC00022C43304D602FD167D16C2064206C18234
:100ED00041828145014526C206C6D93D11E4B24092
:100EE000224492444101828083D5418005457D148E
:100EF000EF109036E5B723A4A18085461387E180E3
:100F00009387F18063EAA600930670F82300D70068
:100F100041572380E7008280C1562300D700130782
:100F200070F8C5BF79714ECEA96793097500120696
:100F300093878737C20922D44AD056CA5AC85EC698
:100F400062C466C206D626D252CCAA8AAE8B3304BD
:100F5000F600014993D90901414BB3862B01C20622
:100F6000C1824E86B6855685A135034A04E0A14468
:100F700093771A008DCF83D5C180FD14054593F476
:100F8000F40FEF10702D135A1A00FDF00509050437
:100F9000E31569FDB250225492540259F249624A53
:100FA000D24A424BB24B224C924C4561828083D54F
:100FB0004180E1B7011122CC26CA4AC84EC606CEEE
:100FC0002A89AE89B2840144B3878400038607006E
:100FD00001EAF2406244D2444249B249056182804A
:100FE000131534004A9542050504CE85418142041B
:100FF000153F4180D1BF797122D426D24AD0AA842C
:101000002E8932849305000213861600480836C6DE
:1010100006D602CA02CC02CEEFF08F9EB246A5479A
:1010200063F9D702A2854808EF0040675008CA85D7
:1010300026854937B2502254925402594561828024
:10104000B387E702FD1693F6F60FFDFA3364F40258
:10105000D1BF85472947D5BF397162CC6AC8368C64
:10106000328D9306F8FF1386F7FFAE962A96C206D6
:10107000420656D2C1824182C16A26DA4AD84ED689
:1010800052D466CA6EC606DE22DC5AD05ECEBA8D57
:101090003E8A4289C68C8149213B8144FD1A63E125
:1010A0002403F2506254D2544259B259225A925AED
:1010B000025BF24B624CD24C424DB24D21618280B8
:1010C00033D42903814B014B330484036A94636551
:1010D0004B018504EE99E1B7B3D74B03A29783C7C1
:1010E000070063920C02C207C18393D5370089833E
:1010F0001397B5009607D98FDD8D0545EF10D015F4
:10110000050BE29BE9B7D685E3E9FCFE8145F5B71F
:1011100003A8C18341111307F00F81479306F00F15
:101120001306200293050002054506C622C426C206
:101130004AC0EF109000C146014685451305700670
:10114000EF00706DC1460146854513057002EF0042
:10115000906CC1460146854513054006EF00B06B13
:101160008545C146054613050006EF00D06A138485
:101170008180084013090008BD3BAD6783A4C79672
:101180001305800C23AA2401EF00902F13054006BD
:1011900023A82401EF00D02E13056003E93E1305B8
:1011A0004006EF00F02D1C40814589CF054793058F
:1011B000000C6389E7000947930500076384E70093
:1011C0009305000A0545EF1070071305A003EFF023
:1011D0009FBA95450545EF1070061305200BEFF0FB
:1011E0009FB9B1450545EF107005B1450545EF10B4
:1011F000F00481450545EF10700493053003054563
:10120000EF10D003930530030545EF1030031305AD
:10121000700BEFF05FB6930550030545EF10100219
:101220001305B00BEFF03FB5930570030545EF10C4
:10123000F0001305000CEFF01FB49305C002054544
:10124000EF10C07F1305200CEFF0FFB28545054578
:10125000EF10C07E1305300CEFF0FFB1C945054516
:10126000EF10C07D1305400CEFF0FFB093050002B6
:101270000545EF10A07C1305600CEFF0DFAFBD4516
:101280000545EF10A07B1305000DEFF0DFAE9305D1
:10129000400A0545EF10807A9305100A0545EF10C6
:1012A000E0791305000EEFF01FAD9305000D054525
:1012B000EF10C07891450545EF104078B5450545DC
:1012C000EF10C077C5450545EF104077CD45054582
:1012D000EF10C0769305B0020545EF102076930518
:1012E000F0030545EF108075930540050545EF10A7
:1012F000E0749305C0040545EF104074E1450545D1
:10130000EF10C073B5450545EF104073AD45054579
:10131000EF10C072FD450545EF1040729305300295
:101320000545EF10A0711305100EEFF0DFA4930533
:10133000000D0545EF10807091450545EF100070D8
:10134000B1450545EF10806FC5450545EF10006FAD
:10135000CD450545EF10806E9305C0020545EF10A1
:10136000E06D9305F0030545EF10406D93054004D3
:101370000545EF10A06C930510050545EF10006CB6
:101380009305F0020545EF10606BFD450545EF1034
:10139000E06AFD450545EF10606A930500020545CA
:1013A000EF10C069930530020545EF102069130561
:1013B0001002EFF05F9C4545EFF0FF9B130580079F
:1013C000EF00100C13059002EFF0FF9A2244B24098
:1013D0009244024941016FF01FAE797126D24ECE80
:1013E00052CCB70400207D7A22D456CA5AC806D6F9
:1013F0004AD0938404000144130A5A1A7D5B9389EE
:10140000018983D7040011466C0013978700A183DC
:10141000D98F1145231641012317F1001309000844
:10142000EF10E0729387418983C7070013874189D2
:1014300093F7F70FA1C36313090039C483C71900D9
:101440002300070003C72900A2070504D98F42041F
:101450002391F4004180A5479104E314F4FA014577
:10146000B250225492540259F249624AD24A424B33
:10147000456182807D19420913590941E30F69FBD7
:101480000545EF00E07F79BF0545D9BF411122C472
:1014900083C7318926C293850189BE95114506C649
:1014A000EF10807D938401899387318911C503C72B
:1014B000070005072380E70083C607000547639FF1
:1014C000E60083C604001307500A6384E600238005
:1014D0000700B24022449244410182800D46E39AC3
:1014E000C6FE23800700238AE188E5B7B7B700204E
:1014F00003A7476CB7070550854698C72386D18850
:1015000003C70700136717002380E70082808965FF
:10151000397193061005130600059385055811458A
:1015200006DE22DC26DA4AD84ED652D4EF10101B43
:10153000014685451145EF10E066EF0010449387A2
:10154000418923800700513D05C1B7A600002966E7
:101550009386862E1306462D9305B01237A50000FC
:101560001305C52EEF70900913844189B70400203C
:10157000230004009384440223000400138984029E
:10158000930950FA83D7040011466C08A30EF100AA
:1015900083D724001145230E310113978700A183BF
:1015A000D98F231FF100EF10805A09459104EF00F5
:1015B000206DE39924FD930410088347040093F7FA
:1015C000F70F89E7FD14C204C18085EC23000400F5
:1015D0009304000813890189130AF00FFD5983470A
:1015E000190003472900F98F6391470385E8B7A6DF
:1015F000000029669386862E1306462D9305201338
:10160000B1BF0545EF00C0674DBFFD14C204C184E2
:10161000E38F34FD0545EF00A066D1B72300040039
:101620006D3B19C9B7A6000029669386862E13065E
:10163000462D930590131DB7EF00503491473EC4DB
:1016400095473EC299473EC0930890021308800216
:10165000930760021307B0049306900413068004F6
:10166000A9452545EF00207B376500201966130743
:1016700045EAB7B70020130545EA854613060682FA
:10168000814523A2E76CEF005005F2506254D2541A
:101690004259B259225A01452161828063DB05001B
:1016A0009307D0022300F500050541118147A946A3
:1016B0003DA0E5FD930700032300F5008280180894
:1016C00013881700BA9733E7D502B3C5D50213566E
:1016D000F741318F118F2388E7FE9377F80FE5F1FB
:1016E0008A86B6976394F6004101828003C7F7FFAC
:1016F0000505FD1713070703A30FE5FEE5B779718D
:1017000022D44AD04ECE52CC56CA06D626D28347D1
:1017100015003704004081452306F100834705008A
:101720001309C100130AF100A306F1008347250045
:1017300013050440130404402307F100EF40801612
:101740008965938AC55193894513A144834709004C
:10175000FD14CE85B3D79740858B91E3D6851305CD
:101760001020EF00B023054691452285EF4000117F
:1017700085452285EF40601365DD01469145228550
:10178000EF40C00F85452285EF40E012814522855C
:10179000EF404011C5FC0509E3192AFBB250225461
:1017A00092540259F249624AD24A45618280B7C5D1
:1017B0000200011181460146938505F213051020B0
:1017C00006CE2316010023070100EF0050673705FE
:1017D0000040894513050540EF40A0086800053723
:1017E0001305400695216800193FF240056182808B
:1017F000411185451305B00606C6EF00900F8545DB
:101800001305C006EF00F00E01459D298145130523
:10181000C006EF00100E0145A521B2408145130519
:10182000B00641016F00F00C411181451305B0066F
:1018300006C6EF00100C81451305C006EF00700BC3
:1018400001453D2985451305B006EF00900A014585
:1018500005291305C0068545EF00B009B2400145D2
:10186000410139A9411122C426C206C6AA842544D1
:101870007D141374F40F0DEC81451305B006EF00D1
:1018800050070145F52E85451305B006EF0070069B
:101890000145FD261305C006EF00100839C5224496
:1018A000B240924485451305B00641016F007004B3
:1018B00093978401E187854563C30700814513053C
:1018C000C006EF0010030145652E85451305B006DF
:1018D000EF00300201456D26860481451305B006F0
:1018E00093F4F40FEF00F00061B71305B0068145E3
:1018F000EF0030002244B24092440145410149A624
:10190000411106C622C426C22E84B2844AC02A8946
:10191000C53513052005B9370145A9371375F90FEA
:101920009137A294639884002244B24092440249C1
:101930004101DDBD05040345F4FF2D37E5B7411135
:1019400081454AC02A891305B00606C622C426C2AC
:10195000EF00207A01452D2685451305C006EF00CE
:101960004079A14401440145212E81451305B0066B
:10197000EF0020780145292685451305B006EF00C4
:1019800040770145F52C06041305C0061374F40FC7
:10199000EF00807801C505041374F40FFD1493F46F
:1019A000F40FF1F081451305B006EF008074014596
:1019B000C12C81451305B006EF00A0730145C92471
:1019C00081456313090085451305C006EF00607269
:1019D00085451305B006EF00C071014555248145CA
:1019E0001305B006EF00E0700145592C2285B24086
:1019F00022449244024941018280011106CE22CC48
:101A000026CA2A844AC852C432892E8A4EC6EFF0AA
:101A10003FDE13052005EFF0FFE40145EFF09FE402
:101A20001375F40FEFF01FE4EFF09FDC13053005A2
:101A30009304F9FFEFF01FE30144B3349000636BAC
:101A400024016244F240D2444249B249224A05612B
:101A50006FF09FDDB3098A0005456393840001455B
:101A6000F93D05042380A9001374F40FC9BF7971EF
:101A700093064031054685451305B00606D626D2A5
:101A80004ECE52CC56CA22D44AD07123930640314E
:101A9000054685451305C0069969617AAD2BAD44AD
:101AA000B70A002093890950130A0A7013067008B8
:101AB0009385CA040545EFF0BFE409466C001305A1
:101AC000E00523163101EFF0BFE309466C00130572
:101AD000100623164101EFF0BFE205466C00130526
:101AE0000003213F05466C00130510030344C100A9
:101AF0002937054571220349C1001180FD141344A3
:101B0000F4FF93F4F40F05881379190081E837A5E1
:101B1000000013058534EF70905601A013054006B0
:101B20008522E31524F9930710026C00054613057E
:101B300060082306F100EFF0BFDC37A500001305B5
:101B40000536EF70D053B250225492540259F249E4
:101B5000624AD24A456182800111854705466C0080
:101B6000130560082306F10006CEEFF07FD91305B8
:101B7000900805469305B100EFF03FE80347B10038
:101B800093079008130580576318F702130560093F
:101B900009466C0023160100EFF03FE60345C10043
:101BA0008347D10022053E95130585FD9307805795
:101BB00063F4A70013058057F24005618280B717D0
:101BC0000240DC4337177A0013070720C983BD8B17
:101BD000B387E7023727F40013070740F165930640
:101BE000100213060002938505200945BA9723AC1D
:101BF000F1886F10A02E011126CAB754004022CCE4
:101C00004AC84EC606CEAE89328901449384048008
:101C1000634A2401F24062444A85D2444249B249AF
:101C200005618280930500042685EF30B05F7DD981
:101C3000B38789008385070026850504C205C18115
:101C4000EF30B05DF1B7828083A7C18337177A0088
:101C500013070720B3D7E702814601473385A70260
:101C6000B7F700E023A0070094C7D8C7054798C37B
:101C7000B7F600E09846DC4699E3E37DE5FE828016
:101C800083A7C1830967130707F4B3D7E702814627
:101C900001473385A702B7F700E023A0070094C7E8
:101CA000D8C7054798C3B7F600E09846DC4699E3E5
:101CB000E37DE5FE828009E5814601468145A1AECE
:101CC0000547E30BE5FE0947E308E5FE0D47E3059D
:101CD000E5FE1147E302E5FE1547E30FE5FC194772
:101CE000E30CE5FC1D47E309E5FC21476318E5002B
:101CF00081460146814513050002D1B72547631887
:101D0000E500814601468145130510024DBF294774
:101D10006318E5008146014681451305000445B777
:101D20002D476318E50081460146814513051004DF
:101D300079B731476318E5008146014681451305AF
:101D40002004B5BF35476318E5008146014681454B
:101D500013053004ADB739476318E50081460146E5
:101D6000814513054004A1BF3D476318E500814646
:101D7000014681451305500499B78280797122D4B8
:101D800085452A841305002006D626D2EF30005D53
:101D90002285153703A78189B7C70105938707D027
:101DA000316563E3E700216537240140EF302047C8
:101DB00013050440EF30000DB7070E003EC68A85BC
:101DC000854713050440230AF10002C002C202C481
:101DD00002C8EF30800F854513050440EF306014D2
:101DE00013050440EF30E014930404402685EF30DF
:101DF000E0146DFD1305044037240140EF308014DA
:101E0000130404402285EF3080146DFDB25022543B
:101E100092544561828079714ECE52CC56CA328A34
:101E2000AE8AB689014693068004814506D622D43F
:101E300026D24AD046C042C23EC43AC683440103B9
:101E40000349410303448103F92256859306800424
:101E500001468145C9225285930680040146814589
:101E60005D2A4E8593068004014681456D223247E6
:101E70009306800401463A858145712AA24793065C
:101E8000800401463E8581457922124893068004EC
:101E900001464285814541228248930680040146DD
:101EA000468581458D2A4A859306800401468145F1
:101EB0009D2226859306800401468145A92A228514
:101EC0002254B25092540259F249624AD24A9306BD
:101ED00080040146814545613DAA011122CC26CAF4
:101EE0002E84AA848545096506CE32C636C4EF30F5
:101EF0000045B707055003C70700130560058D456A
:101F00001377F70C2380E70003C707001367270444
:101F10002380E70003C717001377970FA380E7001C
:101F2000A24632462392D7002393C70084C7C0C776
:101F300003C717001377F703A380E70003C7170051
:101F40001377F70FA380E70003C717001367070194
:101F5000A380E70003C72700136747002381E7003A
:101F600003C7170013671700A380E70003C7070024
:101F7000136717002380E700DD2A6244F240D24451
:101F800013056005056155AA011122CC05452E8473
:101F9000854506CE26CA4AC802C0328902C202C49A
:101FA00002C6EF30A03B930680040546814522859A
:101FB0009D209374F40113555400A6851375F50FF5
:101FC000EF30A0178547339797000A853AC002C2C1
:101FD0004AC43EC6EF20307859459DC49377E4014A
:101FE0005D459DC38947614563F0970271886545EA
:101FF00001CC9147694563F99700A5471305700225
:1020000063F49700130580030D2AF2406244D24422
:102010004249056182809307F00F630BF50C7971DB
:1020200022D41354550026D24AD04ECE52CC06D6D6
:102030001D889374F5003689328AAE8935E085456E
:102040001145EF30A0318547B3949700C204C18099
:10205000231291006399F90093170901C183A183A9
:1020600091E38D473EC4AD67938787960A043E94FB
:1020700000401379F90F4C0022854AC6EF20D07634
:1020800085476397F9005286A6852285EF30E001E7
:10209000B250225492540259F249624A45618280F8
:1020A00085476315F4008545214561BF8947631560
:1020B000F4008545414571B78D476316F4008545A9
:1020C00013050002BDBF91476316F4008545130553
:1020D000000485BF95476316F40085451305000885
:1020E0008DB79947E311F4F685451305001091BFAC
:1020F00082809357550013972700AD679387879683
:10210000BA9798439377F50005453315F50099C1C3
:1021100008CB828048CB8280135735009376C70165
:102120002D671307879636971C4398478547339545
:10213000A700798D3335A00082809357550005475D
:10214000938707043315A7008A0737E700E0BA979B
:1021500088C3828093575500054793870706331538
:10216000A7008A0737E700E0BA9788C38280B7E7FD
:1021700000E03E952300B54082808280828001117C
:102180002304A100280006CEA304B1002305C1004A
:1021900036C6EF20507DF24005618280935785005E
:1021A0002D67130787988A07BA9798430D890A0500
:1021B0008357C7023A95B385F502896793870771FC
:1021C000B3D5F502C205C1814CD9828001E99306DD
:1021D00080310146854521456FF0FFE3854763184F
:1021E000F50093068031014685452545F5B78947B9
:1021F0006318F50093068031014685452945E9BFFE
:102200008D476318F50093068031014685452D45BD
:10221000E1B7C1476319F500930680310146854552
:102220001305900855BFC5476319F5009306803123
:10223000014685451305B00845B7C9476319F50040
:1022400093068031014685451305D00871B7CD4707
:102250006319F50093068031014685451305E008B2
:10226000A5BF930700106318F5009306803101465F
:102270008545014595B7930710106318F50093063F
:10228000803101468545054581BF930720106318BD
:10229000F5009306803101468545094535BF930712
:1022A00030106318F50093068031014685450D45D1
:1022B00025B7930700116318F50093068031014696
:1022C00085453D4511BF930710116319F50093062D
:1022D00080310146854513053002FDBD930720116D
:1022E0006319F50093068031014685451305A00268
:1022F000E5B5930730116319F50093068031014667
:1023000085451305B002C9BD930700206318F50089
:10231000930680310146854519457DBD9307102000
:102320006318F50093068031014685451D456DB55E
:10233000930720206319F5009306803101468545F7
:102340001305000251BD930730206319F500930671
:1023500080310146854513051002BDBD930700215C
:102360006319F50093068031014685451305600425
:10237000A5B5930710216319F50093068031014636
:1023800085451305700489BD930720216319F50065
:1023900093068031014685451305800435BD9307BA
:1023A00030216319F50093068031014685451305F8
:1023B00090041DB5930700226319F5009306803140
:1023C000014685451305400201BD9307102263199C
:1023D000F500930680310146854513055002EDBB9B
:1023E000930700306319F500930680310146854557
:1023F00013056002D5B3930710306319F5009306F7
:1024000080310146854513057002F9B393072030EA
:102410006319F50093068031014685451305800256
:1024200065BB930730306319F50093068031014690
:102430008545130590024DB3930700316319F500EC
:1024400093068031014685451305C00671B3930795
:1024500010316319F5009306803101468545130557
:10246000D0069DBB930720316319F5009306803198
:10247000014685451305E00685B39307303163199E
:10248000F50093068031014685451305F006A9B392
:1024900093070040E30BF5DC93071040E301F5DE02
:1024A00093072040E307F5DE93073040E30DF5DEA8
:1024B00093070070E308F5EA93071070E30FF5EA5D
:1024C00093072070E306F5EC93073070E30DF5EC0D
:1024D00093070071E30AF5F093071071E301F5F239
:1024E00093072071E308F5F2930730716319F50043
:1024F00093068031014685451305D004F1B9930751
:102500000580E38807D8856713871780E30DE5D832
:10251000138727806318E5009306803101468545BF
:1025200011455DB9938737806319F50093068031B3
:10253000014685451305400445B18567138707812A
:102540006319E50093068031014685451305900621
:1025500061B1138717816319E50093068031014645
:1025600085451305B0068DB913872781E305E5EE90
:1025700013873781E307E5F013870790E30CE5E85D
:1025800013871790E303E5EA138727906319E500A3
:1025900093068031014685451305300435B913870C
:1025A00037906319E5009306803101468545130590
:1025B000B0041DB1138707916319E50093068031BC
:1025C000014685451305100601B9938717916319D4
:1025D000F500930680310146854513053006EDBEB2
:1025E0008567138727916319E500930680310146BB
:1025F000854513055006CDB6138737916319E5005D
:10260000930680310146854513057006F1B61387A0
:102610000792E30EE5CA13871792E301E5DA138701
:102620002792E308E5DA938737926319F50093065A
:102630008031014685451305F00479BE82803971E9
:1026400006DE22DC26DA2A844AD84ED62EC632C4CA
:102650003689EFF0BFB7B24583A7C18322469359AD
:10266000840033D7B7024E85418393061700B386A3
:10267000B602B3D7D70293940701C180B384C402D2
:10268000096613060671FD1793950701C181B3D43E
:10269000C4023A86DD2E85450545EF20304C935720
:1026A00044000547C204C1806394E706370516005D
:1026B00085451305050CEF20F01FC1672D67938733
:1026C000070613952900130787983EC83A95937714
:1026D0003400231B9100231C0100231E0100004134
:1026E000E9E70C082285EF20906085452285EF30D0
:1026F000000FCA852285EF30401122858545EF30D5
:10270000400CF2506254D2544259B2592161828035
:1027100045476398E70037051800854513050530E0
:1027200059BF130710026398E70037151A00854553
:10273000130505C049B7130720026398E700371552
:102740001A00854513050580BDB71307100363956F
:10275000E7008545056585B7130710076399E7000E
:10276000370701405C4F93E747005CCFB9B71307C9
:1027700010086398E700370701405C4F93E70701B3
:10278000EDB7130710096398E700370701405C4F66
:1027900093E70704D9BF13072009E390E7F237074F
:1027A00001405C4F93E70702C9B70547639FE70005
:1027B0000C082285EF20B05D22858545EF30200290
:1027C000CA852285EF3080050DBF09470C08228598
:1027D000639DE700EF20706822858545EF3020007B
:1027E000CA852285EF30200509BFEF20B07322850E
:1027F0008545EF20D07ECA852285EF30E004F5BD07
:10280000411122C426C24AC006C6AE84328436892B
:1028100021E993068031054685451545EFF0AFFF68
:1028200089476393F40893068031054685451D4525
:10283000EFF06FFE8547631DF40A9306803105466D
:1028400081451945EFF02FFD2244B24092444A855C
:102850000249930600310146854541016FF0AFFB07
:10286000C1476319F5009306803105468545130578
:1028700030026DB7930700026319F50093068031AB
:10288000054685451305D00251BF93070003E30CAD
:10289000F5FC93070004E315F5F89306803105462F
:1028A00085451305A0049DBFC9476399F4009306AD
:1028B000803105468545130550029DBF93072002D0
:1028C0006399F40093068031054685451305F002AF
:1028D00085B793072003E38CF4FC93072004E39B64
:1028E000F4F493068031054685451305C00489B785
:1028F000C5476319F40093068031054681451305E9
:10290000400289B7930710026319F40093068031DF
:10291000054681451305E00235B793071004631996
:10292000F40093068031054681451305B00419BFB4
:1029300093071003E31AF4F07DBF397122DC26DA25
:102940004AD84ED652D456D25AD006DE2A842E8980
:10295000328AB68A3A8BBE84C28951E505658545BF
:102960000505EF20B01FDA865686D2854A85EFF03E
:102970003FE9B70704013EC6231801008547638875
:10298000F408C9C009476389E4088D466389D408FF
:1029900093070020231BF1009D47231EF100AD6724
:1029A0009387C7970A043E9400408E096C002285E5
:1029B000231C3101231D0100EF20F01FC1476315C7
:1029C000F90685450545EF20E06E22858545EF2017
:1029D0003024F2506254D2544259B259225A925A77
:1029E000025B2161828085476318F500854511658A
:1029F0000505EF20901885BF8947E316F5F6854554
:102A00002165FDB723190100231A010051B72319CD
:102A10000100231A9100ADBF23199100F5B72319C6
:102A2000E100231AF100ADB793070004E31FF9F8A2
:102A30003715200085451305051071B7AD670A05E8
:102A40009387C797AA9798432316B70083578700A1
:102A500093F70708E5FF8280AD670A059387C7975C
:102A6000AA979C4313D785002396E70003D78700D6
:102A70001377070865FF93F5F50F2396B70003D783
:102A800087001377070865FF8280011122CC26CAD0
:102A90004AC806CE2A842E89B28401E90565854597
:102AA00013050580EF20900B39A08547631EF502C2
:102AB0008545EF20900CAD67938787980A043E9474
:102AC00008404C002314210123129100231501001A
:102AD0002313010023060100EF207015F240624429
:102AE000D2444249056182808947E303F5FC8D4762
:102AF0006315F500854511456DBF91476315F500D8
:102B0000854521457DB79D476315F50085450965D8
:102B100051BFA1476316F50085453705080059B731
:102B2000A547E31AF5F8854537051000A5BFAD6741
:102B30000A059387879AAA9798438357070093F7C4
:102B40000708E5DFC205C1812312B7008280411169
:102B500022C426C24AC006C62A892E84B384C50070
:102B600063189400B2402244924402494101828099
:102B700005048345F4FF4A85EFF07FFBD5B741118B
:102B800022C426C206C6AA842E848345040091E589
:102B9000B240224492444101828026850504EFF030
:102BA0001FF9E5B7411122C426C206C64AC02A84CD
:102BB000AE841DEEAD67131725009387879A2E8686
:102BC000BA97930550528843EF20D0619387418490
:102BD0003E9403450400B7E700E0AA97238007402E
:102BE0008DC42244B2409244024941016FF0EFD4B7
:102BF00085476313F602AD67131725009387879AFD
:102C00002E86BA97930570727DBF2244B2409244DB
:102C1000024941016FF00FD489476319F604AD678B
:102C2000131725009387879ABA9703A907000546CB
:102C3000930550524A85EF20F05A13045403A68698
:102C4000228501468145EFF08FD34A8505469305DD
:102C50007072EF20305922852244B2400249A68684
:102C600092440546814541016FF06FD1B240224444
:102C70009244024941018280AD670A059387879A91
:102C8000AA9798438357070093F7070299C783577A
:102C9000470005452380F50082800145828041116F
:102CA00006C60DE185476398F522E14601462545B4
:102CB000EFF06FB69146014681452945B24041018A
:102CC0006FF06FB58947631FF500E1460146854502
:102CD00013056002EFF02FB49146014681451305BC
:102CE0007002E9BFC147631DF500E1460146854515
:102CF0000945EFF04FB29146014681450D457DBF34
:102D0000C947631FF500E146014685451305500696
:102D1000EFF06FB09146014681451305600679BF1B
:102D200093070002631FF500E14601468545130540
:102D3000A002EFF04FAE9146014681451305B00267
:102D4000B5BF93072002631FF500E14601468545A4
:102D50001305A004EFF02FAC914601468145130501
:102D6000B004A9BF930740026310F502E146014693
:102D7000854513058006EFF00FAA930680040146EF
:102D80008145130590061DBF93070004E30FF5FA74
:102D900093072004631FF500E146014685451305AE
:102DA0000002EFF04FA7914601468145130510023E
:102DB00031B793070005631FF500E14601468545DD
:102DC0001305C004EFF02FA5914601468145130578
:102DD0002006EDB593072005631FF500E146014687
:102DE000854513058008EFF00FA391460146814504
:102DF00013059008E1B5930700066310F502E1465C
:102E00000146854513050004EFF0EFA0930680040A
:102E1000014681451305100455B593072006631F2D
:102E2000F500E146014685451305A008EFF0AF9E89
:102E30009146014681451305B00849B5930700073F
:102E4000631FF500E1460146854513052004EFF0B8
:102E50008F9C9146014681451305300485B5930743
:102E600020076317F500E146014685451945C5B7BA
:102E700093074007631FF500E146014685451305AA
:102E8000C008EFF04F999146014681451305D008DF
:102E900035B593070008631FF500E14601468545F7
:102EA00013054004EFF02F97914601468145130525
:102EB000500429B593072008631FF500E146014639
:102EC00085451305E008EFF00F95914601468145D1
:102ED0001305F008E5B3B24041018280797122D434
:102EE0004ECE2A84AE890545854526D24AD006D6DF
:102EF000B2843689EF2080468947639FF4048D476A
:102F00006316F90085451145EF20C01A631C0412B1
:102F100085451165EF208044CA852685EFF03FD8AE
:102F2000B7070C003EC4AD679387879A0A043E94A6
:102F300000408A854EC0228502C223160100EF2080
:102F4000101B22858545EF203028B2502254925420
:102F50000259F24945618280C9476398F400CD4720
:102F6000E316F9FA8545214545B793072002639B8F
:102F7000F40093073002E31BF9F837051400854588
:102F8000410559B793074002639CF4009307500230
:102F9000E31EF9F637051400854513050503ADB7A3
:102FA000930720046399F40093073004E310F9F6C3
:102FB0008545056591BF93072005639BF400930742
:102FC0003005E315F9F437052000854505052DBFCB
:102FD00093072006639CF40093073006E318F9F288
:102FE0003715008085451305058039BF93072007F5
:102FF000639EF40093073007E31AF9F037070140A6
:103000005C4FB7064000D58F5CCF09B793074007E8
:10301000639CF40093075007E31AF9EE3707014069
:103020005C4FB7068000C5B793072008E390F4EE25
:1030300093073008E31CF9EC370701405C4FB706F3
:103040000002D1B785476318F400854537050200B3
:10305000EF20A032D1B589476316F40085453705C6
:103060000400FDB78D476316F40085453705080059
:10307000C5B791476316F400854537051000C9BFF1
:1030800095476316F400854513050004D1B79947A9
:103090006316F4008545130500085DBF9D47E31DD9
:1030A000F4E685451305001065B73971B7B7000020
:1030B00062CC66CA03AC879C83ACC79C26DA52D428
:1030C00056D25ECE6AC8014A814AB76B002022DC24
:1030D0004AD84ED65AD06EC606DE5289D689130417
:1030E000300293848194130BE005938B4BBD138DB9
:1030F000C18C930D6005B307940083C707006398E4
:103100006701B307A40183C70700638A6703628668
:10311000E6864A85CE85EF30C022B3878B002A89A8
:1031200003C50700AE893305AB40EF40F04B2A865C
:10313000AE865285D685EF30C0202A8AAE8A050435
:10314000E31BB4FB5285D6854A86CE86EF307012DB
:10315000B76C00202A8AAE8A014B814B13043002DF
:10316000130CE005938C4CBD138DC18C930D600541
:10317000B387840083C7070063988701B307A4015E
:1031800083C7070063848703B3878C0003C50700E8
:103190003305AC403305A502EF4010452A86AE86C4
:1031A0005A85DE85EF30E0192A8BAE8B0504E311DA
:1031B000B4FD4A86CE865A85DE85EF30900B2A8490
:1031C000AE845286D6865285D685EF30107C2A860C
:1031D000AE862285A685EF40C046B7B7000003A69D
:1031E000079D83A6479DEF301064F250625413454B
:1031F000F5FFD2544259B259225A925A025BF24B0D
:10320000624CD24C424DB24D7D8121618280397138
:103210004ED6B70900201387493506DE22DC26DAB0
:103220004AD852D456D25AD05ECE62CC66CA9305E2
:10323000C70B8146938949351305C00B7D58930808
:10324000B0039307700721A0FD17638D0701338634
:10325000A7023A960346060065FA938747FC63E3A4
:10326000F80085060507E31EB7FC9307300B0545FC
:1032700063CED70AB7B7000083AB879D83AAC79DEB
:103280001389C18C130470079384C18C034579079B
:10329000130BF4FF7D19EF40503C2AC40345790716
:1032A0002EC6EF40903B2246B246EF1020275E86A6
:1032B000D686EF305057634805081307B4FF9307CD
:1032C000700363E8E708B387840003C90700930726
:1032D000D00563F0270993878194A29783C7F700ED
:1032E000ADEBCA99014B930CC00B7D5C130A5400E3
:1032F000B3079A03CE9783C70700A1EB5285EF402F
:10330000B02E2AC422852EC6EF40102E2246B24689
:10331000EF10C0205E86D686EF30D05B6347A002F8
:10332000050B7D19FD19E31389FD0945F25062541F
:10333000D2544259B259225A925A025BF24B624C11
:10334000D24C216182805A8491B77D1AE3128AFBA4
:10335000C9BF9307B0030145E3DA87FCA29483C693
:10336000040093073006E3F3D7FC938781943E94DF
:1033700083475400C5FF9307C00B3307F7021306BA
:10338000C00B8147B386E700CE9683C6060091E264
:1033900005058507E398C7FE1325A50A1345150003
:1033A00071B7B7660020938646BD03C7A60593078D
:1033B000E00563F5E7049387C18C03C7A7051306EF
:1033C000B00B631CC70203C6C7056318E60203C738
:1033D000E7056314C70283C787056390E702138775
:1033E00081940346A70503475707998FB297B29771
:1033F0000947B3C7E702238DF6048280E30FF7FE87
:10340000138781940346C7058347A705D18F0346D9
:10341000E70503478705D18FD98FE5F31387C18C63
:103420000346A70583475707B307F640C9B703A666
:10343000418C4111B7670020B766002006C622C440
:1034400026C2238607C4A38006B84D476351C7042C
:103450003706002013062637014881488145794503
:10346000130EC00BFD5E130F7009130770072DA01C
:103470001378F50F9375F70F854805050506E316D4
:10348000E5FF63860800A380B6B8238607C5054418
:1034900025A07D17E303D7FF3303C703329303430C
:1034A0000300E31803FEE355B7FC63860800A3801E
:1034B000B6B8238607C5014403C5C7C4B7B4000026
:1034C000EF40B01903A6049E83A6449EEF100005AA
:1034D000B7B7000003A6879E83A6C79EEF30903F34
:1034E000634FA000014519E4B76700200547238812
:1034F000E7B80545B240224492444101828001452B
:10350000D5BFB767002083C707B9638A071E397123
:1035100006DE22DC26DA4AD84ED652D456D25AD00B
:103520005ECE62CC66CA6AC86EC6631F050E37647B
:103530000020034514B8B7640020376A0020EF402C
:10354000D011B7B700002A86AE8603A5079F83A5D2
:10355000479FB70B0020EF00707C2A8903C5C4C4C5
:10356000AE89930D7007EF40500FB7B700002A8661
:10357000AE8603A5879F83A5C79F130A4ABD138BF9
:103580008194EF00B0792A86AE864A85CE85EF30E9
:10359000404E034D14B883CAC4C42A89AE896A84D4
:1035A0009384C18C938B4B3563F18D02F25062543E
:1035B000D2544259B259225A925A025BF24B624C8F
:1035C000D24C424DB24D216182803305A441EF407F
:1035D000B0014A86CE86EF30C0492A8C5685AE8C23
:1035E000EF4090002A86AE866285E685EF20705512
:1035F000EF40007933076401034707000948B30728
:1036000094002A97334707032380A7009308C00B31
:10361000B30744012380E700B30714030504DE97D2
:10362000AA972380070049B78547E311F5F8376467
:103630000020034514B8B7640020376A0020EF402B
:10364000D001B7B700002A86AE8603A5079F83A5E1
:10365000479FB70B0020EF00706C2A8903C5C4C4D4
:10366000AE89130D7007EF40407F01468146EF00A1
:10367000F06A2A86AE864A85CE85EF30803F834A3F
:1036800014B883CDC4C42A89AE89568493848194A6
:10369000130A4ABD138BC18C938B4B35E3688DF0B5
:1036A0006E85EF4060742A8C33055441AE8CEF4038
:1036B000A0734A86CE86EF30C03B2A86AE866285EE
:1036C000E685EF301078EF40A06B330764010347C5
:1036D00007000948B30794002A973347070323805C
:1036E000A7009308C00BB30744012380E700B3078A
:1036F00014030504DE97AA972380070045B782804C
:10370000B767002003C707B985476318F704B705F3
:103710000020130780021305C00B9385453513085D
:10372000B00BB94813035006B307A7020146814600
:10373000AE9783CE070003CE170085066383CE01C4
:1037400005068507E39706FF63C7C8000507E31D65
:1037500067FC01458280054582808280411126C236
:1037600083C7D18B06C622C4A9E3EFF05FCC39C171
:1037700003C7C18B8947631FF70283A7C185A5EBE8
:1037800003A7818B09E71307500623ACE18AB767CB
:10379000002003C527B8EFF0DFD6154723A0E18A44
:1037A00003A7C1858547630BF706B24022449244C4
:1037B0004101828083A7C1859DEB3767002083C7C5
:1037C000D18B034767B8D98F9DE303A5418CB767B9
:1037D0000020938747B9AA9783C5F7FFF52A01C947
:1037E000094723A0E18A8547A38EF18A55BFEFF0F0
:1037F0001FA221C983C7C18B89466384D70403A64E
:10380000418621C2631ED50037670020834707D950
:1038100085072308F7D8854723AEF184254739A8C3
:103820008546E31FD5F6B766002083C606D9ADDA14
:103830008507238EF18A23AE0184114723A0E18AF4
:10384000ADB7EFF0FFEB09C983A741886356F000DD
:10385000994723A0F18AA9B7EFF03F8519C18547A1
:10386000CDBF23A0018A2DBF5D71B7B70000A2C4F0
:103870005AD85ED603AB07A183AB47A113848194CA
:10388000A6C2CAC04EDE56DA62D466D286C652DC02
:103890006AD06ECEAA842A9405499309A5FFA94A45
:1038A000514CF94C63543907034AF4FF63000A1280
:1038B0008347D4FFB307FA40950763E9FA108347BB
:1038C000B4FFB307FA40A9076362FC10834794FF73
:1038D000B307FA40BD0763EBFC0E03453400EF402D
:1038E000C0572AC452852EC6EF4020572246B24602
:1038F000EF00D0425A86DE86EF30E0726348050C56
:10390000B3872441376700202300F7B8938B64FF07
:1039100063467901B7670020238007B8B7B7000076
:1039200003AA07A183AA47A11384C18C2694054B3F
:10393000130CB00BA94C514DF94D63543B0703498F
:10394000F4FF630889098347D4FFB307F94095075B
:1039500063E1FC088347B4FFB307F940A907636A32
:10396000FD06834794FFB307F940BD0763E3FD06F7
:1039700003453400EF40604E2AC44A852EC6EF400E
:10398000C04D2246B246EF0070395286D686EF30DF
:10399000806963400504B3846441B7670020238ACB
:1039A00097E863467B01B7670020238A07E8B640A3
:1039B000264496440649F259625AD25A425BB25B97
:1039C000225C925C025DF24D6161828005097D148A
:1039D000D1BD050B7D1495B7CD4763DEA70AB707A8
:1039E0000020370600209387F740130646358146AE
:1039F0001308C00B9308C0037D531307700721A061
:103A00007D17630D6700330507033E9503450500E9
:103A100065F91305E7FCE3E5A8FE85061387F7FFC4
:103A20006384C700BA87D1BF9307300B63C5D7063D
:103A300001112E8506CE22CC26CA37640020EFF075
:103A4000BFE2034544E9B7640020EF4000412AC4C7
:103A500003C504B82EC6EF4040402246B246EF00F0
:103A6000F02BB7B7000003A607A083A647A0EF304E
:103A70006066634CA00003C704B8CD4763F7E70056
:103A8000034744E9054563E3E7000145F24062442A
:103A9000D24405618280014582801D7162DC86CE40
:103AA000A2CCA6CACAC8CEC6D2C4D6C2DAC05EDE0E
:103AB00066DA6AD86ED62ACC79472E8C6347B7046B
:103AC000138781942E97834607001307800263664D
:103AD000D7020547130500056319E622F640664440
:103AE000D6444649B649264A964A064BF25B625C82
:103AF000D25C425DB25D2561828065476347B70055
:103B0000094713058007E30BE6FC05476317E6202A
:103B1000B7B6000083A786A003A8C6A001498149C3
:103B2000938C8194E29C814D4A8ACE8A4A8BCE8BBB
:103B30004A84CE8401473EC442C603C51C00330DEF
:103B4000EC403ACEEF4060312AC803C50C002ECAC3
:103B5000EF40A0304246D246EF00501C2246B2460B
:103B6000EF30604C72476348050C850D050795479B
:103B7000FD1CE314F7FC3305B741EF40E0262A8D26
:103B8000AE8D2A86AE862285A685EF20906E2A8489
:103B9000AE846A86EE865A85DE85EF20906D2A8B8C
:103BA000AE8B2286A6866A85EE85EF30005E5A8649
:103BB000DE862A8DAE8DEF30405D2A86AE86528538
:103BC000D685EF3010282A8AAE8A2286A6866A8594
:103BD000EE85EF30805B2A86AE864A85CE85EF3053
:103BE00050262A86AE865285D685EF2090680146FB
:103BF0008146EF2000752A896245AE89EF40C01EDC
:103C00004A86CE86EF3060582A8AAE8A4A86CE86A9
:103C10002285A685EF3060572A86AE865A85DE85D6
:103C2000EF3030222A86AE865285D685EF2060712D
:103C3000EF40001565B56A853ACEEF40E01A2A8656
:103C4000AE862285A685EF20C06F2A843305AD039A
:103C5000AE84EF4060192A86AE864A85CE85EF2075
:103C6000406E83C80C002A89AE89468546C8EF405D
:103C7000A0172A86AE865A85DE85EF20806CC24862
:103C80002A8BAE8B3385A803EF4000162A86AE86BA
:103C90005285D685EF20E06A2A8AAE8A7247F9B546
:103CA0006A853ACEEF4040142A86AE862285A685E4
:103CB000EF2020692A843305AD03AE84EF40C012A3
:103CC0002A86AE864A85CE85EF20A06783C80C0081
:103CD0002A89AE89468546C8EF4000112A86AE86FD
:103CE0005A85DE85EF20E065C2482A8BAE8B33858E
:103CF000A803EF40600F2A86AE865285D685EF2056
:103D000040642A8AAE8A7247BDA065476347B70000
:103D1000094713058007E303E6DCB7B6000083A775
:103D200086A003A8C6A001498149938CC18CE29C5E
:103D3000814D4A8ACE8A4A8BCE8B4A84CE840147F3
:103D40003EC442C603C51C00330DEC403ACEEF40E2
:103D5000C0102AC803C50C002ECAEF40001042460E
:103D6000D246EF00A07B2246B246EF30C02B72470E
:103D7000E34805F2850D05079547FD1CE314F7FCA4
:103D8000DDBB7971B76700204AD03769002022D4A3
:103D9000034749E903C407B826D206D64ECE52CC13
:103DA00056CA5AC85EC6BE84635387003A84376ACF
:103DB0000020B70A0020130B7007130A4ABD930BAB
:103DC000C00B938A4A35635D8B00B25022549254E3
:103DD0000259F249624AD24A424BB24B4561828053
:103DE00083C504B805462285F915EFF01FCB83453E
:103DF00049E9AA8909462285F915EFF01FCA3387D8
:103E0000A90089463347D702B30744012380E7005E
:103E1000B30774030504D697BE9923800900AA97B7
:103E2000238007004DB7011122CC83C7D18B06CE6A
:103E300026CA4AC84EC6E9C703A7018185479384AD
:103E40000181631AF70283A7418C376700201307AB
:103E500047B9BA9703C5F7FFEFF01FA103C7B190A9
:103E60009307300B63E7E70003C77198A94763E442
:103E7000E700EFF01FF183C7D18B0547639AE70690
:103E80009840631FF70603A7418C954763CAE7066E
:103E9000894723A00400A38EF18AEFF00FA13335E8
:103EA000A00083C7D18B090523A0A18A8D49638512
:103EB000370303A5418CB7670020938747B9AA97BA
:103EC00083C5F7FFEFF05FB11DC585479CC08947EB
:103ED000A38E318B23A0F18A03A7418C854763C150
:103EE000E702376700202303F7B8A38E018A09A8E9
:103EF0000947E384E7FA03C7D18B8D47E30EF7FC4C
:103F0000F2406244D2444249B24905618280B766B8
:103F100000208147938646D9130700103386D700C7
:103F2000230006008507E39BE7FE996793870782D6
:103F3000AA971308C00B01473306E50003460600A5
:103F4000050736968345060085052300B600E31570
:103F500007FF1305C50BE390A7FE82801D7137672D
:103F60000020D6C286CEA2CCA6CACAC8CEC6D2C4AB
:103F7000DAC05EDE62DC66DA6AD86ED68146930A03
:103F800047D99305001033865601034606009397E0
:103F90000601C1870DCE9306F00F1308F00F63885A
:103FA000D7009306E00F1308E00F6397D702F6409F
:103FB0006644D6444649B649264A964A064BF25BC1
:103FC000625CD25C425DB25D42852561828085067D
:103FD000E39BB6FA930700103E89BE86014C130698
:103FE000F00F93950601C185635EB60EBE86014A49
:103FF0009305F00F13960601418663DCC50EB7B634
:10400000000083AD86A103ADC6A10148814C814962
:10401000930EE00FE3CDFEF8B3862A0103C4060039
:1040200042CE3ECCA299330489024E85EF30F06235
:104030002A8B6285AE8BEF3050622AC433053C4137
:104040002EC6A29CEF30505A2AC866852ECAEF3081
:10405000D0605A86DE86EF20D0212A8433059A412B
:10406000AE84EF3070584246D246EF2090202A8628
:10407000AE862285A685EF30C05C2246B2462A84F1
:10408000AE845A85DE85EF20D01E2A8BAE8B224669
:10409000B2464245D245EF20D01D2A86AE865A85CB
:1040A000DE85EF30800E2286A686EF30000E228657
:1040B000A686EF30800D2A86AE86AA842E846E8571
:1040C000EA85EF302001E2477248930EE00F635615
:1040D000050013F8F70FA68D228D8507C207C1874B
:1040E00005090DBFB385DA0083C5050085062E9C42
:1040F000CDBD3386DA00034606003306D6028506B8
:10410000329ACDBDB767002083C8C7B737070020F4
:1041100099651307473501461303C00B9385058244
:104120003308C5008147B306F80083C60600330E86
:10413000F7008507B3B61601FD162300DE00E394F1
:1041400067FE1306C60B1307C70BE31BB6FC828082
:10415000B705002085461305C00B9385453513032D
:10416000F00F130ED01F930EE01F7D5F1308B00BEE
:1041700093087007B387A6020546AE9703C71700DA
:1041800005061DE783CFD70B03C757F47E9783CF70
:1041900027007E9783CF07007E9763D4EE00A3802D
:1041A000E7018507E31C06FD8506E39516FD828081
:1041B000E31967FE83CFD70B03C757F47E9783CFEE
:1041C00027007E9783CF07007E97E34CEEFCA38009
:1041D0000700C1BF411106C622C42A84EFF03FD3B5
:1041E000EFF0DFD7B7670020238EA7B62285EFF068
:1041F0007FF12244B24041016FF09FF58547631A79
:10420000F5009306003105468545130520086FD05B
:104210009FE089476319F5009306003105468545FF
:1042200013053008EDB782800565397185451305A2
:10423000058006DE22DC26DAEF104012930790029A
:1042400085442314F100280085472305F10026C684
:10425000EF007071373401409307F0083ECC2C0812
:104260009307C031130504C03ECE23000102EF10B6
:10427000001C0546130504C08545EF10A057130523
:1042800004C08145EF10E05385450965EF10000D2E
:104290009307C00308082318F1002309910026CAD8
:1042A000EF00706C9307F0593ED289679387F770DF
:1042B0004C10130504403ED423060102EF102017D2
:1042C0000546130504408545EF10C0521305044010
:1042D0008145EF10004FED22F2506254D25421611B
:1042E0008280411106C6EFD09F8DEFD0DF9501454A
:1042F000EFC0CFFE0545EFC06FFE054551280945CB
:1043000041280D4571201145612015455120194561
:1043100041200945EFD09FA60D45EFD03FA611459E
:10432000EFD0DFA51545EFD07FA51945EFD01FA52C
:104330000545EFF0BFEC0945EFF05FECEFD02FC77C
:10434000F122EFD09FE31305B00B23AC018AEF40BD
:10435000F030B767002023A6A7B81307850AAA87FD
:1043600023A007009107E39DE7FE91471CC18D47FD
:1043700005472324F50AB240894758C15CD178C16A
:104380007CD12322E5082322F50A41016FF0DFE901
:10439000411122C406C685472A846314F502930698
:1043A00080340546814513050004EFD0DFC69947E8
:1043B0006315F406930680340546814513055004C1
:1043C00025A089476319F500930680340546814589
:1043D00013051004D9BF8D47631DF5009306803483
:1043E00005468145130520042244B24041016FD0A7
:1043F0009FC291476319F5009306803405468145B5
:1044000013053004D5B79547E313F5FA93068034C6
:104410000546814513054004C1BFB2402244410115
:104420008280411106C622C401ED13854182EFD07E
:104430000FAD138541822244B24041016FD02FACB1
:1044400085476319F5001385C182EFD04FAB138503
:10445000C182D5B789476319F50013858182EFD0F2
:104460000FAA13858182C1BF91476319F500138597
:104470004181EFD0CFA81385418175BF8D47631966
:10448000F5001385C181EFD08FA71385C18165B772
:1044900095476319F50013858181EFD04FA61385E9
:1044A000818151BF99476319F50013850182EFD0CF
:1044B0000FA51385018241B7B24022444101828099
:1044C000411122C41385C18906C6EFD04FA31385BD
:1044D000C1892244B24041016FD06FA241111385BE
:1044E000C18906C6EFD0AFA1B2401385C182410198
:1044F0006FD0EFA041111385C18206C6EFD02FA067
:10450000B2401385C18941016FD06F9F930680042B
:10451000054681451305A0066FD0FFAF011122CCDF
:1045200026CA4AC84EC652C456C206CE3289B68979
:104530002A8AAE8AEF30E010014681462A84AE8492
:10454000EF205039635A05005286D6864A85CE85BB
:10455000EF30200F2A84AE842285F2406244A68583
:104560004249D244B249224A924A05618280757119
:104570008547EECE376E0020AA8D37650020238454
:10458000F18CA30FFEB6A382F19C930745BD3ED6E6
:104590009387C18CDAD83ECC138B81949387819416
:1045A00037B600003ECE8327069D22C5B7660020A1
:1045B000B7620020B76E00201307700726C34AC1F8
:1045C000CEDED2DCD6DADED6E2D4E6D2EAD006C738
:1045D000238A06B823A2018C23A002EA23A0019C0F
:1045E00023A0018CA38E0EB62382E19C7ED076D2CE
:1045F00072C81AD446CA0328469D15663ED893074A
:10460000267C3EDC938746B9930445BD938AC18CD2
:10461000130A70079E8B168CFA8C42DA1309F00F7E
:104620009309B00B054D3EDE93077007631AFA1825
:1046300095679387177C3386FD009306E005034555
:1046400016009385F6FF631B2515034506006317C7
:104650000514F247A38BD706E2579306E00533868D
:10466000FD000345060093851600631125150345DB
:104670001600631D0512E247A38BD70683C67A078F
:104680009307E00583457B076380F60A638EF50890
:10469000894763E6B7029307700B63F2D7021306EC
:1046A000CAFE9307A00563ECC70003A6418CF2572E
:1046B0003305F60005062300450123A2C18C639D46
:1046C000051C6387360103260CEA05062320CCEA85
:1046D0009307500763CA470503C68A07FD5733850A
:1046E000C6406351F502C24703C5F7B7631CA50175
:1046F000631A3601925713061A00A38EC7B6C24733
:10470000A38F07B603468B073385C540635EAD00B4
:10471000D24703C5519C6319A50119E6A25723820C
:10472000419DD247A382019CAE968586A38BD40679
:104730007D1AFD14FD1A7D1BE3180AEEEFF00F82BF
:10474000EFF06FEE83A6018A05476394E600EFE081
:104750005FC5B70600201305C00B938646351306C8
:104760007007B25733874701834507003307AA0212
:10477000050A36972E9723000700E314CAFEBA40B5
:104780002A449A440A49F659665AD65A465BB65B99
:10479000265C965C065DF64D496182807D16AE868C
:1047A000E39F05E8F247A38B07067DB50506AE86B5
:1047B000E39935EBE2471307B0FBA38BE7067DBD1A
:1047C00003C58A07EF3060692AC403458B072EC6EC
:1047D000EF30A0682A86AE86AAC4AEC62245B2458E
:1047E000EF20306601468146AAC0AEC2EF20900E8F
:1047F000064796472648B648635A05002246B24601
:104800004285C685EF20F0632A87AE874256D2568E
:104810003A85BE85EF203001634905069307C00B3A
:104820003306FA0283C68407B6856E968DC1B30837
:10483000B60083C808001385F5FF639E2803B308FC
:10484000A60083C8080063980802A30BBB06930761
:10485000A00BE3C5D7E23305D600034505009385D9
:104860001600631E25013305B6000345050001E966
:10487000A38BDA0621B5A30B0B06AA8545BF9307C8
:10488000B0FBA38BFA06AE86D9B79307E005A38BDE
:10489000FA06A30BFB06DDB3E39C36E303C6818C6B
:1048A0006317A60182572384018C23A0418D03A6A0
:1048B000019C050623A0C19C21BD376700209307FA
:1048C00007C5F9462328D7C494D70967930610046F
:1048D0009308B004930587B594D38566130607F44F
:1048E00023A81701CCCF23A01705938506779388BB
:1048F000C6579386E628D0C723A6170513060005DA
:10490000F4CF51451308400B1303C7D4930680021C
:1049100093087008B4DB88C723A2070090CF23AAAE
:10492000070023A20702CCD723AC070323AA070260
:1049300090DB23AE670223A4070423A2070423AC61
:10494000070423AA070423A8170523A4070723A203
:104950000706B0D3ECD7A8DF23AA0706ECDF93063F
:10496000800C23A4D708130787CEB14623A2D7080B
:1049700023A6E7089306000037B7002023A0C70846
:104980002324D76C9307876C37B70020D4C394C710
:10499000D4C794CB9307476ED4C394C7D4C794CBE2
:1049A0002322D76E8280797106D622D426D24AD0AD
:1049B0004ECE52CC2E894CC14C452A844A85B284B5
:1049C000EF302050B7670020938707C59204BE944C
:1049D000AA8948C48844EF40A02E0C442A8A4A85FC
:1049E000EF30106AAA855285EF3090402A8A8840BD
:1049F000EF40002DCA85EF30B03FAA855285EF30D9
:104A0000404C2A8AC840EF40A02BCE85EF30503E64
:104A1000B7B7000083A507A2EF305001AA855285E1
:104A2000EF30204AC44408C82AC62685EF404029F2
:104A3000B245EF300049B7B7000083A547A2EF3079
:104A4000102A63490500096513050571058DEF40BE
:104A5000202708C833059040EF408026AA850848E3
:104A6000EF3050306345A000930700001CC823249A
:104A700024010848B250225492540259F249624A21
:104A800045618280011122CC37640020130444BDAB
:104A90000345A40526CA9304E0053385A44006CE49
:104AA0004AC84EC6EF304034B7B7000003A687A20D
:104AB00083A6C7A2EF20606D2A8903456404AE89EE
:104AC0003385A440EF304032B7B7000003A607A3F8
:104AD00083A647A3EF20606B2A86AE864A85CE85E3
:104AE000EF1030062A8903451404AE893385A440AB
:104AF000EF30802FB7B7000003A687A383A6C7A314
:104B0000EF20A0682A86AE864A85CE85EF10700316
:104B1000EF300027F2406244B767002023A8A7BC0B
:104B2000D2444249B24905618280397106DE22DCF5
:104B300026DA4AD84ED652D456D25AD05ECE62CC5D
:104B4000A5476398F6020564930544320145EFB02A
:104B50001FFF930544196254F250D2544259B2597E
:104B6000225A925A025BF24B624C054521616FB0AA
:104B70001FFD3764002085472A892E8BB2891304D4
:104B800004C5639EF60483A78187B1CB83A74186C2
:104B9000B9E70325C408EF40A012B70500802146FD
:104BA000AA84B3C525015A85EFF0FFDFAA852685C3
:104BB000EF302031EF40600B93150501C1810145B5
:104BC000EFB0FFF70325C408EF40800F2A84214689
:104BD000CA854E85EFF03FDDAA852285C9A003A7CF
:104BE000418805463E8C6304C70C139A4600B30700
:104BF0004401C44781476356E6009387B6FFB33745
:104C0000F0001306C0AEB387C702814ABE9403C644
:104C1000C18BBE8B19C2932A2700B7050080368648
:104C2000B3C525015A8536C6EFF0FFD72AC4130550
:104C3000A0AB3385AA0252942695EF406008A245A6
:104C4000EF302028EF40600293150501C181014536
:104C5000EFB0FFEE03A74188054640448147B246C6
:104C60006356E6009387B6FFB337F0001306C0AE75
:104C7000B387C70281443E9483C7C18B99C39324F1
:104C80002700CA8536864E85EFF0FFD12AC413056A
:104C9000E0B13385A4022295EF408002A245EF30B7
:104CA0004022EF30907C93150501C1816DB5954789
:104CB0006384F6046854896793874796B7B40020E5
:104CC00023A0F46EEF30D07F19462A8ACA854E851C
:104CD000EFF07FCDAA855285EF30A01EEF30D07265
:104CE00083D5046E37B40020232EA46C0145EFB0A9
:104CF0001FE58355C46D85B5684CEF30707CB705F2
:104D000000801546AA84B3C525015A85EFF0BFC9B6
:104D1000AA852685EF30E01AEF303075931505012E
:104D2000C1810145EFB0BFE1684CEF3070792A8452
:104D3000154679BD01A001A001A001A001A001A01C
:104D400001A001A001A001A001A001A001A001A05B
:104D500001A001A001A001A001A001A001A001A04B
:104D600001A001A001A001A001A001A001A001A03B
:104D700001A001A001A001A001A001A001A001A02B
:104D800001A001A001A001A001A001A001A001A01B
:104D900001A001A001A001A001A001A001A001A00B
:104DA00001A001A001A001A001A001A001A001A0FB
:104DB00001A001A001A001A001A001A001A001A0EB
:104DC00001A001A001A001A001A001A001A001A0DB
:104DD00001A001A001A001A001A001A001A001A0CB
:104DE00001A001A001A001A001A001A001A001A0BB
:104DF00001A07390123497C1FF1F938121B917B19D
:104E0000002013012120176500001305650797B5E1
:104E1000FF1F9385251F1386818563FAC5008322B2
:104E2000050023A0550011059105E3EAC5FE138591
:104E30008185977500209385E5A26377B5002320CF
:104E400005001105E36DB5FEFD42739002BCFD4205
:104E500073904280B78200009382828873A00230F0
:104E600097B2FFFF9382821D93E23200739052301B
:104E7000EF10003B97C2FFFF9382029B73901234A6
:104E8000730020304111B727014006C693870740C1
:104E9000631CF500854513050020FD298145130598
:104EA0000020B2404101CDA9B73701409387078068
:104EB000631AF500854513050040F929814513055E
:104EC0000040C5B7B240410182805C413707F1E044
:104ED0001307F7EF944D7D8F9C41D58FD44DD58F1F
:104EE000D441A206D58FD98F5CC11C4537F7F1FF9D
:104EF0001307D77FD4457D8F9C49D58F944586066F
:104F0000D58FD98F1CC55C55370710FF7D177D8F56
:104F100083C74501FD1793F7F70FD207D98F5CD5EB
:104F200082801C4589C593E717001CC58280F99BC8
:104F3000EDBF1C4593E787001CC5828008450D81A5
:104F4000058982801C4593E747001CC5828008457F
:104F50000981058982805841032805004C453706A0
:104F60000140930706403E979346F8FFB1C583255D
:104F70000640F58D2320B640D043F18ED4C31443B0
:104F8000B3E6060114C3184190479346F7FF758EA8
:104F900090C7D047F18ED4C7144541466399C600E7
:104FA0009447D98E94C7D447558FD8C78280B69777
:104FB0009443558F98C382801C43F58F1CC3828015
:104FC000B70701401387074083A70740584B698FF5
:104FD00009C77D8D3335A000828001458280B707E7
:104FE000014023AAA74082809C4513F7070113F8CC
:104FF000F70001C7D8413368E80083D5050013F7EF
:10500000F50F39C318418146854E3D4F930F8002FD
:1050100093028004214E3396DE00B3F8C50063117D
:1050200016039398260033131F011343F3FF3377BE
:10503000E300B318180133E7E800639FF70550C990
:105040008506E39AC6FD18C11307F00F6375B70410
:1050500054412146854E3D4F930F800293028004B8
:10506000414EB398CE0033F715016392E80213174F
:10507000260001173313EF001343F3FFB376D30079
:105080003317E800D98E639DF701232A1501050621
:10509000E319C6FD54C18280E39457FA10C94DB795
:1050A000E39757FE23281501DDB719C20CC982808A
:1050B0004CC98280B707014063550504D44FB70738
:1050C0003000131705013376F5004183631DF602A6
:1050D000370600F17D1637080140B3F7C600832676
:1050E0004800758E2322C80099C593565501920633
:1050F0003317D700D98F37070140635E05025CCFB5
:105100008280D4436DBF9317B50063D007029357D5
:10511000050113F6F7008D47B397C70093C7F7FF54
:10512000F58FB706000FD58FC1B79357550192077A
:10513000B317F700E5B75CC3828013F7C50F93F789
:105140003500B7050140BA9594458A073D473317A6
:10515000F7001347F7FF758F98C598453315F5008D
:10516000598D88C582809387418A944303470500FF
:1051700089E683472500920731A894430546639149
:10518000C604834725000346150092076314D60022
:1051900093E707F8B7E600E093F7F70FBA96238096
:1051A000F6408546935757003397E6005441ADC605
:1051B000938707048A07B7E600E0B69798C3828012
:1051C0008C4389466393D5028346150083472500A7
:1051D0006365D6008A06B69779BF9386E6038A068A
:1051E000B69793F7F70F920765B790438D46631E06
:1051F000D60083461500834725006364D6008606E3
:10520000D9BF9386C6078606E1BF94439147E39AC8
:10521000F6F88347150085B79387070661BFB71671
:105220000240DC4251777D17F98F5D8DC8C28280C4
:10523000371702405C439146B18B6385D700A14686
:105240006386D706B7177A00938707201CC13716E5
:1052500002405C42370700201307470D9183BD8B46
:10526000BA9783C607001C41B3D7D7005CC154422C
:10527000A1829D8ABA9683C60600B3D6D70014C50C
:105280005442AD829D8A369703470700B3D7E700A3
:105290005CC558423983937637001387018336976C
:1052A00003470700B3D7E7021CC982805C4354431D
:1052B0004167C983F98E37F7FF1F0327C770BD8B7E
:1052C0008907131617016348060045460147639294
:1052D000C702C94739A809476389E7023D47638880
:1052E000E70241476388E702454601476393C700E9
:1052F000C14785E6B746024083A60680C18A8DC6AF
:10530000B7167A009386062025A00147D9B705472E
:10531000B547C5B70147BD47E9BFB7160240D442FC
:105320001396E600E35E06FCB7163D0093860690F2
:10533000B387D7021CC101DF1C41858301BF99C51A
:10534000371702405C4B5D8D48CB8280B717024017
:10535000D84B1345F5FF798DC8CB828099C5371797
:1053600002401C4F5D8D08CF8280B7170240984FD6
:105370001345F5FF798D88CF828099C53717024094
:105380005C4F5D8D48CF8280B7170240D84F1345E0
:10539000F5FF798DC8CF828099C5371702405C47E9
:1053A0005D8D48C78280B7170240D8471345F5FF87
:1053B000798DC8C78280035705008D6793870704DE
:1053C00083D625007D8F83D70500D58F83D64500F2
:1053D000D58F83D66500D58F83D68500D58F83D6AC
:1053E000A500D58F83D6C500D58F83D6E500D58F90
:1053F000D98F2310F5000357C501FD779387F77FF9
:10540000F98F231EF50083D705012318F50082804C
:105410008357050091C593E707042310F5008280A8
:10542000C207C18393F7F7FBC207C183FDB7835758
:10543000050037370140930607C0C207C1836300E8
:10544000D504B7060040630CD50293860640630876
:10545000D502B7160040138606806302C502938604
:1054600006C0630ED50013070740630AE5003757EF
:105470000140930607C06304D5006317E50003D716
:10548000250093F7F7F8D98F37170040630DE50033
:10549000130707406309E50093F7F7CF03D76500CB
:1054A000C207C183D98F2310F50083D74500231687
:1054B000F50283D705002314F502B737014013879F
:1054C00007C0630EE50093870740630AF500B757EE
:1054D0000140138707C06304E5006316F50083C726
:1054E00085002318F5028547231AF500828083572B
:1054F000050203D6050003D82500C207C183F99B26
:10550000C207C1832310F502835705028356450065
:1055100003578501C207C183420741831377C7F848
:10552000518F03D68500F59BC20633660601D18FE5
:1055300037360140130806C0C182630E0501130609
:105540000640630AC50037560140130806C06304CD
:1055500005016313C50203D6A500DD9B03D8E50052
:10556000D18F03D64500ED9B93F6F6CFD18F03D6AE
:10557000C50033660601D18E2312D500231CE50039
:1055800003D76500231AE5022310F50282808357B2
:10559000050265771307F7CFC207C183BD9BC2071A
:1055A000C1832310F502835705028356450003D8B3
:1055B0008500C2071396060183568501C18393F7C0
:1055C000F7FD758F83D605004182A206558F83D6DD
:1055D000250042074183B3E606019206D58FB73610
:1055E0000140C207138806C0C183630E050193867C
:1055F0000640630AD500B7560140138806C063040D
:1056000005016311D50483D6A50093F7F7F703D8F6
:10561000C5009206D58F83D64500C207C183920686
:1056200093F7F7FBD58FFD769386F63FF18E03D681
:10563000E500C207C183336606010A06D18E1396C0
:10564000060141822312C500231CE50003D7650033
:10565000231CE5022310F50282808357050203D83C
:105660008500C207C18393F7F7EFC207C1832310F8
:10567000F50283570502835645000357C501C2074B
:1056800013960601420783D6050041831377C7F8B6
:10569000558F83D62500C18393F7F7DFB3E6060164
:1056A000A206D58FB7360140C207138806C04182D3
:1056B000C183630E050193860640630AD500B75681
:1056C0000140138806C0630405016312D504FD760A
:1056D0009386F67FF58F83D6A50003D8C500A20672
:1056E000D58F83D64500C207C183A20693F7F7BFC3
:1056F000D58FF576FD16F18E03D6E500C207C1837E
:10570000336606011206D18E1396060141822312DA
:10571000C500231EE50003D76500231EE502231004
:10572000F502828003570502FD77FD17F98F2310DC
:10573000F50203580502835645008357C501657776
:105740001396060183D605001307F7CF7D8FF977EF
:10575000A206FD17558FB3F7070183D6250003D89E
:10576000850042074182B3E60601B206D58FB736FF
:105770000140C207138806C04183C183630E05013F
:1057800093860640630AD500B7560140138806C0C9
:1057900063040501631CD500F176FD16F18E03D676
:1057A000C5001A06D18E1396060141822312C50048
:1057B000231EE50003D765002310E5042310F5023E
:1057C00082808357050091C593E717002310F500E9
:1057D0008280C207C183F99BC207C183C5BF8357BB
:1057E000450491C52167D98F2312F5048280C6072D
:1057F000C583DDBF8357C50009C6DD8D2316B500FF
:10580000828093C5F5FFFD8DD5BF83578501C20703
:10581000C183DD9BDD8D231CB5008280035785018C
:10582000FD779387F77FF98FA205CD8FC207C183DC
:10583000231CF50082808357C501C207C183DD9B0D
:10584000DD8D231EB50082800357C501FD77938748
:10585000F77FF98FA205CD8FC207C183231EF50004
:105860008280835705029205C207C18393F7F7FD33
:10587000CD8FC207C1832310F50282800357050232
:105880008547B397B70093C7F7FFF98F2310F50249
:1058900083570502B315B600DD8DC205C181231003
:1058A000B50282802312B5028280035505016D8DF9
:1058B0003335A000828093C5F5FFC205C18123184E
:1058C000B5008280835705010355C500ED8F420561
:1058D000418189C76D8D3335A0008280014582806A
:1058E00093C5F5FFC205C1812318B5008280835698
:1058F0000501F577FD17F58F83D66500397122DC38
:1059000006DED58F03D7C5002318F5008356C500E2
:10591000FD779387379FF58F83D645002A842EC65F
:10592000D58F83D68500D58F83D6A500D58F231636
:10593000F50083574501C207C18393F7F7CFD98F8D
:10594000231AF5006808EFF0BF8EB7470140938730
:105950000780B245631EF404A2578356C40065470E
:10596000B387E702C206C186984163D506040607DD
:105970000356C4004206B3D7E70213074006418628
:10598000B3D6E702B3F7E7029206635706028E0723
:1059900093872703B3D7E70213F77700B367D700DE
:1059A000C207C1832314F400F25062542161828043
:1059B000925765B70A076DBF920793872703B3D73E
:1059C000E702BD8BD58FE9BF81C98357C500096741
:1059D000D98F2316F50082800357C500F977FD178C
:1059E000F98FC5BF13F7F50F85471583B395B7003A
:1059F0006319F7009307C500984301CED98D8CC376
:105A00008280894693074501E318D7FE9307050175
:105A1000E5B793C5F5FFF98DDDB793F5F51F2312B3
:105A2000B5008280035505006D8D3335A00082805E
:105A300013F7F50F85461583B397B6006313D702A6
:105A40000357C500F98F03570500014542074183FD
:105A500081CB0545A181B315B5006D8F3335E000CD
:105A6000828089466315D70003570501E1BF0357BC
:105A70004501C9BFA1818547B397B70093C7F7FF19
:105A8000C207C1832310F5008280B7070050239A14
:105A9000A70203C767031377C70F238BE702828030
:105AA000B7070050239CA70203C7A7031377C70FAC
:105AB000238DE7028280814737C6002013F7F70F56
:105AC0006364A7006FF07FFC032786853E978346BB
:105AD0000700850793C6F6FF2300D704C5B78147A3
