:100000006F40B065130000001300000013000000F3
:100010001300000013000000130000001300000094
:100020001300000013000000130000001300000084
:08003000130000007300100032
:100038000000000000000000A8020000AC02000060
:1000480000000000A04D00000000000000000000BB
:10005800A24D0000A44D00000000000000000000B8
:10006800A64D000000000000A84D000000000000A0
:10007800AA4D0000AC4D0000AE4D0000B04D000090
:10008800B24D0000B44D00000C0400002004000034
:10009800360400005E040000A8040000C04D000003
:1000A800C24D0000C44D0000C64D0000C84D000000
:1000B800CA4D0000CC4D0000CE4D0000D04D0000D0
:1000C800D24D0000D44D0000D64D0000EA040000D7
:1000D800DA4D00000C060000DE4D0000E04D000087
:1000E800420700005C07000082070000E84D00009E
:1000F800EA4D0000EC4D0000EE4D0000F04D000010
:10010800F24D0000B0020000DA0200000403000013
:100118008A050000FC4D0000FE4D0000004E000066
:100128000E080000044E0000064E0000084E0000B5
:100138000A4E00000C4E0000A8070000104E0000F8
:100148002E03000058030000CE070000E807000057
:100158001A4E00001C4E00001E4E0000204E0000EB
:10016800224E0000244E0000264E0000284E0000BB
:100178002A4E00002C4E00002E4E00006E5B000040
:10018800324E0000344E0000EC0300007A030000F9
:10019800A4030000CE0300003E4E00009A080000B1
:1001A800424E0000444E0000464E00009E080000EB
:1001B8004A4E00004C4E00004E4E0000504E0000CB
:1001C800524E0000544E0000564E0000584E00009B
:1001D8000000000000000000000000000000000017
:1001E8000000000000000000000000000000000007
:0801F8000000000000000000FF
:100200003D432A876373C3029377F700BDEFADE5E3
:10021000937606FF3D8ABA960CC34CC30CC74CC7F5
:100220004107E36BD7FE11E28280B306C3408A0622
:100230009702000096966780A6002307B700A306E2
:10024000B7002306B700A305B7002305B700A30432
:10025000B7002304B700A303B7002303B700A3022A
:10026000B7002302B700A301B7002301B700A30022
:10027000B7002300B700828093F5F50F93968500B1
:10028000D58D93960501D58D61B79396270097027A
:10029000000096968682E78086FA9680C1171D8FA9
:1002A0003E96E374C3F8A5B7730020307300203086
:1002B000411122C637440140930550521305048072
:1002C000EF50807D19C59305505213050480EF50FF
:1002D000F0003244410173002030411122C63744FE
:1002E00000409305505213050440EF50E07A19C5C1
:1002F0009305505213050440EF50407E32444101B3
:1003000073002030411122C63754004093055052EB
:1003100013050480EF50407819C59305505213051A
:100320000480EF50A07B3244410173002030411122
:1003300022C63754004093055052130504C0EF50B5
:10034000A07519C593055052130504C0EF500079EC
:10035000324441017300203093055052375500401C
:10036000EF50807309C9EF1060179305505237554D
:100370000040EF50A07673002030411122C6372490
:1003800000409305505213050480EF50E07019C5EA
:100390009305505213050480EF50407432444101DC
:1003A00073002030411122C637240040930550527B
:1003B000130504C0EF50406E19C593055052130544
:1003C00004C0EF50A0713244410173002030930506
:1003D000505237250040EF50206C19C593055052FC
:1003E00037250040EF50806F73002030B70705506D
:1003F00003C70701118B09CB03C707011377B70F99
:100400002388E700EF108013730020300545EF408C
:10041000B04185476314F500EF40F042730020308F
:100420000945EF40704085476315F5000945EF40E9
:100430009041730020301145EF40103F8547631E07
:10044000F50083A781871305800C850723ACF1860F
:10045000EF1010081145EF40103F7300203041119C
:10046000214522C6EF40503C8547631BF5022A8494
:100470001305800CEF10D0052145EF40D03CB76745
:10048000002037A60000238507B813060631B7679A
:100490000020D1451305800CA38587B8EF00903666
:1004A00032444101730020304111414522C6EF40E2
:1004B000B03785476317F5022A844145EF40B038CD
:1004C000B767002037A60000238587B8130686315A
:1004D000B7670020D1451305800CA38587B8EF00CE
:1004E0007032324441017300203041111305000283
:1004F00022C6EF40703385476319F5022A8413053D
:10050000800CEF10E07C23A681861305800CB76772
:1005100000209946054693058007238707B8EF001A
:10052000903213050002EF40103213050004EF4033
:10053000B02F85476316F50013050004EF40B03077
:1005400013050008EF40502E85476316F50013058C
:100550000008EF40502F13050010EF40F02C8547A6
:100560006316F50013050010EF40F02D1305002071
:10057000EF40902B85476316F50013050020EF40F0
:10058000902C32444101730020304111130500408A
:1005900022C6EF40702985476316F5001305004019
:1005A000EF40702A056413050480EF40F02785476B
:1005B0006316F50013050480EF40F0280565EF4051
:1005C000B02685476315F5000565EF40D02709651E
:1005D000EF40902585476315F5000965EF40B0268B
:1005E0001165EF40702485476315F5001165EF40F4
:1005F00090252165EF40502385476315F50021655F
:10060000EF407024324441017300203037350140FF
:1006100041118545130505C022C626C44AC2EF50C4
:10062000E03039C983A701868546850723A0F18676
:1006300003A7818ABE84631BD70083A7C188639701
:10064000E70083A7C19499E323A00186EF10C0556A
:10065000B767002023A2A7EA9307001963E4A70263
:1006600083A7C194850723A6F194373501408545BA
:10067000130505C0EF50402D3244A24412494101F8
:100680007300203083A7C1886350F0028946638DD0
:10069000D7009306401FE3FAA6FC83A6C19489CA3B
:1006A000850723A6F188D1B71307401FE37FA7FA78
:1006B00003A7818A5DDB0947E399E7FA03A6C194A2
:1006C0000D499D4633462603930500051305800C0E
:1006D000EF00701703A601869D469305400633463A
:1006E00026031305800CEF00101603A6C194930790
:1006F000206B9D46B387C70203A60186930580073A
:100700001305800C33C6C702EF00F013054781457F
:100710001305302023A4E186EF10502D81451305E9
:100720001010EF10B02C1305401FEF10605A373532
:1007300001408145130505C0EF50200F23AA018613
:100740002DB7854537050040EF50401E11C5854542
:1007500037050040EF50401F73002030411122C682
:1007600037040040854513050440EF50201C11C597
:10077000854513050440EF50201D324441017300AC
:100780002030411122C637140040854513050480EE
:10079000EF50C01911C5854513050480EF50C01AEC
:1007A0003244410173002030411122C63714004009
:1007B0008545130504C0EF50601711C58545130525
:1007C00004C0EF5060183244410173002030854569
:1007D00037150040EF50801511C58545371500408D
:1007E000EF50801673002030411122C637140040AC
:1007F000854513050440EF50601311C58545130569
:100800000440EF506014324441017300203037350A
:100810000140411185451305054022C626C4EF500D
:10082000E01025C583A7C1880947FD176368F70451
:1008300083A7818513848185858BA9EFB767002005
:1008400003C7A7B8BE8419E3EF30504E03C7A4B85E
:1008500085476314F700EF30F04E1C4019478507B9
:100860001CC0639DE70037350140814513050540F5
:10087000EF40B07BEF30D0492320040037350140F2
:10088000854513050540EF50200C3244A244410138
:1008900073002030EF30D047C9B773002030854552
:1008A00037550140EF50800811C585453755014047
:1008B000EF50800973002030B7670020238C07D8E1
:1008C0003971A382018CB767002006DE238707B841
:1008D00022DC26DA4AD84ED652D456D25AD05ECE30
:1008E00062CC66CAEF30F024EF402002EF005007E0
:1008F000EF10E01C37A600001306063281450145C3
:10090000EF00407037A6000013068632D14501453E
:10091000EF00406FF16593061006B76700201306DD
:10092000000693850520154523A007EAEF20006007
:10093000014685451545EF20E02BEF005042130599
:100940004006EF10E038B7670020238C07B8B76780
:100950000020238607B8B7670020A38E07B641465C
:100960009305200411453764002023A60194A305B4
:1009700004B8EF1060664146930530042145EF103E
:10098000A0654146930540044145EF10E0644146AF
:100990009305500413050002EF1000648347B4B8B8
:1009A000638007181305C012EF108032EF30503605
:1009B0001305C012EF10C0310145EF30902B130525
:1009C000803EEF10E0300D45EF30B02A1305803E39
:1009D000EF100030EF30D033A30504B8096493055D
:1009E00084B50145E92A930544960545C92A1305AE
:1009F000C01237640020EF10A02D376C0020B7091B
:100A000000201304C4BDB76A002083ACC1888547A9
:100A10006393FC02138A018783270A0003A7818A54
:100A2000D98F91EB373501408545130505C0EF405F
:100A3000D05F23209A0183C7418999C71305CCEA67
:100A4000238A0188EF30007E1385C935EF303037B7
:100A5000814813088007130780079307C00B93068C
:100A6000C00B1386C93581450145EF00E06303A63D
:100A7000818A994681451305800CF1238347A4059B
:100A80001306E00599461D8E930580021305800C20
:100A90005D2BEF40200483A6818A9947639FF60867
:100AA00081450145292A81450545112AB7A5000040
:100AB000938505331545EF2080111305807005647B
:100AC000EF100021930584380145D528930544197A
:100AD0000545F5201305401FEF10801F93054419AD
:100AE0000545F12881450145D9281305A00FEF10D0
:100AF000201E1305A00FEF10A01D9305843801459B
:100B00007D289305441905455D281305401FEF1006
:100B1000201C814501456520814505454D2001A0EA
:100B200013054006EF10C01A03A681878946930576
:100B3000C0031305800C012B95B503A58ABD36C6ED
:100B4000EF80801EB24637B60020B7B500201306EE
:100B5000C66E9385056DEF40400245BD411106C646
:100B600022C415E537C40200A1460146930504F2EC
:100B700013053020EF10B031A1460146930504F271
:100B8000130520202244B24041016F1050308547A8
:100B90006313F50237C4020081460146930504F24F
:100BA00013051010EF10B02E81460146930504F294
:100BB00013050010C1BFB2402244410182800111DF
:100BC0004AC803A6818A26CA4EC606CE22CC9947B9
:100BD00083A6C188AA899384C1886304F6028547E5
:100BE0006381F60283A781871307A00F3387E7028B
:100BF0006359B700130760F0B387E702BE95C205DB
:100C0000C1818967938787642E8463F3B7003E842C
:100C100042048D474180138741886314F60085475D
:100C20001CC31C4399CB4DEA85071CC31843CD4711
:100C300063D5E700054723A6E186938781888D4524
:100C400098436310B60A050798C38D476396F60A62
:100C5000938701899843050798C398408547631790
:100C6000F70283A7C187850723AEF1869306F004B8
:100C700063DEF60083A6418791EA23AAE186B707DF
:100C80000020938787189843050798C303A7818A94
:100C900089476313F70883C7518C8546F91793F783
:100CA000F70F63FBF60683A74186BDC7056493056E
:100CB000441913053020EF1060539305042C1305DD
:100CC0001010EF10A0526244F240D2444249B2499F
:100CD000794505616F00D07F8545E3D9F5F4FD17AF
:100CE000A9B79305400663C5E50023A00700B1BF7F
:100CF000054723A0E18891BF9547E310F6F693F7E7
:100D0000D6FFA1FF3735014085068545130505400F
:100D100094C0EF40903191B763920902A285130508
:100D20003020EF10A04C8145130520206244F24092
:100D3000D2444249B24905616F10404B8547639DDB
:100D4000F90691476311F706814513053020EF102E
:100D5000E049814513051010EF1040498145130506
:100D60003020EF10A0488564938584BB13052020B4
:100D7000EF10C047938584BB13051010EF10004798
:100D8000814513050010EF10604613058020EF0029
:100D90003074814513052020EF104045814513052F
:100DA0001010EF10A044A28513051010EF1000449E
:100DB0008145130500109DBFF2406244D244424970
:100DC000B249056182804111AD6722C403A4479CEA
:100DD00026C24AC006C6C14404C844C81309000854
:100DE000232A2401AA850545EF10504A232824010F
:100DF00004C844C8B240224492440249410182805E
:100E000083A78180011122CC26CA4AC84EC606CECD
:100E1000AA89AE8432893684A1EF1305A002653712
:100E200093854903C205C1810545EF10F04793053D
:100E30004903C205C1810545EF1010471305B002F3
:100E4000593793858402C205C1810545EF10D0450D
:100E500093058402C2050545C181EF10F044624448
:100E6000F240D2444249B2491305C0020561A1BF14
:100E70000547639FE7001305A002B1379385590327
:100E8000C205C1810545EF1030429305590355B79E
:100E90009309850213098602C2094209094793D9B9
:100EA0000901135909011305A0026398E702213FC4
:100EB000CE850545EF10503FCA850545EF10D03E61
:100EC0001305B002093793855403C205C181054556
:100ED000EF10903D93055403B5BFF535CE8505451C
:100EE000EF10903CCA850545EF10103C1305B00289
:100EF000D93D93854403C205C1810545EF10D03A21
:100F00009305440381BF03C6E18083C6F18041118C
:100F100022C43304D602FD167D16C2064206C182E3
:100F200041828145014526C206C6D93D11E4B24041
:100F3000224492444101828083D5418005457D143D
:100F4000EF109036E5B723A4A18085461387E18092
:100F50009387F18063EAA600930670F82300D70018
:100F600041572380E7008280C1562300D700130732
:100F700070F8C5BF79714ECEA96793097500120646
:100F80009387873CC20922D44AD056CA5AC85EC643
:100F900062C466C206D626D252CCAA8AAE8B33046D
:100FA000F600014993D90901414BB3862B01C206D2
:100FB000C1824E86B6855685A135034A04E0A14418
:100FC00093771A008DCF83D5C180FD14054593F426
:100FD000F40FEF10702D135A1A00FDF005090504E7
:100FE000E31569FDB250225492540259F249624A03
:100FF000D24A424BB24B224C924C4561828083D5FF
:101000004180E1B7011122CC26CA4AC84EC606CE9D
:101010002A89AE89B2840144B3878400038607001D
:1010200001EAF2406244D2444249B24905618280F9
:10103000131534004A9542050504CE8541814204CA
:10104000153F4180D1BF797122D426D24AD0AA84DB
:101050002E8932849305000213861600480836C68E
:1010600006D602CA02CC02CEEFF08F99B246A5474F
:1010700063F9D702A2854808EF0040675008CA8587
:1010800026854937B25022549254025945618280D4
:10109000B387E702FD1693F6F60FFDFA3364F40208
:1010A000D1BF85472947D5BF397162CC6AC8368C14
:1010B000328D9306F8FF1386F7FFAE962A96C20686
:1010C000420656D2C1824182C16A26DA4AD84ED639
:1010D00052D466CA6EC606DE22DC5AD05ECEBA8D07
:1010E0003E8A4289C68C8149213B8144FD1A63E1D5
:1010F0002403F2506254D2544259B259225A925A9D
:10110000025BF24B624CD24C424DB24D2161828067
:1011100033D42903814B014B330484036A94636500
:101120004B018504EE99E1B7B3D74B03A29783C770
:10113000070063920C02C207C18393D537008983ED
:101140001397B5009607D98FDD8D0545EF10D015A3
:10115000050BE29BE9B7D685E3E9FCFE8145F5B7CF
:1011600003A8C18341111307F00F81479306F00FC5
:101170001306200293050002054506C622C426C2B6
:101180004AC0EF109000C146014685451305700620
:10119000EF00706DC1460146854513057002EF00F2
:1011A000906CC1460146854513054006EF00B06BC3
:1011B0008545C146054613050006EF00D06A138435
:1011C0008180084013090008BD3BAD6783A4C79B1D
:1011D0001305800C23AA2401EF00902F130540066D
:1011E00023A82401EF00D02E13056003E93E130568
:1011F0004006EF00F02D1C40814589CF054793053F
:10120000000C6389E7000947930500076384E70042
:101210009305000A0545EF1070071305A003EFF0D2
:101220009FBA95450545EF1070061305200BEFF0AA
:101230009FB9B1450545EF107005B1450545EF1063
:10124000F00481450545EF10700493053003054512
:10125000EF10D003930530030545EF10300313055D
:10126000700BEFF05FB6930550030545EF101002C9
:101270001305B00BEFF03FB5930570030545EF1074
:10128000F0001305000CEFF01FB49305C0020545F4
:10129000EF10C07F1305200CEFF0FFB28545054528
:1012A000EF10C07E1305300CEFF0FFB1C9450545C6
:1012B000EF10C07D1305400CEFF0FFB09305000266
:1012C0000545EF10A07C1305600CEFF0DFAFBD45C6
:1012D0000545EF10A07B1305000DEFF0DFAE930581
:1012E000400A0545EF10807A9305100A0545EF1076
:1012F000E0791305000EEFF01FAD9305000D0545D5
:10130000EF10C07891450545EF104078B54505458B
:10131000EF10C077C5450545EF104077CD45054531
:10132000EF10C0769305B0020545EF1020769305C7
:10133000F0030545EF108075930540050545EF1056
:10134000E0749305C0040545EF104074E145054580
:10135000EF10C073B5450545EF104073AD45054529
:10136000EF10C072FD450545EF1040729305300245
:101370000545EF10A0711305100EEFF0DFA49305E3
:10138000000D0545EF10807091450545EF10007088
:10139000B1450545EF10806FC5450545EF10006F5D
:1013A000CD450545EF10806E9305C0020545EF1051
:1013B000E06D9305F0030545EF10406D9305400483
:1013C0000545EF10A06C930510050545EF10006C66
:1013D0009305F0020545EF10606BFD450545EF10E4
:1013E000E06AFD450545EF10606A9305000205457A
:1013F000EF10C069930530020545EF102069130511
:101400001002EFF05F9C4545EFF0FF9B130580074E
:10141000EF00100C13059002EFF0FF9A2244B24047
:101420009244024941016FF01FAE797126D24ECE2F
:1014300052CCB70400207D7A22D456CA5AC806D6A8
:101440004AD0938404000144130A5A1A7D5B93899D
:10145000818983D7040011466C0013978700A1830C
:10146000D98F1145231641012317F10013090008F4
:10147000EF10E0729387C18983C707001387C18982
:1014800093F7F70FA1C36313090039C483C7190089
:101490002300070003C72900A2070504D98F4204CF
:1014A0002391F4004180A5479104E314F4FA014527
:1014B000B250225492540259F249624AD24A424BE3
:1014C000456182807D19420913590941E30F69FB87
:1014D0000545EF00E07F79BF0545D9BF411122C422
:1014E00083C7B18926C293858189BE95114506C6F9
:1014F000EF10807D938481899387B18911C503C7DB
:10150000070005072380E70083C607000547639FA0
:10151000E60083C604001307500A6384E6002380B4
:101520000700B24022449244410182800D46E39A72
:10153000C6FE23800700238EE188E5B7B7B70020F9
:1015400003A7C76CB7070550854698C7238AD1887B
:1015500003C70700136717002380E70082808965AF
:10156000397193061005130600059385055811453A
:1015700006DE22DC26DA4AD84ED652D4EF10101BF3
:10158000014685451145EF10E066EF001044938752
:10159000C18923800700513D05C1B7A60000296617
:1015A000938606351306C6339305B01237A500009F
:1015B00013054535EF70100B1384C189B704002063
:1015C000230004009384440223000400138984024E
:1015D000930950FA83D7040011466C08A30EF1005A
:1015E00083D724001145230E310113978700A1836F
:1015F000D98F231FF100EF10805A09459104EF00A5
:10160000206DE39924FD930410088347040093F7A9
:10161000F70F89E7FD14C204C18085EC23000400A4
:101620009304000813898189130AF00FFD59834739
:10163000190003472900F98F6391470385E8B7A68E
:1016400000002966938606351306C63393052013DA
:10165000B1BF0545EF00C0674DBFFD14C204C18492
:10166000E38F34FD0545EF00A066D1B723000400E9
:101670006D3B19C9B7A60000296693860635130687
:10168000C633930590131DB7EF00503491473EC405
:1016900095473EC299473EC09308900213088002C6
:1016A000930760021307B0049306900413068004A6
:1016B000A9452545EF00207B3765002019661307F3
:1016C000C5EAB7B700201305C5EA854613060682AA
:1016D000814523A6E76CEF005005F2506254D254C6
:1016E0004259B259225A01452161828063DB0500CB
:1016F0009307D0022300F500050541118147A94653
:101700003DA0E5FD930700032300F5008280180843
:1017100013881700BA9733E7D502B3C5D50213561D
:10172000F741318F118F2388E7FE9377F80FE5F1AA
:101730008A86B6976394F6004101828003C7F7FF5B
:101740000505FD1713070703A30FE5FEE5B779713C
:1017500022D44AD04ECE52CC56CA06D626D2834781
:1017600015003704004081452306F100834705003A
:101770001309C100130AF100A306F10083472500F5
:1017800013050440130404402307F100EF40001840
:101790008965938AC55193894513A14483470900FC
:1017A000FD14CE85B3D79740858B91E3D68513057D
:1017B0001020EF00B023054691452285EF408012AE
:1017C00085452285EF40E01465DD0146914522857F
:1017D000EF40401185452285EF4060148145228508
:1017E000EF40C012C5FC0509E3192AFBB250225490
:1017F00092540259F249624AD24A45618280B7C581
:101800000200011181460146938505F2130510205F
:1018100006CE2316010023070100EF0050673705AD
:101820000040894513050540EF40200A6800053750
:101830001305400695216800193FF240056182803A
:10184000411185451305B00606C6EF00900F85458A
:101850001305C006EF00F00E01459D2981451305D3
:10186000C006EF00100E0145A521B24081451305C9
:10187000B00641016F00F00C411181451305B0061F
:1018800006C6EF00100C81451305C006EF00700B73
:1018900001453D2985451305B006EF00900A014535
:1018A00005291305C0068545EF00B009B240014582
:1018B000410139A9411122C426C206C6AA84254481
:1018C0007D141374F40F0DEC81451305B006EF0081
:1018D00050070145F52E85451305B006EF0070064B
:1018E0000145FD261305C006EF00100839C5224446
:1018F000B240924485451305B00641016F00700463
:1019000093978401E187854563C3070081451305EB
:10191000C006EF0010030145652E85451305B0068E
:10192000EF00300201456D26860481451305B0069F
:1019300093F4F40FEF00F00061B71305B006814592
:10194000EF0030002244B24092440145410149A6D3
:10195000411106C622C426C22E84B2844AC02A89F6
:10196000C53513052005B9370145A9371375F90F9A
:101970009137A294639884002244B2409244024971
:101980004101DDBD05040345F4FF2D37E5B74111E5
:1019900081454AC02A891305B00606C622C426C25C
:1019A000EF00207A01452D2685451305C006EF007E
:1019B0004079A14401440145212E81451305B0061B
:1019C000EF0020780145292685451305B006EF0074
:1019D00040770145F52C06041305C0061374F40F77
:1019E000EF00807801C505041374F40FFD1493F41F
:1019F000F40FF1F081451305B006EF008074014546
:101A0000C12C81451305B006EF00A0730145C92420
:101A100081456313090085451305C006EF00607218
:101A200085451305B006EF00C07101455524814579
:101A30001305B006EF00E0700145592C2285B24035
:101A400022449244024941018280011106CE22CCF7
:101A500026CA2A844AC852C432892E8A4EC6EFF05A
:101A60003FDE13052005EFF0FFE40145EFF09FE4B2
:101A70001375F40FEFF01FE4EFF09FDC1305300552
:101A80009304F9FFEFF01FE30144B3349000636B5C
:101A900024016244F240D2444249B249224A0561DB
:101AA0006FF09FDDB3098A0005456393840001450B
:101AB000F93D05042380A9001374F40FC9BF79719F
:101AC00093064031054685451305B00606D626D255
:101AD0004ECE52CC56CA22D44AD0712393064031FE
:101AE000054685451305C0069969617AAD2BAD445D
:101AF000B70A002093890950130A0A701306700868
:101B00009385CA040545EFF0BFE409466C00130550
:101B1000E00523163101EFF0BFE309466C00130521
:101B2000100623164101EFF0BFE205466C001305D5
:101B30000003213F05466C00130510030344C10058
:101B40002937054571220349C1001180FD14134452
:101B5000F4FF93F4F40F05881379190081E837A591
:101B6000000013058539EF70105801A013054006D9
:101B70008522E31524F9930710026C00054613052E
:101B800060082306F100EFF0BFDC37A50000130565
:101B9000053BEF705055B250225492540259F2490D
:101BA000624AD24A456182800111854705466C0030
:101BB000130560082306F10006CEEFF07FD9130568
:101BC000900805469305B100EFF03FE80347B100E8
:101BD00093079008130580576318F70213056009EF
:101BE00009466C0023160100EFF03FE60345C100F3
:101BF0008347D10022053E95130585FD9307805745
:101C000063F4A70013058057F24005618280B7177F
:101C10000240DC4337177A0013070720C983BD8BC6
:101C2000B387E7023727F40013070740F1659306EF
:101C3000100213060002938505200945BA9723A0D8
:101C4000F18A6F10A02E011126CAB754004022CC91
:101C50004AC84EC606CEAE893289014493840480B8
:101C6000634A2401F24062444A85D2444249B2495F
:101C700005618280930500042685EF3030617DD9AF
:101C8000B38789008385070026850504C205C181C5
:101C9000EF30305FF1B7828083A7C18337177A00B6
:101CA00013070720B3D7E702814601473385A70210
:101CB000B7F700E023A0070094C7D8C7054798C32B
:101CC000B7F600E09846DC4699E3E37DE5FE8280C6
:101CD00083A7C1830967130707F4B3D7E7028146D7
:101CE00001473385A702B7F700E023A0070094C798
:101CF000D8C7054798C3B7F600E09846DC4699E395
:101D0000E37DE5FE828009E5814601468145A1AE7D
:101D10000547E30BE5FE0947E308E5FE0D47E3054C
:101D2000E5FE1147E302E5FE1547E30FE5FC194721
:101D3000E30CE5FC1D47E309E5FC21476318E500DA
:101D400081460146814513050002D1B72547631836
:101D5000E500814601468145130510024DBF294724
:101D60006318E5008146014681451305000445B727
:101D70002D476318E500814601468145130510048F
:101D800079B731476318E50081460146814513055F
:101D90002004B5BF35476318E500814601468145FB
:101DA00013053004ADB739476318E5008146014695
:101DB000814513054004A1BF3D476318E5008146F6
:101DC000014681451305500499B78280797122D468
:101DD00085452A841305002006D626D2EF30805E82
:101DE0002285153703A7018AB7C70105938707D056
:101DF000316563E3E700216537240140EF30A048F7
:101E000013050440EF30800EB7070E003EC68A85EA
:101E1000854713050440230AF10002C002C202C430
:101E200002C8EF300011854513050440EF30E0157E
:101E300013050440EF306016930404402685EF300C
:101E400060166DFD1305044037240140EF30001685
:101E5000130404402285EF3000166DFDB250225469
:101E600092544561828079714ECE52CC56CA328AE4
:101E7000AE8AB689014693068004814506D622D4EF
:101E800026D24AD046C042C23EC43AC68344010369
:101E90000349410303448103F922568593068004D4
:101EA00001468145C9225285930680040146814539
:101EB0005D2A4E8593068004014681456D22324796
:101EC0009306800401463A858145712AA24793060C
:101ED000800401463E85814579221248930680049C
:101EE000014642858145412282489306800401468D
:101EF000468581458D2A4A859306800401468145A1
:101F00009D2226859306800401468145A92A2285C3
:101F10002254B25092540259F249624AD24A93066C
:101F200080040146814545613DAA011122CC26CAA3
:101F30002E84AA848545096506CE32C636C4EF30A4
:101F40008046B707055003C70700130560058D4598
:101F50001377F70C2380E70003C7070013672704F4
:101F60002380E70003C717001377970FA380E700CC
:101F7000A24632462392D7002393C70084C7C0C726
:101F800003C717001377F703A380E70003C7170001
:101F90001377F70FA380E70003C717001367070144
:101FA000A380E70003C72700136747002381E700EA
:101FB00003C7170013671700A380E70003C70700D4
:101FC000136717002380E700DD2A6244F240D24401
:101FD00013056005056155AA011122CC05452E8423
:101FE000854506CE26CA4AC802C0328902C202C44A
:101FF00002C6EF30203D93068004054681452285C8
:102000009D209374F40113555400A6851375F50FA4
:10201000EF3020198547339797000A853AC002C2EE
:102020004AC43EC6EF20B07959459DC49377E40178
:102030005D459DC38947614563F097027188654599
:1020400001CC9147694563F99700A54713057002D4
:1020500063F49700130580030D2AF2406244D244D2
:102060004249056182809307F00F630BF50C79718B
:1020700022D41354550026D24AD04ECE52CC06D686
:102080001D889374F5003689328AAE8935E085451E
:102090001145EF3020338547B3949700C204C180C7
:1020A000231291006399F90093170901C183A18359
:1020B00091E38D473EC4AD679387879B0A043E94A6
:1020C00000401379F90F4C0022854AC6EF20507862
:1020D00085476397F9005286A6852285EF30600315
:1020E000B250225492540259F249624A45618280A8
:1020F00085476315F4008545214561BF8947631510
:10210000F4008545414571B78D476316F400854558
:1021100013050002BDBF91476316F4008545130502
:10212000000485BF95476316F40085451305000834
:102130008DB79947E311F4F685451305001091BF5B
:1021400082809357550013972700AD679387879B2D
:10215000BA9798439377F50005453315F50099C173
:1021600008CB828048CB8280135735009376C70115
:102170002D671307879B36971C43984785473395F0
:10218000A700798D3335A00082809357550005470D
:10219000938707043315A7008A0737E700E0BA974B
:1021A00088C38280935755000547938707063315E8
:1021B000A7008A0737E700E0BA9788C38280B7E7AD
:1021C00000E03E952300B54082808280828001112C
:1021D0002304A100280006CEA304B1002305C100FA
:1021E00036C6EF20D07EF24005618280935785008D
:1021F0002D671307879D8A07BA9798430D890A05AB
:102200008357C7023A95B385F502896793870771AB
:10221000B3D5F502C205C1814CD9828001E993068C
:1022200080310146854521456FF0FFE385476318FE
:10223000F50093068031014685452545F5B7894768
:102240006318F50093068031014685452945E9BFAD
:102250008D476318F50093068031014685452D456D
:10226000E1B7C1476319F500930680310146854502
:102270001305900855BFC5476319F50093068031D3
:10228000014685451305B00845B7C9476319F500F0
:1022900093068031014685451305D00871B7CD47B7
:1022A0006319F50093068031014685451305E00862
:1022B000A5BF930700106318F5009306803101460F
:1022C0008545014595B7930710106318F5009306EF
:1022D000803101468545054581BF9307201063186D
:1022E000F5009306803101468545094535BF9307C2
:1022F00030106318F50093068031014685450D4581
:1023000025B7930700116318F50093068031014645
:1023100085453D4511BF930710116319F5009306DC
:1023200080310146854513053002FDBD930720111C
:102330006319F50093068031014685451305A00217
:10234000E5B5930730116319F50093068031014616
:1023500085451305B002C9BD930700206318F50039
:10236000930680310146854519457DBD93071020B0
:102370006318F50093068031014685451D456DB50E
:10238000930720206319F5009306803101468545A7
:102390001305000251BD930730206319F500930621
:1023A00080310146854513051002BDBD930700210C
:1023B0006319F500930680310146854513056004D5
:1023C000A5B5930710216319F500930680310146E6
:1023D00085451305700489BD930720216319F50015
:1023E00093068031014685451305800435BD93076A
:1023F00030216319F50093068031014685451305A8
:1024000090041DB5930700226319F50093068031EF
:10241000014685451305400201BD9307102263194B
:10242000F500930680310146854513055002EDBB4A
:10243000930700306319F500930680310146854506
:1024400013056002D5B3930710306319F5009306A6
:1024500080310146854513057002F9B3930720309A
:102460006319F50093068031014685451305800206
:1024700065BB930730306319F50093068031014640
:102480008545130590024DB3930700316319F5009C
:1024900093068031014685451305C00671B3930745
:1024A00010316319F5009306803101468545130507
:1024B000D0069DBB930720316319F5009306803148
:1024C000014685451305E00685B39307303163194E
:1024D000F50093068031014685451305F006A9B342
:1024E00093070040E30BF5DC93071040E301F5DEB2
:1024F00093072040E307F5DE93073040E30DF5DE58
:1025000093070070E308F5EA93071070E30FF5EA0C
:1025100093072070E306F5EC93073070E30DF5ECBC
:1025200093070071E30AF5F093071071E301F5F2E8
:1025300093072071E308F5F2930730716319F500F2
:1025400093068031014685451305D004F1B9930700
:102550000580E38807D8856713871780E30DE5D8E2
:10256000138727806318E50093068031014685456F
:1025700011455DB9938737806319F5009306803163
:10258000014685451305400445B1856713870781DA
:102590006319E500930680310146854513059006D1
:1025A00061B1138717816319E500930680310146F5
:1025B00085451305B0068DB913872781E305E5EE40
:1025C00013873781E307E5F013870790E30CE5E80D
:1025D00013871790E303E5EA138727906319E50053
:1025E00093068031014685451305300435B91387BC
:1025F00037906319E5009306803101468545130540
:10260000B0041DB1138707916319E500930680316B
:10261000014685451305100601B993871791631983
:10262000F500930680310146854513053006EDBE61
:102630008567138727916319E5009306803101466A
:10264000854513055006CDB6138737916319E5000C
:10265000930680310146854513057006F1B6138750
:102660000792E30EE5CA13871792E301E5DA1387B1
:102670002792E308E5DA938737926319F50093060A
:102680008031014685451305F00479BE8280397199
:1026900006DE22DC26DA2A844AD84ED62EC632C47A
:1026A0003689EFF0BFB7B24583A7C183224693595D
:1026B000840033D7B7024E85418393061700B38653
:1026C000B602B3D7D70293940701C180B384C40282
:1026D000096613060671FD1793950701C181B3D4EE
:1026E000C4023A86DD2E85450545EF20B04D93574F
:1026F00044000547C204C1806394E706370516000D
:1027000085451305050CEF207021C1672D67938760
:102710000706139529001307879D3EC83A959377BE
:102720003400231B9100231C0100231E01000041E3
:10273000E9E70C082285EF20106285452285EF30FD
:102740008010CA852285EF30C01222858545EF3082
:10275000C00DF2506254D2544259B2592161828064
:1027600045476398E7003705180085451305053090
:1027700059BF130710026398E70037151A00854503
:10278000130505C049B7130720026398E700371502
:102790001A00854513050580BDB71307100363951F
:1027A000E7008545056585B7130710076399E700BE
:1027B000370701405C4F93E747005CCFB9B7130779
:1027C00010086398E700370701405C4F93E7070163
:1027D000EDB7130710096398E700370701405C4F16
:1027E00093E70704D9BF13072009E390E7F23707FF
:1027F00001405C4F93E70702C9B70547639FE700B5
:102800000C082285EF20305F22858545EF30A0033C
:10281000CA852285EF3000070DBF09470C082285C5
:10282000639DE700EF20F06922858545EF30A00128
:10283000CA852285EF30A00609BFEF2030752285BA
:102840008545EF304000CA852285EF306006F5BD32
:10285000411122C426C24AC006C6AE8432843689DB
:1028600021E993068031054685451545EFF0AFFF18
:1028700089476393F40893068031054685451D45D5
:10288000EFF06FFE8547631DF40A9306803105461D
:1028900081451945EFF02FFD2244B24092444A850C
:1028A0000249930600310146854541016FF0AFFBB7
:1028B000C1476319F5009306803105468545130528
:1028C00030026DB7930700026319F500930680315B
:1028D000054685451305D00251BF93070003E30C5D
:1028E000F5FC93070004E315F5F8930680310546DF
:1028F00085451305A0049DBFC9476399F40093065D
:10290000803105468545130550029DBF930720027F
:102910006399F40093068031054685451305F0025E
:1029200085B793072003E38CF4FC93072004E39B13
:10293000F4F493068031054685451305C00489B734
:10294000C5476319F4009306803105468145130598
:10295000400289B7930710026319F400930680318F
:10296000054681451305E00235B793071004631946
:10297000F40093068031054681451305B00419BF64
:1029800093071003E31AF4F07DBF397122DC26DAD5
:102990004AD84ED652D456D25AD006DE2A842E8930
:1029A000328AB68A3A8BBE84C28951E5056585456F
:1029B0000505EF203021DA865686D2854A85EFF06C
:1029C0003FE9B70704013EC6231801008547638825
:1029D000F408C9C009476389E4088D466389D408AF
:1029E00093070020231BF1009D47231EF100AD67D4
:1029F0009387C79C0A043E9400408E096C00228590
:102A0000231C3101231D0100EF207021C1476315F4
:102A1000F90685450545EF20607022858545EF2044
:102A2000B025F2506254D2544259B259225A925AA5
:102A3000025B2161828085476318F5008545116539
:102A40000505EF20101A85BF8947E316F5F6854581
:102A50002165FDB723190100231A010051B723197D
:102A60000100231A9100ADBF23199100F5B7231976
:102A7000E100231AF100ADB793070004E31FF9F852
:102A80003715200085451305051071B7AD670A0598
:102A90009387C79CAA9798432316B700835787004C
:102AA00093F70708E5FF8280AD670A059387C79C07
:102AB000AA979C4313D785002396E70003D7870086
:102AC0001377070865FF93F5F50F2396B70003D733
:102AD00087001377070865FF8280011122CC26CA80
:102AE0004AC806CE2A842E89B28401E90565854547
:102AF00013050580EF20100D39A08547631EF502F0
:102B00008545EF20100EAD679387879D0A043E949C
:102B100008404C00231421012312910023150100C9
:102B20002313010023060100EF20F016F240624457
:102B3000D2444249056182808947E303F5FC8D4711
:102B40006315F500854511456DBF91476315F50087
:102B5000854521457DB79D476315F5008545096588
:102B600051BFA1476316F50085453705080059B7E1
:102B7000A547E31AF5F8854537051000A5BFAD67F1
:102B80000A059387879FAA9798438357070093F76F
:102B90000708E5DFC205C1812312B7008280411119
:102BA00022C426C24AC006C62A892E84B384C50020
:102BB00063189400B2402244924402494101828049
:102BC00005048345F4FF4A85EFF07FFBD5B741113B
:102BD00022C426C206C6AA842E848345040091E539
:102BE000B240224492444101828026850504EFF0E0
:102BF0001FF9E5B7411122C426C206C64AC02A847D
:102C0000AE841DEEAD67131725009387879F2E8630
:102C1000BA97930550528843EF20506393874184BD
:102C20003E9403450400B7E700E0AA9723800740DD
:102C30008DC42244B2409244024941016FF0EFD466
:102C400085476313F602AD67131725009387879FA7
:102C50002E86BA97930570727DBF2244B24092448B
:102C6000024941016FF00FD489476319F604AD673B
:102C7000131725009387879FBA9703A90700054676
:102C8000930550524A85EF20705C13045403A686C6
:102C9000228501468145EFF08FD34A85054693058D
:102CA0007072EF20B05A22852244B2400249A686B3
:102CB00092440546814541016FF06FD1B2402244F4
:102CC0009244024941018280AD670A059387879F3C
:102CD000AA9798438357070093F7070299C783572A
:102CE000470005452380F50082800145828041111F
:102CF00006C60DE185476398F522E1460146254564
:102D0000EFF06FB69146014681452945B240410139
:102D10006FF06FB58947631FF500E14601468545B1
:102D200013056002EFF02FB491460146814513056B
:102D30007002E9BFC147631DF500E14601468545C4
:102D40000945EFF04FB29146014681450D457DBFE3
:102D5000C947631FF500E146014685451305500646
:102D6000EFF06FB09146014681451305600679BFCB
:102D700093070002631FF500E146014685451305F0
:102D8000A002EFF04FAE9146014681451305B00217
:102D9000B5BF93072002631FF500E1460146854554
:102DA0001305A004EFF02FAC9146014681451305B1
:102DB000B004A9BF930740026310F502E146014643
:102DC000854513058006EFF00FAA9306800401469F
:102DD0008145130590061DBF93070004E30FF5FA24
:102DE00093072004631FF500E1460146854513055E
:102DF0000002EFF04FA791460146814513051002EE
:102E000031B793070005631FF500E146014685458C
:102E10001305C004EFF02FA5914601468145130527
:102E20002006EDB593072005631FF500E146014636
:102E3000854513058008EFF00FA3914601468145B3
:102E400013059008E1B5930700066310F502E1460B
:102E50000146854513050004EFF0EFA093068004BA
:102E6000014681451305100455B593072006631FDD
:102E7000F500E146014685451305A008EFF0AF9E39
:102E80009146014681451305B00849B593070007EF
:102E9000631FF500E1460146854513052004EFF068
:102EA0008F9C9146014681451305300485B59307F3
:102EB00020076317F500E146014685451945C5B76A
:102EC00093074007631FF500E1460146854513055A
:102ED000C008EFF04F999146014681451305D0088F
:102EE00035B593070008631FF500E14601468545A7
:102EF00013054004EFF02F979146014681451305D5
:102F0000500429B593072008631FF500E1460146E8
:102F100085451305E008EFF00F9591460146814580
:102F20001305F008E5B3B24041018280797122D4E3
:102F30004ECE2A84AE890545854526D24AD006D68E
:102F4000B2843689EF2000488947639FF4048D4797
:102F50006316F90085451145EF20401C631C0412DF
:102F600085451165EF200046CA852685EFF03FD8DC
:102F7000B7070C003EC4AD679387879F0A043E9451
:102F800000408A854EC0228502C223160100EF2030
:102F9000901C22858545EF20B029B25022549254CE
:102FA0000259F24945618280C9476398F400CD47D0
:102FB000E316F9FA8545214545B793072002639B3F
:102FC000F40093073002E31BF9F837051400854538
:102FD000410559B793074002639CF40093075002E0
:102FE000E31EF9F637051400854513050503ADB753
:102FF000930720046399F40093073004E310F9F673
:103000008545056591BF93072005639BF4009307F1
:103010003005E315F9F437052000854505052DBF7A
:1030200093072006639CF40093073006E318F9F237
:103030003715008085451305058039BF93072007A4
:10304000639EF40093073007E31AF9F03707014055
:103050005C4FB7064000D58F5CCF09B79307400798
:10306000639CF40093075007E31AF9EE3707014019
:103070005C4FB7068000C5B793072008E390F4EED5
:1030800093073008E31CF9EC370701405C4FB706A3
:103090000002D1B785476318F40085453705020063
:1030A000EF202034D1B589476316F40085453705F4
:1030B0000400FDB78D476316F40085453705080009
:1030C000C5B791476316F400854537051000C9BFA1
:1030D00095476316F400854513050004D1B7994759
:1030E0006316F4008545130500085DBF9D47E31D89
:1030F000F4E685451305001065B73971B7B70000D0
:1031000062CC66CA03AC87A183ACC7A126DA52D4CD
:1031100056D25ECE6AC8014A814AB76B002022DCD3
:103120004AD84ED65AD06EC606DE5289D6891304C6
:10313000300293840195130BE005938BCBBD138D67
:10314000418D930D6005B307940083C70700639812
:103150006701B307A40183C70700638A6703628618
:10316000E6864A85CE85EF304024B3878B002A89D6
:1031700003C50700AE893305AB40EF40704D2A868A
:10318000AE865285D685EF3040222A8AAE8A050463
:10319000E31BB4FB5285D6854A86CE86EF30F0130A
:1031A000B76C00202A8AAE8A014B814B130430028F
:1031B000130CE005938CCCBD138D418D930D6005F0
:1031C000B387840083C7070063988701B307A4010E
:1031D00083C7070063848703B3878C0003C5070098
:1031E0003305AC403305A502EF4090462A86AE86F3
:1031F0005A85DE85EF30601B2A8BAE8B0504E31108
:10320000B4FD4A86CE865A85DE85EF30100D2A84BD
:10321000AE845286D6865285D685EF30907D2A863A
:10322000AE862285A685EF404048B7B7000003A6CA
:1032300007A283A647A2EF309065F250625413456F
:10324000F5FFD2544259B259225A925A025BF24BBC
:10325000624CD24C424DB24D7D81216182803971E8
:103260004ED6B70900201387C93506DE22DC26DAE0
:103270004AD852D456D25AD05ECE62CC66CA930592
:10328000C70B81469389C9351305C00B7D58930838
:10329000B0039307700721A0FD17638D07013386E4
:1032A000A7023A960346060065FA938747FC63E354
:1032B000F80085060507E31EB7FC9307300B0545AC
:1032C00063CED70AB7B7000083AB87A283AAC7A291
:1032D0001389418D130470079384418D0345790749
:1032E000130BF4FF7D19EF40D03D2AC40345790745
:1032F0002EC6EF40103D2246B246EF1020275E86D4
:10330000D686EF30D058634805081307B4FF9307FB
:10331000700363E8E708B387840003C907009307D5
:10332000D00563F0270993870195A29783C7F7001B
:10333000ADEBCA99014B930CC00B7D5C130A540092
:10334000B3079A03CE9783C70700A1EB5285EF40DE
:1033500030302AC422852EC6EF40902F2246B24636
:10336000EF10C0205E86D686EF30505D6347A00226
:10337000050B7D19FD19E31389FD0945F2506254CF
:10338000D2544259B259225A925A025BF24B624CC1
:10339000D24C216182805A8491B77D1AE3128AFB54
:1033A000C9BF9307B0030145E3DA87FCA29483C643
:1033B000040093073006E3F3D7FC938701953E940E
:1033C00083475400C5FF9307C00B3307F70213066A
:1033D000C00B8147B386E700CE9683C6060091E214
:1033E00005058507E398C7FE1325A50A13451500B3
:1033F00071B7B76600209386C6BD03C7A6059307BD
:10340000E00563F5E7049387418D03C7A70513061D
:10341000B00B631CC70203C6C7056318E60203C7E7
:10342000E7056314C70283C787056390E702138724
:1034300001950346A70503475707998FB297B2979F
:103440000947B3C7E702238DF6048280E30FF7FE36
:10345000138701950346C7058347A705D18F034608
:10346000E70503478705D18FD98FE5F31387418D92
:103470000346A70583475707B307F640C9B703A616
:10348000C18C4111B7670020B766002006C622C470
:1034900026C2238A07C4A38406B84D476351C704D4
:1034A000370600201306A637014881488145794533
:1034B000130EC00BFD5E130F7009130770072DA0CC
:1034C0001378F50F9375F70F854805050506E31684
:1034D000E5FF63860800A384B6B8238A07C50544C0
:1034E00025A07D17E303D7FF3303C70332930343BC
:1034F0000300E31803FEE355B7FC63860800A384CA
:10350000B6B8238A07C5014403C547C5B7B4000050
:10351000EF40301B03A604A383A644A3EF100005CD
:10352000B7B7000003A687A383A6C7A3EF30104157
:10353000634FA000014519E4B76700200547238CBD
:10354000E7B80545B24022449244410182800145DA
:10355000D5BFB767002083C787B9638A071E397153
:1035600006DE22DC26DA4AD84ED652D456D25AD0BB
:103570005ECE62CC66CA6AC86EC6631F050E37642B
:103580000020034594B8B7640020376A0020EF405C
:103590005013B7B700002A86AE8603A507A483A5FB
:1035A00047A4B70B0020EF00707C2A8903C544C5EF
:1035B000AE89930D7007EF40D010B7B700002A8690
:1035C000AE8603A587A483A5C7A4130ACABD138B1F
:1035D0000195EF00B0792A86AE864A85CE85EF3018
:1035E000C04F034D94B883CA44C52A89AE896A8402
:1035F0009384418D938BCB3563F18D02F2506254ED
:10360000D2544259B259225A925A025BF24B624C3E
:10361000D24C424DB24D216182803305A441EF402E
:1036200030034A86CE86EF30404B2A8C5685AE8CCE
:10363000EF4010022A86AE866285E685EF20F056BE
:10364000EF40807A33076401034707000948B30756
:1036500094002A97334707032380A7009308C00BE1
:10366000B30744012380E700B30714030504DE9782
:10367000AA972380070049B78547E311F5F8376417
:103680000020034594B8B7640020376A0020EF405B
:103690005003B7B700002A86AE8603A507A483A50A
:1036A00047A4B70B0020EF00706C2A8903C544C5FE
:1036B000AE89130D7007EF40D00001468146EF0040
:1036C000F06A2A86AE864A85CE85EF300041834A6D
:1036D00094B883CD44C52A89AE89568493840195D4
:1036E000130ACABD138B418D938BCB35E3688DF0E4
:1036F0006E85EF40E0752A8C33055441AE8CEF4067
:1037000020754A86CE86EF30403D2A86AE86628599
:10371000E685EF309079EF40206D33076401034771
:1037200007000948B30794002A973347070323800B
:10373000A7009308C00BB30744012380E700B30739
:1037400014030504DE97AA972380070045B78280FB
:10375000B767002003C787B985476318F704B70523
:103760000020130780021305C00B9385C53513088D
:10377000B00BB94813035006B307A70201468146B0
:10378000AE9783CE070003CE170085066383CE0174
:1037900005068507E39706FF63C7C8000507E31D15
:1037A00067FC01458280054582808280411126C2E6
:1037B00083C7518C06C622C4A9E3EFF05FCC39C1A0
:1037C00003C7418C8947631FF70283A7C185A5EB17
:1037D00003A7018C09E71307500623A0E18CB76704
:1037E000002003C5A7B8EFF0DFD6154723A4E18A70
:1037F00003A7C1858547630BF706B2402244924474
:103800004101828083A7C1859DEB3767002083C774
:10381000518C0347E7B8D98F9DE303A5C18CB767E7
:1038200000209387C7B9AA9783C5F7FFF52A01C976
:10383000094723A4E18A8547A382F18C55BFEFF0A5
:103840001FA221C983C7418C89466384D70403A67C
:10385000C18621C2631ED50037670020834787D900
:103860008507230CF7D8854723AEF184254739A86F
:103870008546E31FD5F6B766002083C686D9ADDA44
:1038800085072382F18C23AE0184114723A4E18AAA
:10389000ADB7EFF0FFEB09C983A7C1886356F0000D
:1038A000994723A4F18AA9B7EFF03F8519C185474D
:1038B000CDBF23A4018A2DBF5D71B7B70000A2C49C
:1038C0005AD85ED603AB07A683AB47A613840195EF
:1038D000A6C2CAC04EDE56DA62D466D286C652DCB2
:1038E0006AD06ECEAA842A9405499309A5FFA94AF5
:1038F000514CF94C63543907034AF4FF63000A1230
:103900008347D4FFB307FA40950763E9FA1083476A
:10391000B4FFB307FA40A9076362FC10834794FF22
:10392000B307FA40BD0763EBFC0E03453400EF40DC
:1039300040592AC452852EC6EF40A0582246B246AE
:10394000EF00D0425A86DE86EF3060746348050C83
:10395000B3872441376700202304F7B8938B64FFB3
:1039600063467901B7670020238407B8B7B7000022
:1039700003AA07A683AA47A61384418D2694054B64
:10398000130CB00BA94C514DF94D63543B0703493F
:10399000F4FF630889098347D4FFB307F94095070B
:1039A00063E1FC088347B4FFB307F940A907636AE2
:1039B000FD06834794FFB307F940BD0763E3FD06A7
:1039C00003453400EF40E04F2AC44A852EC6EF403D
:1039D000404F2246B246EF0070395286D686EF300D
:1039E000006B63400504B3846441B7670020238EF5
:1039F00097E863467B01B7670020238E07E8B6404F
:103A0000264496440649F259625AD25A425BB25B46
:103A1000225C925C025DF24D6161828005097D1439
:103A2000D1BD050B7D1495B7CD4763DEA70AB70757
:103A3000002037060020938777411306C63581465C
:103A40001308C00B9308C0037D531307700721A010
:103A50007D17630D6700330507033E950345050099
:103A600065F91305E7FCE3E5A8FE85061387F7FF74
:103A70006384C700BA87D1BF9307300B63C5D706ED
:103A800001112E8506CE22CC26CA37640020EFF025
:103A9000BFE20345C4E9B7640020EF4080422AC476
:103AA00003C584B82EC6EF40C0412246B246EF009F
:103AB000F02BB7B7000003A607A583A647A5EF30F4
:103AC000E067634CA00003C784B8CD4763F7E70005
:103AD0000347C4E9054563E3E7000145F24062445A
:103AE000D24405618280014582801D7162DC86CEF0
:103AF000A2CCA6CACAC8CEC6D2C4D6C2DAC05EDEBE
:103B000066DA6AD86ED62ACC79472E8C6347B7041A
:103B1000138701952E97834607001307800263667B
:103B2000D7020547130500056319E622F6406644EF
:103B3000D6444649B649264A964A064BF25B625C31
:103B4000D25C425DB25D2561828065476347B70004
:103B5000094713058007E30BE6FC05476317E620DA
:103B6000B7B6000083A786A503A8C6A50149814969
:103B7000938C0195E29C814D4A8ACE8A4A8BCE8BEA
:103B80004A84CE8401473EC442C603C51C00330D9F
:103B9000EC403ACEEF40E0322AC803C50C002ECAF2
:103BA000EF4020324246D246EF00501C2246B24639
:103BB000EF30E04D72476348050C850D05079547CA
:103BC000FD1CE314F7FC3305B741EF4060282A8D54
:103BD000AE8D2A86AE862285A685EF2010702A84B7
:103BE000AE846A86EE865A85DE85EF20106F2A8BBA
:103BF000AE8B2286A6866A85EE85EF30805F5A8678
:103C0000DE862A8DAE8DEF30C05E2A86AE86528566
:103C1000D685EF3090292A8AAE8A2286A6866A85C2
:103C2000EE85EF30005D2A86AE864A85CE85EF3080
:103C3000D0272A86AE865285D685EF20106A0146A7
:103C40008146EF2080762A896245AE89EF40402088
:103C50004A86CE86EF30E0592A8AAE8A4A86CE86D8
:103C60002285A685EF30E0582A86AE865A85DE8505
:103C7000EF30B0232A86AE865285D685EF20E072DB
:103C8000EF40801665B56A853ACEEF40601C2A8603
:103C9000AE862285A685EF2040712A843305AD03C8
:103CA000AE84EF40E01A2A86AE864A85CE85EF20A4
:103CB000C06F83C80C002A89AE89468546C8EF408C
:103CC00020192A86AE865A85DE85EF20006EC2480E
:103CD0002A8BAE8B3385A803EF4080172A86AE86E9
:103CE0005285D685EF20606C2A8AAE8A7247F9B574
:103CF0006A853ACEEF40C0152A86AE862285A68513
:103D0000EF20A06A2A843305AD03AE84EF4040144F
:103D10002A86AE864A85CE85EF20206983C80C00AE
:103D20002A89AE89468546C8EF4080122A86AE862B
:103D30005A85DE85EF206067C2482A8BAE8B3385BB
:103D4000A803EF40E0102A86AE865285D685EF2084
:103D5000C0652A8AAE8A7247BDA065476347B7002F
:103D6000094713058007E303E6DCB7B6000083A725
:103D700086A503A8C6A501498149938C418DE29C83
:103D8000814D4A8ACE8A4A8BCE8B4A84CE840147A3
:103D90003EC442C603C51C00330DEC403ACEEF4092
:103DA00040122AC803C50C002ECAEF4080114246BB
:103DB000D246EF00A07B2246B246EF30402D72473C
:103DC000E34805F2850D05079547FD1CE314F7FC54
:103DD000DDBB7971B76700204AD03769002022D453
:103DE0000347C9E903C487B826D206D64ECE52CCC3
:103DF00056CA5AC85EC6BE84635387003A84376A7F
:103E00000020B70A0020130B7007130ACABD930BDA
:103E1000C00B938ACA35635D8B00B2502254925412
:103E20000259F249624AD24A424BB24B4561828002
:103E300083C584B805462285F915EFF01FCB83456D
:103E4000C9E9AA8909462285F915EFF01FCA338707
:103E5000A90089463347D702B30744012380E7000E
:103E6000B30774030504D697BE9923800900AA9767
:103E7000238007004DB7011122CC83C7518C06CE99
:103E800026CA4AC84EC6E9C703A70181854793845D
:103E90000181631AF70283A7C18C376700201307DB
:103EA000C7B9BA9703C5F7FFEFF01FA103C7319158
:103EB0009307300B63E7E70003C7F198A94763E472
:103EC000E700EFF01FF183C7518C0547639AE706BF
:103ED0009840631FF70603A7C18C954763CAE7069E
:103EE000894723A00400A382F18CEFF00FA13335A2
:103EF000A00083C7518C090523A4A18A8D4963853D
:103F0000370303A5C18CB76700209387C7B9AA9769
:103F100083C5F7FFEFF05FB11DC585479CC089479A
:103F2000A382318D23A4F18A03A7C18C854763C185
:103F3000E702376700202307F7B8A382018C09A89E
:103F40000947E384E7FA03C7518C8D47E30EF7FC7A
:103F5000F2406244D2444249B24905618280B76668
:103F6000002081479386C6D9130700103386D700F7
:103F7000230006008507E39BE7FE99679387078286
:103F8000AA971308C00B01473306E5000346060055
:103F9000050736968345060085052300B600E31520
:103FA00007FF1305C50BE390A7FE82801D713767DD
:103FB0000020D6C286CEA2CCA6CACAC8CEC6D2C45B
:103FC000DAC05EDE62DC66DA6AD86ED68146930AB3
:103FD000C7D9930500103386560103460600939710
:103FE0000601C1870DCE9306F00F1308F00F63880A
:103FF000D7009306E00F1308E00F6397D702F6404F
:104000006644D6444649B649264A964A064BF25B70
:10401000625CD25C425DB25D42852561828085062C
:10402000E39BB6FA930700103E89BE86014C130647
:10403000F00F93950601C185635EB60EBE86014AF8
:104040009305F00F13960601418663DCC50EB7B6E3
:10405000000083AD86A603ADC6A60148814C814908
:10406000930EE00FE3CDFEF8B3862A0103C40600E9
:1040700042CE3ECCA299330489024E85EF30706463
:104080002A8B6285AE8BEF30D0632AC433053C4166
:104090002EC6A29CEF30D05B2AC866852ECAEF30B0
:1040A00050625A86DE86EF2050232A8433059A41D7
:1040B000AE84EF30F0594246D246EF2010222A86D5
:1040C000AE862285A685EF30405E2246B2462A841F
:1040D000AE845A85DE85EF2050202A8BAE8B224697
:1040E000B2464245D245EF20501F2A86AE865A85F9
:1040F000DE85EF3000102286A686EF30800F228604
:10410000A686EF30000F2A86AE86AA842E846E859E
:10411000EA85EF30A002E2477248930EE00F635643
:10412000050013F8F70FA68D228D8507C207C187FA
:1041300005090DBFB385DA0083C5050085062E9CF1
:10414000CDBD3386DA00034606003306D602850667
:10415000329ACDBDB767002083C847B83707002023
:1041600099651307C73501461303C00B9385058274
:104170003308C5008147B306F80083C60600330E36
:10418000F7008507B3B61601FD162300DE00E394A1
:1041900067FE1306C60B1307C70BE31BB6FC828032
:1041A000B705002085461305C00B9385C53513035D
:1041B000F00F130ED01F930EE01F7D5F1308B00B9E
:1041C00093087007B387A6020546AE9703C717008A
:1041D00005061DE783CFD70B03C757F47E9783CF20
:1041E00027007E9783CF07007E9763D4EE00A380DD
:1041F000E7018507E31C06FD8506E39516FD828031
:10420000E31967FE83CFD70B03C757F47E9783CF9D
:1042100027007E9783CF07007E97E34CEEFCA380B8
:104220000700C1BF411106C622C42A84EFF03FD364
:10423000EFF0DFD7B76700202382A7B82285EFF021
:104240007FF12244B24041016FF09FF58547631A28
:10425000F5009306003105468545130520086FD00B
:104260009FE089476319F5009306003105468545AF
:1042700013053008EDB78280056539718545130552
:10428000058006DE22DC26DAEF10C01393079002C9
:1042900085442314F100280085472305F10026C634
:1042A000EF00F072373401409307F00B3ECC2C083E
:1042B0009307C016130504C03ECE23000102EF1081
:1042C000801D0546130504C08545EF1020591305D0
:1042D00004C08145EF10605585450965EF10800EDB
:1042E0009307C01308082318F1002309910026CA78
:1042F000EF00F06D9307F0593ED289679387F7700E
:104300004C10130504403ED423060102EF10A01800
:104310000546130504408545EF104054130504403D
:104320008145EF108050ED22F2506254D254216149
:104330008280411106C6EFD09F8DEFD0DF950145F9
:10434000EFC0DF810545EFC07F8105455128094554
:1043500041280D4571201145612015455120194511
:1043600041200945EFD09FA60D45EFD03FA611454E
:10437000EFD0DFA51545EFD07FA51945EFD01FA5DC
:104380000545EFF0BFEC0945EFF05FECEFD02FC72C
:10439000F122EFD09FE31305B00B23A0018CEF4077
:1043A0007032B767002023AAA7B81307850AAA8727
:1043B00023A007009107E39DE7FE91471CC18D47AD
:1043C00005472324F50AB240894758C15CD178C11A
:1043D0007CD12322E5082322F50A41016FF0DFE9B1
:1043E000411122C406C685472A846314F502930648
:1043F00080340546814513050004EFD0DFC6994798
:104400006315F40693068034054681451305500470
:1044100025A089476319F500930680340546814538
:1044200013051004D9BF8D47631DF5009306803432
:1044300005468145130520042244B24041016FD056
:104440009FC291476319F500930680340546814564
:1044500013053004D5B79547E313F5FA9306803476
:104460000546814513054004C1BFB24022444101C5
:104470008280411106C622C401ED13854182EFD02E
:104480000FAD138541822244B24041016FD02FAC61
:1044900085476319F5001385C182EFD04FAB1385B3
:1044A000C182D5B789476319F50013858182EFD0A2
:1044B0000FAA13858182C1BF91476319F500138547
:1044C0004181EFD0CFA81385418175BF8D47631916
:1044D000F5001385C181EFD08FA71385C18165B722
:1044E00095476319F50013858181EFD04FA6138599
:1044F000818151BF99476319F50013850182EFD07F
:104500000FA51385018241B7B24022444101828048
:10451000411122C41385418A06C6EFD04FA31385EB
:10452000418A2244B24041016FD06FA241111385EC
:10453000418A06C6EFD0AFA1B2401385C1824101C6
:104540006FD0EFA041111385C18206C6EFD02FA016
:10455000B2401385418A41016FD06F9F930680045A
:10456000054681451305A0066FD0FFAF011122CC8F
:1045700026CA4AC84EC652C456C206CE3289B68929
:104580002A8AAE8AEF306012014681462A84AE84C0
:10459000EF20D03A635A05005286D6864A85CE85EA
:1045A000EF30A0102A84AE842285F2406244A685B2
:1045B0004249D244B249224A924A056182807571C9
:1045C0008547EECE376E0020AA8D37650020238800
:1045D000F18CA303FEB8A386F19C9307C5BD3ED61C
:1045E0009387418DDAD83ECC138B01959387019543
:1045F00037B600003ECE832706A222C5B76600204C
:10460000B7620020B76E00201307700726C34AC1A7
:10461000CEDED2DCD6DADED6E2D4E6D2EAD006C7E7
:10462000238E06B823A6018C23A402EA23A4019CAE
:1046300023A4018CA3820EB82386E19C7ED076D27F
:1046400072C81AD446CA032846A215663ED89307F4
:10465000267C3EDC9387C6B99304C5BD938A418D01
:10466000130A70079E8B168CFA8C42DA1309F00F2E
:104670009309B00B054D3EDE93077007631AFA18D5
:1046800095679387177C3386FD009306E005034505
:1046900016009385F6FF631B251503450600631777
:1046A0000514F247A38BD706E2579306E00533863D
:1046B000FD0003450600938516006311251503458B
:1046C0001600631D0512E247A38BD70683C67A073F
:1046D0009307E00583457B076380F60A638EF50840
:1046E000894763E6B7029307700B63F2D70213069C
:1046F000CAFE9307A00563ECC70003A6C18CF2575E
:104700003305F60005062300450123A6C18C639DF1
:10471000051C6387360103268CEA05062324CCEAB0
:104720009307500763CA470503C68A07FD573385B9
:10473000C6406351F502C24703C577B8631CA501A3
:10474000631A3601925713061A00A382C7B8C247EC
:10475000A38307B803468B073385C540635EAD006E
:10476000D24703C5D19C6319A50119E6A257238638
:10477000419DD247A386019CAE968586A38BD40625
:104780007D1AFD14FD1A7D1BE3180AEEEFF00F826F
:10479000EFF06FEE83A6818A05476394E600EFE0B1
:1047A0005FC5B70600201305C00B9386C6351306F8
:1047B0007007B25733874701834507003307AA02C2
:1047C000050A36972E9723000700E314CAFEBA4065
:1047D0002A449A440A49F659665AD65A465BB65B49
:1047E000265C965C065DF64D496182807D16AE863C
:1047F000E39F05E8F247A38B07067DB50506AE8665
:10480000E39935EBE2471307B0FBA38BE7067DBDC9
:1048100003C58A07EF30E06A2AC403458B072EC61A
:10482000EF30206A2A86AE86AAC4AEC62245B245BB
:10483000EF20B06701468146AAC0AEC2EF2010103B
:10484000064796472648B648635A05002246B246B0
:104850004285C685EF2070652A87AE874256D256BC
:104860003A85BE85EF20B002634905069307C00B69
:104870003306FA0283C68407B6856E968DC1B308E7
:10488000B60083C808001385F5FF639E2803B308AC
:10489000A60083C8080063980802A30BBB06930711
:1048A000A00BE3C5D7E23305D60003450500938589
:1048B0001600631E25013305B6000345050001E916
:1048C000A38BDA0621B5A30B0B06AA8545BF930778
:1048D000B0FBA38BFA06AE86D9B79307E005A38B8E
:1048E000FA06A30BFB06DDB3E39C36E303C6018D9A
:1048F0006317A60182572388018C23A4418D03A648
:10490000819C050623A4C19C21BDB7660020130627
:10491000D002938786C523ACC6C4896679471386BF
:1049200006F498C7D0C798D71385C6D41306800756
:104930001307100490CF98D3C8DF056713065005FE
:104940001305B00490CB9305400B138686B5A8C31E
:104950001305C757D0CF8CDF13060777E8C7ACD74E
:1049600013057008D145D0D7A8CB13060005ACDFDE
:104970001305E72893058002130707FAF8D7F8DF35
:1049800023A2070023AA070023A2070223AA0702E3
:1049900090DB23A4070423A2070423AC070423AA63
:1049A0000704E8CF23A20706B0D323AA0706ACDB8F
:1049B0001307000F938686CE23A4E70837B700209D
:1049C00023A6D7089306000023A2070823A0C70840
:1049D0002328D76C9307076D37B70020D4C394C73B
:1049E000D4C794CB9307C76ED4C394C7D4C794CB12
:1049F0002326D76E8280797106D622D426D24AD059
:104A00004ECE52CC2E894CC14C452A844A85B28464
:104A1000EF30A051B7670020938787C59204BE94FA
:104A2000AA8948C48844EF4020300C442A8A4A8529
:104A3000EF30906BAA855285EF3010422A8A884069
:104A4000EF40802ECA85EF303041AA855285EF3085
:104A5000C04D2A8AC840EF40202DCE85EF30D03F90
:104A6000B7B7000083A507A7EF30D002AA8552850B
:104A7000EF30A04BC44408C82AC62685EF40C02AA0
:104A8000B245EF30804AB7B7000083A547A7EF30A3
:104A9000902B63490500096513050571058DEF40ED
:104AA000A02808C833059040EF400028AA85084890
:104AB000EF30D0316345A000930700001CC82324C9
:104AC00024010848B250225492540259F249624AD1
:104AD00045618280011122CC376400201304C4BDDB
:104AE0000345A40526CA9304E0053385A44006CEF9
:104AF0004AC84EC6EF30C035B7B7000003A687A737
:104B000083A6C7A7EF20E06E2A8903456404AE8917
:104B10003385A440EF30C033B7B7000003A607A821
:104B200083A647A8EF20E06C2A86AE864A85CE850C
:104B3000EF10B0072A8903451404AE893385A440D9
:104B4000EF300031B7B7000003A687A883A6C7A837
:104B5000EF20206A2A86AE864A85CE85EF10F004C3
:104B6000EF308028F2406244B767002023ACA7BC36
:104B7000D2444249B24905618280397106DE22DCA5
:104B800026DA4AD84ED652D456D25AD05ECE62CC0D
:104B9000A5476398F6020564930544320145EFC0CA
:104BA0000F82930544196254F250D2544259B259BB
:104BB000225A925A025BF24B624C054521616FC04A
:104BC0000F803764002085472A892E8BB289130411
:104BD00084C5639EF60483A70188B1CB83A7C186F1
:104BE000B9E70325C408EF402014B705008021462B
:104BF000AA84B3C525015A85EFF0FFDFAA85268573
:104C0000EF30A032EF40E00C93150501C181014562
:104C1000EFB0FFFA0325C408EF4000112A842146B3
:104C2000CA854E85EFF03FDDAA852285F9A003A74E
:104C3000C18805463E8C9305F7FF6365B60083A7E0
:104C40008186E1C7139A4600B30744010546C4476D
:104C500081476356E6009387B6FFB337F00013062B
:104C6000C0AEB387C702814ABE9403C6418CBE8BD7
:104C700019C2932A2700B70500803686B3C52501DF
:104C80005A8536C6EFF03FD72AC41305A0AB33854B
:104C9000AA0252942695EF402009A245EF30E02861
:104CA000EF40200393150501C1810145EFB03FF1AD
:104CB00003A7C188054640448147B2466356E600D3
:104CC0009387B6FFB337F0001306C0AEB387C702B1
:104CD00081443E9483C7418C99C393242700CA859D
:104CE00036864E85EFF03FD12AC41305A0AB33853D
:104CF000A4022295EF404003A245EF300023EF309D
:104D0000507D93150501C18179BD9547638AF604ED
:104D1000856713866600B7B400209387471923A4DC
:104D2000F46E931746003E94484432C437B40020D2
:104D3000EF30907F22462A8ACA854E85EFF0BFCB9E
:104D4000AA855285EF30601EEF30907283D5846E55
:104D50002322A46E0145EFB09FE68355446EA1B5B2
:104D6000684CEF30707CB70500801546AA84B3C547
:104D700025015A85EFF03FC8AA852685EF30E01A55
:104D8000EF30307593150501C1810145EFB03FE368
:104D9000684CEF3070792A84154659B501A001A0FE
:104DA00001A001A001A001A001A001A001A001A0FB
:104DB00001A001A001A001A001A001A001A001A0EB
:104DC00001A001A001A001A001A001A001A001A0DB
:104DD00001A001A001A001A001A001A001A001A0CB
:104DE00001A001A001A001A001A001A001A001A0BB
:104DF00001A001A001A001A001A001A001A001A0AB
:104E000001A001A001A001A001A001A001A001A09A
:104E100001A001A001A001A001A001A001A001A08A
:104E200001A001A001A001A001A001A001A001A07A
:104E300001A001A001A001A001A001A001A001A06A
:104E400001A001A001A001A001A001A001A001A05A
:104E500001A001A001A001A001A07390123497C18C
:104E6000FF1F9381A1B217B100201301A11917658B
:104E700000001305E50597B5FF1F9385A518138658
:104E8000818563FAC5008322050023A05500110522
:104E90009105E3EAC5FE138581859775002093850A
:104EA000E59C6377B500232005001105E36DB5FE91
:104EB000FD42739002BCFD4273904280B7820000B5
:104EC0009382828873A0023097B2FFFF9382021709
:104ED00093E2320073905230EF10003B97C2FFFF15
:104EE0009382C29D73901234730020304111B72712
:104EF000014006C693870740631CF50085451305EE
:104F00000020FD29814513050020B2404101CDA9B3
:104F1000B737014093870780631AF500854513056D
:104F20000040F929814513050040C5B7B240410151
:104F300082805C413707F1E01307F7EF944D7D8FD6
:104F40009C41D58FD44DD58FD441A206D58FD98F12
:104F50005CC11C4537F7F1FF1307D77FD4457D8F20
:104F60009C49D58F94458606D58FD98F1CC55C5535
:104F7000370710FF7D177D8F83C74501FD1793F716
:104F8000F70FD207D98F5CD582801C4589C593E77E
:104F900017001CC58280F99BEDBF1C4593E7870075
:104FA0001CC5828008450D81058982801C4593E7D8
:104FB00047001CC5828008450981058982805841C7
:104FC000032805004C4537060140930706403E97ED
:104FD0009346F8FFB1C583250640F58D2320B640E2
:104FE000D043F18ED4C31443B3E6060114C3184171
:104FF00090479346F7FF758E90C7D047F18ED4C780
:10500000144541466399C6009447D98E94C7D44746
:10501000558FD8C78280B6979443558F98C38280A6
:105020001C43F58F1CC38280B707014013870740DC
:1050300083A70740584B698F09C77D8D3335A00082
:10504000828001458280B707014023AAA740828061
:105050009C4513F7070113F8F70001C7D8413368DF
:10506000E80083D5050013F7F50F39C318418146D1
:10507000854E3D4F930F800293028004214E33965C
:10508000DE00B3F8C50063111603939826003313AE
:105090001F011343F3FF3377E300B318180133E71D
:1050A000E800639FF70550C98506E39AC6FD18C15D
:1050B0001307F00F6375B70454412146854E3D4FE9
:1050C000930F800293028004414EB398CE0033F7D1
:1050D00015016392E8021317260001173313EF003E
:1050E0001343F3FFB376D3003317E800D98E639DE3
:1050F000F701232A15010506E319C6FD54C1828074
:10510000E39457FA10C94DB7E39757FE23281501CA
:10511000DDB719C20CC982804CC98280B707014033
:1051200063550504D44FB7073000131705013376D4
:10513000F5004183631DF602370600F17D1637083E
:105140000140B3F7C60083264800758E2322C800AD
:1051500099C59356550192063317D700D98F370753
:105160000140635E05025CCF8280D4436DBF93171C
:10517000B50063D007029357050113F6F7008D477A
:10518000B397C70093C7F7FFF58FB706000FD58F0A
:10519000C1B7935755019207B317F700E5B75CC342
:1051A000828013F7C50F93F73500B7050140BA9514
:1051B00094458A073D473317F7001347F7FF758F6C
:1051C00098C598453315F500598D88C58280938719
:1051D000C18A94430347050089E683472500920767
:1051E00031A8944305466391C604834725000346CE
:1051F000150092076314D60093E707F8B7E600E0BE
:1052000093F7F70FBA962380F640854693575700D9
:105210003397E6005441ADC6938707048A07B7E683
:1052200000E0B69798C382808C4389466393D50289
:1052300083461500834725006365D6008A06B69726
:1052400079BF9386E6038A06B69793F7F70F92071E
:1052500065B790438D46631ED6008346150083478D
:1052600025006364D6008606D9BF9386C6078606E6
:10527000E1BF94439147E39AF6F88347150085B759
:105280009387070661BFB7160240DC4251777D174E
:10529000F98F5D8DC8C28280371702405C4391460A
:1052A000B18B6385D700A1466386D706B7177A000E
:1052B000938707201CC1371602405C423707002045
:1052C0001307470D9183BD8BBA9783C607001C4116
:1052D000B3D7D7005CC15442A1829D8ABA9683C6D7
:1052E0000600B3D6D70014C55442AD829D8A3697C6
:1052F00003470700B3D7E7005CC55842398393766C
:10530000370013870183369703470700B3D7E702B7
:105310001CC982805C4354434167C983F98E37F7C7
:10532000FF1F0327C770BD8B89071316170163483A
:105330000600454601476392C702C94739A8094795
:105340006389E7023D476388E70241476388E702D4
:10535000454601476393C700C14785E6B74602400B
:1053600083A60680C18A8DC6B7167A00938606206A
:1053700025A00147D9B70547B547C5B70147BD4780
:10538000E9BFB7160240D4421396E600E35E06FC7E
:10539000B7163D0093860690B387D7021CC101DF84
:1053A0001C41858301BF99C5371702405C4B5D8D59
:1053B00048CB8280B7170240D84B1345F5FF798D53
:1053C000C8CB828099C5371702401C4F5D8D08CF2E
:1053D0008280B7170240984F1345F5FF798D88CF2B
:1053E000828099C5371702405C4F5D8D48CF82801F
:1053F000B7170240D84F1345F5FF798DC8CF82808B
:1054000099C5371702405C475D8D48C78280B71742
:105410000240D8471345F5FF798DC8C782800357EE
:1054200005008D679387070483D625007D8F83D77A
:105430000500D58F83D64500D58F83D66500D58FDF
:1054400083D68500D58F83D6A500D58F83D6C5009A
:10545000D58F83D6E500D58FD98F2310F50003575C
:10546000C501FD779387F77FF98F231EF50083D75A
:1054700005012318F50082808357050091C593E745
:1054800007042310F5008280C207C18393F7F7FB5E
:10549000C207C183FDB78357050037370140930624
:1054A00007C0C207C1836300D504B7060040630C80
:1054B000D502938606406308D502B71600401386CE
:1054C00006806302C502938606C0630ED5001307EB
:1054D0000740630AE50037570140930607C063049D
:1054E000D5006317E50003D7250093F7F7F8D98FA8
:1054F00037170040630DE500130707406309E50017
:1055000093F7F7CF03D76500C207C183D98F231064
:10551000F50083D745002316F50283D70500231431
:10552000F502B7370140138707C0630EE500938784
:105530000740630AF500B7570140138707C06304AB
:10554000E5006316F50083C785002318F50285473B
:10555000231AF50082808357050203D6050003D87D
:105560002500C207C183F99BC207C1832310F5023E
:10557000835705028356450003578501C207C1833F
:10558000420741831377C7F8518F03D68500F59BF7
:10559000C20633660601D18F37360140130806C0B4
:1055A000C182630E050113060640630AC500375623
:1055B0000140130806C0630405016313C50203D646
:1055C000A500DD9B03D8E500D18F03D64500ED9BF8
:1055D00093F6F6CFD18F03D6C50033660601D18E80
:1055E0002312D500231CE50003D76500231AE5022A
:1055F0002310F50282808357050265771307F7CFE2
:10560000C207C183BD9BC207C1832310F502835724
:1056100005028356450003D88500C207139606018C
:1056200083568501C18393F7F7FD758F83D60500F7
:105630004182A206558F83D6250042074183B3E6F7
:1056400006019206D58FB7360140C207138806C0FF
:10565000C183630E050193860640630AD500B756E1
:105660000140138806C0630405016311D50483D685
:10567000A50093F7F7F703D8C5009206D58F83D618
:105680004500C207C183920693F7F7FBD58FFD76DD
:105690009386F63FF18E03D6E500C207C1833366D9
:1056A00006010A06D18E1396060141822312C50017
:1056B000231CE50003D76500231CE5022310F50237
:1056C00082808357050203D88500C207C18393F700
:1056D000F7EFC207C1832310F502835705028356F3
:1056E00045000357C501C20713960601420783D63A
:1056F000050041831377C7F8558F83D62500C183F2
:1057000093F7F7DFB3E60601A206D58FB73601405F
:10571000C207138806C04182C183630E05019386C8
:105720000640630AD500B7560140138806C06304DB
:1057300005016312D504FD769386F67FF58F83D637
:10574000A50003D8C500A206D58F83D64500C207A1
:10575000C183A20693F7F7BFD58FF576FD16F18EBC
:1057600003D6E500C207C183336606011206D18E57
:105770001396060141822312C500231EE50003D7BC
:105780006500231EE5022310F502828003570502FF
:10579000FD77FD17F98F2310F50203580502835694
:1057A00045008357C50165771396060183D605002A
:1057B0001307F7CF7D8FF977A206FD17558FB3F743
:1057C000070183D6250003D8850042074182B3E64E
:1057D0000601B206D58FB7360140C207138806C04E
:1057E0004183C183630E050193860640630AD50099
:1057F000B7560140138806C063040501631CD50039
:10580000F176FD16F18E03D6C5001A06D18E1396D9
:10581000060141822312C500231EE50003D765005F
:105820002310E5042310F50282808357050091C5FB
:1058300093E717002310F5008280C207C183F99B0C
:10584000C207C183C5BF8357450491C52167D98F5E
:105850002312F5048280C607C583DDBF8357C500C8
:1058600009C6DD8D2316B500828093C5F5FFFD8D39
:10587000D5BF83578501C207C183DD9BDD8D231C06
:10588000B500828003578501FD779387F77FF98FF5
:10589000A205CD8FC207C183231CF50082808357E8
:1058A000C501C207C183DD9BDD8D231EB50082804B
:1058B0000357C501FD779387F77FF98FA205CD8F39
:1058C000C207C183231EF50082808357050292051B
:1058D000C207C18393F7F7FDCD8FC207C1832310A1
:1058E000F5028280035705028547B397B70093C737
:1058F000F7FFF98F2310F50283570502B315B600A1
:10590000DD8DC205C1812310B50282802312B5024C
:105910008280035505016D8D3335A000828093C5CB
:10592000F5FFC205C1812318B500828083570501A8
:105930000355C500ED8F4205418189C76D8D333513
:10594000A00082800145828093C5F5FFC205C18118
:105950002318B500828083560501F577FD17F58F72
:1059600083D66500397122DC06DED58F03D7C500EA
:105970002318F5008356C500FD779387379FF58F71
:1059800083D645002A842EC6D58F83D68500D58F31
:1059900083D6A500D58F2316F50083574501C2078E
:1059A000C18393F7F7CFD98F231AF5006808EFF07A
:1059B000BF8EB747014093870780B245631EF4044A
:1059C000A2578356C4006547B387E702C206C18663
:1059D000984163D5060406070356C4004206B3D7B0
:1059E000E702130740064186B3D6E702B3F7E702A2
:1059F0009206635706028E0793872703B3D7E70201
:105A000013F77700B367D700C207C1832314F400EC
:105A1000F250625421618280925765B70A076DBFC8
:105A2000920793872703B3D7E702BD8BD58FE9BFD2
:105A300081C98357C5000967D98F2316F500828075
:105A40000357C500F977FD17F98FC5BF13F7F50F99
:105A500085471583B395B7006319F7009307C50011
:105A6000984301CED98D8CC3828089469307450126
:105A7000E318D7FE93070501E5B793C5F5FFF98D48
:105A8000DDB793F5F51F2312B5008280035505009D
:105A90006D8D3335A000828013F7F50F8546158391
:105AA000B397B6006313D7020357C500F98F0357A6
:105AB000050001454207418381CB0545A181B3150E
:105AC000B5006D8F3335E000828089466315D700BD
:105AD00003570501E1BF03574501C9BFA1818547B0
